:100000000C94F6000C9413010C941C0F0C94130127
:100010000C9413010C9413010C9413010C94130110
:100020000C9413010C9413010C9413010C94130100
:100030000C9413010C9413010C9413010C941301F0
:100040000C9413010C9413010C9413010C941301E0
:100050000C9413010C9413010C9413010C941301D0
:100060000C9413010C9413010C9413010C941301C0
:1000700000000000005C00000C000C007C287C28C4
:1000800058DC68002410480028542840000C000068
:10009000007884008478000054385400107C1000EC
:1000A00080400000101010000040000060100C00A4
:1000B00038543800487C40004864580044542C00B0
:1000C0001C107C005C5424003854240064140C0080
:1000D00068542C0048543800004800008048000054
:1000E0001028440028282800442810000454080040
:1000F00038445C00781478007C5428003844280088
:100100007C4438007C5444007C140400384474005F
:100110007C107C00447C440020403C007C106C003F
:100120007C4040007C187C0078103C00384438004B
:100130007C1408003844B8007C146800485424003B
:10014000047C04007C407C003C603C007C307C00F3
:100150006C106C000C700C0064544C00007C44006B
:100160000C106000447C00000804080080808000BF
:1001700000040800304878007C48300030484800CF
:1001800030487C00306850001078140090A8780047
:100190007C08700050744000808074007C106800FF
:1001A000447C4000781078007808700030483000B7
:1001B000F82810003048F80078100800505828003F
:1001C000083C4800384078003840380078207800F3
:1001D0004830480098A0780048685800107884009B
:1001E000007C0000847810003078783011241FBE25
:1001F000CFEFD4E0DEBFCDBF13E0A0E0B1E0EEE48E
:10020000FCE202C005900D92AA3AB107D9F724E0AA
:10021000AAEAB3E001C01D92A930B207E1F70E943B
:1002200088100C9425160C9400008430910528F455
:1002300080549E4FFC018081089580E00895399A92
:1002400000C000C00000399800C000C00000089540
:100250008FEF8ABB319A1BBA399880E08BBB399AF1
:1002600000C000C00000399800C000C000002FEF9F
:100270003FEF92E0215030409040E1F700C000C0D5
:100280008F5FECCF0C9436030C94F0030E9418049B
:100290000E9417040E9452040E9416042FEF8FEF51
:1002A00092E0215080409040E1F700C000C0F2CFC2
:1002B0000E9432050E9431050E943C050E943005D3
:1002C0002FEF8FEF92E0215080409040E1F700C087
:1002D00000C0F2CF2FEF8FEF9DE121508040904082
:1002E000E1F700C000000E94090684EC91E00E9442
:1002F0000B072FEF8FEF9DE1215080409040E1F7F9
:1003000000C0000060E083E00E944B0680ED91E0B9
:100310000E940B072FEF8FEF9DE12150804090400E
:10032000E1F700C000000895EF92FF921F93CF9372
:10033000DF93CDB7DEB766970FB6F894DEBF0FBE7A
:10034000CDBF83EE91E00E94A8110E94550EFE01E0
:10035000729685E0DF011D928A95E9F783E291E0CC
:100360009D878C8783E08E8781E18F8782E2888BEF
:1003700083E3898BCE010C960E94950ECE010196E7
:100380000E94DA0E8823D1F38EEF91E00E94A8112B
:100390008B811F928F938A818F9389818F938EE0B7
:1003A00092E09F938F930E948B110F900F900F906C
:1003B0000F900F900F908B818823D1F010E089E28D
:1003C000E82E82E0F82EE4E0F0E0EC0FFD1FE10FF4
:1003D000F11D80811F928F93FF92EF920E948B11EB
:1003E0001F5F0F900F900F900F908B81181758F38D
:1003F0008AE090E00E94A11166960FB6F894DEBFE5
:100400000FBECDBFDF91CF911F91FF90EF90089568
:10041000CF93DF93CDB7DEB72B970FB6F894DEBF3F
:100420000FBECDBF8FE292E00E94A8110E94550E30
:1004300085B7837F886085BF8BB780688BBF7894D2
:1004400010E0CE0107964C0185E0B82E93E2C92E4C
:10045000DD24D39423E0E22E31E1F32E00E6F40113
:100460002B2D11922A95E9F7DA82C982EB82FC8260
:100470000D831E83CE0101960E94950E1F5F8FEFA4
:100480009FEFEEE081509040E040E1F700C00000B7
:10049000E6CFCF93DF93CDB7DEB72B970FB6F894A7
:1004A000DEBF0FBECDBF8CE492E00E94A8110E9477
:1004B000790E10E0CE0107964C0185E0782E93E28C
:1004C000A92EBB24B39423E0C22E31E4D32E00E640
:1004D0004EE7E42E42E0F42EF401272D11922A95E6
:1004E000E9F7BA82A982CB82DC820D831E8389E67A
:1004F00092E00E94A811CE0101960E94950E1F5F06
:100500001F921F93FF92EF920E948B118FEF9FEF2C
:10051000EEE081509040E040E1F700C000000F9015
:100520000F900F900F90D8CF0E94780582E090E056
:100530000E9485052FEF8FEF9EE021508040904074
:10054000E1F700C0000082E090E00E948F052FEFED
:100550008FEF9EE0215080409040E1F700C0000006
:1005600081E090E00E9485052FEF8FEF9EE0215003
:1005700080409040E1F700C0000081E090E00E94E0
:100580008F052FEF8FEF9EE0215080409040E1F7E4
:1005900000C0000090E080E00E9485052FEF8FEF03
:1005A0009EE0215080409040E1F700C0000090E0C4
:1005B00080E00E948F052FEF8FEF9EE0215080405A
:1005C0009040E1F700C00000B1CF8A3031F05D9B70
:1005D000FECF8CB990E080E008955D9BFECF9DE05A
:1005E0009CB9F5CF5F9BFECF8CB1082E000C990B08
:1005F0000895220F331F441F551F220F331F441F1E
:10060000551F220F331F441F551F220F331F441F36
:10061000551F0E94B3102150310930BD29B91BB8B4
:100620008EE880BD549A539A62EF72E085EE92E0B4
:100630000C9440115D9BFECF8CB90895FC01892B71
:1006400051F09081992339F031965D9BFECF9CB992
:1006500091919111FACF08958BB1082E000C990B4E
:10066000892F881F8827881F90E008955F9BFECF01
:100670008CB108959C012F5F3F4FFC01849188232A
:1006800041F0F9015D9BFECF8CB9849131968111C7
:10069000F9CF089585B7806885BF80B7806280BF35
:1006A0000895811528E0920758F4209100013091B7
:1006B0000101820F931FFC01608390E080E00895A8
:1006C00081E090E00895811528E0920748F4209198
:1006D000000130910101820F931FFC018081089578
:1006E00081E008950F931F93CF93DF930E94301101
:1006F0008C010E943511D0E0C0E00E943011E091E1
:100700000001F0910101EC0FFD1F8083E0910001D9
:10071000F0910101EC0FFD1F80812196C11588E049
:10072000D80759F7C8010E943511D0E0C0E00E94F7
:100730003011E0910001F0910101EC0FFD1F80816B
:100740002196C11588E0D80791F7DF91CF911F91CD
:100750000F910895E0E0F0E185EA8083A7E9BAE32C
:100760001197F1F700C00000B096E115B8E1FB0762
:10077000A1F785EA8083A7E9BAE31197F1F700C0F2
:100780000000B096E115B0E2FB07A1F72FE58AEE75
:1007900090E0215080409040E1F700C000000895B3
:1007A0008D9A8FB58F778FBD8FB580648FBD8EB5D5
:1007B0008F7E8EBD8EB588608EBD8FB58D7F8FBDCF
:1007C0008FB58E7F8FBD1BBC1ABC8EB58B7F8EBD47
:1007D0008EB58D7F8EBD8EB581608EBD8C9808954F
:1007E00010920010849B08C0000089E090E0849B78
:1007F00003C000000197D9F7849909C0000081E384
:1008000090E003C00000019711F0849BFBCF809122
:1008100000108093AA03809100108093AB03809115
:1008200000108093AC038AEA93E008950895089538
:10083000EF92FF920F931F93CF93CAE010E000E076
:10084000F12CE12C0E94F003FC012081E20EF11C4E
:100850008181080F111DC150A9F7BB989701ADEC1C
:10086000BCEC0E94D51096958795969587959695A0
:10087000879599279093B8038093B70398010E94B6
:10088000D5109695879596958795969587959927EE
:100890009093BA038093B903CF911F910F91FF906A
:1008A000EF900895EF92FF920F931F93CF93CAE0BA
:1008B00010E000E0F12CE12C0E94F003FC0120810B
:1008C000E20EF11C8181080F111DC150A9F797019B
:1008D000ADECBCEC0E94D5107C01F694E794F69444
:1008E000E794F694E79498010E94D510FC01F695E0
:1008F000E795F695E795F695E795CE2F96B393FB9A
:10090000992790F981E098279093C303A701552771
:100910005093BC034093BB03FF27F093BE03E093C7
:10092000BD032091B7033091B803E21658F1332785
:1009300068EF70E0621B730B09F46FC0421B530B2E
:1009400024E6249FC001259F900D11240E949F1032
:100950006093BF032091B9033091BA03C21758F5D1
:100960003327B9016154710909F466C02E1B3F0B8E
:1009700044E6429FC001439F900D11240E949F10A6
:10098000619529C03327B9016454710909F445C040
:10099000241B350B44E6429FC001439F900D112458
:1009A0000E949F1061956093BF032091B90330911D
:1009B000BA03C217A8F2332769EF70E0621B730B0A
:1009C000D9F1E21BF30B24E62E9FC0012F9F900D5F
:1009D00011240E949F106093C0038091C003082ED1
:1009E000000C990B2091BF03022E000C330BAC01BD
:1009F00097FF04C044275527481B590B2531310563
:100A000074F02417350734F585319105BCF48C3E1C
:100A10009F4F1CF184E090E013C060E0C4CF2C3EF7
:100A2000FFEF3F078CF731952195310924173507E2
:100A30005CF382E090E004C060E0CDCF90E080E025
:100A40009093C2038093C103CF911F910F91FF90A8
:100A5000EF90089583E090E0F3CF81E090E0F0CF55
:100A6000089508950E94F003FC01828190E0909324
:100A7000C5038093C40308950E94F003FC01228102
:100A8000822F90E09093C7038093C6036091C403C4
:100A90007091C5032617A8F077274FEF50E0461B4B
:100AA000570B11F19C01261B370B64E6629FC001B6
:100AB000639F900D1124BA010E949F106093C80398
:100AC000089577276115710579F09B01281B390B73
:100AD00044E6429FC001439F900D11240E949F1045
:100AE00061956093C803089560E06093C80308951A
:100AF00087B3806B87BBBE988A9AB89AB99AC09A16
:100B0000C19AC49A82E58DB90895009721F00297A1
:100B100021F0C1980895C0980895C2980895C19A87
:100B2000C09AC29A08958FB9779BFECF8FB108956E
:100B30008FB9779BFECF8FB108958FEF8FB9779BD9
:100B4000FECF8FB108956115710559F0FC01680F52
:100B5000791F81918FB9779BFECF8FB1E617F70789
:100B6000C1F708956115710561F0FC01680F791FE7
:100B70009FEF9FB9779BFECF8FB18193E617F70761
:100B8000C1F70895CF93C82F90E080E00E948505BB
:100B900092988C2F0E94930590E080E0CF910C9466
:100BA0008F05CF93DF93D82FC62F90E080E00E946F
:100BB000850592988D2F0E9493058C2F0E94930596
:100BC00090E080E0DF91CF910C948F05EF92FF923F
:100BD0000F931F93CF93DF937C018B0190E080E014
:100BE0000E948505929A0115110549F0E7010E0D45
:100BF0001F1D89910E949305C017D107D1F790E07E
:100C000080E0DF91CF911F910F91FF90EF900C94B6
:100C10008F05CF93DF93D0E090E080E00E948505C0
:100C200092988D2F806B0E94930580E00E9493051F
:100C300080E10E94930590E080E00E948F0590E0A3
:100C400080E00E948505929AC0E08FEF0E94930594
:100C5000CF5FC038D1F790E080E00E948F05DF5F62
:100C6000D830D1F6DF91CF9108951092AE03109253
:100C7000AD0390E080E00E948505929880EB0E9491
:100C8000930580E00E94930580E10E94930590E027
:100C900080E00C948F051F93CF93DF93C82F88308B
:100CA00008F0C7E067FD20C0162F1F70D62FD29521
:100CB000DF70D061C093AE036093AD0390E080E03D
:100CC0000E94850592988C2F806B0E949305812F3E
:100CD0000E9493058D2F0E94930590E080E0DF91A4
:100CE000CF911F910C948F05D7E11FE06FE7E2CF02
:100CF0001092AD038091AE03873020F48F5F809314
:100D0000AE03089580E08093AE030895FF920F93A1
:100D10001F93CF93DF938A3009F45DC08D3009F4BF
:100D200052C0805210E000E08F3530F4082F10E000
:100D3000000F111F000F111F8091AD039091AE03A2
:100D40008C3708F057C0282F2F70F22E82958F70A5
:100D5000C82FC0619770D92FD06B90E080E00E94BF
:100D6000850592988D2F0E9493058F2D0E949305E3
:100D70008C2F0E94930590E080E00E948F0590E008
:100D800080E00E948505929AE801C059DF4F0C5817
:100D90001F4FFE0184910E9493052196C017D10731
:100DA000C1F780E00E94930590E080E00E948F05EB
:100DB0008091AD038B5F8093AD03DF91CF911F9145
:100DC0000F91FF9008951092AD03DF91CF911F9185
:100DD0000F91FF9008951092AD038091AE0387307C
:100DE000A0F48F5F8093AE03DF91CF911F910F919D
:100DF000FF9008951092AD03973048F0D0EB90E04B
:100E00009093AE03C0E1F12CA8CF80E0EBCF9F5FC1
:100E1000D92FD06BF5CFCF93DF93EC018881882356
:100E200031F021960E94860689918111FBCFDF91D6
:100E3000CF910895CF93DF93883018F0DF91CF9151
:100E40000895D82F90E080E00E94850592988D2F1C
:100E5000806B0E94930580E00E94930580E10E94D0
:100E60009305929AC0E080E00E949305CF5FC0385E
:100E7000D1F790E080E00E948F05D093AE031092EE
:100E8000AD03DF91CF910895CF93DF9390E080E0A1
:100E90000E948505D0E092988D2F806B0E9493056B
:100EA00080E00E94930580E10E949305929AC0E041
:100EB00080E00E949305CF5FC038D1F7DF5FD83064
:100EC00051F790E080E00E948F051092AE031092DF
:100ED000AD0390E080E00E948505929880EB0E942F
:100EE000930580E00E94930580E10E94930590E0C5
:100EF00080E0DF91CF910C948F0583EC99E001970E
:100F0000F1F700C000008EEA0E94C20581EA0E944B
:100F1000C20562E18AED0E94D10588EC0E94C205FB
:100F20006FE388EA0E94D10560E885ED0E94D10553
:100F30006FEF81E80E94D10561EF89ED0E94D10534
:100F400062E080E20E94D10564E38BED0E94D1054E
:100F500084EA0E94C20586EA0E94C2058FEA0E94C6
:100F6000C20587EA91E60197F1F700C000000E94F0
:100F700044071092AE031092AD0390E080E00E940F
:100F80008505929880EB0E94930580E00E9493056E
:100F900080E10E94930590E080E00C948F05CF9350
:100FA000DF9390E080E00E9485058091FE03882316
:100FB00009F45DC0CCE8D2E080E50E948606899104
:100FC0008111FBCF1092AD038091AE03873008F002
:100FD0004CC08F5F8093AE03C4EAD2E08CE40E94E1
:100FE000860689918111FBCF8091FE03882319F039
:100FF0008EE70E9486061092AD038091AE03873083
:1010000090F58F5F8093AE03CCEAD2E083E50E9437
:10101000860689918111FBCF8091CC03882339F01A
:10102000CDECD3E00E94860689918111FBCF90E040
:1010300080E00E948F051092AE031092AD0390E005
:1010400080E00E948505929880EB0E94930580E0E5
:101050000E94930580E10E94930590E080E0DF917B
:10106000CF910C948F0580E0CDCF80E0B3CFC7E95E
:10107000D2E087E40E94860689918111FBCFA2CF3E
:10108000BF92CF92DF92EF92FF920F931F93CF9375
:10109000DF9300D01F92CDB7DEB77C01FC01228127
:1010A0002770F9F410E00FEFF7016181610F808183
:1010B0000B830E944B0661E070E0CE0103960E9414
:1010C000E6051F5F183081F70F900F900F90DF91AA
:1010D000CF911F910F91FF90EF90DF90CF90BF9035
:1010E00008958FEF90E0B82E022E01C0BB0C0A9439
:1010F000EAF748E050E0421B510902C096958795F7
:101100004A95E2F7C82E00E0F7011181100FD08058
:10111000BA82C982612F8D2D0E944B0661E070E07A
:10112000CE0102960E94E605612F81E08D0D0E949E
:101130004B0661E070E0CE0101960E94E6050F5F6C
:10114000083011F7C1CFCF93DF93CDB7DEB7299722
:101150000FB6F894DEBF0FBECDBF0E9478050E9487
:101160007D070E9418040E9409062FE33DE083E0FA
:10117000215030408040E1F700C000000E94440749
:1011800019821A821B82CE0101960E944008EE2429
:10119000EA94F12C38E0C32ED12CAA24AA9446E07C
:1011A000442E57E0852E68E7962E0E9452040E9436
:1011B00016048091C1039091C2038430910509F413
:1011C0004CC009811A812B818130910509F4AAC094
:1011D000009709F0B3C02111C7C0002309F4D0C0A3
:1011E0008B828FEF800F8983193708F43DC09A8274
:1011F0009B81898191113AC0883010F0898287E003
:10120000801304C08A81811709F4A5C0277099F55D
:1012100098E0B92EB10E1986612F802F0E944B06DF
:1012200061E070E0CE0109960E94E6051F5FB112F1
:10123000F2CF8B81877009F041C010E06A81610FA5
:101240008981AE820E944B0661E070E0CE01069675
:101250000E94E6051F5F183089F783EC99E001973B
:10126000F1F700C00000A1CF9B818981873040F257
:10127000498286E0C5CF66246394600E88E0B82E6C
:10128000B10E18861F82612F802F0E944B0661E0ED
:1012900070E0CE0108960E94E605612F862D0E941F
:1012A0004B0661E070E0CE0107960E94E6051F5FE5
:1012B000B112E7CF8B81877009F4BFCF5E2C082E67
:1012C00001C0550C0A94EAF79601281B3109370131
:1012D00002C0769467942A95E2F700E01A81100F15
:1012E000B9805D826C82612F8B2D0E944B0661E07C
:1012F00070E0CE0105960E94E605612F81E08B0D1E
:101300000E944B0661E070E0CE0104960E94E60563
:101310000F5F083019F783EC99E00197F1F700C0EF
:10132000000043CF273029F181E0820F8B83812F8A
:10133000893708F05CCF9B81802F5CCF823091058C
:1013400029F1039711F0812FF3CF1837E0F781E0EF
:10135000810F8A83F0CF921359CF83EC99E00197E4
:10136000F1F700C0000021CF8FEF820F8B83812F18
:10137000DFCF073008F038CF1B8281E0800F8983F0
:10138000193708F034CF9B81898136CF802F922F77
:10139000112309F42FCF8FEF810F8A83C9CFCF9309
:1013A000DF9300D01F92CDB7DEB783E0898398E248
:1013B0009A838B83CE0101960E9440088FE493ECC0
:1013C0000197F1F700C00000F9CF82E091E090931F
:1013D000B6038093B5031092AF031092B50110923B
:1013E000B4010C944407EF92FF920F931F93CF9395
:1013F000DF937C010E944407D7019C91992351F10E
:1014000010E000E0D0E0C0E007C02196075E1F4F6B
:101410009C171D06F9F0F4F0D7011196ED91FC919F
:10142000E00FF11F8081882381F368E08C2F0E94F8
:101430004B06F70181819281800F911F01960E94D6
:101440000B07D7019C912196075E1F4F9C171D0625
:1014500009F014F760E08091AF030E944B068EE321
:10146000DF91CF911F910F91FF90EF900C94860622
:101470008091B0039091B103009761F09093B6030F
:101480008093B5031092B1031092B0031092AF0392
:101490000C94F30982E091E09093B6038093B50336
:1014A0001092AF030C94F3090E94440760E082E0BD
:1014B0000E944B0683EB92E00E940B071AC08091BA
:1014C000CA0385FD82C086FD88C087FD8EC08091DD
:1014D000CB0380FD92C08091C90386FD96C087FD35
:1014E000A0C080FDAAC083EC99E00197F1F700C08D
:1014F000000060E083E00E944B0681ED92E00E94D4
:101500000B0789EC93E00E94640C882361F39091AF
:10151000C903892F817091FB222720F9822B92FB2E
:10152000222720F9822B93FB222720F9822B94FB80
:10153000222720F9822B95FB222720F9822B96FB6C
:10154000222720F9822B97FB992790F9892B9091DC
:10155000CA03292F2170822B91FB222720F9822B8D
:1015600092FB222720F9822B93FB222720F9822B42
:1015700094FB222720F9822B95FB222720F9822B2E
:1015800096FB222720F9822B97FB992790F9892B2C
:101590009091CB03292F2170822B96959170892BE6
:1015A00009F4A1CF83E00E941A0781ED92E00E9426
:1015B0000B078091CB0381FF82CF8FED92E00E94D9
:1015C0000B078091CA0385FF7ECF87EE92E00E94D1
:1015D0000B078091CA0386FF78CF8EEE92E00E94BF
:1015E0000B078091CA0387FF72CF87EF92E00E94BA
:1015F0000B078091CB0380FF6ECF80E093E00E94C9
:101600000B078091C90386FF6ACF8AE093E00E94AE
:101610000B0761E080E00E94200D8091C90387FFE5
:1016200060CF8DE093E00E940B0760E080E00E94B5
:10163000200D8091C90380FF56CF83EC99E001977C
:10164000F1F700C000008091B5039091B6030C94AF
:10165000F3092091B5033091B6033093B103209381
:10166000B003E2EBF3E09283818383E08083F09325
:10167000B603E093B5031092AF03CF010C94F309C6
:10168000CF93DF93EC010E9444076AE083E00E945D
:101690004B0680E193E00E940B076AE084E00E9421
:1016A0004B06CE0101960E940B072FE38DE093E0DD
:1016B000215080409040E1F700C000008091B503C8
:1016C0009091B603DF91CF910C94F3098091AF0311
:1016D000811101C0089581508093AF038091B503BB
:1016E0009091B6030C94F3099091AF03E091B50388
:1016F000F091B60320812150330B921713060CF0A2
:1017000008959F5F9093AF03CF010C94F309E0918C
:10171000B503F091B6038091AF03A181B28199E145
:10172000899FA00DB11D112455968D919C915697BE
:10173000009739F45796ED91FC9158973097B1F096
:101740000994F093B103E093B0039093B4038093B2
:10175000B30383E08093B20382EB93E09093B603EC
:101760008093B5031092AF030C94F309CD010C9450
:10177000400B0E9452048091C1039091C2030097D4
:1017800079F48091AF03811126C08091C303811148
:101790000FC08FE295E70197F1F700C000000895B0
:1017A000019799F70E94740B8091C303882389F3F2
:1017B0000E94870B8091C303882359F30E9452042F
:1017C0008091C3038111FACF8FE295E70197F1F77A
:1017D00000C00000089581508093AF038091B5034D
:1017E0009091B6030E94F309D0CF0E9478050E9421
:1017F0007D070E94560C6093C9037093CA038093BF
:10180000CB030E94180482E091E09093B60380938A
:10181000B5031092AF030E94F3098091B401909137
:10182000B501892B41F00E94B90B8091B4019091D0
:10183000B501892BC1F708950E9444076AE083E04F
:101840000E944B068AE193E00E940B072FEF80E78E
:1018500092E0215080409040E1F700C0000080916C
:10186000B5039091B6030C94F309CF93DF93EC0189
:1018700081E090E00E94850584E00E9498058DE05B
:101880008A95F1F700000E949D05888300C00E94A0
:101890009D05898300C00E949D058A8381E090E0B8
:1018A0000E948F0581E0DF91CF91089581E090E063
:1018B0000E948F0560E070E080E00895009711F0CD
:1018C0000C94350C80E008950F931F93CF93DF9312
:1018D00000D01F92CDB7DEB7009709F4A8C08C01E5
:1018E000CE0101960E94350C882309F4A0C06981BD
:1018F0004A815B81262F30E0F801908160FB90F9EE
:10190000B9017595679560FB91F9B9017595679572
:101910007595679560FB92F9B90175956795759511
:1019200067957595679560FB93F9B901759567950E
:1019300075956795759567957595679560FB94F9AD
:10194000359527953595279535952795359527957F
:101950003595279520FB95F9242F30E040FB96F92B
:10196000B9017595679560FB97F99083B9017595F5
:10197000679575956795918160FB90F9B9017595AB
:101980006795759567957595679560FB91F9B901B0
:10199000759567957595679575956795759567952F
:1019A00060FB92F9B9017595679575956795759581
:1019B0006795759567957595679560FB93F9022E08
:1019C000232F000C221F330B000C221F331F20FB80
:1019D00094F9252F30E0428150FB41F9B90175950A
:1019E000679560FB40F94283A90155954795559548
:1019F000479540FB97F9A90155954795559547950A
:101A00005595479540FB96F935952795359527953A
:101A1000359527953595279520FB95F991830F905E
:101A20000F900F90DF91CF911F910F91089580E05B
:101A30000F900F900F90DF91CF911F910F9108950C
:101A4000CF93DF93863020F080E0DF91CF9108952F
:101A5000D62FC82F81E090E00E94850585E00E9486
:101A600098058C2F0E9498058D2F0E94980581E083
:101A700090E00E948F0581E0DF91CF910895CF9390
:101A8000DF93863020F080E0DF91CF910895D62F4C
:101A9000C82F81E090E00E94850586E00E949805AD
:101AA0008C2F0E9498058D2F0E94980581E090E070
:101AB0000E948F0581E0DF91CF9108950895BA9A31
:101AC00082E090E00E948F058B98939A0C947805A1
:101AD000CF93C82F82E090E00E948F0582E090E0D3
:101AE0000E94850583E00E9493058C2F0E94930538
:101AF00080E00E949305C82F82E090E00E948F054D
:101B00008C2FCF91089582E090E00E948F0582E0B3
:101B100090E00E94850580EC0E94930582E090E0B1
:101B20000E948F0583EC99E00197F1F700C0000057
:101B30008EE00E94680D982F907E903861F01F9281
:101B40008F9388E293E09F938F930E948B110F9065
:101B50000F900F900F900895CF93DF93D82FC62F3B
:101B600082E090E00E948F0582E090E00E9485056F
:101B700082E00E9493058D2F0E9493058C2F0E9476
:101B8000930582E090E0DF91CF910C948F051F9335
:101B9000CF93DF93182FD62FC42F82E090E00E94BE
:101BA0008F0582E090E00E94850585E00E94930504
:101BB000812F0E9493058D2F0E9493058C2F0E94E8
:101BC000930582E090E0DF91CF911F910C948F05F7
:101BD000CF93833010F0CF910895C82F82E090E02A
:101BE0000E948F0582E090E00E94850581E090E0F0
:101BF00001C0880FCA95EAF780680E94930582E0C9
:101C000090E0CF910C948F05CF9382E090E00E94FA
:101C10008F0582E090E00E94850580EA0E9493058E
:101C200080E00E949305C82F82E090E00E948F051B
:101C30008C2FCF910895FF920F931F93CF93DF9333
:101C4000F82E482F60EE8FE00E94C70D0F2D10E098
:101C5000C4E5D3E012C08EE00E94680D1F930F937D
:101C6000807E1F928F93DF93CF930E948B110F90F2
:101C70000F900F900F900F900F908EE00E94680DC4
:101C8000807EF812E8CFDF91CF911F910F91FF90E6
:101C90000895682F8BE20C94AC0D8CE20C94680DC7
:101CA00040E0682F8CE20C94C70D0E945F0D0E94EB
:101CB000830D60E08AE20E94AC0D6FEA89E20E9427
:101CC000AC0D64E088E20E94AC0D60E680E60E9404
:101CD000AC0D60E680E70E94AC0D8FEF0E94500EC5
:101CE0008FE10E94490E8FEF0E94500E80E40C9409
:101CF0001B0E0E945F0D0E94830D61EC8AE20E9420
:101D0000AC0D61EF89E20E94AC0D65E088E20E94B3
:101D1000AC0D8FEF0E94500E8FE10E94490E8FEFA5
:101D20000E94500E80E00C941B0E0F931F93CF93D4
:101D3000DF93009721F0FC012281293030F080E010
:101D4000DF91CF911F910F9108958C01C081D181B6
:101D5000BE0176956795769567957695679581E34B
:101D60000E94AC0D6C2F6295660F607E82E30E942C
:101D7000AC0DF80162816F7085E30E94AC0DF80133
:101D80008281882371F0C0E0F801EC0FF11D6381BE
:101D900086E38C0F0E94AC0DCF5FF8018281C817DB
:101DA00098F380E00E94E80D81E0DF91CF911F91D0
:101DB0000F9108950F931F93CF93DF93009729F00E
:101DC000EC010E944D0E80FD06C080E0DF91CF91B6
:101DD0001F910F91089581E60E94680D182F82E6E9
:101DE0000E94680D212F30E0220F331F220F331F76
:101DF000220F331F829586958770282B398328837D
:101E000085E60E94680D8F708A83882379F08E01A1
:101E10000D5F1F4FD6E6D80FC6E68C2F0E94680DC7
:101E2000F80181938F01CF5FCD13F7CF81E0DF9170
:101E3000CF911F910F9108951F920F920FB60F929D
:101E40001124EF92FF920F931F932F933F934F9381
:101E50005F936F937F938F939F93AF93BF93EF9312
:101E6000FF93CF93DF93CDB7DEB72B97DEBFCDBF08
:101E70000E944D0E082F80FD2AC003FF0BC088E092
:101E80000E94500E80E893E09F938F930E948B11E5
:101E90000F900F902B960FB6F894DEBF0FBECDBFFC
:101EA000DF91CF91FF91EF91BF91AF919F918F9172
:101EB0007F916F915F914F913F912F911F910F9162
:101EC000FF90EF900F900FBE0F901F901895CE01CE
:101ED00001960E94DA0E81E00E94500E8EEF91E092
:101EE0000E94A8118B811F928F938A818F93898181
:101EF0008F938EE092E09F938F930E948B110F90AF
:101F00000F900F900F900F900F908B818823D1F03E
:101F100010E089E2E82E82E0F82EE4E0F0E0EC0F39
:101F2000FD1FE10FF11D80811F928F93FF92EF92B1
:101F30000E948B111F5F0F900F900F900F908B815D
:101F4000181758F38AE090E00E94A11196CF4F92A3
:101F50005F926F927F928F929F92AF92BF92CF9239
:101F6000DF92EF92FF920F931F93CF93DF93CDB742
:101F7000DEB7A1970FB6F894DEBF0FBECDBF1092AB
:101F8000B5011092B40111E01093FE030E944407C2
:101F90000E9418040E9432050E94790EFE01799673
:101FA00089E0DF011D928A95E9F780E091E0988F42
:101FB0008F8B198FCE0147960E94950EBFEFEFE7EA
:101FC000F1E0B150E040F040E1F700C000C0009106
:101FD000B4011091B5010115110509F06AC0CE01D7
:101FE00007964C0185E0482E91E1A92EBB24B394BD
:101FF00024E0522E36E9C32E33E0D32E4CECE42EEF
:1020000043E0F42E5BE9652E53E0752E0CC08C8501
:102010009D85039709F464C08091B4019091B50146
:10202000892B09F046C00E9452040E94CF0780917C
:10203000C1039091C2030E941501D401E42D1D92A9
:10204000EA95E9F7BA82A9825B828C838091BF030B
:102050008D838091C0038E838091C3038F83CE01D3
:1020600001960E94950EFFEF2FE781E0F15020408E
:102070008040E1F700C000C01F930F93DF92CF9222
:10208000FF92EF920E94D311CE010C960E94DA0EBD
:102090000F900F900F900F900F900F908111B7CF6E
:1020A0000F5F1F4F8091B4019091B501892B09F406
:1020B000BACFA1960FB6F894DEBF0FBECDBFDF91A9
:1020C000CF911F910F91FF90EF90DF90CF90BF9035
:1020D000AF909F908F907F906F905F904F900895FA
:1020E0008E85813009F098CF8F85813009F094CFAB
:1020F0008091FE03882309F48FCF7F926F920E9414
:102100008B111092FE030E9444070F900F9084CF12
:1021100020E835E240E050E060E070E08BE490E0E1
:102120000E94F9020E944A030E94D0030E9478058F
:102130000E947D070E94F50B90E080E00895AA1BA5
:10214000BB1B51E107C0AA1FBB1FA617B70710F0A2
:10215000A61BB70B881F991F5A95A9F780959095D4
:10216000BC01CD010895A1E21A2EAA1BBB1BFD01E3
:102170000DC0AA1FBB1FEE1FFF1FA217B307E40766
:10218000F50720F0A21BB30BE40BF50B661F771FBE
:10219000881F991F1A9469F760957095809590959E
:1021A0009B01AC01BD01CF010895A29FB001B39F77
:1021B000C001A39F700D811D1124911DB29F700D50
:1021C000811D1124911D08958F929F92AF92BF920D
:1021D000CF92DF92EF92FF92CF93DF93EC01688171
:1021E00079818A819B81611571058105910521F4B1
:1021F00064E279ED8BE597E02DE133EF41E050E0CB
:102200000E94BC1549015A019B01AC01A7EAB1E447
:102210000E94DB156B017C01ACEEB4EFA5019401CB
:102220000E94E915DC01CB018C0D9D1DAE1DBF1D6B
:10223000B7FF03C00197A109B04888839983AA8397
:10224000BB839F77DF91CF91FF90EF90DF90CF908E
:10225000BF90AF909F908F9008950E94E4100895D2
:1022600086EB91E00E94E4100895B0E0A0E0809336
:10227000B6019093B701A093B801B093B901089546
:102280000F931F93CF93DF93009759F46115710556
:1022900041F4F0E0E0E0CF01DF91CF911F910F9189
:1022A00008958B01EC016EE070E081E090E00E9407
:1022B000D013FC01892B69F380E883830115110594
:1022C00071F01387028781E883838091FF039091E7
:1022D0000004892B21F4F0930004E093FF0320977E
:1022E000D1F2D187C087838182608383809101048A
:1022F00090910204892B79F6F0930204E093010493
:102300008091030490910404892B29F6F09304042E
:10231000E0930304C0CFB0E0A0E0E1E9F1E10C9468
:10232000FE15AE014B5F5F4FFA0161917191AF01F4
:1023300080910104909102040E94F611E2E00C9455
:102340001A1660910104709102040E942E150895DE
:102350000F931F93CF93DF93E0910104F091020458
:102360002381EC0110E000E021FD08C00FEF1FEF1A
:1023700014C00995892B11F00FEF1FEF899160911F
:10238000010470910204DB011896ED91FC9181111A
:10239000F0CF8AE00995892B49F7C801DF91CF91E9
:1023A0001F910F910895AEE0B0E0E9EDF1E10C94DA
:1023B000FC150D891E8986E08C831A8309838FEFB3
:1023C0009FE79E838D83AE01475E5F4F6F89788D57
:1023D000CE0101960E94F6112F813885020F131F3E
:1023E000F80110822E96E4E00C941816ABE0B0E0F1
:1023F000ECEFF1E10C94EE157C013B018A01FC014C
:1024000017821682838181FFC8C1CE0101965C01CB
:10241000F7019381F30193FD859193FF81913F0132
:10242000882309F453C1853239F493FD859193FFD4
:1024300081913F01853229F4B70190E00E942E1569
:10244000E7CF912C212C312CFFE1F31538F08B32A2
:1024500011F190F4803209F1833229F137FC3CC04C
:1024600020ED280F2A3050F536FE20C08AE0989ED5
:10247000200D1124922E06C08D3291F0803371F719
:10248000689430F8F30193FD859193FF81913F01AA
:102490008111DACF21C0689431F8689432F8F2CF14
:1024A000689433F8EFCF689434F8ECCFEAE02E9ECE
:1024B000200D1124222E689435F8E4CF8E3229F4B1
:1024C00036FC04C1689436F8DDCF8C3619F4689474
:1024D00037F8D8CF8836B1F2982F9F7D9554933036
:1024E000E0F08336A1F18337C1F1833509F063C091
:1024F0002801F2E04F0E511CF801C080D180692DF7
:1025000070E036FC02C06FEF7FEFC6010E9411152C
:102510004C01689437F882010AC00C5F1F4FFFE33B
:10252000F98388248394912C6501E89437F833FE6D
:102530002DC0522C8114910471F5552009F468CFF7
:10254000B70180E290E00E942E155A94F6CFF80170
:10255000808189830E5F1F4FE4CF2801F2E04F0E88
:10256000511CF801C080D180692D70E036FC02C09A
:102570006FEF7FEFC6010E9423154C018201D5CF7A
:10258000B70180E290E00E942E152A9428141904C5
:1025900009F0B0F7CECFF60137FC859137FE819177
:1025A0006F01B70190E00E942E1551105A94F1E08E
:1025B0008F1A9108BFCF843619F0893609F077C099
:1025C000F80137FE6BC060817181828193810C5F5D
:1025D0001F4FF32DFF763F2E97FF09C090958095F2
:1025E000709561957F4F8F4F9F4F689437F82AE021
:1025F00030E0A5010E945E15C82ECA188C2C432C11
:1026000036FE0CC0E89440F8C91440F434FE05C00E
:1026100032FC03C0F32DFE7E4F2E892C44FE95C064
:10262000FE01EC0DF11D8081803309F087C0242D5F
:10263000297E422E842D8870582E43FC95C040FE82
:102640008FC09C2C821418F42C0C922C981844FEE9
:1026500091C0B70180E390E00E942E1542FE09C0B0
:1026600088E790E041FE02C088E590E0B7010E9453
:102670002E15C91408F48AC0CA94D12C9FEFC91A28
:10268000D90ACA0CDB1CF60182916F01B70190E0F8
:102690000E942E15AC14BD04B1F74FCF608171813B
:1026A000072E000C880B990B0E5F1F4F92CFD32C77
:1026B000E894D4F82AE030E0853739F1232D297FDA
:1026C000D22E8F3601F148F48835A9F0F7018681C2
:1026D00097812B96E2E10C940A16803749F08837EF
:1026E000A9F7D4FE02C06894D2F820E130E00DC012
:1026F0006894D4F8F6CF34FE03C0822F8660D82EBB
:1027000020E132E002C028E030E0F801D7FE0FC03F
:1027100060817181828193810C5F1F4FA5010E94AE
:102720005E15C82ECA183D2CE89437F867CF608133
:10273000718190E080E00E5F1F4FF0CF42FC02C03D
:10274000839478CF8394839475CF842D867809F40D
:1027500071CFF6CFB70180E290E00E942E158394EE
:102760008214C0F3512C73CF522C5818821408F4E1
:102770006ECFF8CF842D867809F47BCF8BE241FEB3
:1027800080E247FC8DE2B70190E071CFB70180E3B2
:1027900090E00E942E159A946CCF8FEF9FEF99CF07
:1027A0000F931F93CF93DF93869F8001879F100D18
:1027B000969F100D1124C8010E94EC13EC010097A4
:1027C00029F0A80170E060E00E941C15CE01DF91A5
:1027D000CF911F910F9108950F931F93CF93DF9384
:1027E0008230910510F482E090E0E0910704F091CE
:1027F000080430E020E0B0E0A0E0309799F4211523
:10280000310509F44AC0281B390B24303105D8F5AD
:102810008A819B816115710589F1FB019383828314
:10282000FE0111C04081518102811381481759076F
:10283000E0F04817590799F4109761F012960C933D
:10284000129713961C933296CF01DF91CF911F916F
:102850000F9108950093070410930804F4CF2115F5
:10286000310551F04217530738F0A901DB019A01F5
:10287000BD01DF01F801C1CFEF01F9CF909308044A
:1028800080930704CDCFFE01E20FF31F8193919354
:102890002250310939832883D7CF20910504309104
:1028A0000604232B41F42091BC013091BD013093EB
:1028B0000604209305042091BA013091BB01211533
:1028C000310541F42DB73EB74091BE015091BF0193
:1028D000241B350BE0910504F0910604E217F30781
:1028E000A0F42E1B3F0B2817390778F0AC014E5F80
:1028F0005F4F2417350748F04E0F5F1F50930604B3
:1029000040930504819391939FCFF0E0E0E09CCF4A
:10291000CF93DF930097E9F0FC0132971382128284
:10292000A0910704B0910804ED0130E020E0109779
:10293000A1F420813181820F931F209105043091F1
:1029400006042817390709F061C0F0930604E093E4
:102950000504DF91CF910895EA01CE17DF07E8F56E
:102960004A815B819E0141155105B1F7E901FB8365
:10297000EA8349915991C40FD51FEC17FD0761F403
:10298000808191810296840F951FE9019983888344
:10299000828193819B838A83F0E0E0E012968D919F
:1029A0009C9113970097B9F52D913C911197CD010A
:1029B0000296820F931F2091050430910604281778
:1029C000390739F6309751F5109208041092070430
:1029D000B0930604A0930504BCCFD383C283408187
:1029E0005181840F951FC817D90761F44E5F5F4F5F
:1029F00088819981480F591F518340838A819B8127
:102A0000938382832115310509F0B0CFF093080438
:102A1000E09307049ECFFD01DC01C0CF1382128238
:102A2000D7CFFC010590615070400110D8F7809518
:102A300090958E0F9F1F0895DC0101C06D9341504A
:102A40005040E0F70895FC01615070400190011082
:102A5000D8F7809590958E0F9F1F08950F931F9321
:102A6000CF93DF93182F092FEB018B8181FD09C0D4
:102A70001FEF0FEF812F902FDF91CF911F910F91BB
:102A8000089582FF14C02E813F818C819D8128177B
:102A900039073CF4E881F981CF0101969983888355
:102AA00010838E819F8101969F838E83E3CFE8857B
:102AB000F985812F0995892BA1F3DACFFA01AA278D
:102AC000283051F1203181F1E8946F936E7F6E5F71
:102AD0007F4F8F4F9F4FAF4FB1E03ED0B4E03CD01F
:102AE000670F781F891F9A1FA11D680F791F8A1F02
:102AF000911DA11D6A0F711D811D911DA11D20D069
:102B000009F468943F912AE0269F11243019305D22
:102B10003193DEF6CF010895462F4770405D419313
:102B2000B3E00FD0C9F7F6CF462F4F70405D4A3360
:102B300018F0495D31FD4052419302D0A9F7EACF28
:102B4000B4E0A6959795879577956795BA95C9F757
:102B500000976105710508959B01AC010A2E06944A
:102B60005795479537952795BA95C9F7620F731F03
:102B7000841F951FA01D0895052E97FB1EF4009439
:102B80000E94D31557FD07D00E94B31007FC03D055
:102B90004EF40C94D31550954095309521953F4FA8
:102BA0004F4F5F4F089590958095709561957F4F39
:102BB0008F4F9F4F08950E94D510A59F900DB49FF1
:102BC000900DA49F800D911D11240895B7FF0C94C2
:102BD000DB150E94DB15821B930B08952F923F9209
:102BE0004F925F926F927F928F929F92AF92BF921D
:102BF000CF92DF92EF92FF920F931F93CF93DF93C9
:102C0000CDB7DEB7CA1BDB0B0FB6F894DEBF0FBE25
:102C1000CDBF09942A88398848885F846E847D8472
:102C20008C849B84AA84B984C884DF80EE80FD8074
:102C30000C811B81AA81B981CE0FD11D0FB6F894EA
:0E2C4000DEBF0FBECDBFED010895F894FFCFAB
:102C4E000018040501015374617274000000000045
:102C5E00000000000000000000000000A70F01535C
:102C6E00657474696E6773202620546573747300DF
:102C7E00000000690100000141626F7574000000E0
:102C8E0000000000000000000000000000005E0DCB
:102C9E0001506F776572204F46460000000000001D
:102CAE0000000000000000E5090143616C696272DA
:102CBE0061746500000000000000000000000000CC
:102CCE001804015465737420415652000000000030
:102CDE00000000000000000000540A014261636B16
:102CEE0000000000000000000000000000000000D6
:102CFE000000380A01000100000000000904200055
:102D0E000102030448454C4C4F20574F524C44008F
:102D1E004C696E65203420616674657220636C6543
:102D2E006172004D435032353135206C6F6F7062D9
:102D3E0061636B202073746172742E2E2E005265A7
:102D4E00636569766564206672616D65210049442C
:102D5E003A203078253033582C20444C433A2025E5
:102D6E00752C20444154413A002025303258004DF4
:102D7E00435032353135206C6F6F706261636B205A
:102D8E007769746820696E742E2E2E004D43503272
:102D9E00353135206E6F726D616C206D6F646520FC
:102DAE0073746172742E2E2E0053656E64696E6795
:102DBE002043414E206672616D652E2E2E00436FAC
:102DCE00756E7465723A2025580A00506C617969E7
:102DDE006E672E2E2E0047616D65204F7665722E22
:102DEE002E2E004C494645533A200053434F524530
:102DFE003A2000507265737320616E79206275748B
:102E0E00746F6E2028523120746F20657869742992
:102E1E00004C61737420707265737365643A004E72
:102E2E0041562062746E004E4156207570004E4120
:102E3E005620646F776E004E4156206C65667400A6
:102E4E004E4156207269676874004C31004C320056
:102E5E0053656C65637465643A0054455354204160
:102E6E004354494F4E2E2E004D4350204E4F54206A
:102E7E00696E20636F6E66696775726174696F6ED5
:102E8E0020616674657220726573657420210A2054
:102E9E002564200043757272656E74206D6F6465D3
:102EAE003A203078253032582C204465736972658B
:102EBE0064206D6F64653A203078253032580A00F0
:102ECE007472616E736D697373696F6E20636F6D6B
:102EDE00706C657465002531306400476F616C203D
:0A2EEE0073636F726564210A0D0022
:00000001FF
