:100000000C94F6000C9413010C94A20E0C941301A2
:100010000C9413010C9413010C9413010C94130110
:100020000C9413010C9413010C9413010C94130100
:100030000C9413010C9413010C9413010C941301F0
:100040000C9413010C9413010C9413010C941301E0
:100050000C9413010C9413010C9413010C941301D0
:100060000C9413010C9413010C9413010C941301C0
:1000700000000000005C00000C000C007C287C28C4
:1000800058DC68002410480028542840000C000068
:10009000007884008478000054385400107C1000EC
:1000A00080400000101010000040000060100C00A4
:1000B00038543800487C40004864580044542C00B0
:1000C0001C107C005C5424003854240064140C0080
:1000D00068542C0048543800004800008048000054
:1000E0001028440028282800442810000454080040
:1000F00038445C00781478007C5428003844280088
:100100007C4438007C5444007C140400384474005F
:100110007C107C00447C440020403C007C106C003F
:100120007C4040007C187C0078103C00384438004B
:100130007C1408003844B8007C146800485424003B
:10014000047C04007C407C003C603C007C307C00F3
:100150006C106C000C700C0064544C00007C44006B
:100160000C106000447C00000804080080808000BF
:1001700000040800304878007C48300030484800CF
:1001800030487C00306850001078140090A8780047
:100190007C08700050744000808074007C106800FF
:1001A000447C4000781078007808700030483000B7
:1001B000F82810003048F80078100800505828003F
:1001C000083C4800384078003840380078207800F3
:1001D0004830480098A0780048685800107884009B
:1001E000007C0000847810000804080411241FBE5D
:1001F000CFEFD4E0DEBFCDBF13E0A0E0B1E0ECE391
:10020000F9E202C005900D92A435B107D9F723E0B9
:10021000A4E5B3E001C01D92A338B207E1F70E9444
:10022000250F0C949C140C940000399A00C000C057
:100230000000399800C000C0000008958FEF8ABB0D
:10024000319A1BBA399880E08BBB399A00C000C044
:100250000000399800C000C000002FEF3FEF92E08F
:10026000215030409040E1F700C000C08F5FECCFDC
:100270000C942C030C94E6030E940E040E940D04BF
:100280000E9448040E940C042FEF8FEF92E021504F
:1002900080409040E1F700C000C0F2CF0E941805F6
:1002A0000E9417050E9422050E9416052FEF8FEF6E
:1002B00092E0215080409040E1F700C000C0F2CFB2
:1002C0002FEF8FEF9DE1215080409040E1F700C07B
:1002D00000000E94F80580EC91E00E94FA062FEFE2
:1002E0008FEF9DE1215080409040E1F700C0000079
:1002F00060E083E00E943A068CEC91E00E94FA06EE
:100300002FEF8FEF9DE1215080409040E1F700C03A
:1003100000000895EF92FF921F93CF93DF93CDB724
:10032000DEB766970FB6F894DEBF0FBECDBF8FED78
:1003300091E00E9442100E94D30DFE01729685E06A
:10034000DF011D928A95E9F783E291E09D878C8712
:1003500083E08E8781E18F8782E2888B83E3898BBC
:10036000CE010C960E941B0ECE0101960E94600EDB
:100370008823D1F38AEF91E00E9442108B811F9273
:100380008F938A818F9389818F938AE092E09F93E4
:100390008F930E9425100F900F900F900F900F9049
:1003A0000F908B818823D1F010E085E2E82E82E067
:1003B000F82EE4E0F0E0EC0FFD1FE10FF11D80816D
:1003C0001F928F93FF92EF920E9425101F5F0F9054
:1003D0000F900F900F908B81181758F38AE090E0E0
:1003E0000E943B1066960FB6F894DEBF0FBECDBFDD
:1003F000DF91CF911F91FF90EF900895CF93DF93FE
:10040000CDB7DEB72B970FB6F894DEBF0FBECDBFCA
:100410008BE292E00E9442100E94D30D85B7837F49
:10042000886085BF8BB780688BBF789410E0CE0161
:1004300007964C0185E0B82E93E2C92EDD24D394B3
:1004400023E0E22E31E1F32E00E6F4012B2D119290
:100450002A95E9F7DA82C982EB82FC820D831E833A
:10046000CE0101960E941B0E1F5F8FEF9FEFEEE003
:1004700081509040E040E1F700C00000E6CFCF930C
:10048000DF93CDB7DEB72B970FB6F894DEBF0FBE64
:10049000CDBF88E492E00E9442100E94F70D10E068
:1004A000CE0107964C0185E0782E93E2A92EBB245D
:1004B000B39423E0C22E31E4D32E00E64AE7E42EC3
:1004C00042E0F42EF401272D11922A95E9F7BA8221
:1004D000A982CB82DC820D831E8385E692E00E9496
:1004E0004210CE0101960E941B0E1F5F1F921F93A8
:1004F000FF92EF920E9425108FEF9FEFEEE0815068
:100500009040E040E1F700C000000F900F900F9086
:100510000F90D8CF0E94670582E090E00E9474059A
:100520002FEF8FEF9EE0215080409040E1F700C018
:10053000000082E090E00E947E052FEF8FEF9EE0AA
:10054000215080409040E1F700C0000081E090E041
:100550000E9474052FEF8FEF9EE021508040904065
:10056000E1F700C0000081E090E00E947E052FEFDF
:100570008FEF9EE0215080409040E1F700C00000E6
:1005800090E080E00E9474052FEF8FEF9EE02150F5
:1005900080409040E1F700C0000090E080E00E94C1
:1005A0007E052FEF8FEF9EE0215080409040E1F7D5
:1005B00000C00000B1CF8A3031F05D9BFECF8CB916
:1005C00090E080E008955D9BFECF9DE09CB9F5CF63
:1005D0005F9BFECF8CB1082E000C990B0895220F63
:1005E000331F441F551F220F331F441F551F220F57
:1005F000331F441F551F220F331F441F551F0E94D6
:100600004D0F2150310930BD29B91BB88EE880BD8E
:10061000549A539A68EE72E08BED92E00C94DA0FE4
:100620005D9BFECF8CB90895FC01892B51F0908120
:10063000992339F031965D9BFECF9CB99191911130
:10064000FACF08958BB1082E000C990B892F881FC3
:100650008827881F90E008955F9BFECF8CB1089596
:100660009C012F5F3F4FFC018491882341F0F901E9
:100670005D9BFECF8CB9849131968111F9CF08959D
:1006800085B7806885BF80B7806280BF0895811577
:1006900028E0920758F42091000130910101820F67
:1006A000931FFC01608390E080E0089581E090E07A
:1006B0000895811528E0920748F4209100013091B7
:1006C0000101820F931FFC018081089581E008954C
:1006D0000F931F93CF93DF930E94CA0F8C010E9448
:1006E000CF0FD0E0C0E00E94CA0FE0910001F0916E
:1006F0000101EC0FFD1F8083E0910001F0910101E9
:10070000EC0FFD1F80812196C11588E0D80759F7AD
:10071000C8010E94CF0FD0E0C0E00E94CA0FE09154
:100720000001F0910101EC0FFD1F80812196C115A0
:1007300088E0D80791F7DF91CF911F910F9108952D
:10074000E0E0F0E185EA8083A7E9BAE31197F1F7E9
:1007500000C00000B096E115B8E1FB07A1F785EAFB
:100760008083A7E9BAE31197F1F700C00000B096C3
:10077000E115B0E2FB07A1F72FE58AEE90E02150EA
:1007800080409040E1F700C0000008958D9A8FB539
:100790008F778FBD8FB580648FBD8EB58F7E8EBDF8
:1007A0008EB588608EBD8FB58D7F8FBD8FB58E7FE6
:1007B0008FBD1BBC1ABC8EB58B7F8EBD8EB58D7F59
:1007C0008EBD8EB581608EBD8C98089510920010FC
:1007D000849B08C0000089E090E0849B03C0000077
:1007E0000197D9F7849909C0000081E390E003C024
:1007F0000000019711F0849BFBCF80910010809343
:1008000054038091001080935503809100108093D1
:10081000560384E593E0089508950895EF92FF92BA
:100820000F931F93CF93CAE010E000E0F12CE12C6E
:100830000E94E603FC012081E20EF11C8181080F79
:10084000111DC150A9F7BB989701ADECBCEC0E94FB
:100850006F0F969587959695879596958795992785
:10086000909362038093610398010E946F0F9695A5
:100870008795969587959695879599279093640384
:1008800080936303CF911F910F91FF90EF90089594
:100890000F931F93CF93DF930E94E603FC014081E7
:1008A000042F10E02181C22FD0E00E94E603FC015A
:1008B0004081400F512F511D5695479521812C0F96
:1008C0003D2F311D36952795E22F86B383FB882770
:1008D00080F991E0892780936F03509366034093DA
:1008E00065033093680320936703809161039091BF
:1008F0006203481790F0992767EF70E0681B790B47
:1009000009F45CC0481B590BF4E6F49FC001F59F45
:10091000900D11240E94390F14C09927BC01645412
:10092000710909F44BC0841B950BF4E6F89FA001F4
:10093000F99F500D1124CA010E94390F71956195DC
:10094000710970936A0360936903809163039091C6
:100950006403E817B0F1992769EF70E0681B790B21
:1009600009F450C0281B390B44E6429FC001439F45
:10097000900D11240E94390F70936C0360936B03E8
:1009800080916B0390916C032091690330916A030D
:10099000AC0197FF04C044275527481B590B25314C
:1009A00031051CF124173507DCF5853191056CF50F
:1009B0008C3E9F4FC4F184E090E029C070E060E07D
:1009C000C0CF9927BC0161547109E1F0821B930BE0
:1009D00044E6489F9001499F300D1124C9010E94AF
:1009E000390F719561957109C7CF2C3EFFEF3F0715
:1009F000E4F631952195310924173507B4F282E0E8
:100A000090E005C070E060E0B7CF90E080E09093A8
:100A10006E0380936D03DF91CF911F910F91089525
:100A200083E090E0F4CF81E090E0F1CF0895089565
:100A30000E94E603FC01828190E090937103809311
:100A4000700308950E94E603FC012281822F90E04A
:100A5000909373038093720360917003709171039C
:100A60002617B8F077274FEF50E0461B570B41F1A0
:100A70009C01261B370B64E6629FC001639F900DAB
:100A80001124BA010E94390F7093750360937403A7
:100A9000089577276115710599F09B01281B390B83
:100AA00044E6429FC001439F900D11240E94390FDC
:100AB000719561957109709375036093740308953E
:100AC00070E060E07093750360937403089587B3DA
:100AD000806B87BBBE988A9AB89AB99AC09AC19A15
:100AE000C49A82E58DB90895009721F0029721F00C
:100AF000C1980895C0980895C2980895C19AC09A5F
:100B0000C29A08958FB9779BFECF8FB108958FB9A0
:100B1000779BFECF8FB108958FEF8FB9779BFECF74
:100B20008FB108956115710559F0FC01680F791FA7
:100B300081918FB9779BFECF8FB1E617F707C1F789
:100B400008956115710561F0FC01680F791F9FEF31
:100B50009FB9779BFECF8FB18193E617F707C1F757
:100B60000895CF93C82F90E080E00E94740592987A
:100B70008C2F0E94820590E080E0CF910C947E053E
:100B8000CF93DF93D82FC62F90E080E00E947405AA
:100B900092988D2F0E9482058C2F0E94820590E0F2
:100BA00080E0DF91CF910C947E05EF92FF920F933E
:100BB0001F93CF93DF937C018B0190E080E00E9434
:100BC0007405929A0115110549F0E7010E0D1F1DDC
:100BD00089910E948205C017D107D1F790E080E08B
:100BE000DF91CF911F910F91FF90EF900C947E05B4
:100BF000CF93DF93D0E090E080E00E94740592985C
:100C00008D2F806B0E94820580E00E94820580E12A
:100C10000E94820590E080E00E947E0590E080E0E6
:100C20000E947405929AC0E08FEF0E948205CF5F08
:100C3000C038D1F790E080E00E947E05DF5FD830B9
:100C4000D1F6DF91CF910895109258031092570377
:100C500090E080E00E947405929880EB0E948205EB
:100C600080E00E94820580E10E94820590E080E0A1
:100C70000C947E051F93CF93DF93C82F883008F024
:100C8000C7E067FD20C0162F1F70D62FD295DF70EA
:100C9000D061C09358036093570390E080E00E94B6
:100CA000740592988C2F806B0E948205812F0E9480
:100CB00082058D2F0E94820590E080E0DF91CF9128
:100CC0001F910C947E05D7E11FE06FE7E2CF1092F1
:100CD000570380915803873020F48F5F8093580327
:100CE000089580E0809358030895FF920F931F9317
:100CF000CF93DF938A3009F45DC08D3009F452C080
:100D0000805210E000E08F3530F4082F10E0000F23
:100D1000111F000F111F80915703909158038C37BA
:100D200008F057C0282F2F70F22E82958F70C82F91
:100D3000C0619770D92FD06B90E080E00E9474055D
:100D400092988D2F0E9482058F2D0E9482058C2FF4
:100D50000E94820590E080E00E947E0590E080E0A5
:100D60000E947405929AE801C059DF4F0C581F4F3A
:100D7000FE0184910E9482052196C017D107C1F718
:100D800080E00E94820590E080E00E947E058091D4
:100D900057038B5F80935703DF91CF911F910F9182
:100DA000FF90089510925703DF91CF911F910F91FB
:100DB000FF90089510925703809158038730A0F454
:100DC0008F5F80935803DF91CF911F910F91FF9018
:100DD000089510925703973048F0D0EB90E090932D
:100DE0005803C0E1F12CA8CF80E0EBCF9F5FD92F53
:100DF000D06BF5CFCF93DF93EC018881882331F05E
:100E000021960E94750689918111FBCFDF91CF91C8
:100E10000895CF93DF93883018F0DF91CF91089534
:100E2000D82F90E080E00E94740592988D2F806BFF
:100E30000E94820580E00E94820580E10E94820576
:100E4000929AC0E080E00E948205CF5FC038D1F75F
:100E500090E080E00E947E05D093580310925703E3
:100E6000DF91CF910895CF93DF9390E080E00E94CF
:100E70007405D0E092988D2F806B0E94820580E0EF
:100E80000E94820580E10E948205929AC0E080E083
:100E90000E948205CF5FC038D1F7DF5FD83051F7AD
:100EA00090E080E00E947E05109258031092570354
:100EB00090E080E00E947405929880EB0E94820589
:100EC00080E00E94820580E10E94820590E080E03F
:100ED000DF91CF910C947E0583EC99E00197F1F7B7
:100EE00000C000008EEA0E94B10581EA0E94B105AF
:100EF00062E18AED0E94C00588EC0E94B1056FE3B3
:100F000088EA0E94C00560E885ED0E94C0056FEF89
:100F100081E80E94C00561EF89ED0E94C00562E092
:100F200080E20E94C00564E38BED0E94C00584EA64
:100F30000E94B10586EA0E94B1058FEA0E94B105C0
:100F400087EA91E60197F1F700C000000E9433079D
:100F5000109258031092570390E080E00E947405AD
:100F6000929880EB0E94820580E00E94820580E1D9
:100F70000E94820590E080E00C947E05BF92CF92A3
:100F8000DF92EF92FF920F931F93CF93DF9300D0E6
:100F90001F92CDB7DEB77C01FC0122812770F9F4E6
:100FA00010E00FEFF7016181610F80810B830E94D8
:100FB0003A0661E070E0CE0103960E94D5051F5FFE
:100FC000183081F70F900F900F90DF91CF911F9104
:100FD0000F91FF90EF90DF90CF90BF9008958FEF2B
:100FE00090E0B82E022E01C0BB0C0A94EAF748E04C
:100FF00050E0421B510902C0969587954A95E2F749
:10100000C82E00E0F7011181100FD080BA82C9828A
:10101000612F8D2D0E943A0661E070E0CE010296AC
:101020000E94D505612F81E08D0D0E943A0661E096
:1010300070E0CE0101960E94D5050F5F083011F7D0
:10104000C1CFCF93DF93CDB7DEB729970FB6F89412
:10105000DEBF0FBECDBF0E9467050E946C070E94D5
:101060000E040E94F8052FE33DE083E0215030405C
:101070008040E1F700C000000E94330719821A8205
:101080001B82CE0101960E94BE07EE24EA94F12C49
:1010900038E0C32ED12CAA24AA9446E0442E57E06F
:1010A000852E68E7962E0E9448040E940C048091C9
:1010B0006D0390916E038430910509F44CC0098151
:1010C0001A812B818130910509F4AAC0009709F09B
:1010D000B3C02111C7C0002309F4D0C08B828FEFA9
:1010E000800F8983193708F43DC09A829B818981DA
:1010F00091113AC0883010F0898287E0801304C0D3
:101100008A81811709F4A5C0277099F598E0B92E56
:10111000B10E1986612F802F0E943A0661E070E0BF
:10112000CE0109960E94D5051F5FB112F2CF8B81C7
:10113000877009F041C010E06A81610F8981AE8239
:101140000E943A0661E070E0CE0106960E94D50545
:101150001F5F183089F783EC99E00197F1F700C021
:101160000000A1CF9B818981873040F2498286E0CF
:10117000C5CF66246394600E88E0B82EB10E188641
:101180001F82612F802F0E943A0661E070E0CE013D
:1011900008960E94D505612F862D0E943A0661E0CF
:1011A00070E0CE0107960E94D5051F5FB112E7CF10
:1011B0008B81877009F4BFCF5E2C082E01C0550CBF
:1011C0000A94EAF79601281B3109370102C0769488
:1011D00067942A95E2F700E01A81100FB9805D82CA
:1011E0006C82612F8B2D0E943A0661E070E0CE0187
:1011F00005960E94D505612F81E08B0D0E943A066D
:1012000061E070E0CE0104960E94D5050F5F0830C2
:1012100019F783EC99E00197F1F700C0000043CF84
:10122000273029F181E0820F8B83812F893708F0E5
:101230005CCF9B81802F5CCF8230910529F1039791
:1012400011F0812FF3CF1837E0F781E0810F8A8307
:10125000F0CF921359CF83EC99E00197F1F700C0DA
:10126000000021CF8FEF820F8B83812FDFCF0730DC
:1012700008F038CF1B8281E0800F8983193708F08E
:1012800034CF9B81898136CF802F922F112309F48F
:101290002FCF8FEF810F8A83C9CFCF93DF9300D0F9
:1012A0001F92CDB7DEB783E0898398E29A838B8360
:1012B000CE0101960E94BE078FE493EC0197F1F7EF
:1012C00000C00000F9CF82E091E09093600380932A
:1012D0005F03109259031092B5011092B4010C945F
:1012E0003307EF92FF920F931F93CF93DF937C010D
:1012F0000E943307D7019C91992351F110E000E03F
:10130000D0E0C0E007C02196075E1F4F9C171D0666
:10131000F9F0F4F0D7011196ED91FC91E00FF11F77
:101320008081882381F368E08C2F0E943A06F701C0
:1013300081819281800F911F01960E94FA06D70148
:101340009C912196075E1F4F9C171D0609F014F70C
:1013500060E0809159030E943A068EE3DF91CF91BD
:101360001F910F91FF90EF900C94750680915A0396
:1013700090915B03009761F09093600380935F030B
:1013800010925B0310925A03109259030C94710946
:1013900082E091E09093600380935F031092590381
:1013A0000C9471090E94330760E082E00E943A06C3
:1013B00087E892E00E94FA061AC08091770385FDC3
:1013C00082C086FD88C087FD8EC08091780380FD35
:1013D00092C08091760386FD96C087FDA0C080FDF7
:1013E000AAC083EC99E00197F1F700C0000060E02B
:1013F00083E00E943A0685EA92E00E94FA0686E7B8
:1014000093E00E94E20B882361F390917603892F89
:10141000817091FB222720F9822B92FB222720F951
:10142000822B93FB222720F9822B94FB222720F981
:10143000822B95FB222720F9822B96FB222720F96D
:10144000822B97FB992790F9892B90917703292F6D
:101450002170822B91FB222720F9822B92FB2227DD
:1014600020F9822B93FB222720F9822B94FB222741
:1014700020F9822B95FB222720F9822B96FB22272D
:1014800020F9822B97FB992790F9892B909178036B
:10149000292F2170822B96959170892B09F4A1CF69
:1014A00083E00E94090785EA92E00E94FA06809193
:1014B000780381FF82CF83EB92E00E94FA0680914D
:1014C000770385FF7ECF8BEB92E00E94FA06809136
:1014D000770386FF78CF82EC92E00E94FA06809133
:1014E000770387FF72CF8BEC92E00E94FA0680911F
:1014F000780380FF6ECF84ED92E00E94FA0680911F
:10150000760386FF6ACF8EED92E00E94FA0661E0D4
:1015100080E00E949E0C8091760387FF60CF81EE71
:1015200092E00E94FA0660E080E00E949E0C8091AA
:10153000760380FF56CF83EC99E00197F1F700C066
:10154000000080915F03909160030C9471092091D9
:101550005F033091600330935B0320935A03ECE503
:10156000F3E09283818383E08083F0936003E093D0
:101570005F0310925903CF010C947109CF93DF934D
:10158000EC010E9433076AE083E00E943A0684EE91
:1015900092E00E94FA066AE084E00E943A06CE01D8
:1015A00001960E94FA062FE38DE093E021508040DF
:1015B0009040E1F700C0000080915F0390916003CC
:1015C000DF91CF910C94710980915903811101C071
:1015D000089581508093590380915F039091600337
:1015E0000C94710990915903E0915F03F0916003AD
:1015F00020812150330B921713060CF008959F5F42
:1016000090935903CF010C947109E0915F03F0911D
:10161000600380915903A181B28199E1899FA00D56
:10162000B11D112455968D919C915697009739F4D0
:101630005796ED91FC9158973097B1F00994F0933B
:101640005B03E0935A0390935E0380935D0383E012
:1016500080935C038CE593E09093600380935F0339
:10166000109259030C947109CD010C94BE0A0E948A
:10167000480480916D0390916E03009779F48091F6
:101680005903811126C080916F0381110FC08FE231
:1016900095E70197F1F700C000000895019799F7C9
:1016A0000E94F20A80916F03882389F30E94050B40
:1016B00080916F03882359F30E94480480916F033F
:1016C0008111FACF8FE295E70197F1F700C0000092
:1016D000089581508093590380915F039091600336
:1016E0000E947109D0CF0E9467050E946C070E947A
:1016F000D40B6093760370937703809378030E94F2
:101700000E0482E091E09093600380935F03109257
:1017100059030E9471098091B4019091B501892B00
:1017200041F00E94370B8091B4019091B501892B53
:10173000C1F708950E9433076AE083E00E943A06E9
:101740008EEE92E00E94FA062FEF80E792E02150A1
:1017500080409040E1F700C0000080915F039091CD
:1017600060030C947109CF93DF93EC0181E090E06A
:101770000E94740584E00E9487058DE08A95F1F748
:1017800000000E948C05888300C00E948C0589831C
:1017900000C00E948C058A8381E090E00E947E0553
:1017A00081E0DF91CF91089581E090E00E947E0575
:1017B00060E070E080E00895009711F00C94B30BA6
:1017C00080E008950F931F93CF93DF9300D01F9273
:1017D000CDB7DEB7009709F4A8C08C01CE01019601
:1017E0000E94B30B882309F4A0C069814A815B8100
:1017F000262F30E0F801908160FB90F9B9017595D2
:10180000679560FB91F9B901759567957595679531
:1018100060FB92F9B9017595679575956795759512
:10182000679560FB93F9B90175956795759567950F
:10183000759567957595679560FB94F9359527952E
:101840003595279535952795359527953595279580
:1018500020FB95F9242F30E040FB96F9B9017595EE
:10186000679560FB97F99083B901759567957595B4
:101870006795918160FB90F9B901759567957595AC
:1018800067957595679560FB91F9B90175956795B1
:1018900075956795759567957595679560FB92F950
:1018A000B901759567957595679575956795759562
:1018B00067957595679560FB93F9022E232F000CB1
:1018C000221F330B000C221F331F20FB94F9252FFE
:1018D00030E0428150FB41F9B9017595679560FB95
:1018E00040F94283A901559547955595479540FB89
:1018F00097F9A9015595479555954795559547955C
:1019000040FB96F93595279535952795359527957B
:101910003595279520FB95F991830F900F900F90A7
:10192000DF91CF911F910F91089580E00F900F905C
:101930000F90DF91CF911F910F910895CF93DF9377
:10194000863020F080E0DF91CF910895D62FC82F08
:1019500081E090E00E94740585E00E9487058C2F4D
:101960000E9487058D2F0E94870581E090E00E94EC
:101970007E0581E0DF91CF910895CF93DF9386308C
:1019800020F080E0DF91CF910895D62FC82F81E01D
:1019900090E00E94740586E00E9487058C2F0E94CB
:1019A00087058D2F0E94870581E090E00E947E05CB
:1019B00081E0DF91CF9108950895BA9A82E090E096
:1019C0000E947E058B98939A0C946705CF93C82F3D
:1019D00082E090E00E947E0582E090E00E94740523
:1019E00083E00E9482058C2F0E94820580E00E9485
:1019F0008205C82F82E090E00E947E058C2FCF9157
:101A0000089582E090E00E947E0582E090E00E94CE
:101A1000740580EC0E94820582E090E00E947E05C1
:101A200083EC99E00197F1F700C000008EE00E947E
:101A3000E60C982F907E903861F01F928F938CEF78
:101A400092E09F938F930E9425100F900F900F901C
:101A50000F900895CF93DF93D82FC62F82E090E0A8
:101A60000E947E0582E090E00E94740582E00E9460
:101A700082058D2F0E9482058C2F0E94820582E0B4
:101A800090E0DF91CF910C947E051F93CF93DF936D
:101A9000182FD62FC42F82E090E00E947E0582E0AE
:101AA00090E00E94740585E00E948205812F0E94CB
:101AB00082058D2F0E9482058C2F0E94820582E074
:101AC00090E0DF91CF911F910C947E05CF938330EE
:101AD00010F0CF910895C82F82E090E00E947E051B
:101AE00082E090E00E94740581E090E001C0880FE0
:101AF000CA95EAF780680E94820582E090E0CF9163
:101B00000C947E05CF9382E090E00E947E0582E0F7
:101B100090E00E94740580EA0E94820580E00E94A5
:101B20008205C82F82E090E00E947E058C2FCF9125
:101B30000895FF920F931F93CF93DF93F82E482FB2
:101B400060EE8FE00E94450D0F2D10E0C8E2D3E05B
:101B500012C08EE00E94E60C1F930F93807E1F92AE
:101B60008F93DF93CF930E9425100F900F900F90CB
:101B70000F900F900F908EE00E94E60C807EF8127E
:101B8000E8CFDF91CF911F910F91FF900895682FBB
:101B90008BE20C942A0D8CE20C94E60C40E0682F4A
:101BA0008CE20C94450D0E94DD0C0E94010D60E05A
:101BB0008AE20E942A0D6FEA89E20E942A0D64E0FF
:101BC00088E20E942A0D60E680E60E942A0D60E607
:101BD00080E70E942A0D8FEF0E94CE0D8FE10E94B8
:101BE000C70D8FEF0E94CE0D80E40C94990D0E94DA
:101BF000DD0C0E94010D60E08AE20E942A0D6FEA6E
:101C000089E20E942A0D64E088E20E942A0D60E6C3
:101C100080E60E942A0D60E680E70E942A0D8FEF81
:101C20000E94CE0D8FE10E94C70D8FEF0E94CE0D56
:101C300080E00C94990D0F931F93CF93DF9300973F
:101C400021F0FC012281293030F080E0DF91CF913A
:101C50001F910F9108958C01C081D181BE017695AD
:101C60006795769567957695679581E30E942A0D2D
:101C70006C2F6295660F607E82E30E942A0DF80148
:101C800062816F7085E30E942A0DF80182818823AA
:101C900071F0C0E0F801EC0FF11D638186E38C0F59
:101CA0000E942A0DCF5FF8018281C81798F380E067
:101CB0000E94660D81E0DF91CF911F910F910895F1
:101CC0000F931F93CF93DF93009729F0EC010E94AD
:101CD000CB0D80FD06C080E0DF91CF911F910F9169
:101CE000089581E60E94E60C182F82E60E94E60C19
:101CF000212F30E0220F331F220F331F220F331FFB
:101D0000829586958770282B3983288385E60E94E3
:101D1000E60C8F708A83882379F08E010D5F1F4F48
:101D2000D6E6D80FC6E68C2F0E94E60CF801819308
:101D30008F01CF5FCD13F7CF81E0DF91CF911F915E
:101D40000F9108951F920F920FB60F921124EF92E8
:101D5000FF920F931F932F933F934F935F936F9334
:101D60007F938F939F93AF93BF93EF93FF93CF9303
:101D7000DF93CDB7DEB72B97DEBFCDBF0E94CB0D73
:101D8000082F80FD22C002FF03C084E00E94CE0D18
:101D90002B960FB6F894DEBF0FBECDBFDF91CF916B
:101DA000FF91EF91BF91AF919F918F917F916F9133
:101DB0005F914F913F912F911F910F91FF90EF9065
:101DC0000F900FBE0F901F901895CE0101960E94A4
:101DD000600E81E00E94CE0D8AEF91E00E944210D9
:101DE0008B811F928F938A818F9389818F938AE051
:101DF00092E09F938F930E9425100F900F900F9069
:101E00000F900F900F908B818823D1F010E085E226
:101E1000E82E82E0F82EE4E0F0E0EC0FFD1FE10F89
:101E2000F11D80811F928F93FF92EF920E942510E7
:101E30001F5F0F900F900F900F908B81181758F322
:101E40008AE090E00E943B109ECF20E835E240E01F
:101E500050E060E070E08BE490E00E94EF020E94AE
:101E600040030E94C6030E9467050E946C070E94FF
:101E70003F02AA1BBB1B51E107C0AA1FBB1FA6172D
:101E8000B70710F0A61BB70B881F991F5A95A9F723
:101E900080959095BC01CD010895A1E21A2EAA1B50
:101EA000BB1BFD010DC0AA1FBB1FEE1FFF1FA2170A
:101EB000B307E407F50720F0A21BB30BE40BF50B07
:101EC000661F771F881F991F1A9469F76095709590
:101ED000809590959B01AC01BD01CF010895A29F13
:101EE000B001B39FC001A39F700D811D1124911DEE
:101EF000B29F700D811D1124911D08958F929F92A4
:101F0000AF92BF92CF92DF92EF92FF92CF93DF9387
:101F1000EC01688179818A819B8161157105810558
:101F2000910521F464E279ED8BE597E02DE133EF43
:101F300041E050E00E94331449015A019B01AC0179
:101F4000A7EAB1E40E9452146B017C01ACEEB4EF3D
:101F5000A50194010E946014DC01CB018C0D9D1D34
:101F6000AE1DBF1DB7FF03C00197A109B04888830C
:101F70009983AA83BB839F77DF91CF91FF90EF90E6
:101F8000DF90CF90BF90AF909F908F9008950E9468
:101F90007E0F089586EB91E00E947E0F0895B0E0D9
:101FA000A0E08093B6019093B701A093B801B093DD
:101FB000B90108950F931F93CF93DF93009759F4BE
:101FC0006115710541F4F0E0E0E0CF01DF91CF91C0
:101FD0001F910F9108958B01EC016EE070E081E09C
:101FE00090E00E944712FC01892B69F380E883830B
:101FF0000115110571F01387028781E883838091B1
:10200000790390917A03892B21F4F0937A03E0937A
:1020100079032097D1F2D187C0878381826083833F
:1020200080917B0390917C03892B79F6F0937C035C
:10203000E0937B0380917D0390917E03892B29F6A9
:10204000F0937E03E0937D03C0CFB0E0A0E0EBE22D
:10205000F0E10C947514AE014B5F5F4FFA01619192
:102060007191AF0180917B0390917C030E946D1070
:10207000E2E00C94911460917B0370917C030E94C8
:10208000A51308950F931F93CF93DF93E0917B03E4
:10209000F0917C032381EC0110E000E021FD08C0F9
:1020A0000FEF1FEF14C00995892B11F00FEF1FEFF1
:1020B000899160917B0370917C03DB011896ED910F
:1020C000FC918111F0CF8AE00995892B49F7C8016D
:1020D000DF91CF911F910F910895ABE0B0E0E3E75E
:1020E000F0E10C9465147C013B018A01FC0117822C
:1020F0001682838181FFC8C1CE0101965C01F70180
:102100009381F30193FD859193FF81913F01882392
:1021100009F453C1853239F493FD859193FF819180
:102120003F01853229F4B70190E00E94A513E7CF63
:10213000912C212C312CFFE1F31538F08B3211F169
:1021400090F4803209F1833229F137FC3CC020ED54
:10215000280F2A3050F536FE20C08AE0989E200DC8
:102160001124922E06C08D3291F0803371F768945D
:1021700030F8F30193FD859193FF81913F01811127
:10218000DACF21C0689431F8689432F8F2CF6894BD
:1021900033F8EFCF689434F8ECCFEAE02E9E200DB0
:1021A0001124222E689435F8E4CF8E3229F436FCBF
:1021B00004C1689436F8DDCF8C3619F4689437F88A
:1021C000D8CF8836B1F2982F9F7D95549330E0F0A8
:1021D0008336A1F18337C1F1833509F063C028014B
:1021E000F2E04F0E511CF801C080D180692D70E0E3
:1021F00036FC02C06FEF7FEFC6010E9488134C01CE
:10220000689437F882010AC00C5F1F4FFFE3F9831F
:1022100088248394912C6501E89437F833FE2DC00F
:10222000522C8114910471F5552009F468CFB7013F
:1022300080E290E00E94A5135A94F6CFF8018081C5
:1022400089830E5F1F4FE4CF2801F2E04F0E511C2F
:10225000F801C080D180692D70E036FC02C06FEFBC
:102260007FEFC6010E949A134C018201D5CFB701BE
:1022700080E290E00E94A5132A942814190409F022
:10228000B0F7CECFF60137FC859137FE81916F0113
:10229000B70190E00E94A51351105A94F1E08F1AF3
:1022A0009108BFCF843619F0893609F077C0F8015C
:1022B00037FE6BC060817181828193810C5F1F4FFB
:1022C000F32DFF763F2E97FF09C09095809570956E
:1022D00061957F4F8F4F9F4F689437F82AE030E029
:1022E000A5010E94D513C82ECA188C2C432C36FE8B
:1022F0000CC0E89440F8C91440F434FE05C032FC28
:1023000003C0F32DFE7E4F2E892C44FE95C0FE01A6
:10231000EC0DF11D8081803309F087C0242D297ECA
:10232000422E842D8870582E43FC95C040FE8FC0ED
:102330009C2C821418F42C0C922C981844FE91C0FA
:10234000B70180E390E00E94A51342FE09C088E730
:1023500090E041FE02C088E590E0B7010E94A5131D
:10236000C91408F48AC0CA94D12C9FEFC91AD90A9B
:10237000CA0CDB1CF60182916F01B70190E00E944C
:10238000A513AC14BD04B1F74FCF60817181072E46
:10239000000C880B990B0E5F1F4F92CFD32CE89443
:1023A000D4F82AE030E0853739F1232D297FD22E69
:1023B0008F3601F148F48835A9F0F70186819781BD
:1023C0002B96E2E10C948114803749F08837A9F705
:1023D000D4FE02C06894D2F820E130E00DC06894C9
:1023E000D4F8F6CF34FE03C0822F8660D82E20E1C9
:1023F00032E002C028E030E0F801D7FE0FC0608173
:102400007181828193810C5F1F4FA5010E94D513BA
:10241000C82ECA183D2CE89437F867CF60817181C7
:1024200090E080E00E5F1F4FF0CF42FC02C083942B
:1024300078CF8394839475CF842D867809F471CFF7
:10244000F6CFB70180E290E00E94A5138394821436
:10245000C0F3512C73CF522C5818821408F46ECF4D
:10246000F8CF842D867809F47BCF8BE241FE80E2A1
:1024700047FC8DE2B70190E071CFB70180E390E0B7
:102480000E94A5139A946CCF8FEF9FEF99CF0F9373
:102490001F93CF93DF93869F8001879F100D969F98
:1024A000100D1124C8010E946312EC01009729F05D
:1024B000A80170E060E00E949313CE01DF91CF91FC
:1024C0001F910F9108950F931F93CF93DF93823045
:1024D000910510F482E090E0E0918103F091820395
:1024E00030E020E0B0E0A0E0309799F4211531050C
:1024F00009F44AC0281B390B24303105D8F58A81EC
:102500009B816115710589F1FB0193838283FE0133
:1025100011C0408151810281138148175907E0F0B1
:102520004817590799F4109761F012960C93129777
:1025300013961C933296CF01DF91CF911F910F918B
:1025400008950093810310938203F4CF2115310580
:1025500051F04217530738F0A901DB019A01BD0180
:10256000DF01F801C1CFEF01F9CF9093820380938F
:102570008103CDCFFE01E20FF31F8193919322508F
:10258000310939832883D7CF20917F03309180038D
:10259000232B41F42091BC013091BD013093800385
:1025A00020937F032091BA013091BB0121153105A1
:1025B00041F42DB73EB74091BE015091BF01241B9D
:1025C000350BE0917F03F0918003E217F307A0F44D
:1025D0002E1B3F0B2817390778F0AC014E5F5F4F79
:1025E0002417350748F04E0F5F1F50938003409328
:1025F0007F03819391939FCFF0E0E0E09CCFCF9356
:10260000DF930097E9F0FC01329713821282A091C8
:102610008103B0918203ED0130E020E01097A1F436
:1026200020813181820F931F20917F03309180039D
:102630002817390709F061C0F0938003E0937F0306
:10264000DF91CF910895EA01CE17DF07E8F54A81BF
:102650005B819E0141155105B1F7E901FB83EA83D6
:1026600049915991C40FD51FEC17FD0761F4808182
:1026700091810296840F951FE90199838883828155
:1026800093819B838A83F0E0E0E012968D919C9188
:1026900013970097B9F52D913C911197CD010296B2
:1026A000820F931F20917F033091800328173907F1
:1026B00039F6309751F51092820310928103B0934E
:1026C0008003A0937F03BCCFD383C2834081518119
:1026D000840F951FC817D90761F44E5F5F4F88813B
:1026E0009981480F591F518340838A819B8193832D
:1026F00082832115310509F0B0CFF0938203E09376
:1027000081039ECFFD01DC01C0CF13821282D7CF9F
:10271000FC010590615070400110D8F780959095AC
:102720008E0F9F1F0895DC0101C06D9341505040F2
:10273000E0F70895FC016150704001900110D8F756
:10274000809590958E0F9F1F08950F931F93CF93A1
:10275000DF93182F092FEB018B8181FD09C01FEF3B
:102760000FEF812F902FDF91CF911F910F9108953F
:1027700082FF14C02E813F818C819D8128173907EB
:102780003CF4E881F981CF01019699838883108315
:102790008E819F8101969F838E83E3CFE885F985A3
:1027A000812F0995892BA1F3DACFFA01AA272830C6
:1027B00051F1203181F1E8946F936E7F6E5F7F4F0E
:1027C0008F4F9F4FAF4FB1E03ED0B4E03CD0670F8A
:1027D000781F891F9A1FA11D680F791F8A1F911DDD
:1027E000A11D6A0F711D811D911DA11D20D009F42D
:1027F00068943F912AE0269F11243019305D31936F
:10280000DEF6CF010895462F4770405D4193B3E057
:102810000FD0C9F7F6CF462F4F70405D4A3318F0FE
:10282000495D31FD4052419302D0A9F7EACFB4E0AF
:10283000A6959795879577956795BA95C9F7009767
:102840006105710508959B01AC010A2E0694579508
:10285000479537952795BA95C9F7620F731F841F5F
:10286000951FA01D0895052E97FB1EF400940E944D
:102870004A1457FD07D00E944D0F07FC03D04EF4B9
:102880000C944A1450954095309521953F4F4F4FE9
:102890005F4F089590958095709561957F4F8F4F0C
:1028A0009F4F08950E946F0FA59F900DB49F900DAC
:1028B000A49F800D911D11240895B7FF0C9452140C
:1028C0000E945214821B930B08952F923F924F92B5
:1028D0005F926F927F928F929F92AF92BF92CF92B0
:1028E000DF92EF92FF920F931F93CF93DF93CDB7B9
:1028F000DEB7CA1BDB0B0FB6F894DEBF0FBECDBF31
:1029000009942A88398848885F846E847D848C8401
:102910009B84AA84B984C884DF80EE80FD800C810A
:102920001B81AA81B981CE0FD11D0FB6F894DEBFED
:0C2930000FBECDBFED010895F894FFCF5D
:10293C00001804050101537461727400000000005A
:10294C0000000000000000000000000021080153FE
:10295C00657474696E6773202620546573747300F4
:10296C00000000690100000141626F7574000000F5
:10297C000000000000000000000000000000DC0C63
:10298C0001506F776572204F464600000000000032
:10299C000000000000000063090143616C69627271
:1029AC0061746500000000000000000000000000E1
:1029BC000E0401546573742041565200000000004F
:1029CC00000000000000000000D209014261636BAE
:1029DC0000000000000000000000000000000000EB
:1029EC000000B60901000100000000008303200074
:1029FC0048454C4C4F20574F524C44004C696E6527
:102A0C00203420616674657220636C656172004DC0
:102A1C00435032353135206C6F6F706261636B20BF
:102A2C002073746172742E2E2E0052656365697664
:102A3C006564206672616D65210049443A203078E6
:102A4C00253033582C20444C433A2025752C2044F7
:102A5C004154413A002025303258004D4350323514
:102A6C003135206C6F6F706261636B2077697468AD
:102A7C0020696E742E2E2E004D4350323531352088
:102A8C006E6F726D616C206D6F6465207374617212
:102A9C00742E2E2E0053656E64696E672043414E72
:102AAC00206672616D652E2E2E00436F756E7465F7
:102ABC00723A2025640A00507265737320616E7936
:102ACC0020627574746F6E2028523120746F2065EB
:102ADC0078697429004C6173742070726573736526
:102AEC00643A004E41562062746E004E4156207579
:102AFC0070004E415620646F776E004E4156206C2C
:102B0C00656674004E4156207269676874004C31DA
:102B1C00004C320053656C65637465643A0054452F
:102B2C00535420414354494F4E2E2E004D435020B8
:102B3C004E4F5420696E20636F6E666967757261C3
:102B4C0074696F6E2061667465722072657365744A
:102B5C0020210A202564200043757272656E742052
:102B6C006D6F64653A203078253032582C204465DE
:102B7C007369726564206D6F64653A203078253016
:042B8C0032580A00B1
:00000001FF
