:100000000C94F6000C9413010C94FC0D0C94130149
:100010000C9413010C9413010C9413010C94130110
:100020000C9413010C9413010C9413010C94130100
:100030000C9413010C9413010C9413010C941301F0
:100040000C9413010C9413010C9413010C941301E0
:100050000C9413010C9413010C9413010C941301D0
:100060000C9413010C9413010C9413010C941301C0
:1000700000000000005C00000C000C007C287C28C4
:1000800058DC68002410480028542840000C000068
:10009000007884008478000054385400107C1000EC
:1000A00080400000101010000040000060100C00A4
:1000B00038543800487C40004864580044542C00B0
:1000C0001C107C005C5424003854240064140C0080
:1000D00068542C0048543800004800008048000054
:1000E0001028440028282800442810000454080040
:1000F00038445C00781478007C5428003844280088
:100100007C4438007C5444007C140400384474005F
:100110007C107C00447C440020403C007C106C003F
:100120007C4040007C187C0078103C00384438004B
:100130007C1408003844B8007C146800485424003B
:10014000047C04007C407C003C603C007C307C00F3
:100150006C106C000C700C0064544C00007C44006B
:100160000C106000447C00000804080080808000BF
:1001700000040800304878007C48300030484800CF
:1001800030487C00306850001078140090A8780047
:100190007C08700050744000808074007C106800FF
:1001A000447C4000781078007808700030483000B7
:1001B000F82810003048F80078100800505828003F
:1001C000083C4800384078003840380078207800F3
:1001D0004830480098A0780048685800107884009B
:1001E000007C0000847810000804080411241FBE5D
:1001F000CFEFD4E0DEBFCDBF12E0A0E0B1E0E0EF92
:10020000F7E202C005900D92AA3EB107D9F723E0AC
:10021000AAEEB2E001C01D92A931B207E1F70E9437
:100220007C0E0C94F6130C940000399A00C000C0A8
:100230000000399800C000C0000008958FEF8ABB0D
:10024000319A1BBA399880E08BBB399A00C000C044
:100250000000399800C000C000002FEF3FEF92E08F
:10026000215030409040E1F700C000C08F5FECCFDC
:100270000C94D0020C948A030E94B2030E94B10332
:100280000E94EC030E94B0032FEF8FEF92E0215009
:1002900080409040E1F700C000C0F2CF0E94BC0453
:1002A0000E94BB040E94C6040E94BA042FEF8FEF85
:1002B00092E0215080409040E1F700C000C0F2CFB2
:1002C0002FEF8FEF9DE1215080409040E1F700C07B
:1002D00000000E949C0580EC91E00E949E062FEF9A
:1002E0008FEF9DE1215080409040E1F700C0000079
:1002F00060E083E00E94DE058CEC91E00E949E06A7
:100300002FEF8FEF9DE1215080409040E1F700C03A
:1003100000000895EF92FF921F93CF93DF93CDB724
:10032000DEB766970FB6F894DEBF0FBECDBF8FED78
:1003300091E00E949C0F0E944E0DFE01729685E096
:10034000DF011D928A95E9F783E291E09D878C8712
:1003500083E08E8781E18F8782E2888B83E3898BBC
:10036000CE010C960E94720DCE0101960E94B70D2F
:100370008823D1F38AEF91E00E949C0F8B811F921A
:100380008F938A818F9389818F938AE092E09F93E4
:100390008F930E947F0F0F900F900F900F900F90F0
:1003A0000F908B818823D1F010E085E2E82E82E067
:1003B000F82EE4E0F0E0EC0FFD1FE10FF11D80816D
:1003C0001F928F93FF92EF920E947F0F1F5F0F90FB
:1003D0000F900F900F908B81181758F38AE090E0E0
:1003E0000E94950F66960FB6F894DEBF0FBECDBF84
:1003F000DF91CF911F91FF90EF900895CF93DF93FE
:10040000CDB7DEB72B970FB6F894DEBF0FBECDBFCA
:100410008BE292E00E949C0F0E944E0D85B7837F75
:10042000886085BF8BB780688BBF7894FE01379654
:1004300085E0DF011D928A95E9F783E291E09A83D6
:10044000898383E08B8381E18C8382E28D8383E3E4
:100450008E83CE0101960E94720DFFCF0E940B0584
:1004600082E090E00E9418052FEF8FEF9EE0215070
:1004700080409040E1F700C0000082E090E00E94E0
:1004800022052FEF8FEF9EE0215080409040E1F752
:1004900000C0000081E090E00E9418052FEF8FEF70
:1004A0009EE0215080409040E1F700C0000081E0D4
:1004B00090E00E9422052FEF8FEF9EE021508040B8
:1004C0009040E1F700C0000090E080E00E94180535
:1004D0002FEF8FEF9EE0215080409040E1F700C069
:1004E000000090E080E00E9422052FEF8FEF9EE059
:1004F000215080409040E1F700C00000B1CF8A3029
:1005000031F05D9BFECF8CB990E080E008955D9B5B
:10051000FECF9DE09CB9F5CF5F9BFECF8CB1082E3E
:10052000000C990B0895220F331F441F551F220FF3
:10053000331F441F551F220F331F441F551F220F07
:10054000331F441F551F0E94A70E2150310930BD93
:1005500029B91BB88EE880BD549A539A6CE872E0B2
:100560008FE792E00C94340F5D9BFECF8CB9089519
:10057000FC01892B51F09081992339F031965D9BD4
:10058000FECF9CB991919111FACF08958BB1082EAD
:10059000000C990B892F881F8827881F90E00895E9
:1005A0005F9BFECF8CB108959C012F5F3F4FFC01F4
:1005B0008491882341F0F9015D9BFECF8CB9849131
:1005C00031968111F9CF089585B7806885BF80B7CE
:1005D000806280BF0895811528E0920758F4209129
:1005E000000130910101820F931FFC01608390E0B4
:1005F00080E0089581E090E00895811528E0920759
:1006000048F42091000130910101820F931FFC01F9
:100610008081089581E008950F931F93CF93DF9316
:100620000E94240F8C010E94290FD0E0C0E00E949C
:10063000240FE0910001F0910101EC0FFD1F808378
:10064000E0910001F0910101EC0FFD1F80812196E6
:10065000C11588E0D80759F7C8010E94290FD0E0DA
:10066000C0E00E94240FE0910001F0910101EC0F25
:10067000FD1F80812196C11588E0D80791F7DF9191
:10068000CF911F910F910895E0E0F0E185EA80831A
:10069000A7E9BAE31197F1F700C00000B096E115A1
:1006A000B8E1FB07A1F785EA8083A7E9BAE31197D0
:1006B000F1F700C00000B096E115B0E2FB07A1F72A
:1006C0002FE58AEE90E0215080409040E1F700C095
:1006D000000008958D9A8FB58F778FBD8FB5806498
:1006E0008FBD8EB58F7E8EBD8EB588608EBD8FB569
:1006F0008D7F8FBD8FB58E7F8FBD1BBC1ABC8EB515
:100700008B7F8EBD8EB58D7F8EBD8EB581608EBD8B
:100710008C98089510920010849B08C0000089E016
:1007200090E0849B03C000000197D9F7849909C029
:10073000000081E390E003C00000019711F0849B6A
:10074000FBCF809100108093EA028091001080938B
:10075000EB02809100108093EC028AEE92E0089503
:1007600008950895EF92FF920F931F93CF93CAE0DD
:1007700010E000E0F12CE12C0E948A03FC012081B2
:10078000E20EF11C8181080F111DC150A9F7BB9821
:100790009701ADECBCEC0E94C90E96958795969595
:1007A00087959695879599279093F8028093F702FD
:1007B00098010E94C90E969587959695879596956E
:1007C000879599279093FA028093F902CF911F9110
:1007D0000F91FF90EF9008950F931F93CF93DF93A6
:1007E0000E948A03FC014081042F10E02181C22F66
:1007F000D0E00E948A03FC014081400F512F511D1F
:100800005695479521812C0F3D2F311D3695279503
:10081000E22F86B383FB882780F991E089278093B4
:1008200005035093FC024093FB023093FE02209399
:10083000FD028091F7029091F802481790F09927F5
:1008400067EF70E0681B790B09F45CC0481B590B1B
:10085000F4E6F49FC001F59F900D11240E94930EC1
:1008600014C09927BC016454710909F44BC0841B5E
:10087000950BF4E6F89FA001F99F500D1124CA01D1
:100880000E94930E719561957109709300036093B6
:10089000FF028091F9029091FA02E817B0F19927CE
:1008A00069EF70E0681B790B09F450C0281B390B05
:1008B00044E6429FC001439F900D11240E94930E75
:1008C00070930203609301038091010390910203EE
:1008D0002091FF0230910003AC0197FF04C0442730
:1008E0005527481B590B253131051CF124173507B5
:1008F000DCF5853191056CF58C3E9F4FC4F184E0A9
:1009000090E029C070E060E0C0CF9927BC0161543D
:100910007109E1F0821B930B44E6489F9001499FC7
:10092000300D1124C9010E94930E719561957109D2
:10093000C7CF2C3EFFEF3F07E4F6319521953109F3
:1009400024173507B4F282E090E005C070E060E063
:10095000B7CF90E080E09093040380930303DF918E
:10096000CF911F910F91089583E090E0F4CF81E043
:1009700090E0F1CF089508950E948A03FC018281DE
:1009800090E0909307038093060308950E948A03E2
:10099000FC012281822F90E0909309038093080349
:1009A00060910603709107032617B8F077274FEF81
:1009B00050E0461B570B41F19C01261B370B64E6A8
:1009C000629FC001639F900D1124BA010E94930E93
:1009D00070930B0360930A030895772761157105DF
:1009E00099F09B01281B390B44E6429FC001439FAD
:1009F000900D11240E94930E719561957109709369
:100A00000B0360930A03089570E060E070930B039A
:100A100060930A03089587B3806B87BBBE988A9A58
:100A2000B89AB99AC09AC19AC49A82E58DB90895C4
:100A3000009721F0029721F0C1980895C098089579
:100A4000C2980895C19AC09AC29A08958FB9779BA7
:100A5000FECF8FB108958FB9779BFECF8FB10895E8
:100A60008FEF8FB9779BFECF8FB108956115710518
:100A700059F0FC01680F791F81918FB9779BFECFE8
:100A80008FB1E617F707C1F708956115710561F099
:100A9000FC01680F791F9FEF9FB9779BFECF8FB145
:100AA0008193E617F707C1F70895CF93C82F90E019
:100AB00080E00E94180592988C2F0E94260590E0F5
:100AC00080E0CF910C942205CF93DF93D82FC62FCF
:100AD00090E080E00E94180592988D2F0E942605D4
:100AE0008C2F0E94260590E080E0DF91CF910C943E
:100AF0002205EF92FF920F931F93CF93DF937C0118
:100B00008B0190E080E00E941805929A0115110572
:100B100049F0E7010E0D1F1D89910E942605C0179F
:100B2000D107D1F790E080E0DF91CF911F910F9135
:100B3000FF90EF900C942205CF93DF93D0E090E0EC
:100B400080E00E94180592988D2F806B0E942605E8
:100B500080E00E94260580E10E94260590E080E06A
:100B60000E94220590E080E00E941805929AC0E061
:100B70008FEF0E942605CF5FC038D1F790E080E06C
:100B80000E942205DF5FD830D1F6DF91CF91089522
:100B90001092EE021092ED0290E080E00E941805A3
:100BA000929880EB0E94260580E00E94260580E155
:100BB0000E94260590E080E00C9422051F93CF93BD
:100BC000DF93C82F883008F0C7E067FD20C0162FDC
:100BD0001F70D62FD295DF70D061C093EE02609364
:100BE000ED0290E080E00E94180592988C2F806BB7
:100BF0000E942605812F0E9426058D2F0E94260522
:100C000090E080E0DF91CF911F910C942205D7E115
:100C10001FE06FE7E2CF1092ED028091EE02873085
:100C200020F48F5F8093EE02089580E08093EE02BF
:100C30000895FF920F931F93CF93DF938A3009F4A7
:100C40005DC08D3009F452C0805210E000E08F3555
:100C500030F4082F10E0000F111F000F111F8091BA
:100C6000ED029091EE028C3708F057C0282F2F70BC
:100C7000F22E82958F70C82FC0619770D92FD06BDC
:100C800090E080E00E94180592988D2F0E94260522
:100C90008F2D0E9426058C2F0E94260590E080E073
:100CA0000E94220590E080E00E941805929AE801D7
:100CB000C059DF4F0C581F4FFE0184910E9426053A
:100CC0002196C017D107C1F780E00E94260590E069
:100CD00080E00E9422058091ED028B5F8093ED02FF
:100CE000DF91CF911F910F91FF9008951092ED0227
:100CF000DF91CF911F910F91FF9008951092ED0217
:100D00008091EE028730A0F48F5F8093EE02DF9136
:100D1000CF911F910F91FF9008951092ED0297309F
:100D200048F0D0EB90E09093EE02C0E1F12CA8CF18
:100D300080E0EBCF9F5FD92FD06BF5CFCF93DF93C0
:100D4000EC018881882331F021960E94190689914F
:100D50008111FBCFDF91CF910895CF93DF9388303E
:100D600018F0DF91CF910895D82F90E080E00E9495
:100D7000180592988D2F806B0E94260580E00E94B6
:100D8000260580E10E942605929AC0E080E00E943C
:100D90002605CF5FC038D1F790E080E00E942205A1
:100DA000D093EE021092ED02DF91CF910895CF9390
:100DB000DF9390E080E00E941805D0E092988D2F9C
:100DC000806B0E94260580E00E94260580E10E943B
:100DD0002605929AC0E080E00E942605CF5FC038C9
:100DE000D1F7DF5FD83051F790E080E00E94220514
:100DF0001092EE021092ED0290E080E00E94180541
:100E0000929880EB0E94260580E00E94260580E1F2
:100E10000E94260590E080E0DF91CF910C9422059E
:100E200083EC99E00197F1F700C000008EEA0E9480
:100E3000550581EA0E94550562E18AED0E9464052C
:100E400088EC0E9455056FE388EA0E94640560E81B
:100E500085ED0E9464056FEF81E80E94640561EFF3
:100E600089ED0E94640562E080E20E94640564E30B
:100E70008BED0E94640584EA0E94550586EA0E9473
:100E800055058FEA0E94550587EA91E60197F1F72B
:100E900000C000000E94D7061092EE021092ED02F0
:100EA00090E080E00E941805929880EB0E94260551
:100EB00080E00E94260580E10E94260590E080E007
:100EC0000C942205BF92CF92DF92EF92FF920F9384
:100ED0001F93CF93DF9300D01F92CDB7DEB77C0175
:100EE000FC0122812770F9F410E00FEFF701618116
:100EF000610F80810B830E94DE0561E070E0CE010E
:100F000003960E9479051F5F183081F70F900F90AC
:100F10000F90DF91CF911F910F91FF90EF90DF9095
:100F2000CF90BF9008958FEF90E0B82E022E01C0B1
:100F3000BB0C0A94EAF748E050E0421B510902C09A
:100F4000969587954A95E2F7C82E00E0F701118142
:100F5000100FD080BA82C982612F8D2D0E94DE05CC
:100F600061E070E0CE0102960E947905612F81E078
:100F70008D0D0E94DE0561E070E0CE0101960E94B9
:100F800079050F5F083011F7C1CFCF93DF93CDB74D
:100F9000DEB729970FB6F894DEBF0FBECDBF0E9413
:100FA0000B050E9410070E94B2030E949C052FE3CC
:100FB0003DE083E0215030408040E1F700C0000078
:100FC0000E94D70619821A821B82CE0101960E94C6
:100FD0006207EE24EA94F12C38E0C32ED12CAA2427
:100FE000AA9446E0442E57E0852E68E7962E0E948C
:100FF000EC030E94B00380910303909104038430BA
:10100000910509F44CC009811A812B818130910529
:1010100009F4AAC0009709F0B3C02111C7C000238A
:1010200009F4D0C08B828FEF800F8983193708F4C1
:101030003DC09A829B81898191113AC0883010F01D
:10104000898287E0801304C08A81811709F4A5C0D2
:10105000277099F598E0B92EB10E1986612F802F6F
:101060000E94DE0561E070E0CE0109960E947905DC
:101070001F5FB112F2CF8B81877009F041C010E081
:101080006A81610F8981AE820E94DE0561E070E0B5
:10109000CE0106960E9479051F5F183089F783EC10
:1010A00099E00197F1F700C00000A1CF9B818981F1
:1010B000873040F2498286E0C5CF66246394600E93
:1010C00088E0B82EB10E18861F82612F802F0E94F3
:1010D000DE0561E070E0CE0108960E947905612F7F
:1010E000862D0E94DE0561E070E0CE0107960E9429
:1010F00079051F5FB112E7CF8B81877009F4BFCFED
:101100005E2C082E01C0550C0A94EAF79601281BA4
:101110003109370102C0769467942A95E2F700E01E
:101120001A81100FB9805D826C82612F8B2D0E9415
:10113000DE0561E070E0CE0105960E947905612F21
:1011400081E08B0D0E94DE0561E070E0CE01049627
:101150000E9479050F5F083019F783EC99E0019739
:10116000F1F700C0000043CF273029F181E0820F62
:101170008B83812F893708F05CCF9B81802F5CCFD8
:101180008230910529F1039711F0812FF3CF1837A1
:10119000E0F781E0810F8A83F0CF921359CF83EC7F
:1011A00099E00197F1F700C0000021CF8FEF820F87
:1011B0008B83812FDFCF073008F038CF1B8281E08F
:1011C000800F8983193708F034CF9B81898136CF0E
:1011D000802F922F112309F42FCF8FEF810F8A8355
:1011E000C9CFCF93DF9300D01F92CDB7DEB783E096
:1011F000898398E29A838B83CE0101960E946207CD
:101200008FE493EC0197F1F700C00000F9CF82E082
:1012100091E09093F6028093F5021092EF02109203
:10122000B5011092B4010C94D706EF92FF920F9380
:101230001F93CF93DF937C010E94D706D7019C9127
:10124000992351F110E000E0D0E0C0E007C0219602
:10125000075E1F4F9C171D06F9F0F4F0D701119699
:10126000ED91FC91E00FF11F8081882381F368E00C
:101270008C2F0E94DE05F70181819281800F911FE2
:1012800001960E949E06D7019C912196075E1F4FF2
:101290009C171D0609F014F760E08091EF020E9490
:1012A000DE058EE3DF91CF911F910F91FF90EF90BC
:1012B0000C9419068091F0029091F102009761F070
:1012C0009093F6028093F5021092F1021092F002D0
:1012D0001092EF020C94150982E091E09093F602CF
:1012E0008093F5021092EF020C9415090E94D70624
:1012F00060E082E00E94DE0588E492E00E949E06A3
:101300001AC080910D0385FD82C086FD88C087FDCF
:101310008EC080910E0380FD92C080910C0386FDEB
:1013200096C087FDA0C080FDAAC083EC99E001971C
:10133000F1F700C0000060E083E00E94DE0586E671
:1013400092E00E949E068CE093E00E94860B882328
:1013500061F390910C03892F817091FB222720F972
:10136000822B92FB222720F9822B93FB222720F944
:10137000822B94FB222720F9822B95FB222720F930
:10138000822B96FB222720F9822B97FB992790F935
:10139000892B90910D03292F2170822B91FB2227FD
:1013A00020F9822B92FB222720F9822B93FB222704
:1013B00020F9822B94FB222720F9822B95FB2227F0
:1013C00020F9822B96FB222720F9822B97FB992765
:1013D00090F9892B90910E03292F2170822B9695DD
:1013E0009170892B09F4A1CF83E00E94AD0686E6B7
:1013F00092E00E949E0680910E0381FF82CF84E7D7
:1014000092E00E949E0680910D0385FF7ECF8CE7BF
:1014100092E00E949E0680910D0386FF78CF83E8BC
:1014200092E00E949E0680910D0387FF72CF8CE8A8
:1014300092E00E949E0680910E0380FF6ECF85E9A8
:1014400092E00E949E0680910C0386FF6ACF8FE98E
:1014500092E00E949E0661E080E00E94420C809132
:101460000C0387FF60CF82EA92E00E949E0660E054
:1014700080E00E94420C80910C0380FF56CF83ECE9
:1014800099E00197F1F700C000008091F50290917A
:10149000F6020C9415092091F5023091F602309372
:1014A000F1022093F002E2EFF2E09283818383E085
:1014B0008083F093F602E093F5021092EF02CF01E1
:1014C0000C941509CF93DF93EC010E94D7066AE0D4
:1014D00083E00E94DE0585EA92E00E949E066AE0B3
:1014E00084E00E94DE05CE0101960E949E062FE355
:1014F0008DE093E0215080409040E1F700C0000073
:101500008091F5029091F602DF91CF910C9415092C
:101510008091EF02811101C0089581508093EF0204
:101520008091F5029091F6020C9415099091EF02CA
:10153000E091F502F091F60220812150330B9217D1
:1015400013060CF008959F5F9093EF02CF010C9467
:101550001509E091F502F091F6028091EF02A18168
:10156000B28199E1899FA00DB11D112455968D91ED
:101570009C915697009739F45796ED91FC915897A6
:101580003097B1F00994F093F102E093F002909358
:10159000F4028093F30283E08093F20282EF92E000
:1015A0009093F6028093F5021092EF020C941509C5
:1015B000CD010C94620A0E94EC0380910303909188
:1015C0000403009779F48091EF02811126C0809185
:1015D000050381110FC08FE295E70197F1F700C075
:1015E00000000895019799F70E94960A80910503DB
:1015F000882389F30E94A90A80910503882359F35F
:101600000E94EC03809105038111FACF8FE295E7E8
:101610000197F1F700C00000089581508093EF0218
:101620008091F5029091F6020E941509D0CF0E9498
:101630000B050E9410070E94780B60930C037093B7
:101640000D0380930E030E94B20382E091E0909319
:10165000F6028093F5021092EF020E941509809124
:10166000B4019091B501892B41F00E94DB0A809171
:10167000B4019091B501892BC1F708950E94D70656
:101680006AE083E00E94DE058FEA92E00E949E06F7
:101690002FEF80E792E0215080409040E1F700C0BA
:1016A00000008091F5029091F6020C941509CF93F9
:1016B000DF93EC0181E090E00E94180584E00E9435
:1016C0002B058DE08A95F1F700000E943005888394
:1016D00000C00E943005898300C00E9430058A83C3
:1016E00081E090E00E94220581E0DF91CF91089592
:1016F00081E090E00E94220560E070E080E00895C3
:10170000009711F00C94570B80E008950F931F93EE
:10171000CF93DF9300D01F92CDB7DEB7009709F4C7
:10172000A8C08C01CE0101960E94570B882309F4B2
:10173000A0C069814A815B81262F30E0F801908149
:1017400060FB90F9B9017595679560FB91F9B90156
:10175000759567957595679560FB92F9B9017595D3
:101760006795759567957595679560FB93F9B901D0
:101770007595679575956795759567957595679551
:1017800060FB94F9359527953595279535952795DF
:10179000359527953595279520FB95F9242F30E031
:1017A00040FB96F9B9017595679560FB97F99083B1
:1017B000B9017595679575956795918160FB90F96D
:1017C000B90175956795759567957595679560FBF2
:1017D00091F9B901759567957595679575956795B3
:1017E0007595679560FB92F9B90175956795759543
:1017F000679575956795759567957595679560FB80
:1018000093F9022E232F000C221F330B000C221FF2
:10181000331F20FB94F9252F30E0428150FB41F922
:10182000B9017595679560FB40F94283A90155950B
:1018300047955595479540FB97F9A90155954795CB
:10184000559547955595479540FB96F935952795BC
:1018500035952795359527953595279520FB95F94D
:1018600091830F900F900F90DF91CF911F910F9167
:10187000089580E00F900F900F90DF91CF911F910E
:101880000F910895CF93DF93863020F080E0DF91B1
:10189000CF910895D62FC82F81E090E00E941805BF
:1018A00085E00E942B058C2F0E942B058D2F0E9416
:1018B0002B0581E090E00E94220581E0DF91CF912D
:1018C0000895CF93DF93863020F080E0DF91CF91B1
:1018D0000895D62FC82F81E090E00E94180586E079
:1018E0000E942B058C2F0E942B058D2F0E942B050B
:1018F00081E090E00E94220581E0DF91CF91089580
:101900000895BA9A82E090E00E9422058B98939AFB
:101910000C940B05CF93C82F82E090E00E94220523
:1019200082E090E00E94180583E00E9426058C2F3B
:101930000E94260580E00E942605C82F82E090E0E4
:101940000E9422058C2FCF91089582E090E00E94A2
:10195000220582E090E00E94180580EC0E94260596
:1019600082E090E00E94220583EC99E00197F1F774
:1019700000C000008EE00E948A0C982F907E903864
:1019800061F01F928F938DEB92E09F938F930E9453
:101990007F0F0F900F900F900F900895CF93DF93CC
:1019A000D82FC62F82E090E00E94220582E090E0CE
:1019B0000E94180582E00E9426058D2F0E942605B0
:1019C0008C2F0E94260582E090E0DF91CF910C944D
:1019D00022051F93CF93DF93182FD62FC42F82E0B9
:1019E00090E00E94220582E090E00E94180585E0C8
:1019F0000E942605812F0E9426058D2F0E94260514
:101A00008C2F0E94260582E090E0DF91CF911F91FC
:101A10000C942205CF93833010F0CF910895C82FF6
:101A200082E090E00E94220582E090E00E9418058A
:101A300081E090E001C0880FCA95EAF780680E94B3
:101A4000260582E090E0CF910C942205CF9382E0AE
:101A500090E00E94220582E090E00E94180580EA52
:101A60000E94260580E00E942605C82F82E090E0B3
:101A70000E9422058C2FCF910895482F60EE8FE0B1
:101A80000C94E90C682F8BE20C94CE0C8CE20C9435
:101A90008A0C40E0682F8CE20C94E90C0E94810CC7
:101AA0000E94A50C60E08AE20E94CE0C6FEA89E2F7
:101AB0000E94CE0C64E088E20E94CE0C60E680E6D4
:101AC0000E94CE0C60E680E70E94CE0C8FEF0E9451
:101AD000490D8FE10E94420D8FEF0E94490D80E475
:101AE0000C943D0D0F931F93CF93DF93009721F03C
:101AF000FC012281293030F080E0DF91CF911F91ED
:101B00000F9108958C01C081D181BE0176956795B2
:101B1000769567957695679581E30E94CE0C6C2F3C
:101B20006295660F607E82E30E94CE0CF8016281AE
:101B30006F7085E30E94CE0CF8018281882371F0DA
:101B4000C0E0F801EC0FF11D638186E38C0F0E9469
:101B5000CE0CCF5FF8018281C81798F380E00E9415
:101B60000A0D81E0DF91CF911F910F9108950F939E
:101B70001F93CF93DF93009729F0EC010E94460D4D
:101B800080FD06C080E0DF91CF911F910F910895F5
:101B900081E60E948A0C182F82E60E948A0C212F6F
:101BA00030E0220F331F220F331F220F331F829585
:101BB00086958770282B3983288385E60E948A0CB6
:101BC0008F708A83882379F08E010D5F1F4FD6E6D0
:101BD000D80FC6E68C2F0E948A0CF80181938F01E2
:101BE000CF5FCD13F7CF81E00E94490D81E0DF91F7
:101BF000CF911F910F9108951F920F920FB60F92E0
:101C00001124EF92FF920F931F932F933F934F93C3
:101C10005F936F937F938F939F93AF93BF93EF9354
:101C2000FF93CF93DF93CDB7DEB72B97DEBFCDBF4A
:101C30000E94460D082F80FD22C002FF03C084E0F1
:101C40000E94490D2B960FB6F894DEBF0FBECDBF94
:101C5000DF91CF91FF91EF91BF91AF919F918F91C4
:101C60007F916F915F914F913F912F911F910F91B4
:101C7000FF90EF900F900FBE0F901F901895CE0120
:101C800001960E94B70D8AEF91E00E949C0F8B8114
:101C90001F928F938A818F9389818F938AE092E03C
:101CA0009F938F930E947F0F0F900F900F900F9034
:101CB0000F900F908B818823D1F010E085E2E82E01
:101CC00082E0F82EE4E0F0E0EC0FFD1FE10FF11DE3
:101CD00080811F928F93FF92EF920E947F0F1F5F70
:101CE0000F900F900F900F908B81181758F38AE088
:101CF00090E00E94950FA1CF20E835E240E050E04F
:101D000060E070E08BE490E00E9493020E94E402A5
:101D10000E946A030E940B050E9410070E94170B85
:101D200090E080E00895AA1BBB1B51E107C0AA1FE9
:101D3000BB1FA617B70710F0A61BB70B881F991F6C
:101D40005A95A9F780959095BC01CD010895A1E21F
:101D50001A2EAA1BBB1BFD010DC0AA1FBB1FEE1F25
:101D6000FF1FA217B307E407F50720F0A21BB30B70
:101D7000E40BF50B661F771F881F991F1A9469F7EC
:101D800060957095809590959B01AC01BD01CF0148
:101D90000895A29FB001B39FC001A39F700D811D44
:101DA0001124911DB29F700D811D1124911D089564
:101DB0008F929F92AF92BF92CF92DF92EF92FF925B
:101DC000CF93DF93EC01688179818A819B816115D2
:101DD00071058105910521F464E279ED8BE597E0C9
:101DE0002DE133EF41E050E00E948D1349015A018B
:101DF0009B01AC01A7EAB1E40E94AC136B017C012A
:101E0000ACEEB4EFA50194010E94BA13DC01CB0142
:101E10008C0D9D1DAE1DBF1DB7FF03C00197A1090D
:101E2000B04888839983AA83BB839F77DF91CF9142
:101E3000FF90EF90DF90CF90BF90AF909F908F90EA
:101E400008950E94D80E089586EB91E00E94D80E66
:101E50000895B0E0A0E08093B6019093B701A093FD
:101E6000B801B093B90108950F931F93CF93DF93F7
:101E7000009759F46115710541F4F0E0E0E0CF01FD
:101E8000DF91CF911F910F9108958B01EC016EE0CE
:101E900070E081E090E00E94A111FC01892B69F3C0
:101EA00080E883830115110571F01387028781E8AB
:101EB000838380910F0390911003892B21F4F09379
:101EC0001003E0930F032097D1F2D187C08783815D
:101ED000826083838091110390911203892B79F69C
:101EE000F0931203E0931103809113039091140374
:101EF000892B29F6F0931403E0931303C0CFB0E0CD
:101F0000A0E0E5E8FFE00C94CF13AE014B5F5F4F1C
:101F1000FA0161917191AF018091110390911203C7
:101F20000E94C70FE2E00C94EB13609111037091D3
:101F300012030E94FF1208950F931F93CF93DF9314
:101F4000E0911103F09112032381EC0110E000E015
:101F500021FD08C00FEF1FEF14C00995892B11F068
:101F60000FEF1FEF89916091110370911203DB0154
:101F70001896ED91FC918111F0CF8AE00995892B9B
:101F800049F7C801DF91CF911F910F910895ABE000
:101F9000B0E0EDECFFE00C94BF137C013B018A0143
:101FA000FC0117821682838181FFC8C1CE01019690
:101FB0005C01F7019381F30193FD859193FF81917A
:101FC0003F01882309F453C1853239F493FD85918B
:101FD00093FF81913F01853229F4B70190E00E947F
:101FE000FF12E7CF912C212C312CFFE1F31538F0B3
:101FF0008B3211F190F4803209F1833229F137FCF0
:102000003CC020ED280F2A3050F536FE20C08AE073
:10201000989E200D1124922E06C08D3291F08033AF
:1020200071F7689430F8F30193FD859193FF8191E6
:102030003F018111DACF21C0689431F8689432F8F9
:10204000F2CF689433F8EFCF689434F8ECCFEAE03D
:102050002E9E200D1124222E689435F8E4CF8E3266
:1020600029F436FC04C1689436F8DDCF8C3619F4B7
:10207000689437F8D8CF8836B1F2982F9F7D955461
:102080009330E0F08336A1F18337C1F1833509F055
:1020900063C02801F2E04F0E511CF801C080D180CE
:1020A000692D70E036FC02C06FEF7FEFC6010E9421
:1020B000E2124C01689437F882010AC00C5F1F4F8E
:1020C000FFE3F98388248394912C6501E89437F821
:1020D00033FE2DC0522C8114910471F5552009F462
:1020E00068CFB70180E290E00E94FF125A94F6CFC9
:1020F000F801808189830E5F1F4FE4CF2801F2E051
:102100004F0E511CF801C080D180692D70E036FC63
:1021100002C06FEF7FEFC6010E94F4124C018201F2
:10212000D5CFB70180E290E00E94FF122A942814D4
:10213000190409F0B0F7CECFF60137FC859137FED0
:1021400081916F01B70190E00E94FF1251105A94E3
:10215000F1E08F1A9108BFCF843619F0893609F063
:1021600077C0F80137FE6BC06081718182819381F5
:102170000C5F1F4FF32DFF763F2E97FF09C0909500
:102180008095709561957F4F8F4F9F4F689437F87A
:102190002AE030E0A5010E942F13C82ECA188C2C0B
:1021A000432C36FE0CC0E89440F8C91440F434FEC9
:1021B00005C032FC03C0F32DFE7E4F2E892C44FE59
:1021C00095C0FE01EC0DF11D8081803309F087C0C0
:1021D000242D297E422E842D8870582E43FC95C0D4
:1021E00040FE8FC09C2C821418F42C0C922C981852
:1021F00044FE91C0B70180E390E00E94FF1242FECE
:1022000009C088E790E041FE02C088E590E0B70190
:102210000E94FF12C91408F48AC0CA94D12C9FEFFF
:10222000C91AD90ACA0CDB1CF60182916F01B701E9
:1022300090E00E94FF12AC14BD04B1F74FCF608153
:102240007181072E000C880B990B0E5F1F4F92CFE8
:10225000D32CE894D4F82AE030E0853739F1232DE7
:10226000297FD22E8F3601F148F48835A9F0F70185
:10227000868197812B96E2E10C94DB13803749F03D
:102280008837A9F7D4FE02C06894D2F820E130E084
:102290000DC06894D4F8F6CF34FE03C0822F866058
:1022A000D82E20E132E002C028E030E0F801D7FE6D
:1022B0000FC060817181828193810C5F1F4FA501E6
:1022C0000E942F13C82ECA183D2CE89437F867CF08
:1022D0006081718190E080E00E5F1F4FF0CF42FC83
:1022E00002C0839478CF8394839475CF842D8678AD
:1022F00009F471CFF6CFB70180E290E00E94FF129F
:1023000083948214C0F3512C73CF522C581882142A
:1023100008F46ECFF8CF842D867809F47BCF8BE25A
:1023200041FE80E247FC8DE2B70190E071CFB7013A
:1023300080E390E00E94FF129A946CCF8FEF9FEFA2
:1023400099CF0F931F93CF93DF93869F8001879F31
:10235000100D969F100D1124C8010E94BD11EC01B3
:10236000009729F0A80170E060E00E94ED12CE0114
:10237000DF91CF911F910F9108950F931F93CF93EA
:10238000DF938230910510F482E090E0E091170332
:10239000F091180330E020E0B0E0A0E0309799F42D
:1023A0002115310509F44AC0281B390B24303105A9
:1023B000D8F58A819B816115710589F1FB019383B1
:1023C0008283FE0111C0408151810281138148172F
:1023D0005907E0F04817590799F4109761F01296E1
:1023E0000C93129713961C933296CF01DF91CF91E5
:1023F0001F910F9108950093170310931803F4CFC2
:102400002115310551F04217530738F0A901DB01BE
:102410009A01BD01DF01F801C1CFEF01F9CF90931F
:10242000180380931703CDCFFE01E20FF31F8193B2
:1024300091932250310939832883D7CF20911503F6
:1024400030911603232B41F42091BC013091BD0142
:1024500030931603209315032091BA013091BB01EC
:102460002115310541F42DB73EB74091BE01509181
:10247000BF01241B350BE0911503F0911603E21701
:10248000F307A0F42E1B3F0B2817390778F0AC0197
:102490004E5F5F4F2417350748F04E0F5F1F509374
:1024A000160340931503819391939FCFF0E0E0E0F2
:1024B0009CCFCF93DF930097E9F0FC013297138212
:1024C0001282A0911703B0911803ED0130E020E0D3
:1024D0001097A1F420813181820F931F2091150361
:1024E000309116032817390709F061C0F0931603DD
:1024F000E0931503DF91CF910895EA01CE17DF072E
:10250000E8F54A815B819E0141155105B1F7E9016A
:10251000FB83EA8349915991C40FD51FEC17FD073E
:1025200061F4808191810296840F951FE90199835E
:102530008883828193819B838A83F0E0E0E0129616
:102540008D919C9113970097B9F52D913C9111971E
:10255000CD010296820F931F20911503309116032F
:102560002817390739F6309751F510921803109251
:102570001703B0931603A0931503BCCFD383C28374
:1025800040815181840F951FC817D90761F44E5FB0
:102590005F4F88819981480F591F518340838A81F9
:1025A0009B81938382832115310509F0B0CFF0938D
:1025B0001803E09317039ECFFD01DC01C0CF138207
:1025C0001282D7CFFC010590615070400110D8F7FE
:1025D000809590958E0F9F1F0895DC0101C06D932B
:1025E00041505040E0F70895FC0161507040019067
:1025F0000110D8F7809590958E0F9F1F08950F9327
:102600001F93CF93DF93182F092FEB018B8181FD4F
:1026100009C01FEF0FEF812F902FDF91CF911F91F6
:102620000F91089582FF14C02E813F818C819D817E
:10263000281739073CF4E881F981CF010196998385
:10264000888310838E819F8101969F838E83E3CF41
:10265000E885F985812F0995892BA1F3DACFFA0155
:10266000AA27283051F1203181F1E8946F936E7FD1
:102670006E5F7F4F8F4F9F4FAF4FB1E03ED0B4E0C2
:102680003CD0670F781F891F9A1FA11D680F791F03
:102690008A1F911DA11D6A0F711D811D911DA11D14
:1026A00020D009F468943F912AE0269F1124301924
:1026B000305D3193DEF6CF010895462F4770405DBF
:1026C0004193B3E00FD0C9F7F6CF462F4F70405D6E
:1026D0004A3318F0495D31FD4052419302D0A9F7C9
:1026E000EACFB4E0A6959795879577956795BA95C3
:1026F000C9F700976105710508959B01AC010A2E89
:1027000006945795479537952795BA95C9F7620F5F
:10271000731F841F951FA01D0895052E97FB1EF49F
:1027200000940E94A41357FD07D00E94A70E07FC37
:1027300003D04EF40C94A4135095409530952195F8
:102740003F4F4F4F5F4F08959095809570956195DD
:102750007F4F8F4F9F4F08950E94C90EA59F900DE8
:10276000B49F900DA49F800D911D11240895B7FF73
:102770000C94AC130E94AC13821B930B08952F9200
:102780003F924F925F926F927F928F929F92AF9201
:10279000BF92CF92DF92EF92FF920F931F93CF934E
:1027A000DF93CDB7DEB7CA1BDB0B0FB6F894DEBFE5
:1027B0000FBECDBF09942A88398848885F846E840B
:1027C0007D848C849B84AA84B984C884DF80EE8055
:1027D000FD800C811B81AA81B981CE0FD11D0FB65E
:1027E000F894DEBF0FBECDBFED010895F894FFCF82
:1027F00000180405010153746172740000000000A8
:10280000000000000000000000000000C5070153A8
:10281000657474696E677320262054657374730041
:10282000000000690100000141626F757400000042
:102830000000000000000000000000000000800C0C
:1028400001506F776572204F46460000000000007F
:102850000000000000000007090143616C6962721A
:10286000617465000000000000000000000000002E
:10287000B2030154657374204156520000000000F9
:102880000000000000000000007609014261636B57
:102890000000000000000000000000000000000038
:1028A00000005A0901000100000000001903200087
:1028B00048454C4C4F20574F524C44004C696E6574
:1028C000203420616674657220636C656172004D0E
:1028D000435032353135206C6F6F706261636B200D
:1028E0002073746172742E2E2E00526563656976B2
:1028F0006564206672616D65210049443A20307834
:10290000253033582C20444C433A2025752C204444
:102910004154413A002025303258004D4350323561
:102920003135206C6F6F706261636B2077697468FA
:1029300020696E742E2E2E00507265737320616EA6
:102940007920627574746F6E2028523120746F2064
:102950006578697429004C617374207072657373B3
:1029600065643A004E41562062746E004E41562016
:102970007570004E415620646F776E004E415620B0
:102980006C656674004E4156207269676874004C2D
:1029900031004C320053656C65637465643A0054D1
:1029A00045535420414354494F4E2E2E004D435021
:1029B000204E4F5420696E20636F6E666967757292
:1029C0006174696F6E2061667465722072657365EB
:0A29D0007420210A20256420000075
:00000001FF
