:100000000C9440010C945D010C945D010C945D0115
:100010000C945D010C945D010C945D010C945D01E8
:100020000C945D010C945D010C945D010C945D01D8
:100030000C945D010C945D010C945D010C945D01C8
:100040000C945D010C945D010C945D010C945D01B8
:100050000C945D010C945D010C945D010C945D01A8
:100060000C945D010C945D010C945D010C945D0198
:1000700058303A2028256429207C2059303A2028FD
:100080002564290D0A00583A202564202825642576
:100090002529207C20593A202564202825642525FF
:1000A00029207C204469723A2025530D0A004E45D0
:1000B000555452414C005249474854004C4546540F
:1000C00000444F574E00555000757064617465646C
:1000D00020706F736974696F6E20736C69646572E8
:1000E0000D0A0058303A20282564290D0A00536C67
:1000F0006964657220583A202564202825642525E6
:10010000290D0A0000000000005C00000C000C003B
:100110007C287C2858DC680024104800285428409B
:10012000000C0000007884008478000054385400EB
:10013000107C1000804000001010100000400000F3
:1001400060100C0038543800487C40004864580067
:1001500044542C001C107C005C54240038542400AF
:1001600064140C0068542C00485438000048000007
:100170008048000010284400282828004428100047
:100180000454080038445C00781478007C5428003B
:10019000384428007C4438007C5444007C1404001B
:1001A000384474007C107C00447C440020403C00B7
:1001B0007C106C007C4040007C187C0078103C0077
:1001C000384438007C1408003844B8007C146800B7
:1001D00048542400047C04007C407C003C603C00CB
:1001E0007C307C006C106C000C700C0064544C0073
:1001F000007C44000C106000447C000008040800EF
:100200008080800000040800304878007C4830007E
:100210003048480030487C003068500010781400A6
:1002200090A878007C0870005074400080807400B2
:100230007C106800447C40007810780078087000DA
:1002400030483000F82810003048F80078100800D6
:1002500050582800083C48003840780038403800A2
:10026000782078004830480098A078004868580006
:1002700010788400007C00008478100008040804D2
:1002800011241FBECFEFD4E0DEBFCDBF11E0A0E050
:10029000B1E0E6EBFCE102C005900D92A23CB10793
:1002A000D9F721E0A2ECB1E001C01D92A53EB20752
:1002B000E1F70E94F3010C94590E0C940000399A56
:1002C00000C000C00000399800C000C000000895C0
:1002D0008FEF8ABB319A1BBA3998C0E0CBBB0E9422
:1002E0005F012FEF8FEF92E0215080409040E1F7C7
:1002F00000C000C0CF5FF2CF0E945C02FDCFCCE017
:10030000D1E00E941403FC011F921F9282811F9270
:100310008F9381811F928F9380811F928F93DF93A0
:10032000CF930E94C4099FEF2FEF82E091502040AD
:100330008040E1F700C000C08DB79EB70A960FB6A7
:10034000F8949EBF0FBE8DBFDCCF0E9493030E9426
:100350007C030E94CA030E9436032FEF8FEF92E0C6
:10036000215080409040E1F700C000C0F2CF0E94D1
:10037000C4040E94B3040E94CE040E949C042FEF88
:100380008FEF92E0215080409040E1F700C000C024
:10039000F2CF2FEF8FEF9DE1215080409040E1F7A9
:1003A00000C000000E94B00588E391E00E9496061C
:1003B0002FEF8FEF9DE1215080409040E1F700C08A
:1003C000000060E083E00E94FC0584E491E00E946C
:1003D00096062FEF8FEF9DE1215080409040E1F78E
:1003E00000C00000089520E835E240E050E060E001
:1003F00070E08BE490E00E940C020E9466020E9472
:10040000F4020E9413050E94F5060E94C9010E9491
:100410009B0790E080E00895220F331F441F551F73
:10042000220F331F441F551F220F331F441F551F18
:10043000220F331F441F551F0E94EC082150310921
:1004400030BD29B91BB88EE880BD549A539A60E636
:1004500072E082E392E00E94790908955D9BFECFED
:100460008CB90895CF93C82F8A3039F08C2F0E9411
:100470002E0290E080E0CF9108958DE00E942E0240
:10048000F5CFCF93DF93EC01892B49F08881882346
:1004900031F021960E942E0289918111FBCFDF91CC
:1004A000CF9108958BB1082E000C990B892F881FCE
:1004B0008827881F90E008955F9BFECF8CB1089538
:1004C0000E945C02082E000C990B089585B7806885
:1004D00085BF80B7806280BF0895811528E09207AC
:1004E00058F42091000130910101820F931FFC010B
:1004F000608390E080E0089587E591E00E94FF0925
:1005000081E090E00895811528E0920748F4209159
:10051000000130910101820F931FFC018081089539
:1005200089E791E00E94FF0981E008950F931F93EE
:10053000CF93DF930E9469098C010E946E09D0E07D
:10054000C0E00E946909E0910001F0910101EC0F07
:10055000FD1F8083E0910001F0910101EC0FFD1F70
:1005600080812196C11588E0D80759F7C8010E94FB
:100570006E09D0E0C0E00E946909E0910001F091AD
:100580000101EC0FFD1F80812196C11588E0D8077D
:1005900091F7DF91CF911F910F910895E0E0F0E185
:1005A00085EA8083A7E9BAE31197F1F700C000005C
:1005B000B096E115B8E1FB07A1F785EA8083A7E9CA
:1005C000BAE31197F1F700C00000B096E115B0E270
:1005D000FB07A1F72FE58AEE90E021508040904084
:1005E000E1F700C0000008958D9A8FB58F778FBD19
:1005F0008FB580648FBD8EB58F7E8EBD8EB58860C1
:100600008EBD8FB58D7F8FBD8FB58E7F8FBD1BBC8F
:100610001ABC8EB58B7F8EBD8EB58D7F8EBD8EB58F
:1006200081608EBD8C98089510920010849B08C044
:10063000000089E090E0849B03C000000197D9F797
:10064000849908C0000081E390E0849903C0000011
:100650000197D9F7A0E0B0E18C91E2ECF1E0808362
:100660008C9181838C918283CF0108958091D301F5
:100670009091D401A6ECB0E0892BC1F08091D30118
:100680009091D401A1ECB0E0019781F08091D30169
:100690009091D401ACEBB0E0029741F08091D3018E
:1006A0009091D401AEEAB0E0039719F1E7ECF1E0E4
:1006B0006285738546815781208531858481958146
:1006C000BF93AF937F936F935F934F933F932F931A
:1006D0009F938F9386E890E09F938F930E94DA090F
:1006E0008DB79EB70C960FB6F8949EBF0FBE8DBF08
:1006F0000895A6EBB0E0DACFE7ECF1E02281338198
:10070000808191813F932F939F938F9380E790E017
:100710009F938F930E94DA090F900F900F900F9084
:100720000F900F900895EF92FF920F931F93CF9326
:10073000CAE010E000E0F12CE12C0E941403FC015F
:100740002081E20EF11C8181080F111DC150A9F713
:100750009701ADECBCEC0E940E0996958795969595
:100760008795969587959927E7ECF1E091838083AB
:1007700098010E940E09969587959695879596956E
:100780008795992793838283CF911F910F91FF9033
:10079000EF9008950F931F93CF93DF930E9414035C
:1007A000FC012081022F10E08181C82FD0E00E943F
:1007B0001403FC012081200F312F311D3695279520
:1007C00081818C0F9D2F911D96958795C82FA9012A
:1007D0005527A7ECB1E015965C934E931497FC0156
:1007E000FF271796FC93EE9316978D919C912817EF
:1007F00008F45BC0992767EF70E0681B790B09F478
:1008000068C0481B590B24E6249FC001259F900D0A
:1008100011240E94D808A7ECB1E019967C936E933E
:10082000189712968D919C91C81708F458C0992773
:1008300069EF70E0681B790B09F465C0E81BF90BE0
:1008400024E62E9FC0012F9F900D11240E94D808EE
:10085000E7ECF1E073876287228533858085918597
:10086000A90133230CF455C08531910524F0841778
:1008700095070CF053C08C3EFFEF9F073CF4919519
:1008800081959109841795070CF053C090E080E0A2
:10089000253131050CF044C084E090E02C3E3F4F00
:1008A0000CF03EC081E090E03BC09927BC0164544D
:1008B000710991F0841B950B44E6489F9001499F74
:1008C000300D1124C9010E94D808719561957109F4
:1008D000A2CF70E060E09FCF70E060E09CCF9927EE
:1008E000BC016154710991F08E1B9F0B44E6489F37
:1008F0009001499F300D1124C9010E94D8087195BB
:1009000061957109A5CF70E060E0A2CF70E060E072
:100910009FCF44275527421B530BA6CF83E090E07F
:100920009093D4018093D301DF91CF911F910F91C8
:10093000089582E090E0F4CFE5EDF1E02481358187
:10094000828193813F932F939F938F938EEE90E0BC
:100950009F938F930E94DA090F900F900F900F9042
:100960000F900F9008958091D5019091D6019F939B
:100970008F9383EE90E09F938F930E94DA090F90FC
:100980000F900F900F9008950E941403FC01828134
:1009900090E09093D6018093D50108950E941403AE
:1009A000FC014281242F30E0E5EDF1E03383228326
:1009B00080819181481788F099276FEF70E0681B5C
:1009C000790B59F1281B390B44E6429FC001439F24
:1009D000900D11240E94D80813C09927682F792FF1
:1009E0000097F1F0821B930B44E6489F9001499FCA
:1009F000300D1124C9010E94D808719561957109C3
:100A00007093DA016093D90189EC90E09F938F9302
:100A10000E94DA090F900F90089570E060E0F0CF27
:100A200070E060E0EDCF87B3806B87BBBE988A9A99
:100A30008B98B89AB99AC09AC19AC49A82E58DB92E
:100A40000895892B11F0C1980895C0980895892BB5
:100A500011F0C19A0895C09A08958FB9779BFECF7F
:100A60008FB108950E942D0508958FEF0E942D05E6
:100A700008950F931F93CF93DF936115710551F084
:100A80008C01EC01060F171F89910E942D05C017DC
:100A9000D107D1F7DF91CF911F910F9108950F9357
:100AA0001F93CF93DF936115710559F08C01EC0111
:100AB000060F171F8FEF0E942D058993C017D107CE
:100AC000C9F7DF91CF911F910F910895CF93C82F50
:100AD00090E080E00E94210592988C2F0E942D05C5
:100AE00090E080E00E942705CF910895CF93DF9397
:100AF000D82FC62F90E080E00E94210592988D2F7C
:100B00000E942D058C2F0E942D0590E080E00E9410
:100B10002705DF91CF910895EF92FF920F931F93D6
:100B2000CF93DF938C017B0190E080E00E94210550
:100B3000929AE114F10449F0E8010E0D1F1D89910C
:100B40000E942D05C017D107D1F790E080E00E94E8
:100B50002705DF91CF911F910F91FF90EF9008959E
:100B6000CF93DF93D0E013C08FEF0E942D05CF5FAE
:100B7000C03831F0C0FFF8CF8FEF0E942D05F7CFBE
:100B800090E080E00E942705DF5FD830D9F090E048
:100B900080E00E94210592988D2F8770806B0E94C3
:100BA0002D0580E00E942D0580E10E942D0590E03A
:100BB00080E00E94270590E080E00E942105929A43
:100BC000C0E0D8CFDF91CF9108951092C601109266
:100BD000C50190E080E00E942105929880EB0E9480
:100BE0002D0580E00E942D0580E10E942D0590E0FA
:100BF00080E00E9427050895CF93DF93C62FD82F5A
:100C0000883008F0D7E0CC23FCF0D093C601C09325
:100C1000C50190E080E00E94210592988D2F877099
:100C2000806B0E942D058C2F8F700E942D058C2FBC
:100C300082958F7080610E942D0590E080E00E9477
:100C40002705DF91CF910895CFE7DFCF1092C5013F
:100C50008091C601873020F48F5F8093C60108958C
:100C600080E0FBCF0F931F93CF93DF93C82F8A3081
:100C700009F453C08D3009F453C080EE8C0F8F35CA
:100C800008F0C0E28091C5018C3708F04CC0D091CB
:100C9000C5011091C60190E080E00E942105929864
:100CA000812F8770806B0E942D058D2F8F700E9481
:100CB0002D058D2F82958F7080610E942D0590E00B
:100CC00080E00E94270590E080E00E942105929A32
:100CD000C052D0E0CC0FDD1FCC0FDD1F8E010C5FAA
:100CE0001E4FC85FDE4FF80184910E942D050F5FF3
:100CF0001F4F0C171D07B9F780E00E942D0590E0EB
:100D000080E00E9427058091C5018B5F8093C5011B
:100D1000DF91CF911F910F9108950E942606F8CF81
:100D20001092C501F5CF0E942606B1CFCF93DF9375
:100D3000EC018881882331F021960E943206899146
:100D40008111FBCFDF91CF910895CF93DF9388304E
:100D500018F0DF91CF910895D82F90E080E00E94A5
:100D6000210592988D2F8770806B0E942D0580E061
:100D70000E942D0580E10E942D05929AC0E080E03E
:100D80000E942D05CF5FC038D1F790E080E00E942F
:100D90002705D093C6011092C501DBCFCF93DF9317
:100DA00090E080E00E942105D0E092988D2F87701E
:100DB000806B0E942D0580E00E942D0580E10E943D
:100DC0002D05929AC0E080E00E942D05CF5FC038CB
:100DD000D1F7DF5FD83049F790E080E00E94270527
:100DE0000E94E505DF91CF91089583EC99E001978A
:100DF000F1F700C000008EEA0E94660581EA0E94B9
:100E0000660562E18AED0E94760588EC0E9466051F
:100E10006FE388EA0E94760560E885ED0E9476051A
:100E20006FEF81E80E94760561EF89ED0E947605FB
:100E300062E080E20E94760564E38BED0E94760515
:100E400060E08DEA0E94760584EA0E94660586EAE3
:100E50000E9466058FEA0E94660587EA91E601977F
:100E6000F1F700C000000E94CE060E94E50508953B
:100E7000BF92CF92DF92EF92FF920F931F93CF9387
:100E8000DF9300D01F92CDB7DEB77C01FC01228139
:100E90002770F9F410E00FEFF7016181610F808195
:100EA0000B830E94FC0561E070E0CE0103960E9476
:100EB0008C051F5F183081F70F900F900F90DF9116
:100EC000CF911F910F91FF90EF90DF90CF90BF9047
:100ED00008958FEF90E0B82E022E01C0BB0C0A944B
:100EE000EAF748E050E0421B510902C09695879509
:100EF0004A95E2F7C82E00E0F7011181100FD0806B
:100F0000BA82C982612F8D2D0E94FC0561E070E0DC
:100F1000CE0102960E948C05612F81E08D0D0E940A
:100F2000FC0561E070E0CE0101960E948C050F5F28
:100F3000083011F7C1CFCF93DF93CDB7DEB7299734
:100F40000FB6F894DEBF0FBECDBF8AE991E00E94D4
:100F5000FF090E9413050E94F5060E9493030E9458
:100F6000B0052FE33DE083E0215030408040E1F7C1
:100F700000C000000E94CE0619821A821B82CE0198
:100F800001960E9438070F2EF7ECEF2EF1E0FF2EAE
:100F9000F02DCC24CA94D12C6894AA24A3F8B12CA7
:100FA00099249A940F2EF6E06F2EF02D0F2EF7E075
:100FB0007F2EF02D0F2EF8E78F2EF02DC0C027309A
:100FC00081F081E0820F8B838A81893708F08A82E1
:100FD0008B8181117AC09981983008F47AC0798226
:100FE00078C0073008F0C6C01B8281E0800F89837B
:100FF000193768F78B81EFCF8FEF820F8B83E4CFA8
:101000008230910541F00397F9F61837E8F681E050
:10101000810F8A83D9CF1123D9F28FEF810F8A8371
:10102000D3CF28135DC085C06894442443F8410E93
:1010300055245394500E1F821E82612F802F0E94D0
:10104000FC0561E070E0CE0107960E948C05612FDF
:10105000852D0E94FC0561E070E0CE0106960E949D
:101060008C051F5F1411E7CF50C04C2C082E01C017
:10107000440C0A94EAF79501281B3109F60102C0D5
:10108000F695E7952A95E2F73E2E00E01A81100FBB
:1010900059804D823C82612F852D0E94FC0561E0C4
:1010A00070E0CE0105960E948C05612F81E0850DD0
:1010B0000E94FC0561E070E0CE0104960E948C0560
:1010C0000F5F083019F735C08B819981973008F090
:1010D00069829981901304C09A81911709F4A1CF74
:1010E000277009F0A1CF6894552453F8510E188643
:1010F000612F802F0E94FC0561E070E0CE01089610
:101100000E948C051F5F1511F2CF8B81877009F04B
:10111000ACCF10E06A81610F898199860E94FC053D
:1011200061E070E0CE0109960E948C051F5F1830C7
:1011300089F783EC99E00197F1F700C000000E9465
:10114000CA03F701848595858430910591F309815F
:101150001A812B818130910509F431CF009709F074
:101160004FCF211149CF002309F442CF7B828FEF6B
:10117000800F8983193708F02ACFA6CFCF93DF934A
:1011800000D01F92CDB7DEB78EEA91E00E94FF0932
:1011900083E0898398E29A838B83CE0101960E9433
:1011A00038078FE493EC0197F1F700C00000F9CF06
:1011B000AA1BBB1B51E107C0AA1FBB1FA617B7077D
:1011C00010F0A61BB70B881F991F5A95A9F7809599
:1011D0009095BC01CD010895A1E21A2EAA1BBB1B5C
:1011E000FD010DC0AA1FBB1FEE1FFF1FA217B307F3
:1011F000E407F50720F0A21BB30BE40BF50B661F09
:10120000771F881F991F1A9469F7609570958095CC
:1012100090959B01AC01BD01CF010895A29FB00143
:10122000B39FC001A39F700D811D1124911DB29F1A
:10123000700D811D1124911D08958F929F92AF9280
:10124000BF92CF92DF92EF92FF92CF93DF93EC01A8
:10125000688179818A819B8161157105810591057C
:1012600021F464E279ED8BE597E02DE133EF41E085
:1012700050E00E94F00D49015A019B01AC01A7EA20
:10128000B1E40E940F0E6B017C01ACEEB4EFA5013E
:1012900094010E941D0EDC01CB018C0D9D1DAE1D25
:1012A000BF1DB7FF03C00197A109B0488883998388
:1012B000AA83BB839F77DF91CF91FF90EF90DF9060
:1012C000CF90BF90AF909F908F9008950E941D097E
:1012D000089582E091E00E941D090895B0E0A0E029
:1012E0008093020190930301A0930401B093050140
:1012F00008950F931F93CF93DF93009759F46115CF
:10130000710541F4F0E0E0E0CF01DF91CF911F9152
:101310000F9108958B01EC016EE070E081E090E0A8
:101320000E94040CFC01892B69F380E8838301157A
:10133000110571F01387028781E883838091DB01B7
:101340009091DC01892B21F4F093DC01E093DB0127
:101350002097D1F2D187C087838182608383809177
:10136000DD019091DE01892B79F6F093DE01E093A7
:10137000DD018091DF019091E001892B29F6F09346
:10138000E001E093DF01C0CFB0E0A0E0EAECF9E0DB
:101390000C94320EAE014B5F5F4FFA016191719177
:1013A000AF018091DD019091DE010E942A0AE2E006
:1013B0000C944E0EB0E0A0E0E0EEF9E00C94300E9C
:1013C000AE01495F5F4FDA016D917D91AD010BED8B
:1013D00011E0F80182819381DC0113962C9113971F
:1013E000286013962C930E942A0AD8011296ED9138
:1013F000FC912381277F2383E4E00C944C0E0F9310
:101400001F93CF93DF93E091DD01F091DE01238103
:10141000EC0110E000E021FD08C00FEF1FEF14C049
:101420000995892B11F00FEF1FEF89916091DD0174
:101430007091DE01DB011896ED91FC918111F0CFE6
:101440008AE00995892B49F7C801DF91CF911F9157
:101450000F910895ABE0B0E0E0E3FAE00C94220EC7
:101460007C013B018A01FC0117821682838181FF86
:10147000C8C1CE0101965C01F7019381F30193FD90
:10148000859193FF81913F01882309F453C18532EF
:1014900039F493FD859193FF81913F01853229F4C1
:1014A000B70190E00E94620DE7CF912C212C312CE6
:1014B000FFE1F31538F08B3211F190F4803209F12D
:1014C000833229F137FC3CC020ED280F2A3050F53B
:1014D00036FE20C08AE0989E200D1124922E06C070
:1014E0008D3291F0803371F7689430F8F30193FDF9
:1014F000859193FF81913F018111DACF21C06894DA
:1015000031F8689432F8F2CF689433F8EFCF6894EA
:1015100034F8ECCFEAE02E9E200D1124222E6894A0
:1015200035F8E4CF8E3229F436FC04C1689436F8DD
:10153000DDCF8C3619F4689437F8D8CF8836B1F2FD
:10154000982F9F7D95549330E0F08336A1F1833737
:10155000C1F1833509F063C02801F2E04F0E511C40
:10156000F801C080D180692D70E036FC02C06FEFB9
:101570007FEFC6010E94450D4C01689437F8820147
:101580000AC00C5F1F4FFFE3F98388248394912CDA
:101590006501E89437F833FE2DC0522C8114910474
:1015A00071F5552009F468CFB70180E290E00E9400
:1015B000620D5A94F6CFF801808189830E5F1F4F28
:1015C000E4CF2801F2E04F0E511CF801C080D18019
:1015D000692D70E036FC02C06FEF7FEFC6010E94FC
:1015E000570D4C018201D5CFB70180E290E00E94F7
:1015F000620D2A942814190409F0B0F7CECFF60131
:1016000037FC859137FE81916F01B70190E00E9410
:10161000620D51105A94F1E08F1A9108BFCF8436B1
:1016200019F0893609F077C0F80137FE6BC0608188
:101630007181828193810C5F1F4FF32DFF763F2EC6
:1016400097FF09C090958095709561957F4F8F4F5A
:101650009F4F689437F82AE030E0A5010E94920D70
:10166000C82ECA188C2C432C36FE0CC0E89440F8C7
:10167000C91440F434FE05C032FC03C0F32DFE7ED5
:101680004F2E892C44FE95C0FE01EC0DF11D80818A
:10169000803309F087C0242D297E422E842D887046
:1016A000582E43FC95C040FE8FC09C2C821418F429
:1016B0002C0C922C981844FE91C0B70180E390E066
:1016C0000E94620D42FE09C088E790E041FE02C020
:1016D00088E590E0B7010E94620DC91408F48AC041
:1016E000CA94D12C9FEFC91AD90ACA0CDB1CF60187
:1016F00082916F01B70190E00E94620DAC14BD04AD
:10170000B1F74FCF60817181072E000C880B990BC8
:101710000E5F1F4F92CFD32CE894D4F82AE030E02C
:10172000853739F1232D297FD22E8F3601F148F4E8
:101730008835A9F0F701868197812B96E2E10C9418
:101740003E0E803749F08837A9F7D4FE02C068946E
:10175000D2F820E130E00DC06894D4F8F6CF34FE22
:1017600003C0822F8660D82E20E132E002C028E03C
:1017700030E0F801D7FE0FC06081718182819381D2
:101780000C5F1F4FA5010E94920DC82ECA183D2C58
:10179000E89437F867CF6081718190E080E00E5F58
:1017A0001F4FF0CF42FC02C0839478CF8394839480
:1017B00075CF842D867809F471CFF6CFB70180E21A
:1017C00090E00E94620D83948214C0F3512C73CF79
:1017D000522C5818821408F46ECFF8CF842D8678D6
:1017E00009F47BCF8BE241FE80E247FC8DE2B7013A
:1017F00090E071CFB70180E390E00E94620D9A946F
:101800006CCF8FEF9FEF99CF0F931F93CF93DF9301
:10181000869F8001879F100D969F100D1124C8018F
:101820000E94200CEC01009729F0A80170E060E014
:101830000E94500DCE01DF91CF911F910F9108951D
:101840000F931F93CF93DF938230910510F482E0C2
:1018500090E0E091E301F091E40130E020E0B0E0BD
:10186000A0E0309799F42115310509F44AC0281BEE
:10187000390B24303105D8F58A819B8161157105BA
:1018800089F1FB0193838283FE0111C04081518164
:101890000281138148175907E0F04817590799F456
:1018A000109761F012960C93129713961C93329630
:1018B000CF01DF91CF911F910F9108950093E30124
:1018C0001093E401F4CF2115310551F0421753076D
:1018D00038F0A901DB019A01BD01DF01F801C1CF98
:1018E000EF01F9CF9093E4018093E301CDCFFE01A6
:1018F000E20FF31F8193919322503109398328839A
:10190000D7CF2091E1013091E201232B41F42091C6
:101910000801309109013093E2012093E101209107
:101920000601309107012115310541F42DB73EB76D
:1019300040910A0150910B01241B350BE091E1010C
:10194000F091E201E217F307A0F42E1B3F0B2817DA
:10195000390778F0AC014E5F5F4F2417350748F028
:101960004E0F5F1F5093E2014093E10181939193E9
:101970009FCFF0E0E0E09CCFCF93DF930097E9F0BA
:10198000FC01329713821282A091E301B091E4012D
:10199000ED0130E020E01097A1F420813181820F29
:1019A000931F2091E1013091E2012817390709F0D6
:1019B00061C0F093E201E093E101DF91CF910895DE
:1019C000EA01CE17DF07E8F54A815B819E014115E8
:1019D0005105B1F7E901FB83EA8349915991C40F9D
:1019E000D51FEC17FD0761F4808191810296840F69
:1019F000951FE90199838883828193819B838A83E0
:101A0000F0E0E0E012968D919C9113970097B9F564
:101A10002D913C911197CD010296820F931F209139
:101A2000E1013091E2012817390739F6309751F575
:101A30001092E4011092E301B093E201A093E1015E
:101A4000BCCFD383C28340815181840F951FC817B7
:101A5000D90761F44E5F5F4F88819981480F591F04
:101A6000518340838A819B81938382832115310531
:101A700009F0B0CFF093E401E093E3019ECFFD01C4
:101A8000DC01C0CF13821282D7CFFC0105906150D8
:101A900070400110D8F7809590958E0F9F1F089584
:101AA000DC0101C06D9341505040E0F70895FC0106
:101AB0006150704001900110D8F7809590958E0F7D
:101AC0009F1F08950F931F93CF93DF93182F092F14
:101AD000EB018B8181FD09C01FEF0FEF812F902F4C
:101AE000DF91CF911F910F91089582FF14C02E8135
:101AF0003F818C819D81281739073CF4E881F98169
:101B0000CF0101969983888310838E819F810196EE
:101B10009F838E83E3CFE885F985812F0995892BF3
:101B2000A1F3DACFFA01AA27283051F1203181F14F
:101B3000E8946F936E7F6E5F7F4F8F4F9F4FAF4FD5
:101B4000B1E03ED0B4E03CD0670F781F891F9A1FE8
:101B5000A11D680F791F8A1F911DA11D6A0F711D9C
:101B6000811D911DA11D20D009F468943F912AE0A8
:101B7000269F11243019305D3193DEF6CF01089590
:101B8000462F4770405D4193B3E00FD0C9F7F6CFC1
:101B9000462F4F70405D4A3318F0495D31FD405289
:101BA000419302D0A9F7EACFB4E0A695979587951F
:101BB00077956795BA95C9F70097610571050895FE
:101BC0009B01AC010A2E06945795479537952795AA
:101BD000BA95C9F7620F731F841F951FA01D089542
:101BE000052E97FB1EF400940E94070E57FD07D0A8
:101BF0000E94EC0807FC03D04EF40C94070E50959D
:101C00004095309521953F4F4F4F5F4F08959095E8
:101C10008095709561957F4F8F4F9F4F08950E94DB
:101C20000E09A59F900DB49F900DA49F800D911D4E
:101C300011240895B7FF0C940F0E0E940F0E821B03
:101C4000930B08952F923F924F925F926F927F92E3
:101C50008F929F92AF92BF92CF92DF92EF92FF92BC
:101C60000F931F93CF93DF93CDB7DEB7CA1BDB0B68
:101C70000FB6F894DEBF0FBECDBF09942A8839880D
:101C800048885F846E847D848C849B84AA84B98414
:101C9000C884DF80EE80FD800C811B81AA81B98120
:101CA000CE0FD11D0FB6F894DEBF0FBECDBFED0134
:061CB0000895F894FFCF37
:101CB6000018010000000000E501200058203D2525
:101CC6003375202059203D2533752020534C494437
:101CD6004552203D253375202043483320282F299F
:101CE600203D2533750D0A0048454C4C4F20574F73
:101CF600524C44004C696E652034206166746572EE
:101D060020636C65617200547279696E6720746F26
:101D1600207772697465206120746F6F206269672D
:101D2600206164647265737300547279696E67200A
:101D3600746F2072656164206120746F6F20626920
:101D460067206164647265737300437572736F72A2
:101D56002067616D65207374617274210D0043758F
:101D660072736F7220746573742073746172742158
:021D76000D005E
:00000001FF
