:100000000C94F6000C9413010C94B10D0C94130194
:100010000C9413010C9413010C9413010C94130110
:100020000C9413010C9413010C9413010C94130100
:100030000C9413010C9413010C9413010C941301F0
:100040000C9413010C9413010C9413010C941301E0
:100050000C9413010C9413010C9413010C941301D0
:100060000C9413010C9413010C9413010C941301C0
:1000700000000000005C00000C000C007C287C28C4
:1000800058DC68002410480028542840000C000068
:10009000007884008478000054385400107C1000EC
:1000A00080400000101010000040000060100C00A4
:1000B00038543800487C40004864580044542C00B0
:1000C0001C107C005C5424003854240064140C0080
:1000D00068542C0048543800004800008048000054
:1000E0001028440028282800442810000454080040
:1000F00038445C00781478007C5428003844280088
:100100007C4438007C5444007C140400384474005F
:100110007C107C00447C440020403C007C106C003F
:100120007C4040007C187C0078103C00384438004B
:100130007C1408003844B8007C146800485424003B
:10014000047C04007C407C003C603C007C307C00F3
:100150006C106C000C700C0064544C00007C44006B
:100160000C106000447C00000804080080808000BF
:1001700000040800304878007C48300030484800CF
:1001800030487C00306850001078140090A8780047
:100190007C08700050744000808074007C106800FF
:1001A000447C4000781078007808700030483000B7
:1001B000F82810003048F80078100800505828003F
:1001C000083C4800384078003840380078207800F3
:1001D0004830480098A0780048685800107884009B
:1001E000007C0000847810000804080411241FBE5D
:1001F000CFEFD4E0DEBFCDBF12E0A0E0B1E0E2E39C
:10020000F7E202C005900D92A03FB107D9F723E0B5
:10021000A0EFB2E001C01D92AF31B207E1F70E943A
:100220002C020C9497130C940000399A00C000C063
:100230000000399800C000C0000008958FEF8ABB0D
:10024000319A1BBA3998C0E0CBBB0E9415012FEF41
:100250008FEF92E0215080409040E1F700C000C055
:10026000CF5FF2CF0E94E40208950E94A603089592
:100270000E94CA030E94C9030E9402040E94C8038C
:100280002FEF8FEF92E0215080409040E1F700C0C7
:1002900000C0F2CF0E94DF040E94DE040E94E90445
:1002A0000E94DD042FEF8FEF92E0215080409040BC
:1002B000E1F700C000C0F2CF2FEF8FEF9DE121509A
:1002C00080409040E1F700C000000E94C40580EC2F
:1002D00091E00E94AA062FEF8FEF9DE12150804010
:1002E0009040E1F700C0000060E083E00E9410064B
:1002F0008CEC91E00E94AA062FEF8FEF9DE1215038
:1003000080409040E1F700C000000895EF92FF9216
:100310001F93CF93DF93CDB7DEB766970FB6F894F0
:10032000DEBF0FBECDBF8FED91E00E943D0F0E945A
:10033000060DFE01379685E0DF011D928A95E9F7EB
:1003400083E291E09A83898383E08B8381E18C83CC
:1003500082E28D8383E38E83CE0101960E942B0D72
:10036000CE010C960E946E0D8823D1F38AEF91E0A6
:100370000E943D0F8E851F928F938D858F938C8564
:100380008F938AE092E09F938F930E94200F0F90AB
:100390000F900F900F900F900F908E858823E1F0B3
:1003A00010E00F2EF5E2EF2EF2E0FF2EF02DEFE041
:1003B000F0E0EC0FFD1FE10FF11D80811F928F9384
:1003C000FF92EF920E94200F1F5F0F900F900F90EF
:1003D0000F908E85181758F38AE090E00E94360F30
:1003E00066960FB6F894DEBF0FBECDBFDF91CF91FA
:1003F0001F91FF90EF900895CF93DF93CDB7DEB7B5
:100400002B970FB6F894DEBF0FBECDBF8BE292E004
:100410000E943D0F0E94060D85B7837F886085BFCF
:100420008BB780688BBF7894FE01379685E0DF013B
:100430001D928A95E9F783E291E09A83898383E0AC
:100440008B8381E18C8382E28D8383E38E83CE0173
:1004500001960E942B0DFFCF20E835E240E050E0EE
:1004600060E070E08BE490E00E9494020E94000340
:100470000E9486030E9426050E9409070E94D30A53
:1004800090E080E008950E94260582E090E00E94BE
:1004900033052FEF8FEF9EE0215080409040E1F731
:1004A00000C0000082E090E00E943D052FEF8FEF3A
:1004B0009EE0215080409040E1F700C0000081E0C4
:1004C00090E00E9433052FEF8FEF9EE02150804097
:1004D0009040E1F700C0000081E090E00E943D05FF
:1004E0002FEF8FEF9EE0215080409040E1F700C059
:1004F000000090E080E00E9433052FEF8FEF9EE038
:10050000215080409040E1F700C0000090E080E082
:100510000E943D052FEF8FEF9EE0215080409040DC
:10052000E1F700C00000B1CF220F331F441F551F59
:10053000220F331F441F551F220F331F441F551F07
:10054000220F331F441F551F0E94480E21503109AE
:1005500030BD29B91BB88EE880BD549A539A68EE15
:1005600072E08AEB92E00E94D50E08955D9BFECF6B
:100570008CB90895CF93C82F8A3039F08C2F0E9400
:10058000B60290E080E0CF9108958DE00E94B6021F
:10059000F5CFCF93DF93EC01892B49F08881882335
:1005A00031F021960E94B60289918111FBCFDF9133
:1005B000CF9108958BB1082E000C990B892F881FBD
:1005C0008827881F90E008955F9BFECF8CB1089527
:1005D0000E94E402082E000C990B0895CF93DF933C
:1005E000EC012196FC018491882339F00E94B60227
:1005F000FE01849121968111F9CFDF91CF91089569
:1006000085B7806885BF80B7806280BF08958115F7
:1006100028E0920758F42091000130910101820FE7
:10062000931FFC01608390E080E0089581E090E0FA
:100630000895811528E0920748F420910001309137
:100640000101820F931FFC018081089581E00895CC
:100650000F931F93CF93DF930E94C50E8C010E94CE
:10066000CA0ED0E0C0E00E94C50EE0910001F091FA
:100670000101EC0FFD1F8083E0910001F091010169
:10068000EC0FFD1F80812196C11588E0D80759F72E
:10069000C8010E94CA0ED0E0C0E00E94C50EE091E1
:1006A0000001F0910101EC0FFD1F80812196C11521
:1006B00088E0D80791F7DF91CF911F910F910895AE
:1006C000E0E0F0E185EA8083A7E9BAE31197F1F76A
:1006D00000C00000B096E115B8E1FB07A1F785EA7C
:1006E0008083A7E9BAE31197F1F700C00000B09644
:1006F000E115B0E2FB07A1F72FE58AEE90E021506B
:1007000080409040E1F700C0000008958D9A8FB5B9
:100710008F778FBD8FB580648FBD8EB58F7E8EBD78
:100720008EB588608EBD8FB58D7F8FBD8FB58E7F66
:100730008FBD1BBC1ABC8EB58B7F8EBD8EB58D7FD9
:100740008EBD8EB581608EBD8C980895109200107C
:10075000849B08C0000089E090E0849B03C00000F7
:100760000197D9F7849908C0000081E390E084994B
:1007700003C000000197D9F7A0E0B0E18C91E0EF51
:10078000F2E080838C9181838C918283CF010895E4
:1007900008950895EF92FF920F931F93CF93CAE0AD
:1007A00010E000E0F12CE12C0E94A603FC01208166
:1007B000E20EF11C8181080F111DC150A9F7BB98F1
:1007C0009701ADECBCEC0E946A0E969587959695C4
:1007D0008795969587959927EDEFF2E09183808331
:1007E00098010E946A0E969587959695879596959D
:1007F0008795992793838283CF911F910F91FF90C3
:10080000EF9008950F931F93CF93DF930E94A60359
:10081000FC012081022F10E08181C82FD0E00E94CE
:10082000A603FC012081200F312F311D369527951D
:1008300081818C0F9D2F911D96958795C82F46B36A
:1008400043FB442740F951E04527ADEFB2E01E9647
:100850004C931E97A901552715965C934E931497B8
:10086000FC01FF271796FC93EE9316978D919C91B0
:10087000281708F45BC0992767EF70E0681B790BB5
:1008800009F468C0481B590B24E6249FC001259F2A
:10089000900D11240E94340EADEFB2E019967C93B6
:1008A0006E93189712968D919C91C81708F458C0B2
:1008B000992769EF70E0681B790B09F465C0E81BA4
:1008C000F90B24E62E9FC0012F9F900D11240E944A
:1008D000340EEDEFF2E073876287228533858085E1
:1008E0009185A90133230CF455C08531910524F07D
:1008F000841795070CF053C08C3EFFEF9F073CF424
:10090000919581959109841795070CF053C090E05B
:1009100080E0253131050CF044C084E090E02C3EAD
:100920003F4F0CF03EC081E090E03BC09927BC01F6
:100930006454710991F0841B950B44E6489F900123
:10094000499F300D1124C9010E94340E71956195A3
:100950007109A2CF70E060E09FCF70E060E09CCFB3
:100960009927BC016154710991F08E1B9F0B44E6DD
:10097000489F9001499F300D1124C9010E94340EF7
:10098000719561957109A5CF70E060E0A2CF70E02C
:1009900060E09FCF44275527421B530BA6CF83E02F
:1009A00090E090930A0380930903DF91CF911F9108
:1009B0000F91089582E090E0F4CF089508950E9489
:1009C000A603FC01828190E090930D0380930C03B9
:1009D00008950E94A603FC014281242F30E0ECE040
:1009E000F3E03383228380819181481788F099272F
:1009F0006FEF70E0681B790B19F1281B390B44E687
:100A0000429FC001439F900D11240E94340E13C0D9
:100A10009927682F792F0097B1F0821B930B44E63A
:100A2000489F9001499F300D1124C9010E94340E46
:100A30007195619571097093110360931003089586
:100A400070E060E0F8CF70E060E0F5CF87B3806BD6
:100A500087BBBE988A9AB89AB99AC09AC19AC49A22
:100A600082E58DB90895009721F0029721F0C19891
:100A70000895C0980895C2980895C19AC09AC29ADC
:100A800008958FB9779BFECF8FB108950E944105DD
:100A900008958FEF0E94410508950F931F93CF9300
:100AA000DF936115710551F08C01EC01060F171FE2
:100AB00089910E944105C017D107D1F7DF91CF91ED
:100AC0001F910F9108950F931F93CF93DF9361159B
:100AD000710559F08C01EC01060F171F8FEF0E9472
:100AE00041058993C017D107C9F7DF91CF911F91B5
:100AF0000F910895CF93C82F90E080E00E943305B6
:100B000092988C2F0E94410590E080E00E943D0564
:100B1000CF910895CF93DF93D82FC62F90E080E038
:100B20000E94330592988D2F0E9441058C2F0E94C0
:100B3000410590E080E00E943D05DF91CF9108954E
:100B4000EF92FF920F931F93CF93DF938C017B0162
:100B500090E080E00E943305929AE114F10449F09C
:100B6000E8010E0D1F1D89910E944105C017D10794
:100B7000D1F790E080E00E943D05DF91CF911F9179
:100B80000F91FF90EF900895CF93DF93D0E013C0C3
:100B90008FEF0E944105CF5FC03831F0C0FFF8CF22
:100BA0008FEF0E944105F7CF90E080E00E943D0565
:100BB000DF5FD830D9F090E080E00E943305929852
:100BC0008D2F8770806B0E94410580E00E94410557
:100BD00080E10E94410590E080E00E943D0590E0A8
:100BE00080E00E943305929AC0E0D8CFDF91CF9188
:100BF00008951092F4021092F30290E080E00E94B7
:100C00003305929880EB0E94410580E00E944105E7
:100C100080E10E94410590E080E00E943D0508953A
:100C2000CF93DF93C62FD82F883008F0D7E0CC239E
:100C3000FCF0D093F402C093F30290E080E00E94B5
:100C4000330592988D2F8770806B0E9441058C2F01
:100C50008F700E9441058C2F82958F7080610E9459
:100C6000410590E080E00E943D05DF91CF9108951D
:100C7000CFE7DFCF1092F3028091F402873020F4A7
:100C80008F5F8093F402089580E0FBCF0F931F9352
:100C9000CF93DF93C82F8A3009F453C08D3009F405
:100CA00053C080EE8C0F8F3508F0C0E28091F302C4
:100CB0008C3708F04CC0D091F3021091F40290E010
:100CC00080E00E9433059298812F8770806B0E948C
:100CD00041058D2F8F700E9441058D2F82958F7059
:100CE00080610E94410590E080E00E943D0590E017
:100CF00080E00E943305929AC052D0E0CC0FDD1FF5
:100D0000CC0FDD1F8E0100591F4FCC58DF4FF8016B
:100D100084910E9441050F5F1F4F0C171D07B9F703
:100D200080E00E94410590E080E00E943D058091B6
:100D3000F3028B5F8093F302DF91CF911F910F91AC
:100D400008950E943A06F8CF1092F302F5CF0E9460
:100D50003A06B1CFCF93DF93EC018881882331F03D
:100D600021960E94460689918111FBCFDF91CF9198
:100D70000895CF93DF93883018F0DF91CF910895D5
:100D8000D82F90E080E00E94330592988D2F8770D5
:100D9000806B0E94410580E00E94410580E10E9435
:100DA0004105929AC0E080E00E944105CF5FC038C3
:100DB000D1F790E080E00E943D05D093F4021092BC
:100DC000F302DBCFCF93DF9390E080E00E94330506
:100DD000D0E092988D2F8770806B0E94410580E053
:100DE0000E94410580E10E944105929AC0E080E0A6
:100DF0000E944105CF5FC038D1F7DF5FD83049F797
:100E000090E080E00E943D050E94F905DF91CF91BE
:100E1000089583EC99E00197F1F700C000008EEA95
:100E20000E947A0581EA0E947A0562E18AED0E94B9
:100E30008A0588EC0E947A056FE388EA0E948A0599
:100E400060E885ED0E948A056FEF81E80E948A05BF
:100E500061EF89ED0E948A0562E080E20E948A05C6
:100E600064E38BED0E948A0584EA0E947A0586EA93
:100E70000E947A058FEA0E947A0587EA91E6019737
:100E8000F1F700C000000E94E2060E94F9050895F3
:100E9000BF92CF92DF92EF92FF920F931F93CF9367
:100EA000DF9300D01F92CDB7DEB77C01FC01228119
:100EB0002770F9F410E00FEFF7016181610F808175
:100EC0000B830E94100661E070E0CE0103960E9441
:100ED000A0051F5F183081F70F900F900F90DF91E2
:100EE000CF911F910F91FF90EF90DF90CF90BF9027
:100EF00008958FEF90E0B82E022E01C0BB0C0A942B
:100F0000EAF748E050E0421B510902C096958795E8
:100F10004A95E2F7C82E00E0F7011181100FD0804A
:100F2000BA82C982612F8D2D0E94100661E070E0A7
:100F3000CE0102960E94A005612F81E08D0D0E94D6
:100F4000100661E070E0CE0101960E94A0050F5FDF
:100F5000083011F7C1CFCF93DF93CDB7DEB7299714
:100F60000FB6F894DEBF0FBECDBF0E9426050E94CB
:100F700009070E94CA030E94C4052FE33DE083E0F5
:100F8000215030408040E1F700C000000E94E2069E
:100F900019821A821B82CE0101960E9448070F2EE9
:100FA000FDEFEF2EF2E0FF2EF02DCC24CA94D12CD1
:100FB0006894AA24A3F8B12C99249A940F2EF6E0F1
:100FC0006F2EF02D0F2EF7E07F2EF02D0F2EF8E76D
:100FD0008F2EF02DC0C0273081F081E0820F8B83EF
:100FE0008A81893708F08A828B8181117AC0998140
:100FF000983008F47AC0798278C0073008F0C8C009
:101000001B8281E0800F8983193768F78B81EFCFCE
:101010008FEF820F8B83E4CF8230910541F00397ED
:10102000F9F61837E8F681E0810F8A83D9CF1123CA
:10103000D9F28FEF810F8A83D3CF28135DC085C08B
:101040006894442443F8410E55245394500E1F8253
:101050001E82612F802F0E94100661E070E0CE0199
:1010600007960E94A005612F852D0E94100661E061
:1010700070E0CE0106960E94A0051F5F1411E7CF15
:1010800050C04C2C082E01C0440C0A94EAF795017C
:10109000281B3109F60102C0F695E7952A95E2F77B
:1010A0003E2E00E01A81100F59804D823C82612F44
:1010B000852D0E94100661E070E0CE0105960E9429
:1010C000A005612F81E0850D0E94100661E070E0AF
:1010D000CE0104960E94A0050F5F083019F735C0B5
:1010E0008B819981973008F069829981901304C0AF
:1010F0009A81911709F4A1CF277009F0A1CF6894C4
:10110000552453F8510E1886612F802F0E94100627
:1011100061E070E0CE0108960E94A0051F5F1511E6
:10112000F2CF8B81877009F0ACCF10E06A81610F3C
:10113000898199860E94100661E070E0CE010996CF
:101140000E94A0051F5F183089F783EC99E0019792
:10115000F1F700C000000E9402040E94C803F701DA
:10116000848595858430910581F309811A812B81CD
:101170008130910509F42FCF009709F04DCF21114F
:1011800047CF002309F440CF7B828FEF800F898304
:10119000193708F028CFA4CFCF93DF9300D01F9248
:1011A000CDB7DEB783E0898398E29A838B83CE0143
:1011B00001960E9448078FE493EC0197F1F700C075
:1011C0000000F9CF82E091E09093FC028093FB0253
:1011D0001092F5021092B5011092B4010E94E2063D
:1011E0000895EF92FF920F931F93CF93DF937C01AB
:1011F0000E94E206D7018C91882321F110E000E0E3
:10120000D0E0C0E009C02196075E1F4FD7018C9146
:101210008C171D06B9F0B4F0D7011196ED91FC9131
:10122000E00FF11F8081882371F368E08C2F0E940A
:101230001006F70181819281800F911F01960E9413
:10124000AA06E1CF60E08091F5020E9410068EE3CD
:101250000E944606DF91CF911F910F91FF90EF9072
:1012600008958091F6029091F702009789F090938B
:10127000FC028093FB021092F7021092F602109289
:10128000F5028091FB029091FC020E94F108089502
:1012900082E091E09093FC028093FB02F0CF0F93E9
:1012A0001F93CF93DF930E94E20660E082E00E94EA
:1012B00010068EE492E00E94AA06C3E1D3E004E1A6
:1012C00013E028C08AE792E00E94AA0686C082E85E
:1012D00092E00E94AA0684C089E892E00E94AA06D1
:1012E00082C082E992E00E94AA0681C08BE992E066
:1012F0000E94AA0680C08091120388230CF488C043
:101300008091120380FD8DC0E3ECF9E03197F1F795
:1013100000C0000060E083E00E9410068CE692E0CE
:101320000E94AA0682E193E00E94410B882361F3A8
:1013300090911203892F817091FB222720F9822B33
:1013400092FB222720F9822B93FB222720F9822B64
:1013500094FB222720F9822B95FB222720F9822B50
:1013600096FB222720F9822B97FB992790F9892B4E
:101370009881292F2170822B91FB222720F9822B23
:1013800092FB222720F9822B93FB222720F9822B24
:1013900094FB222720F9822B95FB222720F9822B10
:1013A00096FB222720F9822B97FB992790F9892B0E
:1013B000F8019081292F2170822B96959170892BAD
:1013C00009F4A2CF83E00E94B9068CE692E00E9465
:1013D000AA06F801808181FD75CF888185FD77CFD0
:1013E000888186FD79CF888188230CF47ACFF80133
:1013F000808180FD7BCF8091120386FF7CCF85EAC0
:1014000092E00E94AA0661E080E00E94F60B73CF92
:1014100088EA92E00E94AA0660E080E00E94F60B53
:101420006FCF83EC99E00197F1F700C00000809145
:10143000FB029091FC020E94F108DF91CF911F9175
:101440000F9108952091FB023091FC023093F70236
:101450002093F602E8EFF2E09283818383E08083B9
:10146000F093FC02E093FB021092F502CF010E9480
:10147000F1080895CF93DF93EC010E94E2066AE041
:1014800083E00E9410068BEA92E00E94AA066AE0BE
:1014900084E00E941006CE0101960E94AA062FE366
:1014A0008DE093E0215080409040E1F700C00000C3
:1014B0008091FB029091FC020E94F108DF91CF9194
:1014C00008958091F502811101C0089581508093A3
:1014D000F5028091FB029091FC020E94F108F5CF89
:1014E0009091F502E091FB02F091FC0220812150E5
:1014F000330B921713060CF008959F5F9093F5023B
:10150000CF010E94F108F8CFE091FB02F091FC02BC
:101510008091F502A181B28199E1899FA00DB11D51
:10152000112455968D919C915697009741F45796AA
:10153000ED91FC915897309729F0099508950E94F4
:10154000220A0895CD010E943A0A0895CF93DF93AD
:101550000E9402048091090390910A03009779F098
:10156000019781F080910B0381110FC08FE295E705
:101570000197F1F700C00000DF91CF9108950E941C
:10158000610AF0CF0E94700AEDCF0E94840A809118
:101590000B03882359F3CDEFD2E00E9402048E851D
:1015A0008111FBCFE3CF0E9426050E9409070E940C
:1015B000140B6093120370931303809314030E941F
:1015C000CA0382E091E09093FC028093FB021092A8
:1015D000F5020E94F1088091B4019091B501892B28
:1015E00041F00E94A60A8091B4019091B501892B27
:1015F000C1F708950E94E2066AE083E00E941006A7
:1016000085EB92E00E94AA062FEF80E792E021503E
:1016100080409040E1F700C000008091FB02909173
:10162000FC020E94F108089581E090E00E943D05CF
:1016300060E070E080E00895CF93DF930097F9F0C9
:10164000EC0181E090E00E94330584E00E944605B1
:101650008DE08A95F1F700000E944905888300C05B
:101660000E944905898300C00E9449058A8381E060
:1016700090E00E943D0581E0DF91CF91089580E0E8
:10168000FBCF0F931F93CF93DF9300D01F92CDB763
:10169000DEB7009709F4A1C08C01CE0101960E942B
:1016A0001C0B882309F49AC069814A815B81262F2B
:1016B00030E0F801908160FB90F9B901759567956C
:1016C00060FB91F9B901759567957595679560FB14
:1016D00092F9B901759567957595679575956795B3
:1016E00060FB93F9B9017595679575956795759543
:1016F00067957595679560FB94F9359527953595B0
:10170000279535952795359527953595279520FB70
:1017100095F9242F30E040FB96F9B901759567954E
:1017200060FB97F99083B9017595679575956795F5
:10173000918160FB90F9B9017595679575956795ED
:101740007595679560FB91F9B901759567957595E4
:101750006795759567957595679560FB92F9B901E1
:101760007595679575956795759567957595679561
:101770007595679560FB93F9022E232F000C221FAD
:10178000330B000C221F331F20FB94F9252F30E070
:10179000428150FB41F9B9017595679560FB40F9AD
:1017A0004283A901559547955595479540FB97F973
:1017B000A90155954795559547955595479540FBF2
:1017C00096F935952795359527953595279535952E
:1017D000279520FB95F9918301C080E00F900F9031
:1017E0000F90DF91CF911F910F910895CF93DF93C9
:1017F000863020F080E0DF91CF910895D62FC82F5A
:1018000081E090E00E94330585E00E9446058C2F20
:101810000E9446058D2F0E94460581E090E00E94BF
:101820003D0581E0E8CFCF93DF93863020F080E064
:10183000DF91CF910895D62FC82F81E090E00E94CC
:10184000330586E00E9446058C2F0E9446058D2FA9
:101850000E94460581E090E00E943D0581E0E8CFCE
:101860000895BA9A82E090E00E943D058B98939A81
:101870000E9426050895CF93C82F82E090E00E9431
:101880003D0582E090E00E94330583E00E9441051F
:101890008C2F0E94410580E00E944105C82F82E004
:1018A00090E00E943D058C2FCF91089582E090E05A
:1018B0000E943D0582E090E00E94330580EC0E948A
:1018C000410582E090E00E943D0583EC99E001979C
:1018D000F1F700C000008EE00E943B0C982F907E34
:1018E000903861F01F928F9383EC92E09F938F93D7
:1018F0000E94200F0F900F900F900F900895CF939C
:10190000DF93D82FC62F82E090E00E943D0582E051
:1019100090E00E94330582E00E9441058D2F0E94D5
:1019200041058C2F0E94410582E090E00E943D0518
:10193000DF91CF9108951F93CF93DF93182FD62F68
:10194000C42F82E090E00E943D0582E090E00E947A
:10195000330585E00E944105812F0E9441058D2FAE
:101960000E9441058C2F0E94410582E090E00E9478
:101970003D05DF91CF911F910895CF93833010F0F3
:10198000CF910895C82F82E090E00E943D0582E04B
:1019900090E00E94330581E090E002C0880F991F1B
:1019A000CA95E2F780680E94410582E090E00E94BB
:1019B0003D05E6CFCF9382E090E00E943D0582E0B6
:1019C00090E00E94330580EA0E94410580E00E9479
:1019D0004105C82F82E090E00E943D058C2FCF91F9
:1019E0000895482F60EE8FE00E949B0C0895682FA9
:1019F0008BE20E947F0C08958CE20E943B0C0895BC
:101A000040E0682F8CE20E949B0C08950E94310CEC
:101A10000E94560C60E08AE20E947F0C6FEA89E225
:101A20000E947F0C64E088E20E947F0C60E680E602
:101A30000E947F0C60E680E70E947F0C8FEF0E947F
:101A4000000D8FE10E94F70C8FEF0E94000D80E4E3
:101A50000E94F10C08950F931F93CF93DF9300978B
:101A6000D9F1FC012281293030F080E0DF91CF9163
:101A70001F910F9108958C01C081D181BE0176958F
:101A80006795769567957695679581E30E947F0CBB
:101A90006C2F6295660F607E82E30E947F0CF801D6
:101AA00062816F7085E30E947F0CF8018281882338
:101AB00071F0C0E0F801EC0FF11D638186E38C0F3B
:101AC0000E947F0CCF5FF8018281C81798F380E0F5
:101AD0000E94BD0C81E0CACF80E0C8CF0F931F9356
:101AE000CF93DF930097B9F1EC010E94FC0C80FDCD
:101AF00002C080E031C081E60E943B0C182F82E6D4
:101B00000E943B0C212F30E0220F331F220F331F86
:101B1000220F331F829586958770282B398328835F
:101B200085E60E943B0C8F708A83882379F08E01B2
:101B30000D5F1F4FD6E6D80FC6E68C2F0E943B0CD8
:101B4000F80181938F01CF5FCD13F7CF81E00E9421
:101B5000000D81E001C080E0DF91CF911F910F91D6
:101B600008951F920F920FB60F921124EF92FF92D9
:101B70000F931F932F933F934F935F936F937F9395
:101B80008F939F93AF93BF93EF93FF93CF93DF9385
:101B9000CDB7DEB72B97DEBFCDBF0E94FC0C082F60
:101BA00080FD1FC002FD5CC02B960FB6F894DEBF0F
:101BB0000FBECDBFDF91CF91FF91EF91BF91AF915C
:101BC0009F918F917F916F915F914F913F912F9155
:101BD0001F910F91FF90EF900F900FBE0F901F90ED
:101BE0001895CE0101960E946E0D8AEF91E00E9439
:101BF0003D0F8B811F928F938A818F9389818F9361
:101C00008AE092E09F938F930E94200F0F900F9095
:101C10000F900F900F900F908B818823E1F010E0D0
:101C20000F2EF5E2EF2EF2E0FF2EF02DE4E0F0E0D3
:101C3000EC0FFD1FE10FF11D80811F928F93FF922A
:101C4000EF920E94200F1F5F0F900F900F900F9048
:101C50008B81181758F38AE090E00E94360FA2CFCC
:101C600084E00E94000DA0CFAA1BBB1B51E107C05E
:101C7000AA1FBB1FA617B70710F0A61BB70B881F1C
:101C8000991F5A95A9F780959095BC01CD010895AB
:101C9000A1E21A2EAA1BBB1BFD010DC0AA1FBB1F70
:101CA000EE1FFF1FA217B307E407F50720F0A21BE2
:101CB000B30BE40BF50B661F771F881F991F1A944F
:101CC00069F760957095809590959B01AC01BD0179
:101CD000CF010895A29FB001B39FC001A39F700DD3
:101CE000811D1124911DB29F700D811D1124911D24
:101CF00008958F929F92AF92BF92CF92DF92EF9210
:101D0000FF92CF93DF93EC01688179818A819B8177
:101D1000611571058105910521F464E279ED8BE58A
:101D200097E02DE133EF41E050E00E942E1349018E
:101D30005A019B01AC01A7EAB1E40E944D136B016B
:101D40007C01ACEEB4EFA50194010E945B13DC01B1
:101D5000CB018C0D9D1DAE1DBF1DB7FF03C00197AC
:101D6000A109B04888839983AA83BB839F77DF91B9
:101D7000CF91FF90EF90DF90CF90BF90AF909F906A
:101D80008F9008950E94790E089586EB91E00E944D
:101D9000790E0895B0E0A0E08093B6019093B7016A
:101DA000A093B801B093B90108950F931F93CF93F7
:101DB000DF93009759F46115710541F4F0E0E0E01C
:101DC000CF01DF91CF911F910F9108958B01EC010D
:101DD0006EE070E081E090E00E944211FC01892BEE
:101DE00069F380E883830115110571F01387028779
:101DF00081E883838091150390911603892B21F448
:101E0000F0931603E09315032097D1F2D187C08792
:101E10008381826083838091170390911803892BBB
:101E200079F6F0931803E0931703809119039091CA
:101E30001A03892B29F6F0931A03E0931903C0CFF4
:101E4000B0E0A0E0E6E2FFE00C947013AE014B5F5F
:101E50005F4FFA0161917191AF01809117039091E9
:101E600018030E94680FE2E00C948C136091170332
:101E7000709118030E94A01208950F931F93CF939F
:101E8000DF93E0911703F09118032381EC0110E038
:101E900000E021FD08C00FEF1FEF14C00995892B4A
:101EA00011F00FEF1FEF89916091170370911803E4
:101EB000DB011896ED91FC918111F0CF8AE0099534
:101EC000892B49F7C801DF91CF911F910F91089598
:101ED000ABE0B0E0EEE6FFE00C9460137C013B0168
:101EE0008A01FC0117821682838181FFC8C1CE015D
:101EF00001965C01F7019381F30193FD859193FFB6
:101F000081913F01882309F453C1853239F493FD4F
:101F1000859193FF81913F01853229F4B70190E0CB
:101F20000E94A012E7CF912C212C312CFFE1F31558
:101F300038F08B3211F190F4803209F1833229F1BB
:101F400037FC3CC020ED280F2A3050F536FE20C06B
:101F50008AE0989E200D1124922E06C08D3291F0B9
:101F6000803371F7689430F8F30193FD859193FF06
:101F700081913F018111DACF21C0689431F86894D2
:101F800032F8F2CF689433F8EFCF689434F8ECCF9E
:101F9000EAE02E9E200D1124222E689435F8E4CF1D
:101FA0008E3229F436FC04C1689436F8DDCF8C36C5
:101FB00019F4689437F8D8CF8836B1F2982F9F7DFE
:101FC00095549330E0F08336A1F18337C1F1833526
:101FD00009F063C02801F2E04F0E511CF801C080E7
:101FE000D180692D70E036FC02C06FEF7FEFC60133
:101FF0000E9483124C01689437F882010AC00C5F7A
:102000001F4FFFE3F98388248394912C6501E894A2
:1020100037F833FE2DC0522C8114910471F55520F0
:1020200009F468CFB70180E290E00E94A0125A94B0
:10203000F6CFF801808189830E5F1F4FE4CF28011E
:10204000F2E04F0E511CF801C080D180692D70E084
:1020500036FC02C06FEF7FEFC6010E9495124C0163
:102060008201D5CFB70180E290E00E94A0122A94AD
:102070002814190409F0B0F7CECFF60137FC85918A
:1020800037FE81916F01B70190E00E94A0125110BC
:102090005A94F1E08F1A9108BFCF843619F089362F
:1020A00009F077C0F80137FE6BC0608171818281D1
:1020B00093810C5F1F4FF32DFF763F2E97FF09C0D2
:1020C00090958095709561957F4F8F4F9F4F689445
:1020D00037F82AE030E0A5010E94D012C82ECA18B5
:1020E0008C2C432C36FE0CC0E89440F8C91440F404
:1020F00034FE05C032FC03C0F32DFE7E4F2E892C2A
:1021000044FE95C0FE01EC0DF11D8081803309F085
:1021100087C0242D297E422E842D8870582E43FCA2
:1021200095C040FE8FC09C2C821418F42C0C922C6D
:10213000981844FE91C0B70180E390E00E94A0127D
:1021400042FE09C088E790E041FE02C088E590E0C9
:10215000B7010E94A012C91408F48AC0CA94D12CF5
:102160009FEFC91AD90ACA0CDB1CF60182916F01D4
:10217000B70190E00E94A012AC14BD04B1F74FCF9C
:1021800060817181072E000C880B990B0E5F1F4F29
:1021900092CFD32CE894D4F82AE030E0853739F197
:1021A000232D297FD22E8F3601F148F48835A9F0EE
:1021B000F701868197812B96E2E10C947C1380379E
:1021C00049F08837A9F7D4FE02C06894D2F820E11C
:1021D00030E00DC06894D4F8F6CF34FE03C0822FEF
:1021E0008660D82E20E132E002C028E030E0F8011D
:1021F000D7FE0FC060817181828193810C5F1F4F78
:10220000A5010E94D012C82ECA183D2CE89437F8B8
:1022100067CF6081718190E080E00E5F1F4FF0CF4B
:1022200042FC02C0839478CF8394839475CF842D2D
:10223000867809F471CFF6CFB70180E290E00E9472
:10224000A01283948214C0F3512C73CF522C5818CF
:10225000821408F46ECFF8CF842D867809F47BCFF2
:102260008BE241FE80E247FC8DE2B70190E071CF46
:10227000B70180E390E00E94A0129A946CCF8FEF98
:102280009FEF99CF0F931F93CF93DF93869F80018A
:10229000879F100D969F100D1124C8010E945E119A
:1022A000EC01009729F0A80170E060E00E948E1216
:1022B000CE01DF91CF911F910F9108950F931F933E
:1022C000CF93DF938230910510F482E090E0E091AB
:1022D0001D03F0911E0330E020E0B0E0A0E0309755
:1022E00099F42115310509F44AC0281B390B243013
:1022F0003105D8F58A819B816115710589F1FB0152
:1023000093838283FE0111C0408151810281138138
:1023100048175907E0F04817590799F4109761F0EA
:1023200012960C93129713961C933296CF01DF915D
:10233000CF911F910F91089500931D0310931E03D9
:10234000F4CF2115310551F04217530738F0A90198
:10235000DB019A01BD01DF01F801C1CFEF01F9CF27
:1023600090931E0380931D03CDCFFE01E20FF31F58
:10237000819391932250310939832883D7CF2091BB
:102380001B0330911C03232B41F42091BC0130919D
:10239000BD0130931C0320931B032091BA0130919F
:1023A000BB012115310541F42DB73EB74091BE0167
:1023B0005091BF01241B350BE0911B03F0911C03CE
:1023C000E217F307A0F42E1B3F0B2817390778F00C
:1023D000AC014E5F5F4F2417350748F04E0F5F1F6B
:1023E00050931C0340931B03819391939FCFF0E084
:1023F000E0E09CCFCF93DF930097E9F0FC013297A8
:1024000013821282A0911D03B0911E03ED0130E0F2
:1024100020E01097A1F420813181820F931F209139
:102420001B0330911C032817390709F061C0F09392
:102430001C03E0931B03DF91CF910895EA01CE17AF
:10244000DF07E8F54A815B819E0141155105B1F72F
:10245000E901FB83EA8349915991C40FD51FEC1719
:10246000FD0761F4808191810296840F951FE90137
:1024700099838883828193819B838A83F0E0E0E063
:1024800012968D919C9113970097B9F52D913C91DF
:102490001197CD010296820F931F20911B0330915B
:1024A0001C032817390739F6309751F510921E038F
:1024B00010921D03B0931C03A0931B03BCCFD383C6
:1024C000C28340815181840F951FC817D90761F4D9
:1024D0004E5F5F4F88819981480F591F5183408318
:1024E0008A819B81938382832115310509F0B0CFC6
:1024F000F0931E03E0931D039ECFFD01DC01C0CFCE
:1025000013821282D7CFFC010590615070400110F8
:10251000D8F7809590958E0F9F1F0895DC0101C01C
:102520006D9341505040E0F70895FC0161507040B8
:1025300001900110D8F7809590958E0F9F1F0895F8
:102540000F931F93CF93DF93182F092FEB018B81EC
:1025500081FD09C01FEF0FEF812F902FDF91CF91E9
:102560001F910F91089582FF14C02E813F818C81AD
:102570009D81281739073CF4E881F981CF01019644
:102580009983888310838E819F8101969F838E8398
:10259000E3CFE885F985812F0995892BA1F3DACF5F
:1025A000FA01AA27283051F1203181F1E8946F9384
:1025B0006E7F6E5F7F4F8F4F9F4FAF4FB1E03ED02A
:1025C000B4E03CD0670F781F891F9A1FA11D680FC8
:1025D000791F8A1F911DA11D6A0F711D811D911DFB
:1025E000A11D20D009F468943F912AE0269F112470
:1025F0003019305D3193DEF6CF010895462F4770D4
:10260000405D4193B3E00FD0C9F7F6CF462F4F702E
:10261000405D4A3318F0495D31FD4052419302D08C
:10262000A9F7EACFB4E0A695979587957795679532
:10263000BA95C9F700976105710508959B01AC0132
:102640000A2E06945795479537952795BA95C9F759
:10265000620F731F841F951FA01D0895052E97FB01
:102660001EF400940E94451357FD07D00E94480EA7
:1026700007FC03D04EF40C944513509540953095CB
:1026800021953F4F4F4F5F4F0895909580957095DE
:1026900061957F4F8F4F9F4F08950E946A0EA59FAF
:1026A000900DB49F900DA49F800D911D112408954D
:1026B000B7FF0C944D130E944D13821B930B08958A
:1026C0002F923F924F925F926F927F928F929F9242
:1026D000AF92BF92CF92DF92EF92FF920F931F9330
:1026E000CF93DF93CDB7DEB7CA1BDB0B0FB6F894E1
:1026F000DEBF0FBECDBF09942A88398848885F8421
:102700006E847D848C849B84AA84B984C884DF8091
:10271000EE80FD800C811B81AA81B981CE0FD11D75
:102720000FB6F894DEBF0FBECDBFED010895F8944B
:02273000FFCFD9
:102732000018040501015374617274000000000066
:10274200000000000000000000000000AB07015381
:10275200657474696E677320262054657374730000
:10276200000000690100000141626F757400000001
:102772000000000000000000000000000000300C1B
:1027820001506F776572204F46460000000000003E
:1027920000000000000000E2080143616C696272FF
:1027A20061746500000000000000000000000000ED
:1027B200CA030154657374204156520000000000A0
:1027C2000000000000000000004F09014261636B3D
:1027D20000000000000000000000000000000000F7
:1027E2000000310901000100000000001F03200069
:1027F20048454C4C4F20574F524C44004C696E6533
:10280200203420616674657220636C656172004DCC
:10281200435032353135206C6F6F706261636B20CB
:102822002073746172742E2E2E0052656365697670
:102832006564206672616D65210049443A203078F2
:10284200253033582C20444C433A2025752C204403
:102852004154413A002025303258004D4350323520
:102862003135206C6F6F706261636B2077697468B9
:1028720020696E742073746172742E2E2E00507251
:1028820065737320616E7920627574746F6E20288F
:10289200523120746F206578697429004C61737419
:1028A20020707265737365643A004E4156206274FB
:1028B2006E004E4156207570004E415620646F776F
:1028C2006E004E4156206C656674004E4156207271
:1028D20069676874004C31004C320053656C656363
:1028E2007465643A005445535420414354494F4E51
:1028F2002E2E004D4350204E4F5420696E20636FA0
:102902006E66696775726174696F6E20616674655F
:102912007220726573657420210A202564200000EC
:00000001FF
