:100000000C94F6000C9413010C9413010C9413013E
:100010000C9413010C9413010C9413010C94130110
:100020000C9413010C9413010C9413010C94130100
:100030000C9413010C9413010C9413010C941301F0
:100040000C9413010C9413010C9413010C941301E0
:100050000C9413010C9413010C9413010C941301D0
:100060000C9413010C9413010C9413010C941301C0
:1000700000000000005C00000C000C007C287C28C4
:1000800058DC68002410480028542840000C000068
:10009000007884008478000054385400107C1000EC
:1000A00080400000101010000040000060100C00A4
:1000B00038543800487C40004864580044542C00B0
:1000C0001C107C005C5424003854240064140C0080
:1000D00068542C0048543800004800008048000054
:1000E0001028440028282800442810000454080040
:1000F00038445C00781478007C5428003844280088
:100100007C4438007C5444007C140400384474005F
:100110007C107C00447C440020403C007C106C003F
:100120007C4040007C187C0078103C00384438004B
:100130007C1408003844B8007C146800485424003B
:10014000047C04007C407C003C603C007C307C00F3
:100150006C106C000C700C0064544C00007C44006B
:100160000C106000447C00000804080080808000BF
:1001700000040800304878007C48300030484800CF
:1001800030487C00306850001078140090A8780047
:100190007C08700050744000808074007C106800FF
:1001A000447C4000781078007808700030483000B7
:1001B000F82810003048F80078100800505828003F
:1001C000083C4800384078003840380078207800F3
:1001D0004830480098A0780048685800107884009B
:1001E000007C0000847810000804080411241FBE5D
:1001F000CFEFD4E0DEBFCDBF12E0A0E0B1E0ECEF86
:10020000F4E202C005900D92A23EB107D9F723E0B7
:10021000A2EEB2E001C01D92A131B207E1F70E9447
:100220000A020C947C120C940000399A00C000C0A1
:100230000000399800C000C0000008958FEF8ABB0D
:10024000319A1BBA3998C0E0CBBB0E9415012FEF41
:100250008FEF92E0215080409040E1F700C000C055
:10026000CF5FF2CF0E946D0208950E942F03089580
:100270000E9453030E9452030E948B030E94510369
:100280002FEF8FEF92E0215080409040E1F700C0C7
:1002900000C0F2CF0E9468040E9467040E947204AA
:1002A0000E9466042FEF8FEF92E021508040904033
:1002B000E1F700C000C0F2CF2FEF8FEF9DE121509A
:1002C00080409040E1F700C000000E944B0580ECA8
:1002D00091E00E9431062FEF8FEF9DE12150804089
:1002E0009040E1F700C0000060E083E00E949705C5
:1002F0008CEC91E00E9431062FEF8FEF9DE12150B1
:1003000080409040E1F700C000000895EF92FF9216
:100310001F93CF93DF93CDB7DEB766970FB6F894F0
:10032000DEBF0FBECDBF8FED91E00E94220E0E9476
:10033000460C8AB780628ABF84B78E7F84BF8BB732
:1003400080628BBF7894FE01379685E0DF011D92B5
:100350008A95E9F783E291E09A83898383E08B832E
:1003600081E18C8382E28D8383E38E838AEF91E047
:100370000E94220ECE0101960E946E0CCE010C96B8
:100380000E94B10C8823D1F38FE092E00E94220EEC
:100390008E851F928F938D858F938C858F938FE1A0
:1003A00092E09F938F930E94050E0F900F900F90F5
:1003B0000F900F900F908E858823E1F010E00F2EA4
:1003C000FAE3EF2EF2E0FF2EF02DEFE0F0E0EC0F7D
:1003D000FD1FE10FF11D80811F928F93FF92EF921D
:1003E0000E94050E1F5F0F900F900F900F908E854B
:1003F000181758F38AE090E00E941B0E66960FB61D
:10040000F894DEBF0FBECDBFDF91CF911F91FF905B
:10041000EF90089520E835E240E050E060E070E0C1
:100420008BE490E00E941D020E9489020E940F034B
:100430000E94860190E080E00895220F331F441F40
:10044000551F220F331F441F551F220F331F441FF8
:10045000551F220F331F441F551F0E942D0D215081
:10046000310930BD29B91BB88EE880BD549A539A22
:1004700061E772E083E492E00E94BA0D08955D9B0B
:10048000FECF8CB90895CF93C82F8A3039F08C2FC6
:100490000E943F0290E080E0CF9108958DE00E949D
:1004A0003F02F5CFCF93DF93EC01892B49F0888190
:1004B000882331F021960E943F0289918111FBCF60
:1004C000DF91CF9108958BB1082E000C990B892FE5
:1004D000881F8827881F90E008955F9BFECF8CB10E
:1004E00008950E946D02082E000C990B0895CF9379
:1004F000DF93EC012196FC018491882339F00E945E
:100500003F02FE01849121968111F9CFDF91CF91B5
:10051000089585B7806885BF80B7806280BF0895E1
:10052000811528E0920758F42091000130910101D3
:10053000820F931FFC01608390E080E0089581E0CA
:1005400090E00895811528E0920748F42091000179
:1005500030910101820F931FFC018081089581E099
:1005600008950F931F93CF93DF930E94AA0D8C01E0
:100570000E94AF0DD0E0C0E00E94AA0DE091000102
:10058000F0910101EC0FFD1F8083E0910001F091DB
:100590000101EC0FFD1F80812196C11588E0D8076D
:1005A00059F7C8010E94AF0DD0E0C0E00E94AA0D2B
:1005B000E0910001F0910101EC0FFD1F8081219677
:1005C000C11588E0D80791F7DF91CF911F910F9166
:1005D0000895E0E0F0E185EA8083A7E9BAE31197A6
:1005E000F1F700C00000B096E115B8E1FB07A1F7F4
:1005F00085EA8083A7E9BAE31197F1F700C000000C
:10060000B096E115B0E2FB07A1F72FE58AEE90E086
:10061000215080409040E1F700C0000008958D9A7D
:100620008FB58F778FBD8FB580648FBD8EB58F7E70
:100630008EBD8EB588608EBD8FB58D7F8FBD8FB519
:100640008E7F8FBD1BBC1ABC8EB58B7F8EBD8EB5C9
:100650008D7F8EBD8EB581608EBD8C980895109271
:100660000010849B08C0000089E090E0849B03C0D8
:1006700000000197D9F7849908C0000081E390E059
:10068000849903C000000197D9F7A0E0B0E18C91F4
:10069000E2EEF2E080838C9181838C918283CF01A2
:1006A000089508950895EF92FF920F931F93CF93AB
:1006B000CAE010E000E0F12CE12C0E942F03FC01C5
:1006C0002081E20EF11C8181080F111DC150A9F794
:1006D000BB989701ADECBCEC0E944F0D96958795A9
:1006E00096958795969587959927EFEEF2E09183F9
:1006F000808398010E944F0D9695879596958795D2
:1007000096958795992793838283CF911F910F9117
:10071000FF90EF9008950F931F93CF93DF930E9464
:100720002F03FC012081022F10E08181C82FD0E02F
:100730000E942F03FC012081200F312F311D36959F
:10074000279581818C0F9D2F911D96958795C82F98
:1007500046B343FB442740F951E04527AFEEB2E0F2
:100760001E964C931E97A901552715965C934E93A0
:100770001497FC01FF271796FC93EE9316978D9123
:100780009C91281708F45BC0992767EF70E0681BFD
:10079000790B09F468C0481B590B24E6249FC0015B
:1007A000259F900D11240E94190DAFEEB2E019960D
:1007B0007C936E93189712968D919C91C81708F4AC
:1007C00058C0992769EF70E0681B790B09F465C080
:1007D000E81BF90B24E62E9FC0012F9F900D1124DA
:1007E0000E94190DEFEEF2E0738762872285338550
:1007F00080859185A90133230CF455C0853191057D
:1008000024F0841795070CF053C08C3EFFEF9F0730
:100810003CF4919581959109841795070CF053C08C
:1008200090E080E0253131050CF044C084E090E098
:100830002C3E3F4F0CF03EC081E090E03BC099273A
:10084000BC016454710991F0841B950B44E6489FE8
:100850009001499F300D1124C9010E94190D719515
:1008600061957109A2CF70E060E09FCF70E060E019
:100870009CCF9927BC016154710991F08E1B9F0B8D
:1008800044E6489F9001499F300D1124C9010E9400
:10089000190D719561957109A5CF70E060E0A2CF47
:1008A00070E060E09FCF44275527421B530BA6CF33
:1008B00083E090E09093FC028093FB02DF91CF9164
:1008C0001F910F91089582E090E0F4CF089508956C
:1008D0000E942F03FC01828190E09093FF0280939D
:1008E000FE0208950E942F03FC014281242F30E074
:1008F000EEEFF2E03383228380819181481788F004
:1009000099276FEF70E0681B790B19F1281B390BE1
:1009100044E6429FC001439F900D11240E94190D8F
:1009200013C09927682F792F0097B1F0821B930B82
:1009300044E6489F9001499F300D1124C9010E944F
:10094000190D71956195710970930303609302030A
:10095000089570E060E0F8CF70E060E0F5CF87B315
:10096000806B87BBBE988A9AB89AB99AC09AC19A86
:10097000C49A82E58DB90895892B11F0C198089524
:10098000C0980895892B11F0C19A0895C09A0895CE
:100990008FB9779BFECF8FB108950E94C804089548
:1009A0008FEF0E94C80408950F931F93CF93DF9396
:1009B0006115710551F08C01EC01060F171F89912B
:1009C0000E94C804C017D107D1F7DF91CF911F91C2
:1009D0000F9108950F931F93CF93DF9361157105C6
:1009E00059F08C01EC01060F171F8FEF0E94C8040D
:1009F0008993C017D107C9F7DF91CF911F910F914C
:100A00000895CF93C82F90E080E00E94BC04929894
:100A10008C2F0E94C80490E080E00E94C204CF9115
:100A20000895CF93DF93D82FC62F90E080E00E94E7
:100A3000BC0492988D2F0E94C8048C2F0E94C80479
:100A400090E080E00E94C204DF91CF910895EF9280
:100A5000FF920F931F93CF93DF938C017B0190E064
:100A600080E00E94BC04929AE114F10449F0E8018C
:100A70000E0D1F1D89910E94C804C017D107D1F720
:100A800090E080E00E94C204DF91CF911F910F910E
:100A9000FF90EF900895CF93DF93D0E013C08FEFD6
:100AA0000E94C804CF5FC03831F0C0FFF8CF8FEF8D
:100AB0000E94C804F7CF90E080E00E94C204DF5F8C
:100AC000D830D9F090E080E00E94BC0492988D2F3D
:100AD0008770806B0E94C80480E00E94C80480E197
:100AE0000E94C80490E080E00E94C20490E080E090
:100AF0000E94BC04929AC0E0D8CFDF91CF910895B4
:100B00001092E6021092E50290E080E00E94BC04A0
:100B1000929880EB0E94C80480E00E94C80480E1A3
:100B20000E94C80490E080E00E94C2040895CF9320
:100B3000DF93C62FD82F883008F0D7E0CC23FCF005
:100B4000D093E602C093E50290E080E00E94BC04EE
:100B500092988D2F8770806B0E94C8048C2F8F70A5
:100B60000E94C8048C2F82958F7080610E94C804F7
:100B700090E080E00E94C204DF91CF910895CFE71A
:100B8000DFCF1092E5028091E602873020F48F5F7C
:100B90008093E602089580E0FBCF0F931F93CF93DD
:100BA000DF93C82F8A3009F453C08D3009F453C045
:100BB00080EE8C0F8F3508F0C0E28091E5028C3713
:100BC00008F04CC0D091E5021091E60290E080E080
:100BD0000E94BC049298812F8770806B0E94C80489
:100BE0008D2F8F700E94C8048D2F82958F70806129
:100BF0000E94C80490E080E00E94C20490E080E07F
:100C00000E94BC04929AC052D0E0CC0FDD1FCC0FE2
:100C1000DD1F8E0100591F4FCC58DF4FF801849122
:100C20000E94C8040F5F1F4F0C171D07B9F780E023
:100C30000E94C80490E080E00E94C2048091E50216
:100C40008B5F8093E502DF91CF911F910F91089503
:100C50000E94C105F8CF1092E502F5CF0E94C105B0
:100C6000B1CFCF93DF93EC018881882331F02196B7
:100C70000E94CD0589918111FBCFDF91CF9108951D
:100C8000CF93DF93883018F0DF91CF910895D82F5C
:100C900090E080E00E94BC0492988D2F8770806B5A
:100CA0000E94C80480E00E94C80480E10E94C80439
:100CB000929AC0E080E00E94C804CF5FC038D1F7AC
:100CC00090E080E00E94C204D093E6021092E50218
:100CD000DBCFCF93DF9390E080E00E94BC04D0E0B4
:100CE00092988D2F8770806B0E94C80480E00E94CC
:100CF000C80480E10E94C804929AC0E080E00E948B
:100D0000C804CF5FC038D1F7DF5FD83049F790E033
:100D100080E00E94C2040E948005DF91CF91089577
:100D200083EC99E00197F1F700C000008EEA0E9481
:100D3000010581EA0E94010562E18AED0E94110528
:100D400088EC0E9401056FE388EA0E94110560E8C3
:100D500085ED0E9411056FEF81E80E94110561EF9A
:100D600089ED0E94110562E080E20E94110564E3B2
:100D70008BED0E94110584EA0E94010586EA0E941B
:100D800001058FEA0E94010587EA91E60197F1F7D4
:100D900000C000000E9469060E9480050895BF926D
:100DA000CF92DF92EF92FF920F931F93CF93DF9337
:100DB00000D01F92CDB7DEB77C01FC0122812770E5
:100DC000F9F410E00FEFF7016181610F80810B836F
:100DD0000E94970561E070E0CE0103960E9427050E
:100DE0001F5F183081F70F900F900F90DF91CF9118
:100DF0001F910F91FF90EF90DF90CF90BF900895DB
:100E00008FEF90E0B82E022E01C0BB0C0A94EAF7D7
:100E100048E050E0421B510902C0969587954A95DB
:100E2000E2F7C82E00E0F7011181100FD080BA82DE
:100E3000C982612F8D2D0E94970561E070E0CE017F
:100E400002960E942705612F81E08D0D0E94970573
:100E500061E070E0CE0101960E9427050F5F083027
:100E600011F7C1CFCF93DF93CDB7DEB729970FB678
:100E7000F894DEBF0FBECDBF0E94AF040E94900663
:100E80000E9453030E944B052FE33DE083E0215075
:100E900030408040E1F700C000000E9469061982DE
:100EA0001A821B82CE0101960E94CF060F2EFFEE02
:100EB000EF2EF2E0FF2EF02DCC24CA94D12C6894B2
:100EC000AA24A3F8B12C99249A940F2EF6E06F2E41
:100ED000F02D0F2EF7E07F2EF02D0F2EF8E78F2E3E
:100EE000F02DC0C0273081F081E0820F8B838A8192
:100EF000893708F08A828B8181117AC09981983074
:100F000008F47AC0798278C0073008F0C8C01B8224
:100F100081E0800F8983193768F78B81EFCF8FEFDE
:100F2000820F8B83E4CF8230910541F00397F9F66D
:100F30001837E8F681E0810F8A83D9CF1123D9F2DF
:100F40008FEF810F8A83D3CF28135DC085C068944B
:100F5000442443F8410E55245394500E1F821E82A0
:100F6000612F802F0E94970561E070E0CE01079607
:100F70000E942705612F852D0E94970561E070E092
:100F8000CE0106960E9427051F5F1411E7CF50C0BF
:100F90004C2C082E01C0440C0A94EAF79501281B3A
:100FA0003109F60102C0F695E7952A95E2F73E2E43
:100FB00000E01A81100F59804D823C82612F852DEF
:100FC0000E94970561E070E0CE0105960E9427051A
:100FD000612F81E0850D0E94970561E070E0CE01F0
:100FE00004960E9427050F5F083019F735C08B81E2
:100FF0009981973008F069829981901304C09A8191
:10100000911709F4A1CF277009F0A1CF6894552456
:1010100053F8510E1886612F802F0E94970561E0CA
:1010200070E0CE0108960E9427051F5F1511F2CFD0
:101030008B81877009F0ACCF10E06A81610F8981E4
:1010400099860E94970561E070E0CE0109960E94A2
:1010500027051F5F183089F783EC99E00197F1F7B6
:1010600000C000000E948B030E945103F701848599
:1010700095858430910581F309811A812B81813016
:10108000910509F42FCF009709F04DCF211147CFDB
:10109000002309F440CF7B828FEF800F89831937BB
:1010A00008F028CFA4CFCF93DF9300D01F92CDB705
:1010B000DEB783E0898398E29A838B83CE01019621
:1010C0000E94CF068FE493EC0197F1F700C0000077
:1010D000F9CF82E091E09093EE028093ED021092BE
:1010E000E7021092B5011092B4010E9469060895BA
:1010F000EF92FF920F931F93CF93DF937C010E9497
:101100006906D7018C91882321F110E000E0D0E03E
:10111000C0E009C02196075E1F4FD7018C918C1744
:101120001D06B9F0B4F0D7011196ED91FC91E00FD6
:10113000F11F8081882371F368E08C2F0E9497054E
:10114000F70181819281800F911F01960E943106E3
:10115000E1CF60E08091E7020E9497058EE30E9454
:10116000CD05DF91CF911F910F91FF90EF900895E2
:101170008091E8029091E902009789F09093EE0245
:101180008093ED021092E9021092E8021092E702B9
:101190008091ED029091EE020E947808089582E01D
:1011A00091E09093EE028093ED02F0CF0F931F93A6
:1011B000CF93DF930E94690660E082E00E9497056A
:1011C00080E492E00E943106C5E0D3E006E013E03F
:1011D00028C08CE692E00E94310686C084E792E047
:1011E0000E94310684C08BE792E00E94310682C0E3
:1011F00084E892E00E94310681C08DE892E00E946E
:10120000310680C08091040388230CF488C080914B
:10121000040380FD8DC0E3ECF9E03197F1F700C0E5
:10122000000060E083E00E9497058EE592E00E9456
:10123000310684E093E00E94C80A882361F390910C
:101240000403892F817091FB222720F9822B92FBC6
:10125000222720F9822B93FB222720F9822B94FB53
:10126000222720F9822B95FB222720F9822B96FB3F
:10127000222720F9822B97FB992790F9892B9881B7
:10128000292F2170822B91FB222720F9822B92FBA0
:10129000222720F9822B93FB222720F9822B94FB13
:1012A000222720F9822B95FB222720F9822B96FBFF
:1012B000222720F9822B97FB992790F9892BF80197
:1012C0009081292F2170822B96959170892B09F49A
:1012D000A2CF83E00E9440068EE592E00E94310694
:1012E000F801808181FD75CF888185FD77CF888168
:1012F00086FD79CF888188230CF47ACFF80180812C
:1013000080FD7BCF8091040386FF7CCF87E992E04C
:101310000E94310661E080E00E947D0B73CF8AE974
:1013200092E00E94310660E080E00E947D0B6FCF6A
:1013300083EC99E00197F1F700C000008091ED0285
:101340009091EE020E947808DF91CF911F910F914A
:1013500008952091ED023091EE023093E90220933E
:10136000E802EAEEF2E09283818383E08083F093E7
:10137000EE02E093ED021092E702CF010E9478089E
:101380000895CF93DF93EC010E9469066AE083E041
:101390000E9497058DE992E00E9431066AE084E0A0
:1013A0000E949705CE0101960E9431062FE38DE041
:1013B00093E0215080409040E1F700C00000809110
:1013C000ED029091EE020E947808DF91CF9108958E
:1013D0008091E702811101C0089581508093E70256
:1013E0008091ED029091EE020E947808F5CF9091E5
:1013F000E702E091ED02F091EE0220812150330BE3
:10140000921713060CF008959F5F9093E702CF01A7
:101410000E947808F8CFE091ED02F091EE02809101
:10142000E702A181B28199E1899FA00DB11D11242C
:1014300055968D919C915697009741F45796ED9152
:10144000FC915897309729F0099508950E94A909B1
:101450000895CD010E94C1090895CF93DF930E94A2
:101460008B038091FB029091FC02009779F0019729
:1014700081F08091FD0281110FC08FE295E7019705
:10148000F1F700C00000DF91CF9108950E94E809B4
:10149000F0CF0E94F709EDCF0E940B0A8091FD0268
:1014A000882359F3CFEED2E00E948B038E85811101
:1014B000FBCFE3CF0E94AF040E9490060E949B0ADC
:1014C0006093040370930503809306030E94530303
:1014D00082E091E09093EE028093ED021092E70299
:1014E0000E9478088091B4019091B501892B41F058
:1014F0000E942D0A8091B4019091B501892BC1F70A
:1015000008950E9469066AE083E00E94970587EAD1
:1015100092E00E9431062FEF80E792E02150804058
:101520009040E1F700C000008091ED029091EE0242
:101530000E947808089581E090E00E94C20460E073
:1015400070E080E00895CF93DF930097F9F0EC010D
:1015500081E090E00E94BC0484E00E94CD048DE014
:101560008A95F1F700000E94D004888300C00E9491
:10157000D004898300C00E94D0048A8381E090E077
:101580000E94C20481E0DF91CF91089580E0FBCFFB
:101590000F931F93CF93DF9300D01F92CDB7DEB789
:1015A000009709F4A1C08C01CE0101960E94A30A04
:1015B000882309F49AC069814A815B81262F30E033
:1015C000F801908160FB90F9B9017595679560FB12
:1015D00091F9B901759567957595679560FB92F9D5
:1015E000B90175956795759567957595679560FBD4
:1015F00093F9B90175956795759567957595679593
:101600007595679560FB94F93595279535952795E0
:1016100035952795359527953595279520FB95F98F
:10162000242F30E040FB96F9B9017595679560FB72
:1016300097F99083B901759567957595679591812F
:1016400060FB90F9B90175956795759567957595E6
:10165000679560FB91F9B9017595679575956795E3
:10166000759567957595679560FB92F9B9017595C4
:101670006795759567957595679575956795759552
:10168000679560FB93F9022E232F000C221F330B6A
:10169000000C221F331F20FB94F9252F30E04281DC
:1016A00050FB41F9B9017595679560FB40F942839C
:1016B000A901559547955595479540FB97F9A9017F
:1016C00055954795559547955595479540FB96F9FE
:1016D00035952795359527953595279535952795F2
:1016E00020FB95F9918301C080E00F900F900F903F
:1016F000DF91CF911F910F910895CF93DF938630A3
:1017000020F080E0DF91CF910895D62FC82F81E09F
:1017100090E00E94BC0485E00E94CD048C2F0E94C2
:10172000CD048D2F0E94CD0481E090E00E94C20480
:1017300081E0E8CFCF93DF93863020F080E0DF9127
:10174000CF910895D62FC82F81E090E00E94BC046D
:1017500086E00E94CD048C2F0E94CD048D2F0E9424
:10176000CD0481E090E00E94C20481E0E8CF0895BA
:10177000C29880EC0E94C804C29A08950E94AF04E7
:101780000E94B80BBA9A8B98C29A939A0895CF93F5
:10179000C82FC29883E00E94C8048C2F0E94C804FE
:1017A00080E00E94C804C29ACF910895CF93DF933E
:1017B000D82FC62FC29882E00E94C8048D2F0E94A5
:1017C000C8048C2F0E94C804C29ADF91CF9108955B
:1017D0001F93CF93DF93182FD62FC42FC29885E085
:1017E0000E94C804812F0E94C8048D2F0E94C80443
:1017F0008C2F0E94C804C29ADF91CF911F91089547
:10180000833008F00895C29821E030E0A90102C0B9
:10181000440F551F8A95E2F7CA0180680E94C804E8
:10182000C29AF0CFC29880EA0E94C8040E94D004F5
:10183000C29A0895CF93C82F482F60EE8FE00E9480
:10184000E80B8EE00E94C70B1F92CF93807E1F9201
:101850008F9385EB92E09F938F930E94050E0F90DC
:101860000F900F900F900F900F90CF910895682FC9
:101870008BE20E94D60B08958CE20E94C70B08955C
:1018800040E0682F8CE20E94E80B08950E94BE0B96
:101890000E94B80B80E80E941A0C60E08AE20E9465
:1018A000D60B6FEA89E20E94D60B64E088E20E94C0
:1018B000D60B60E680E60E94D60B60E680E70E94C9
:1018C000D60B83E00E94370C8CE10E94370C8FEF1F
:1018D0000E94400C80E40E941A0C08950F931F93FD
:1018E000CF93DF930097D9F1FC012281293030F0AA
:1018F00080E0DF91CF911F910F9108958C01C081FD
:10190000D181BE01769567957695679576956795B1
:1019100081E30E94D60B6C2F6295660F607E82E396
:101920000E94D60BF80162816F7085E30E94D60B8E
:10193000F8018281882371F0C0E0F801EC0FF11DFD
:10194000638186E38C0F0E94D60BCF5FF801828102
:10195000C81798F380E00E94000C81E0CACF80E0B5
:10196000C8CF0F931F93CF93DF930097B9F1EC018A
:101970000E943C0C80FD02C080E031C081E60E94E4
:10198000C70B182F82E60E94C70B212F30E0220FD1
:10199000331F220F331F220F331F829586958770C6
:1019A000282B3983288385E60E94C70B8F708A8392
:1019B000882379F08E010D5F1F4FD6E6D80FC6E65B
:1019C0008C2F0E94C70BF80181938F01CF5FCD133D
:1019D000F7CF81E00E94400C81E001C080E0DF9100
:1019E000CF911F910F9108951F93CF93DF93CDB7A0
:1019F000DEB72B970FB6F894DEBF0FBECDBF0E94A7
:101A00003C0C182F80FD0CC012FD0FC02B960FB69A
:101A1000F894DEBF0FBECDBFDF91CF911F91089527
:101A2000CE0101960E94B10CEFCF84E00E94400CE1
:101A3000EDCFAA1BBB1B51E107C0AA1FBB1FA617F6
:101A4000B70710F0A61BB70B881F991F5A95A9F767
:101A500080959095BC01CD010895A1E21A2EAA1B94
:101A6000BB1BFD010DC0AA1FBB1FEE1FFF1FA2174E
:101A7000B307E407F50720F0A21BB30BE40BF50B4B
:101A8000661F771F881F991F1A9469F760957095D4
:101A9000809590959B01AC01BD01CF010895A29F57
:101AA000B001B39FC001A39F700D811D1124911D32
:101AB000B29F700D811D1124911D08958F929F92E8
:101AC000AF92BF92CF92DF92EF92FF92CF93DF93CC
:101AD000EC01688179818A819B816115710581059D
:101AE000910521F464E279ED8BE597E02DE133EF88
:101AF00041E050E00E94131249015A019B01AC01E0
:101B0000A7EAB1E40E9432126B017C01ACEEB4EFA3
:101B1000A50194010E944012DC01CB018C0D9D1D9A
:101B2000AE1DBF1DB7FF03C00197A109B048888350
:101B30009983AA83BB839F77DF91CF91FF90EF902A
:101B4000DF90CF90BF90AF909F908F9008950E94AC
:101B50005E0D089586EB91E00E945E0D0895B0E061
:101B6000A0E08093B6019093B701A093B801B09321
:101B7000B90108950F931F93CF93DF93009759F402
:101B80006115710541F4F0E0E0E0CF01DF91CF9104
:101B90001F910F9108958B01EC016EE070E081E0E0
:101BA00090E00E942710FC01892B69F380E8838371
:101BB0000115110571F01387028781E883838091F5
:101BC000070390910803892B21F4F0930803E09315
:101BD00007032097D1F2D187C087838182608383F6
:101BE0008091090390910A03892B79F6F0930A03F7
:101BF000E093090380910B0390910C03892B29F644
:101C0000F0930C03E0930B03C0CFB0E0A0E0EBE057
:101C1000FEE00C945512AE014B5F5F4FFA016191EB
:101C20007191AF018091090390910A030E944D0EBA
:101C3000E2E00C9471126091090370910A030E9412
:101C4000851108950F931F93CF93DF93E0910903BC
:101C5000F0910A032381EC0110E000E021FD08C0AF
:101C60000FEF1FEF14C00995892B11F00FEF1FEF35
:101C700089916091090370910A03DB011896ED9137
:101C8000FC918111F0CF8AE00995892B49F7C801B1
:101C9000DF91CF911F910F910895ABE0B0E0E3E5A4
:101CA000FEE00C9445127C013B018A01FC01178285
:101CB0001682838181FFC8C1CE0101965C01F701C4
:101CC0009381F30193FD859193FF81913F018823D7
:101CD00009F453C1853239F493FD859193FF8191C5
:101CE0003F01853229F4B70190E00E948511E7CFCA
:101CF000912C212C312CFFE1F31538F08B3211F1AE
:101D000090F4803209F1833229F137FC3CC020ED98
:101D1000280F2A3050F536FE20C08AE0989E200D0C
:101D20001124922E06C08D3291F0803371F76894A1
:101D300030F8F30193FD859193FF81913F0181116B
:101D4000DACF21C0689431F8689432F8F2CF689401
:101D500033F8EFCF689434F8ECCFEAE02E9E200DF4
:101D60001124222E689435F8E4CF8E3229F436FC03
:101D700004C1689436F8DDCF8C3619F4689437F8CE
:101D8000D8CF8836B1F2982F9F7D95549330E0F0EC
:101D90008336A1F18337C1F1833509F063C028018F
:101DA000F2E04F0E511CF801C080D180692D70E027
:101DB00036FC02C06FEF7FEFC6010E9468114C0134
:101DC000689437F882010AC00C5F1F4FFFE3F98364
:101DD00088248394912C6501E89437F833FE2DC054
:101DE000522C8114910471F5552009F468CFB70184
:101DF00080E290E00E9485115A94F6CFF80180812C
:101E000089830E5F1F4FE4CF2801F2E04F0E511C73
:101E1000F801C080D180692D70E036FC02C06FEF00
:101E20007FEFC6010E947A114C018201D5CFB70124
:101E300080E290E00E9485112A942814190409F088
:101E4000B0F7CECFF60137FC859137FE81916F0157
:101E5000B70190E00E94851151105A94F1E08F1A59
:101E60009108BFCF843619F0893609F077C0F801A0
:101E700037FE6BC060817181828193810C5F1F4F3F
:101E8000F32DFF763F2E97FF09C0909580957095B2
:101E900061957F4F8F4F9F4F689437F82AE030E06D
:101EA000A5010E94B511C82ECA188C2C432C36FEF1
:101EB0000CC0E89440F8C91440F434FE05C032FC6C
:101EC00003C0F32DFE7E4F2E892C44FE95C0FE01EB
:101ED000EC0DF11D8081803309F087C0242D297E0F
:101EE000422E842D8870582E43FC95C040FE8FC032
:101EF0009C2C821418F42C0C922C981844FE91C03F
:101F0000B70180E390E00E94851142FE09C088E796
:101F100090E041FE02C088E590E0B7010E94851183
:101F2000C91408F48AC0CA94D12C9FEFC91AD90ADF
:101F3000CA0CDB1CF60182916F01B70190E00E9490
:101F40008511AC14BD04B1F74FCF60817181072EAC
:101F5000000C880B990B0E5F1F4F92CFD32CE89487
:101F6000D4F82AE030E0853739F1232D297FD22EAD
:101F70008F3601F148F48835A9F0F7018681978101
:101F80002B96E2E10C946112803749F08837A9F76B
:101F9000D4FE02C06894D2F820E130E00DC068940D
:101FA000D4F8F6CF34FE03C0822F8660D82E20E10D
:101FB00032E002C028E030E0F801D7FE0FC06081B7
:101FC0007181828193810C5F1F4FA5010E94B51121
:101FD000C82ECA183D2CE89437F867CF608171810C
:101FE00090E080E00E5F1F4FF0CF42FC02C0839470
:101FF00078CF8394839475CF842D867809F471CF3C
:10200000F6CFB70180E290E00E948511839482149C
:10201000C0F3512C73CF522C5818821408F46ECF91
:10202000F8CF842D867809F47BCF8BE241FE80E2E5
:1020300047FC8DE2B70190E071CFB70180E390E0FB
:102040000E9485119A946CCF8FEF9FEF99CF0F93D9
:102050001F93CF93DF93869F8001879F100D969FDC
:10206000100D1124C8010E944310EC01009729F0C3
:10207000A80170E060E00E947311CE01DF91CF9162
:102080001F910F9108950F931F93CF93DF93823089
:10209000910510F482E090E0E0910F03F0911003BD
:1020A00030E020E0B0E0A0E0309799F42115310550
:1020B00009F44AC0281B390B24303105D8F58A8130
:1020C0009B816115710589F1FB0193838283FE0178
:1020D00011C0408151810281138148175907E0F0F6
:1020E0004817590799F4109761F012960C931297BC
:1020F00013961C933296CF01DF91CF911F910F91D0
:10210000089500930F0310931003F4CF21153105A8
:1021100051F04217530738F0A901DB019A01BD01C4
:10212000DF01F801C1CFEF01F9CF90931003809345
:102130000F03CDCFFE01E20FF31F81939193225045
:10214000310939832883D7CF20910D0330910E03B5
:10215000232B41F42091BC013091BD0130930E033B
:1021600020930D032091BA013091BB012115310557
:1021700041F42DB73EB74091BE015091BF01241BE1
:10218000350BE0910D03F0910E03E217F307A0F475
:102190002E1B3F0B2817390778F0AC014E5F5F4FBD
:1021A0002417350748F04E0F5F1F50930E034093DE
:1021B0000D03819391939FCFF0E0E0E09CCFCF930C
:1021C000DF930097E9F0FC01329713821282A0910D
:1021D0000F03B0911003ED0130E020E01097A1F45F
:1021E00020813181820F931F20910D0330910E03C6
:1021F0002817390709F061C0F0930E03E0930D032F
:10220000DF91CF910895EA01CE17DF07E8F54A8103
:102210005B819E0141155105B1F7E901FB83EA831A
:1022200049915991C40FD51FEC17FD0761F48081C6
:1022300091810296840F951FE90199838883828199
:1022400093819B838A83F0E0E0E012968D919C91CC
:1022500013970097B9F52D913C911197CD010296F6
:10226000820F931F20910D0330910E032817390719
:1022700039F6309751F51092100310920F03B09376
:102280000E03A0930D03BCCFD383C2834081518141
:10229000840F951FC817D90761F44E5F5F4F88817F
:1022A0009981480F591F518340838A819B81938371
:1022B00082832115310509F0B0CFF0931003E0932C
:1022C0000F039ECFFD01DC01C0CF13821282D7CF56
:1022D000FC010590615070400110D8F780959095F1
:1022E0008E0F9F1F0895DC0101C06D934150504037
:1022F000E0F70895FC016150704001900110D8F79B
:10230000809590958E0F9F1F08950F931F93CF93E5
:10231000DF93182F092FEB018B8181FD09C01FEF7F
:102320000FEF812F902FDF91CF911F910F91089583
:1023300082FF14C02E813F818C819D81281739072F
:102340003CF4E881F981CF01019699838883108359
:102350008E819F8101969F838E83E3CFE885F985E7
:10236000812F0995892BA1F3DACFFA01AA2728300A
:1023700051F1203181F1E8946F936E7F6E5F7F4F52
:102380008F4F9F4FAF4FB1E03ED0B4E03CD0670FCE
:10239000781F891F9A1FA11D680F791F8A1F911D21
:1023A000A11D6A0F711D811D911DA11D20D009F471
:1023B00068943F912AE0269F11243019305D3193B3
:1023C000DEF6CF010895462F4770405D4193B3E09C
:1023D0000FD0C9F7F6CF462F4F70405D4A3318F043
:1023E000495D31FD4052419302D0A9F7EACFB4E0F4
:1023F000A6959795879577956795BA95C9F70097AC
:102400006105710508959B01AC010A2E069457954C
:10241000479537952795BA95C9F7620F731F841FA3
:10242000951FA01D0895052E97FB1EF400940E9491
:102430002A1257FD07D00E942D0D07FC03D04EF441
:102440000C942A1250954095309521953F4F4F4F4F
:102450005F4F089590958095709561957F4F8F4F50
:102460009F4F08950E944F0DA59F900DB49F900D12
:10247000A49F800D911D11240895B7FF0C94321272
:102480000E943212821B930B08952F923F924F921B
:102490005F926F927F928F929F92AF92BF92CF92F4
:1024A000DF92EF92FF920F931F93CF93DF93CDB7FD
:1024B000DEB7CA1BDB0B0FB6F894DEBF0FBECDBF75
:1024C00009942A88398848885F846E847D848C8446
:1024D0009B84AA84B984C884DF80EE80FD800C814F
:1024E0001B81AA81B981CE0FD11D0FB6F894DEBF32
:0C24F0000FBECDBFED010895F894FFCFA2
:1024FC00001804050101537461727400000000009F
:10250C000000000000000000000000003207015332
:10251C00657474696E677320262054657374730038
:10252C00000000690100000141626F757400000039
:10253C000000000000000000000000000000B70BCD
:10254C0001506F776572204F464600000000000076
:10255C000000000000000069080143616C696272B0
:10256C006174650000000000000000000000000025
:10257C00530301546573742041565200000000004F
:10258C00000000000000000000D608014261636BEF
:10259C00000000000000000000000000000000002F
:1025AC000000B80801000100000000001103200029
:1025BC0048454C4C4F20574F524C44004C696E656B
:1025CC00203420616674657220636C656172004D05
:1025DC00435032353135206C6F6F706261636B2004
:1025EC002073746172742E2E2E0053656E64696EA6
:1025FC00672043414E206672616D652E2E2E00526F
:10260C0065636569766564206672616D6521004954
:10261C00443A203078253033582C20444C433A200F
:10262C0025752C20444154413A0020253032580065
:10263C00507265737320616E7920627574746F6E5D
:10264C002028523120746F206578697429004C6100
:10265C00737420707265737365643A004E41562032
:10266C0062746E004E4156207570004E41562064C7
:10267C006F776E004E4156206C656674004E415665
:10268C00207269676874004C31004C320053656CE1
:10269C0065637465643A005445535420414354496E
:1026AC004F4E2E2E0043757272656E74206D6F64E2
:1026BC00653A203078253032582C20446573697285
:1026CC006564206D6F64653A203078253032580A85
:0226DC000000FC
:00000001FF
