:100000000C94F6000C9413010C9413010C9413013E
:100010000C9413010C9413010C9413010C94130110
:100020000C9413010C9413010C9413010C94130100
:100030000C9413010C9413010C9413010C941301F0
:100040000C9413010C9413010C9413010C941301E0
:100050000C9413010C9413010C9413010C941301D0
:100060000C9413010C9413010C9413010C941301C0
:1000700000000000005C00000C000C007C287C28C4
:1000800058DC68002410480028542840000C000068
:10009000007884008478000054385400107C1000EC
:1000A00080400000101010000040000060100C00A4
:1000B00038543800487C40004864580044542C00B0
:1000C0001C107C005C5424003854240064140C0080
:1000D00068542C0048543800004800008048000054
:1000E0001028440028282800442810000454080040
:1000F00038445C00781478007C5428003844280088
:100100007C4438007C5444007C140400384474005F
:100110007C107C00447C440020403C007C106C003F
:100120007C4040007C187C0078103C00384438004B
:100130007C1408003844B8007C146800485424003B
:10014000047C04007C407C003C603C007C307C00F3
:100150006C106C000C700C0064544C00007C44006B
:100160000C106000447C00000804080080808000BF
:1001700000040800304878007C48300030484800CF
:1001800030487C00306850001078140090A8780047
:100190007C08700050744000808074007C106800FF
:1001A000447C4000781078007808700030483000B7
:1001B000F82810003048F80078100800505828003F
:1001C000083C4800384078003840380078207800F3
:1001D0004830480098A0780048685800107884009B
:1001E000007C0000847810000804080411241FBE5D
:1001F000CFEFD4E0DEBFCDBF12E0A0E0B1E0E0E49D
:10020000F6E202C005900D92A83FB107D9F723E0AE
:10021000A8EFB2E001C01D92A732B207E1F70E9439
:1002200007020C941E130C940000399A00C000C001
:100230000000399800C000C0000008958FEF8ABB0D
:10024000319A1BBA3998C0E0CBBB0E9415012FEF41
:100250008FEF92E0215080409040E1F700C000C055
:10026000CF5FF2CF0E94BF0208950E9481030895DC
:100270000E94A5030E94A4030E94DD030E94A30321
:100280002FEF8FEF92E0215080409040E1F700C0C7
:1002900000C0F2CF0E94BA040E94B9040E94C404B4
:1002A0000E94B8042FEF8FEF92E0215080409040E1
:1002B000E1F700C000C0F2CF2FEF8FEF9DE121509A
:1002C00080409040E1F700C000000E949F0580EC54
:1002D00091E00E9485062FEF8FEF9DE12150804035
:1002E0009040E1F700C0000060E083E00E94EB0571
:1002F0008CEC91E00E9485062FEF8FEF9DE121505D
:1003000080409040E1F700C000000895EF92FF9216
:100310001F93CF93DF93CDB7DEB766970FB6F894F0
:10032000DEBF0FBECDBF8FED91E00E94C40E0E94D4
:10033000EE0C85B7837F886085BF8BB780688BBFE5
:10034000FE01379685E0DF011D928A95E9F783E289
:1003500091E09A83898383E08B8381E18C8382E2BD
:100360008D8383E38E838AEF91E00E94C40ECE01D9
:1003700001960E94100DCE010C960E94530D882309
:10038000D1F38FE092E00E94C40E8E851F928F936E
:100390008D858F938C858F938FE192E09F938F93C0
:1003A0000E94A70E0F900F900F900F900F900F903C
:1003B0008E858823E1F010E00F2EFAE3EF2EF2E0B5
:1003C000FF2EF02DEFE0F0E0EC0FFD1FE10FF11D2F
:1003D00080811F928F93FF92EF920E94A70E1F5F62
:1003E0000F900F900F900F908E85181758F38AE09A
:1003F00090E00E94BD0E66960FB6F894DEBF0FBE69
:10040000CDBFDF91CF911F91FF90EF90089520E82D
:1004100035E240E050E060E070E08BE490E00E9464
:100420006F020E94DB020E9461030E9401050E948C
:10043000E4060E94860190E080E008950E94010594
:1004400082E090E00E940E052FEF8FEF9EE021509A
:1004500080409040E1F700C0000082E090E00E9400
:1004600018052FEF8FEF9EE0215080409040E1F77C
:1004700000C0000081E090E00E940E052FEF8FEF9A
:100480009EE0215080409040E1F700C0000081E0F4
:1004900090E00E9418052FEF8FEF9EE021508040E2
:1004A0009040E1F700C0000090E080E00E940E055F
:1004B0002FEF8FEF9EE0215080409040E1F700C089
:1004C000000090E080E00E9418052FEF8FEF9EE083
:1004D000215080409040E1F700C00000B1CF220FD2
:1004E000331F441F551F220F331F441F551F220F58
:1004F000331F441F551F220F331F441F551F0E94D7
:10050000CF0D2150310930BD29B91BB88EE880BD0F
:10051000549A539A63EC72E085E992E00E945C0E73
:1005200008955D9BFECF8CB90895CF93C82F8A3074
:1005300039F08C2F0E94910290E080E0CF910895D5
:100540008DE00E949102F5CFCF93DF93EC01892BD0
:1005500049F08881882331F021960E949102899187
:100560008111FBCFDF91CF9108958BB1082E000C44
:10057000990B892F881F8827881F90E008955F9B1B
:10058000FECF8CB108950E94BF02082E000C990B7B
:100590000895CF93DF93EC012196FC018491882389
:1005A00039F00E949102FE01849121968111F9CFC8
:1005B000DF91CF91089585B7806885BF80B780624D
:1005C00080BF0895811528E0920758F4209100011A
:1005D00030910101820F931FFC01608390E080E065
:1005E000089581E090E00895811528E0920748F48D
:1005F0002091000130910101820F931FFC01808145
:10060000089581E008950F931F93CF93DF930E9485
:100610004C0E8C010E94510ED0E0C0E00E944C0EA6
:10062000E0910001F0910101EC0FFD1F8083E0914A
:100630000001F0910101EC0FFD1F80812196C11591
:1006400088E0D80759F7C8010E94510ED0E0C0E0F9
:100650000E944C0EE0910001F0910101EC0FFD1F92
:1006600080812196C11588E0D80791F7DF91CF915D
:100670001F910F910895E0E0F0E185EA8083A7E9FA
:10068000BAE31197F1F700C00000B096E115B8E1A8
:10069000FB07A1F785EA8083A7E9BAE31197F1F791
:1006A00000C00000B096E115B0E2FB07A1F72FE50E
:1006B0008AEE90E0215080409040E1F700C00000B9
:1006C00008958D9A8FB58F778FBD8FB580648FBD5C
:1006D0008EB58F7E8EBD8EB588608EBD8FB58D7FB9
:1006E0008FBD8FB58E7F8FBD1BBC1ABC8EB58B7F27
:1006F0008EBD8EB58D7F8EBD8EB581608EBD8C9882
:10070000089510920010849B08C0000089E090E0DA
:10071000849B03C000000197D9F7849908C00000AA
:1007200081E390E0849903C000000197D9F7A0E02D
:10073000B0E18C91E8EFF2E080838C9181838C9121
:100740008283CF01089508950895EF92FF920F9349
:100750001F93CF93CAE010E000E0F12CE12C0E943F
:100760008103FC012081E20EF11C8181080F111D23
:10077000C150A9F7BB989701ADECBCEC0E94F10DFC
:100780009695879596958795969587959927E5E00F
:10079000F3E09183808398010E94F10D96958795EF
:1007A0009695879596958795992793838283CF9180
:1007B0001F910F91FF90EF9008950F931F93CF9388
:1007C000DF930E948103FC012081022F10E08181D0
:1007D000C82FD0E00E948103FC012081200F312F1F
:1007E000311D3695279581818C0F9D2F911D9695F2
:1007F0008795C82F46B343FB442740F951E045276E
:10080000A5E0B3E01E964C931E97A90155271596B7
:100810005C934E931497FC01FF271796FC93EE937D
:1008200016978D919C91281708F45BC0992767EF64
:1008300070E0681B790B09F468C0481B590B24E66B
:10084000249FC001259F900D11240E94BB0DA5E09F
:10085000B3E019967C936E93189712968D919C91A4
:10086000C81708F458C0992769EF70E0681B790B26
:1008700009F465C0E81BF90B24E62E9FC0012F9FE9
:10088000900D11240E94BB0DE5E0F3E073876287B1
:100890002285338580859185A90133230CF455C0C9
:1008A0008531910524F0841795070CF053C08C3ED8
:1008B000FFEF9F073CF49195819591098417950767
:1008C0000CF053C090E080E0253131050CF044C0BD
:1008D00084E090E02C3E3F4F0CF03EC081E090E081
:1008E0003BC09927BC016454710991F0841B950B9E
:1008F00044E6489F9001499F300D1124C9010E9490
:10090000BB0D719561957109A2CF70E060E09FCF3A
:1009100070E060E09CCF9927BC016154710991F0AF
:100920008E1B9F0B44E6489F9001499F300D112478
:10093000C9010E94BB0D719561957109A5CF70E049
:1009400060E0A2CF70E060E09FCF44275527421BB4
:10095000530BA6CF83E090E0909312038093110392
:10096000DF91CF911F910F91089582E090E0F4CF35
:10097000089508950E948103FC01828190E0909384
:1009800015038093140308950E948103FC014281A2
:10099000242F30E0E4E1F3E03383228380819181EE
:1009A000481788F099276FEF70E0681B790B19F1F1
:1009B000281B390B44E6429FC001439F900D112430
:1009C0000E94BB0D13C09927682F792F0097B1F0B3
:1009D000821B930B44E6489F9001499F300D1124E0
:1009E000C9010E94BB0D719561957109709319033E
:1009F00060931803089570E060E0F8CF70E060E065
:100A0000F5CF87B3806B87BBBE988A9AB89AB99A9C
:100A1000C09AC19AC49A82E58DB90895009721F0D1
:100A2000029721F0C1980895C0980895C29808953A
:100A3000C19AC09AC29A08958FB9779BFECF8FB1A1
:100A400008950E941C0508958FEF0E941C050895CB
:100A50000F931F93CF93DF936115710551F08C01B4
:100A6000EC01060F171F89910E941C05C017D107C2
:100A7000D1F7DF91CF911F910F9108950F931F939D
:100A8000CF93DF936115710559F08C01EC01060FCE
:100A9000171F8FEF0E941C058993C017D107C9F754
:100AA000DF91CF911F910F910895CF93C82F90E0C0
:100AB00080E00E940E0592988C2F0E941C0590E009
:100AC00080E00E941805CF910895CF93DF93D82F2F
:100AD000C62F90E080E00E940E0592988D2F0E9414
:100AE0001C058C2F0E941C0590E080E00E941805D8
:100AF000DF91CF910895EF92FF920F931F93CF93C1
:100B0000DF938C017B0190E080E00E940E05929AB9
:100B1000E114F10449F0E8010E0D1F1D89910E94B6
:100B20001C05C017D107D1F790E080E00E9418059E
:100B3000DF91CF911F910F91FF90EF900895CF9388
:100B4000DF93D0E013C08FEF0E941C05CF5FC03849
:100B500031F0C0FFF8CF8FEF0E941C05F7CF90E077
:100B600080E00E941805DF5FD830D9F090E080E087
:100B70000E940E0592988D2F8770806B0E941C0535
:100B800080E00E941C0580E10E941C0590E080E04E
:100B90000E94180590E080E00E940E05929AC0E045
:100BA000D8CFDF91CF9108951092FC021092FB02F2
:100BB00090E080E00E940E05929880EB0E941C0558
:100BC00080E00E941C0580E10E941C0590E080E00E
:100BD0000E9418050895CF93DF93C62FD82F883031
:100BE00008F0D7E0CC23FCF0D093FC02C093FB02CA
:100BF00090E080E00E940E0592988D2F8770806BA8
:100C00000E941C058C2F8F700E941C058C2F8295D2
:100C10008F7080610E941C0590E080E00E941805A2
:100C2000DF91CF910895CFE7DFCF1092FB02809143
:100C3000FC02873020F48F5F8093FC02089580E0EF
:100C4000FBCF0F931F93CF93DF93C82F8A3009F404
:100C500053C08D3009F453C080EE8C0F8F3508F0EF
:100C6000C0E28091FB028C3708F04CC0D091FB02AF
:100C70001091FC0290E080E00E940E059298812F76
:100C80008770806B0E941C058D2F8F700E941C0541
:100C90008D2F82958F7080610E941C0590E080E00E
:100CA0000E94180590E080E00E940E05929AC052C2
:100CB000D0E0CC0FDD1FCC0FDD1F8E0100591F4F80
:100CC000CC58DF4FF80184910E941C050F5F1F4F25
:100CD0000C171D07B9F780E00E941C0590E080E02A
:100CE0000E9418058091FB028B5F8093FB02DF91CD
:100CF000CF911F910F9108950E941506F8CF109281
:100D0000FB02F5CF0E941506B1CFCF93DF93EC0124
:100D10008881882331F021960E94210689918111D2
:100D2000FBCFDF91CF910895CF93DF93883018F0F8
:100D3000DF91CF910895D82F90E080E00E940E05BA
:100D400092988D2F8770806B0E941C0580E00E9416
:100D50001C0580E10E941C05929AC0E080E00E9480
:100D60001C05CF5FC038D1F790E080E00E941805E5
:100D7000D093FC021092FB02DBCFCF93DF9390E085
:100D800080E00E940E05D0E092988D2F8770806BD6
:100D90000E941C0580E00E941C0580E10E941C0549
:100DA000929AC0E080E00E941C05CF5FC038D1F766
:100DB000DF5FD83049F790E080E00E9418050E947C
:100DC000D405DF91CF91089583EC99E00197F1F775
:100DD00000C000008EEA0E94550581EA0E94550578
:100DE00062E18AED0E94650588EC0E9455056FE37B
:100DF00088EA0E94650560E885ED0E9465056FEF51
:100E000081E80E94650561EF89ED0E94650562E059
:100E100080E20E94650564E38BED0E94650584EA2B
:100E20000E94550586EA0E9455058FEA0E945505E5
:100E300087EA91E60197F1F700C000000E94BD0625
:100E40000E94D4050895BF92CF92DF92EF92FF9255
:100E50000F931F93CF93DF9300D01F92CDB7DEB7D0
:100E60007C01FC0122812770F9F410E00FEFF701FB
:100E70006181610F80810B830E94EB0561E070E06E
:100E8000CE0103960E947B051F5F183081F70F90FB
:100E90000F900F90DF91CF911F910F91FF90EF90E6
:100EA000DF90CF90BF9008958FEF90E0B82E022E84
:100EB00001C0BB0C0A94EAF748E050E0421B51091C
:100EC00002C0969587954A95E2F7C82E00E0F70193
:100ED0001181100FD080BA82C982612F8D2D0E949E
:100EE000EB0561E070E0CE0102960E947B05612F68
:100EF00081E08D0D0E94EB0561E070E0CE0101966E
:100F00000E947B050F5F083011F7C1CFCF93DF93AD
:100F1000CDB7DEB729970FB6F894DEBF0FBECDBFB1
:100F20000E9401050E94E4060E94A5030E949F05FD
:100F30002FE33DE083E0215030408040E1F700C0E6
:100F400000000E94BD0619821A821B82CE01019602
:100F50000E9423070F2EF5E0EF2EF3E0FF2EF02D79
:100F6000CC24CA94D12C6894AA24A3F8B12C992437
:100F70009A940F2EF6E06F2EF02D0F2EF7E07F2EB5
:100F8000F02D0F2EF8E78F2EF02DC0C0273081F006
:100F900081E0820F8B838A81893708F08A828B8176
:100FA00081117AC09981983008F47AC0798278C02A
:100FB000073008F0C8C01B8281E0800F8983193791
:100FC00068F78B81EFCF8FEF820F8B83E4CF823076
:100FD000910541F00397F9F61837E8F681E0810FA3
:100FE0008A83D9CF1123D9F28FEF810F8A83D3CF90
:100FF00028135DC085C06894442443F8410E5524ED
:101000005394500E1F821E82612F802F0E94EB0589
:1010100061E070E0CE0107960E947B05612F852D6F
:101020000E94EB0561E070E0CE0106960E947B0510
:101030001F5F1411E7CF50C04C2C082E01C0440C88
:101040000A94EAF79501281B3109F60102C0F695CA
:10105000E7952A95E2F73E2E00E01A81100F59809D
:101060004D823C82612F852D0E94EB0561E070E08E
:10107000CE0105960E947B05612F81E0850D0E94BF
:10108000EB0561E070E0CE0104960E947B050F5FE6
:10109000083019F735C08B819981973008F0698243
:1010A0009981901304C09A81911709F4A1CF2770F8
:1010B00009F0A1CF6894552453F8510E1886612F7A
:1010C000802F0E94EB0561E070E0CE0108960E943F
:1010D0007B051F5F1511F2CF8B81877009F0ACCFB4
:1010E00010E06A81610F898199860E94EB0561E0B9
:1010F00070E0CE0109960E947B051F5F183089F7CA
:1011000083EC99E00197F1F700C000000E94DD0335
:101110000E94A303F701848595858430910581F3AE
:1011200009811A812B818130910509F42FCF009715
:1011300009F04DCF211147CF002309F440CF7B8226
:101140008FEF800F8983193708F028CFA4CFCF9372
:10115000DF9300D01F92CDB7DEB783E0898398E29A
:101160009A838B83CE0101960E9423078FE493EC30
:101170000197F1F700C00000F9CF82E091E0909371
:101180000403809303031092FD021092B5011092A4
:10119000B4010E94BD060895EF92FF920F931F9332
:1011A000CF93DF937C010E94BD06D7018C918823E9
:1011B00021F110E000E0D0E0C0E009C02196075E18
:1011C0001F4FD7018C918C171D06B9F0B4F0D701D1
:1011D0001196ED91FC91E00FF11F8081882371F34E
:1011E00068E08C2F0E94EB05F70181819281800FCE
:1011F000911F01960E948506E1CF60E08091FD027B
:101200000E94EB058EE30E942106DF91CF911F9192
:101210000F91FF90EF9008958091FE029091FF0250
:10122000009789F090930403809303031092FF02C8
:101230001092FE021092FD0280910303909104032C
:101240000E94CC08089582E091E09093040380937B
:101250000303F0CF0F931F93CF93DF930E94BD063C
:1012600060E082E00E94EB0580E492E00E94850647
:10127000CBE1D3E00CE113E028C08CE692E00E94C1
:10128000850686C084E792E00E94850684C08BE7CD
:1012900092E00E94850682C084E892E00E94850662
:1012A00081C08DE892E00E94850680C080911A037B
:1012B00088230CF488C080911A0380FD8DC0E3EC74
:1012C000F9E03197F1F700C0000060E083E00E9490
:1012D000EB058EE592E00E9485068AE193E00E948C
:1012E0001C0B882361F390911A03892F817091FB65
:1012F000222720F9822B92FB222720F9822B93FBB5
:10130000222720F9822B94FB222720F9822B95FBA0
:10131000222720F9822B96FB222720F9822B97FB8C
:10132000992790F9892B9881292F2170822B91FB85
:10133000222720F9822B92FB222720F9822B93FB74
:10134000222720F9822B94FB222720F9822B95FB60
:10135000222720F9822B96FB222720F9822B97FB4C
:10136000992790F9892BF8019081292F2170822BE0
:1013700096959170892B09F4A2CF83E00E94940680
:101380008EE592E00E948506F801808181FD75CF8F
:10139000888185FD77CF888186FD79CF88818823F4
:1013A0000CF47ACFF801808180FD7BCF80911A0305
:1013B00086FF7CCF87E992E00E94850661E080E0AD
:1013C0000E94D10B73CF8AE992E00E94850660E00B
:1013D00080E00E94D10B6FCF83EC99E00197F1F789
:1013E00000C0000080910303909104030E94CC0888
:1013F000DF91CF911F910F910895209103033091B8
:1014000004033093FF022093FE02E0E0F3E09283B6
:10141000818383E08083F0930403E09303031092BD
:10142000FD02CF010E94CC080895CF93DF93EC0119
:101430000E94BD066AE083E00E94EB058DE992E020
:101440000E9485066AE084E00E94EB05CE010196C9
:101450000E9485062FE38DE093E02150804090406C
:10146000E1F700C0000080910303909104030E9403
:10147000CC08DF91CF9108958091FD02811101C0C8
:10148000089581508093FD0280910303909104039D
:101490000E94CC08F5CF9091FD02E0910303F091FA
:1014A000040320812150330B921713060CF008958A
:1014B0009F5F9093FD02CF010E94CC08F8CFE0918E
:1014C0000303F09104038091FD02A181B28199E1AF
:1014D000899FA00DB11D112455968D919C91569711
:1014E000009741F45796ED91FC915897309729F069
:1014F000099508950E94FD090895CD010E94150ADD
:101500000895CF93DF930E94DD03809111039091A2
:101510001203009779F0019781F0809113038111F4
:101520000FC08FE295E70197F1F700C00000DF914F
:10153000CF9108950E943C0AF0CF0E944B0AEDCF54
:101540000E945F0A80911303882359F3C5E0D3E01A
:101550000E94DD038E858111FBCFE3CF0E94010540
:101560000E94E4060E94EF0A60931A0370931B0323
:1015700080931C030E94A50382E091E090930403F2
:10158000809303031092FD020E94CC088091B40165
:101590009091B501892B41F00E94810A8091B4019C
:1015A0009091B501892BC1F708950E94BD066AE0AC
:1015B00083E00E94EB0587EA92E00E9485062FEF08
:1015C00080E792E0215080409040E1F700C00000A9
:1015D00080910303909104030E94CC08089581E058
:1015E00090E00E94180560E070E080E00895CF93DD
:1015F000DF930097F9F0EC0181E090E00E940E0586
:1016000084E00E9421058DE08A95F1F700000E9498
:101610002405888300C00E942405898300C00E949D
:1016200024058A8381E090E00E94180581E0DF9123
:10163000CF91089580E0FBCF0F931F93CF93DF935B
:1016400000D01F92CDB7DEB7009709F4A1C08C017E
:10165000CE0101960E94F70A882309F49AC0698195
:101660004A815B81262F30E0F801908160FB90F980
:10167000B9017595679560FB91F9B9017595679505
:101680007595679560FB92F9B901759567957595A4
:1016900067957595679560FB93F9B90175956795A1
:1016A00075956795759567957595679560FB94F940
:1016B0003595279535952795359527953595279512
:1016C0003595279520FB95F9242F30E040FB96F9BE
:1016D000B9017595679560FB97F99083B901759588
:1016E000679575956795918160FB90F9B90175953E
:1016F0006795759567957595679560FB91F9B90143
:1017000075956795759567957595679575956795C1
:1017100060FB92F9B9017595679575956795759513
:101720006795759567957595679560FB93F9022E9A
:10173000232F000C221F330B000C221F331F20FB12
:1017400094F9252F30E0428150FB41F9B90175959C
:10175000679560FB40F94283A901559547955595DA
:10176000479540FB97F9A90155954795559547959C
:101770005595479540FB96F93595279535952795CD
:10178000359527953595279520FB95F9918301C0CF
:1017900080E00F900F900F90DF91CF911F910F91EC
:1017A0000895CF93DF93863020F080E0DF91CF91D2
:1017B0000895D62FC82F81E090E00E940E0585E0A5
:1017C0000E9421058C2F0E9421058D2F0E9421054A
:1017D00081E090E00E94180581E0E8CFCF93DF938D
:1017E000863020F080E0DF91CF910895D62FC82F6A
:1017F00081E090E00E940E0586E00E9421058C2F7A
:101800000E9421058D2F0E94210581E090E00E9419
:10181000180581E0E8CF0895BA9A82E090E00E942E
:1018200018058B98939A0E9401050895CF93C82FAD
:1018300082E090E00E94180582E090E00E940E0590
:1018400083E00E941C058C2F0E941C0580E00E94F2
:101850001C05C82F82E090E00E9418058C2FCF91C4
:10186000089582E090E00E94180582E090E00E94D6
:101870000E0580EC0E941C0582E090E00E94180595
:1018800083EC99E00197F1F700C000008EE00E9420
:10189000160C982F907E903869F01F928F9385EBED
:1018A00092E09F938F930E94A70E0F900F900F903E
:1018B0000F9008951F928F938EEE92E09F938F93D7
:1018C0000E94A70E0F900F900F900F900895CF9346
:1018D000DF93D82FC62F82E090E00E94180582E0A7
:1018E00090E00E940E0582E00E941C058D2F0E9450
:1018F0001C058C2F0E941C0582E090E00E941805B8
:10190000DF91CF9108951F93CF93DF93182FD62F98
:10191000C42F82E090E00E94180582E090E00E94CF
:101920000E0585E00E941C05812F0E941C058D2F4D
:101930000E941C058C2F0E941C0582E090E00E94F2
:101940001805DF91CF911F910895CF93833010F048
:10195000CF910895C82F82E090E00E94180582E0A0
:1019600090E00E940E0581E090E002C0880F991F70
:10197000CA95E2F780680E941C0582E090E00E9410
:101980001805E6CFCF9382E090E00E94180582E030
:1019900090E00E940E0580EA0E941C0580E00E94F3
:1019A0001C05C82F82E090E00E9418058C2FCF9173
:1019B0000895482F60EE8FE00E94830C0895682FF1
:1019C0008BE20E94670C08958CE20E94160C089529
:1019D00040E0682F8CE20E94830C08950E940C0C5A
:1019E0000E94310C60E08AE20E94670C6FEA89E293
:1019F0000E94670C64E088E20E94670C60E680E663
:101A00000E94670C60E680E70E94670C8FE10E94ED
:101A1000DF0C8FEF0E94E80C80E40E94D90C08953F
:101A20000F931F93CF93DF930097D9F1FC0122818D
:101A3000293030F080E0DF91CF911F910F91089510
:101A40008C01C081D181BE017695679576956795A9
:101A50007695679581E30E94670C6C2F6295660FFF
:101A6000607E82E30E94670CF80162816F7085E3FB
:101A70000E94670CF8018281882371F0C0E0F801B0
:101A8000EC0FF11D638186E38C0F0E94670CCF5F22
:101A9000F8018281C81798F380E00E94A50C81E0CC
:101AA000CACF80E0C8CF0F931F93CF93DF930097E7
:101AB000B9F1EC010E94E40C80FD02C080E031C06D
:101AC00081E60E94160C182F82E60E94160C212F28
:101AD00030E0220F331F220F331F220F331F829556
:101AE00086958770282B3983288385E60E94160CFB
:101AF0008F708A83882379F08E010D5F1F4FD6E6A1
:101B0000D80FC6E68C2F0E94160CF80181938F0126
:101B1000CF5FCD13F7CF81E00E94E80C81E001C0D8
:101B200080E0DF91CF911F910F9108951F93CF9384
:101B3000DF93CDB7DEB72B970FB6F894DEBF0FBE9D
:101B4000CDBF0E94E40C182F80FD0CC012FD0FC009
:101B50002B960FB6F894DEBF0FBECDBFDF91CF91AD
:101B60001F910895CE0101960E94530DEFCF84E09E
:101B70000E94E80CEDCFAA1BBB1B51E107C0AA1FB6
:101B8000BB1FA617B70710F0A61BB70B881F991F1E
:101B90005A95A9F780959095BC01CD010895A1E2D1
:101BA0001A2EAA1BBB1BFD010DC0AA1FBB1FEE1FD7
:101BB000FF1FA217B307E407F50720F0A21BB30B22
:101BC000E40BF50B661F771F881F991F1A9469F79E
:101BD00060957095809590959B01AC01BD01CF01FA
:101BE0000895A29FB001B39FC001A39F700D811DF6
:101BF0001124911DB29F700D811D1124911D089516
:101C00008F929F92AF92BF92CF92DF92EF92FF920C
:101C1000CF93DF93EC01688179818A819B81611583
:101C200071058105910521F464E279ED8BE597E07A
:101C30002DE133EF41E050E00E94B51249015A0115
:101C40009B01AC01A7EAB1E40E94D4126B017C01B4
:101C5000ACEEB4EFA50194010E94E212DC01CB01CD
:101C60008C0D9D1DAE1DBF1DB7FF03C00197A109BF
:101C7000B04888839983AA83BB839F77DF91CF91F4
:101C8000FF90EF90DF90CF90BF90AF909F908F909C
:101C900008950E94000E089586EB91E00E94000EC8
:101CA0000895B0E0A0E08093B6019093B701A093AF
:101CB000B801B093B90108950F931F93CF93DF93A9
:101CC000009759F46115710541F4F0E0E0E0CF01AF
:101CD000DF91CF911F910F9108958B01EC016EE080
:101CE00070E081E090E00E94C910FC01892B69F34B
:101CF00080E883830115110571F01387028781E85D
:101D0000838380911D0390911E03892B21F4F0930E
:101D10001E03E0931D032097D1F2D187C0878381F2
:101D20008260838380911F0390912003892B79F631
:101D3000F0932003E0931F038091210390912203ED
:101D4000892B29F6F0932203E0932103C0CFB0E062
:101D5000A0E0EDEAFEE00C94F712AE014B5F5F4F9E
:101D6000FA0161917191AF0180911F03909120035D
:101D70000E94EF0EE2E00C94131360911F03709128
:101D800020030E94271208950F931F93CF93DF9390
:101D9000E0911F03F09120032381EC0110E000E0AB
:101DA00021FD08C00FEF1FEF14C00995892B11F01A
:101DB0000FEF1FEF899160911F0370912003DB01EA
:101DC0001896ED91FC918111F0CF8AE00995892B4D
:101DD00049F7C801DF91CF911F910F910895ABE0B2
:101DE000B0E0E5EFFEE00C94E7127C013B018A01D4
:101DF000FC0117821682838181FFC8C1CE01019642
:101E00005C01F7019381F30193FD859193FF81912B
:101E10003F01882309F453C1853239F493FD85913C
:101E200093FF81913F01853229F4B70190E00E9430
:101E30002712E7CF912C212C312CFFE1F31538F03C
:101E40008B3211F190F4803209F1833229F137FCA1
:101E50003CC020ED280F2A3050F536FE20C08AE025
:101E6000989E200D1124922E06C08D3291F0803361
:101E700071F7689430F8F30193FD859193FF819198
:101E80003F018111DACF21C0689431F8689432F8AB
:101E9000F2CF689433F8EFCF689434F8ECCFEAE0EF
:101EA0002E9E200D1124222E689435F8E4CF8E3218
:101EB00029F436FC04C1689436F8DDCF8C3619F469
:101EC000689437F8D8CF8836B1F2982F9F7D955413
:101ED0009330E0F08336A1F18337C1F1833509F007
:101EE00063C02801F2E04F0E511CF801C080D18080
:101EF000692D70E036FC02C06FEF7FEFC6010E94D3
:101F00000A124C01689437F882010AC00C5F1F4F17
:101F1000FFE3F98388248394912C6501E89437F8D2
:101F200033FE2DC0522C8114910471F5552009F413
:101F300068CFB70180E290E00E9427125A94F6CF52
:101F4000F801808189830E5F1F4FE4CF2801F2E002
:101F50004F0E511CF801C080D180692D70E036FC15
:101F600002C06FEF7FEFC6010E941C124C0182017C
:101F7000D5CFB70180E290E00E9427122A9428145E
:101F8000190409F0B0F7CECFF60137FC859137FE82
:101F900081916F01B70190E00E94271251105A946D
:101FA000F1E08F1A9108BFCF843619F0893609F015
:101FB00077C0F80137FE6BC06081718182819381A7
:101FC0000C5F1F4FF32DFF763F2E97FF09C09095B2
:101FD0008095709561957F4F8F4F9F4F689437F82C
:101FE0002AE030E0A5010E945712C82ECA188C2C96
:101FF000432C36FE0CC0E89440F8C91440F434FE7B
:1020000005C032FC03C0F32DFE7E4F2E892C44FE0A
:1020100095C0FE01EC0DF11D8081803309F087C071
:10202000242D297E422E842D8870582E43FC95C085
:1020300040FE8FC09C2C821418F42C0C922C981803
:1020400044FE91C0B70180E390E00E94271242FE57
:1020500009C088E790E041FE02C088E590E0B70142
:102060000E942712C91408F48AC0CA94D12C9FEF89
:10207000C91AD90ACA0CDB1CF60182916F01B7019B
:1020800090E00E942712AC14BD04B1F74FCF6081DD
:102090007181072E000C880B990B0E5F1F4F92CF9A
:1020A000D32CE894D4F82AE030E0853739F1232D99
:1020B000297FD22E8F3601F148F48835A9F0F70137
:1020C000868197812B96E2E10C940313803749F0C7
:1020D0008837A9F7D4FE02C06894D2F820E130E036
:1020E0000DC06894D4F8F6CF34FE03C0822F86600A
:1020F000D82E20E132E002C028E030E0F801D7FE1F
:102100000FC060817181828193810C5F1F4FA50197
:102110000E945712C82ECA183D2CE89437F867CF92
:102120006081718190E080E00E5F1F4FF0CF42FC34
:1021300002C0839478CF8394839475CF842D86785E
:1021400009F471CFF6CFB70180E290E00E94271228
:1021500083948214C0F3512C73CF522C58188214DC
:1021600008F46ECFF8CF842D867809F47BCF8BE20C
:1021700041FE80E247FC8DE2B70190E071CFB701EC
:1021800080E390E00E9427129A946CCF8FEF9FEF2C
:1021900099CF0F931F93CF93DF93869F8001879FE3
:1021A000100D969F100D1124C8010E94E510EC013E
:1021B000009729F0A80170E060E00E941512CE019E
:1021C000DF91CF911F910F9108950F931F93CF939C
:1021D000DF938230910510F482E090E0E0912503D6
:1021E000F091260330E020E0B0E0A0E0309799F4D1
:1021F0002115310509F44AC0281B390B243031055B
:10220000D8F58A819B816115710589F1FB01938362
:102210008283FE0111C040815181028113814817E0
:102220005907E0F04817590799F4109761F0129692
:102230000C93129713961C933296CF01DF91CF9196
:102240001F910F9108950093250310932603F4CF57
:102250002115310551F04217530738F0A901DB0170
:102260009A01BD01DF01F801C1CFEF01F9CF9093D1
:10227000260380932503CDCFFE01E20FF31F819348
:1022800091932250310939832883D7CF209123039A
:1022900030912403232B41F42091BC013091BD01E6
:1022A00030932403209323032091BA013091BB0182
:1022B0002115310541F42DB73EB74091BE01509133
:1022C000BF01241B350BE0912303F0912403E21797
:1022D000F307A0F42E1B3F0B2817390778F0AC0149
:1022E0004E5F5F4F2417350748F04E0F5F1F509326
:1022F000240340932303819391939FCFF0E0E0E088
:102300009CCFCF93DF930097E9F0FC0132971382C3
:102310001282A0912503B0912603ED0130E020E068
:102320001097A1F420813181820F931F2091230304
:10233000309124032817390709F061C0F093240372
:10234000E0932303DF91CF910895EA01CE17DF07D1
:10235000E8F54A815B819E0141155105B1F7E9011C
:10236000FB83EA8349915991C40FD51FEC17FD07F0
:1023700061F4808191810296840F951FE901998310
:102380008883828193819B838A83F0E0E0E01296C8
:102390008D919C9113970097B9F52D913C911197D0
:1023A000CD010296820F931F2091230330912403C5
:1023B0002817390739F6309751F5109226031092F5
:1023C0002503B0932403A0932303BCCFD383C283FC
:1023D00040815181840F951FC817D90761F44E5F62
:1023E0005F4F88819981480F591F518340838A81AB
:1023F0009B81938382832115310509F0B0CFF0933F
:102400002603E09325039ECFFD01DC01C0CF13829C
:102410001282D7CFFC010590615070400110D8F7AF
:10242000809590958E0F9F1F0895DC0101C06D93DC
:1024300041505040E0F70895FC0161507040019018
:102440000110D8F7809590958E0F9F1F08950F93D8
:102450001F93CF93DF93182F092FEB018B8181FD01
:1024600009C01FEF0FEF812F902FDF91CF911F91A8
:102470000F91089582FF14C02E813F818C819D8130
:10248000281739073CF4E881F981CF010196998337
:10249000888310838E819F8101969F838E83E3CFF3
:1024A000E885F985812F0995892BA1F3DACFFA0107
:1024B000AA27283051F1203181F1E8946F936E7F83
:1024C0006E5F7F4F8F4F9F4FAF4FB1E03ED0B4E074
:1024D0003CD0670F781F891F9A1FA11D680F791FB5
:1024E0008A1F911DA11D6A0F711D811D911DA11DC6
:1024F00020D009F468943F912AE0269F11243019D6
:10250000305D3193DEF6CF010895462F4770405D70
:102510004193B3E00FD0C9F7F6CF462F4F70405D1F
:102520004A3318F0495D31FD4052419302D0A9F77A
:10253000EACFB4E0A6959795879577956795BA9574
:10254000C9F700976105710508959B01AC010A2E3A
:1025500006945795479537952795BA95C9F7620F11
:10256000731F841F951FA01D0895052E97FB1EF451
:1025700000940E94CC1257FD07D00E94CF0D07FC9B
:1025800003D04EF40C94CC12509540953095219583
:102590003F4F4F4F5F4F089590958095709561958F
:1025A0007F4F8F4F9F4F08950E94F10DA59F900D73
:1025B000B49F900DA49F800D911D11240895B7FF25
:1025C0000C94D4120E94D412821B930B08952F9264
:1025D0003F924F925F926F927F928F929F92AF92B3
:1025E000BF92CF92DF92EF92FF920F931F93CF9300
:1025F000DF93CDB7DEB7CA1BDB0B0FB6F894DEBF97
:102600000FBECDBF09942A88398848885F846E84BC
:102610007D848C849B84AA84B984C884DF80EE8006
:10262000FD800C811B81AA81B981CE0FD11D0FB60F
:10263000F894DEBF0FBECDBFED010895F894FFCF33
:102640000018040501015374617274000000000059
:102650000000000000000000000000008607015399
:10266000657474696E6773202620546573747300F3
:10267000000000690100000141626F7574000000F4
:1026800000000000000000000000000000000B0C33
:1026900001506F776572204F464600000000000031
:1026A00000000000000000BD080143616C69627217
:1026B00061746500000000000000000000000000E0
:1026C000A5030154657374204156520000000000B8
:1026D0000000000000000000002A09014261636B55
:1026E00000000000000000000000000000000000EA
:1026F00000000C0901000100000000002703200079
:1027000048454C4C4F20574F524C44004C696E6525
:10271000203420616674657220636C656172004DBF
:10272000435032353135206C6F6F706261636B20BE
:102730002073746172742E2E2E0053656E64696E60
:10274000672043414E206672616D652E2E2E005229
:1027500065636569766564206672616D652100490F
:10276000443A203078253033582C20444C433A20CA
:1027700025752C20444154413A0020253032580020
:10278000507265737320616E7920627574746F6E18
:102790002028523120746F206578697429004C61BB
:1027A000737420707265737365643A004E415620ED
:1027B00062746E004E4156207570004E4156206482
:1027C0006F776E004E4156206C656674004E415620
:1027D000207269676874004C31004C320053656C9C
:1027E00065637465643A0054455354204143544929
:1027F0004F4E2E2E00204D43503235313520697317
:10280000204E4F5420696E20636F6E666967757243
:102810006174696F6E206D6F6465206166746572A6
:1028200020726573657420210A20256420006D6F75
:0828300064652025640A000024
:00000001FF
