:100000000C9496000C94B3000C94B3000C94B300C1
:100010000C94B3000C94B3000C94B3000C94B30094
:100020000C94B3000C94B3000C94B3000C94B30084
:100030000C94B3000C94B3000C94B3000C94B30074
:100040000C94B3000C94B3000C94B3000C94B30064
:100050000C94B3000C94B3000C94B3000C94B30054
:100060000C94B3000C94B3000C94B3000C94B30044
:100070007374617274696E67206F6C656420746557
:1000800073740A0D007570646174656420706F7319
:100090006974696F6E0D0A0058303A20282564296A
:1000A000207C2059303A20282564290D0A00583A2E
:1000B00020256420282564252529207C20593A20E4
:1000C000256420282564252529207C204469723A4E
:1000D0002025530D0A004E45555452414C005249BB
:1000E000474854004C45465400444F574E00555025
:1000F000007570646174656420706F736974696FF2
:100100006E20736C696465720D0A0058303A2028BD
:100110002564290D0A00536C6964657220583A20E1
:100120002564202825642525290D0A0011241FBED9
:10013000CFEFD4E0DEBFCDBF14E0A0E0B1E0E8E255
:10014000F8E102C005900D92AE38B107D9F724E06E
:10015000AEE8B4E001C01D92AF3AB207E1F70E94E9
:1001600058010C94120C0C9400008A980895399A46
:1001700000C000C00000399800C000C00000089511
:100180008CE091E09F938F930E946E078FEF8ABB64
:10019000319A1BBA39980F900F90C0E0CBBB0E94E8
:1001A000B7002FEF8FEF92E0215080409040E1F7B1
:1001B00000C000C0CF5FF2CF85E291E09F938F93A4
:1001C0000E946E070F900F90C3E4D1E00E94BD0122
:1001D000282F082E000C330B3F938F93DF93CF9380
:1001E0000E946E070F900F900F900F90EFCF83E556
:1001F00091E00E94A907C3E6D1E00E949E03FC01A2
:100200001F921F9282811F928F9381811F928F93E1
:1002100080811F928F93DF93CF930E946E079FEF91
:100220002FEF82E0915020408040E1F700C000C0F5
:100230008DB79EB70A960FB6F8949EBF0FBE8DBFBE
:10024000DCCF0E9425048FE891E00E94A9070E945C
:100250000E040E9434040E94C8032FEF8FEF92E037
:10026000215080409040E1F700C000C0F2CF0E94D2
:10027000130584EA91E00E94A9070E9402050E94EA
:100280001D050E94EB042FEF8FEF92E0215080407C
:100290009040E1F700C000C0F2CF80E790E09F936C
:1002A0008F930E9484070E9453060F900F90089529
:1002B00020E835E240E050E060E070E08BE490E060
:1002C0000E946D010E94DA010E947E030E94620575
:1002D0000E941A0690E080E00895220F331F441F09
:1002E000551F220F331F441F551F220F331F441F5A
:1002F000551F220F331F441F551F0E94A506215072
:10030000310930BD29B91BB88EE880BD549A539A83
:1003100064ED71E083E991E00E94230708955D9BFD
:10032000FECF8CB90895CF93C82F8A3039F08C2F27
:100330000E948F0190E080E0CF9108958DE00E94AF
:100340008F01F5CFCF93DF93EC01892B49F08881A2
:10035000882331F021960E948F0189918111FBCF72
:10036000DF91CF9108958BB1082E000C990B892F46
:10037000881F8827881F90E00895CF935F9BFECF4A
:10038000CCB18C2F0C2E000C990B9F93CF9387EB45
:1003900091E09F938F930E946E070F900F900F90A4
:1003A0000F908C2FCF9108950E94BD01082E000C54
:1003B000990B089585B7806885BF80B7806280BF3C
:1003C0000895811528E0920758F42091000130919A
:1003D0000101820F931FFC01608390E080E008958B
:1003E0008AEC91E00E94A90781E090E008958115D0
:1003F00028E0920748F42091000130910101820F1A
:10040000931FFC01808108958CEE91E00E94A90762
:1004100081E00895CF92DF92EF92FF920F931F93A6
:10042000CF93DF938DE092E00E94A9070E9413070B
:100430006C010E941807D0E0C0E010E000E00F2E31
:10044000F3E2EF2EF2E0FF2EF02D05C02196C1154C
:1004500098E0D90741F10E941307E0910001F09163
:100460000101EC0FFD1F8083E0910001F09101017B
:10047000EC0FFD1F2081281749F399279F938F9335
:100480001F922F93DF93CF93FF92EF920E946E07FC
:100490000F5F1F4F8DB79EB708960FB6F8949EBF9B
:1004A0000FBE8DBFD3CFC6010E941807D0E0C0E0B9
:1004B000F12CE12C0F2EFCE5CF2EF2E0DF2EF02DFB
:1004C00005C02196C11598E0D90711F10E941307C4
:1004D000E0910001F0910101EC0FFD1F2081281730
:1004E00081F399279F938F931F922F93DF93CF933D
:1004F000DF92CF920E946E078FEFE81AF80A8DB74D
:100500009EB708960FB6F8949EBF0FBE8DBFD9CF89
:10051000FF92EF921F930F9389E992E09F938F933D
:100520000E946E070F900F900F900F900F900F90FA
:10053000DF91CF911F910F91FF90EF90DF90CF90BF
:1005400008958F929F92AF92BF92CF92DF92EF92D7
:10055000FF920F931F93CF93DF9382EF92E00E945D
:10056000A9070E9413074C010E941807D0E0C0E0C1
:10057000F12CE12CB12CA12C0F2EF3E1CF2EF3E0C6
:10058000DF2EF02D0AC0CE010E94F701801312C0A9
:100590002196C11598E0D90721F10E9413078C011B
:1005A000682FCE010E94E101892B69F38FEFE81AD1
:1005B000F80AEECF11271F930F931F928F93DF93AB
:1005C000CF93DF92CF920E946E079FEFA91AB90ACC
:1005D0008DB79EB708960FB6F8949EBF0FBE8DBF1D
:1005E000D7CFC4010E941807D0E0C0E0D12CC12CA5
:1005F0000F2EFCE48F2EF3E09F2EF02D05C02196E8
:10060000C11598E0D907F9F00E9413078C01CE01BB
:100610000E94F701801799F311271F930F931F92E0
:100620008F93DF93CF939F928F920E946E078FEFED
:10063000C81AD80A8DB79EB708960FB6F8949EBF11
:100640000FBE8DBFDCCFFF92EF92DF92CF92BF92B1
:10065000AF9289E893E09F938F930E946E078DB7C6
:100660009EB708960FB6F8949EBF0FBE8DBFDF9160
:10067000CF911F910F91FF90EF90DF90CF90BF909F
:10068000AF909F908F900895CF93DF9389EF93E081
:100690000E94A907C0E0D0E185EA8883E7E9FAE390
:1006A0003197F1F700C00000A096C115F8E1DF070F
:1006B000A1F783E194E00E94A90781E294E00E94FF
:1006C000A90785EA8883E7E9FAE33197F1F700C0E3
:1006D0000000A096C115F0E2DF07A1F78CE394E0DB
:1006E0000E94A9072FE58AEE90E0215080409040BB
:1006F000E1F700C00000DF91CF9108958D9A8FB58A
:100700008F778FBD8FB580648FBD8EB58F7E8EBD88
:100710008EB588608EBD8FB58D7F8FBD8FB58E7F76
:100720008FBD1BBC1ABC8EB58B7F8EBD8EB58D7FE9
:100730008EBD8EB581608EBD8C980895109200108C
:10074000849B0CC0000089E090E0849B07C00000FF
:100750000197D9F78BE494E00E94A90784990CC013
:10076000000081E390E0849907C000000197D9F769
:100770008CE694E00E94A907A0E0B0E18C91EEE83D
:10078000F4E080838C9181838C918283CF010895E2
:1007900080919D0490919E04AEEEB0E0892BC1F053
:1007A00080919D0490919E04A9EEB0E0019781F0A4
:1007B00080919D0490919E04A4EEB0E0029741F0D8
:1007C00080919D0490919E04A6EDB0E0039719F1ED
:1007D000E1E9F4E0628573854681578120853185A2
:1007E00084819581BF93AF937F936F935F934F9372
:1007F0003F932F939F938F938EEA90E09F938F93D5
:100800000E9484078DB79EB70C960FB6F8949EBFD2
:100810000FBE8DBF0895AEEDB0E0DACFE1E9F4E0B0
:1008200022813381808191813F932F939F938F9376
:1008300088E990E09F938F930E9484070F900F9018
:100840000F900F900F900F9008950E949E03DC016F
:100850002C9130E0E1E9F4E03183208311968C9112
:1008600090E09383828308950E949E03FC0150814F
:100870004181A52FB0E0E1E9F4E0B583A483242F02
:1008800030E03783268380819181581708F458C05F
:10089000992767EF70E0681B790B09F465C0A81B06
:1008A000B90B54E65A9FC0015B9F900D11240E9422
:1008B0009106E1E9F4E071876087828193814817AE
:1008C00008F458C099276AEF70E0681B790B09F4A7
:1008D00065C0281B390B44E6429FC001439F900D21
:1008E00011240E949106E1E9F4E073876287228572
:1008F000338580859185A90133230CF455C085315A
:10090000910524F0841795070CF053C08C3EFFEF3F
:100910009F073CF4919581959109841795070CF0F8
:1009200057C090E080E0253131050CF044C084E0F0
:1009300090E02C3E3F4F0CF03EC081E090E03BC089
:100940009927BC016354710991F08A1B9B0B54E6F3
:10095000589FF001599FF00D1124CF010E9491067C
:10096000719561957109A5CF70E060E0A2CF70E04C
:1009700060E09FCF9927BC016E53710991F0821BF3
:10098000930B44E6489F9001499F300D1124C90103
:100990000E949106719561957109A5CF70E060E0A4
:1009A000A2CF70E060E09FCF44275527421B530B36
:1009B000A6CF83E090E090939E0480939D0485E809
:1009C00090E09F938F930E9484070F900F9008955B
:1009D00082E090E0F0CFEFE9F4E02481358182817C
:1009E00093813F932F939F938F9386E191E09F9301
:1009F0008F930E9484070F900F900F900F900F908D
:100A00000F90089580919F049091A0049F938F93DD
:100A10008BE091E09F938F930E9484070F900F903B
:100A20000F900F9008950E949E03FC01828190E038
:100A30009093A00480939F0408950E949E03FC015C
:100A40004281242F30E0EFE9F4E033832283808178
:100A50009181481788F099276FEF70E0681B790B38
:100A600059F1281B390B44E6429FC001439F900D6A
:100A700011240E94910613C09927682F792F00979F
:100A8000F1F0821B930B44E6489F9001499F300D83
:100A90001124C9010E9491067195619571097093A5
:100AA000A4046093A30481EF90E09F938F930E942E
:100AB00084070F900F90089570E060E0F0CF70E031
:100AC00060E0EDCF87B3806B87BBBE988A9AB89AF7
:100AD000B99AC09AC19AC49A81E58DB90895892BB3
:100AE00011F0C1980895C0980895892B11F0C19A0A
:100AF0000895C09A08958FB9779BFECF8FB108955E
:100B00000E947B0508958FEF0E947B0508950F9347
:100B10001F93CF93DF936115710551F08C01EC01A8
:100B2000060F171F89910E947B05C017D107D1F7C7
:100B3000DF91CF911F910F9108950F931F93CF9342
:100B4000DF936115710559F08C01EC01060F171F39
:100B50008FEF0E947B058993C017D107C9F7DF91FA
:100B6000CF911F910F910895CF93C82F90E080E00F
:100B70000E946F0592988C2F0E947B0590E080E088
:100B80000E947505CF910895CF93DF93D82FC62F7C
:100B900090E080E00E946F0592988D2F0E947B0567
:100BA0008C2F0E947B0590E080E00E947505DF910C
:100BB000CF9108951F93CF93DF93182FD62FC42F73
:100BC00090E080E00E946F059298812F0E947B0543
:100BD0008D2F0E947B058C2F0E947B0590E080E08A
:100BE0000E947505DF91CF911F910895EF92FF92BA
:100BF0000F931F93CF93DF938C017B0190E080E0F4
:100C00000E946F05929AE114F10449F0E8010E0D7B
:100C10001F1D89910E947B05C017D107D1F790E075
:100C200080E00E947505DF91CF911F910F91FF9099
:100C3000EF90089583EC99E00197F1F700C0000070
:100C40008EEA0E94B40581EA0E94B40562E18AED51
:100C50000E94C40588EC0E94B4056FE388EA0E94F4
:100C6000C40560E885ED0E94C40560E581E80E9446
:100C7000C40561E289ED0E94C40562E080E20E9441
:100C8000C40560E38BED0E94C40560E08DEA0E941C
:100C9000C40584EA0E94B40586EA0E94B4058FEA7E
:100CA0000E94B4050895CF93DF93D0E013C080E095
:100CB0000E947B05CF5FC03831F0C0FFF8CF8FEFC7
:100CC0000E947B05F7CF90E080E00E947505DF5F12
:100CD000D83021F190E080E00E946F0592988D2F2E
:100CE0008770806B0E947B0590E080E00E94750514
:100CF00090E080E00E946F05929880E00E947B0562
:100D000080E10E947B0590E080E00E94750590E004
:100D100080E00E946F05929AC0E0CFCFDF91CF9123
:100D20000895AA1BBB1B51E107C0AA1FBB1FA61732
:100D3000B70710F0A61BB70B881F991F5A95A9F784
:100D400080959095BC01CD010895A1E21A2EAA1BB1
:100D5000BB1BFD010DC0AA1FBB1FEE1FFF1FA2176B
:100D6000B307E407F50720F0A21BB30BE40BF50B68
:100D7000661F771F881F991F1A9469F760957095F1
:100D8000809590959B01AC01BD01CF0108958F9294
:100D90009F92AF92BF92CF92DF92EF92FF92CF934A
:100DA000DF93EC01688179818A819B8161157105EE
:100DB0008105910521F464E279ED8BE597E02DE161
:100DC00033EF41E050E00E949A0B49015A019B0128
:100DD000AC01A7EAB1E40E94B90B6B017C01ACEE57
:100DE000B4EFA50194010E94C70BDC01CB018C0D6F
:100DF0009D1DAE1DBF1DB7FF03C00197A109B048DF
:100E000088839983AA83BB839F77DF91CF91FF90DB
:100E1000EF90DF90CF90BF90AF909F908F9008950C
:100E20000E94C706089582E091E00E94C7060895D7
:100E3000B0E0A0E08093020190930301A09304012D
:100E4000B093050108950F931F93CF93DF930097FD
:100E500059F46115710541F4F0E0E0E0CF01DF9154
:100E6000CF911F910F9108958B01EC016EE070E01E
:100E700081E090E00E94AE09FC01892B69F380E8D3
:100E800083830115110571F01387028781E883833D
:100E90008091A5049091A604892B21F4F093A604D7
:100EA000E093A5042097D1F2D187C0878381826027
:100EB00083838091A7049091A804892B79F6F093FD
:100EC000A804E093A7048091A9049091AA04892B17
:100ED00029F6F093AA04E093A904C0CFB0E0A0E003
:100EE000E4E7F7E00C94DC0BAE014B5F5F4FFA01D7
:100EF00061917191AF018091A7049091A8040E9423
:100F0000D407E2E00C94F80BB0E0A0E0EAE8F7E0E8
:100F10000C94DA0BAE01495F5F4FDA016D917D9160
:100F2000AD0105EA14E0F80182819381DC0113969A
:100F30002C911397286013962C930E94D407D80104
:100F40001296ED91FC912381277F2383E4E00C949A
:100F5000F60B0F931F93CF93DF93E091A704F091CB
:100F6000A8042381EC0110E000E021FD08C00FEF90
:100F70001FEF14C00995892B11F00FEF1FEF899116
:100F80006091A7047091A804DB011896ED91FC9183
:100F90008111F0CF8AE00995892B49F7C801DF91CB
:100FA000CF911F910F910895ABE0B0E0EAEDF7E02B
:100FB0000C94CC0B7C013B018A01FC011782168248
:100FC000838181FFC8C1CE0101965C01F701938145
:100FD000F30193FD859193FF81913F01882309F4EB
:100FE00053C1853239F493FD859193FF81913F017F
:100FF000853229F4B70190E00E940C0BE7CF912CC9
:10100000212C312CFFE1F31538F08B3211F190F4E3
:10101000803209F1833229F137FC3CC020ED280FE2
:101020002A3050F536FE20C08AE0989E200D11240B
:10103000922E06C08D3291F0803371F7689430F8AB
:10104000F30193FD859193FF81913F018111DACFE7
:1010500021C0689431F8689432F8F2CF689433F87C
:10106000EFCF689434F8ECCFEAE02E9E200D1124E7
:10107000222E689435F8E4CF8E3229F436FC04C170
:10108000689436F8DDCF8C3619F4689437F8D8CFE9
:101090008836B1F2982F9F7D95549330E0F08336D7
:1010A000A1F18337C1F1833509F063C02801F2E073
:1010B0004F0E511CF801C080D180692D70E036FCC4
:1010C00002C06FEF7FEFC6010E94EF0A4C016894E7
:1010D00037F882010AC00C5F1F4FFFE3F9838824B1
:1010E0008394912C6501E89437F833FE2DC0522C7F
:1010F0008114910471F5552009F468CFB70180E29D
:1011000090E00E940C0B5A94F6CFF80180818983FD
:101110000E5F1F4FE4CF2801F2E04F0E511CF80183
:10112000C080D180692D70E036FC02C06FEF7FEF88
:10113000C6010E94010B4C018201D5CFB70180E2AC
:1011400090E00E940C0B2A942814190409F0B0F7BF
:10115000CECFF60137FC859137FE81916F01B70143
:1011600090E00E940C0B51105A94F1E08F1A9108F4
:10117000BFCF843619F0893609F077C0F80137FE01
:101180006BC060817181828193810C5F1F4FF32D51
:10119000FF763F2E97FF09C09095809570956195D9
:1011A0007F4F8F4F9F4F689437F82AE030E0A501BA
:1011B0000E943C0BC82ECA188C2C432C36FE0CC047
:1011C000E89440F8C91440F434FE05C032FC03C072
:1011D000F32DFE7E4F2E892C44FE95C0FE01EC0DB2
:1011E000F11D8081803309F087C0242D297E422E95
:1011F000842D8870582E43FC95C040FE8FC09C2CD7
:10120000821418F42C0C922C981844FE91C0B7014B
:1012100080E390E00E940C0B42FE09C088E790E05A
:1012200041FE02C088E590E0B7010E940C0BC91492
:1012300008F48AC0CA94D12C9FEFC91AD90ACA0CE3
:10124000DB1CF60182916F01B70190E00E940C0B4C
:10125000AC14BD04B1F74FCF60817181072E000C33
:10126000880B990B0E5F1F4F92CFD32CE894D4F8C4
:101270002AE030E0853739F1232D297FD22E8F36B1
:1012800001F148F48835A9F0F701868197812B9602
:10129000E2E10C94E80B803749F08837A9F7D4FED7
:1012A00002C06894D2F820E130E00DC06894D4F810
:1012B000F6CF34FE03C0822F8660D82E20E132E0C4
:1012C00002C028E030E0F801D7FE0FC060817181D4
:1012D000828193810C5F1F4FA5010E943C0BC82E99
:1012E000CA183D2CE89437F867CF6081718190E08F
:1012F00080E00E5F1F4FF0CF42FC02C0839478CF96
:101300008394839475CF842D867809F471CFF6CFBA
:10131000B70180E290E00E940C0B83948214C0F32A
:10132000512C73CF522C5818821408F46ECFF8CF7A
:10133000842D867809F47BCF8BE241FE80E247FC66
:101340008DE2B70190E071CFB70180E390E00E9499
:101350000C0B9A946CCF8FEF9FEF99CF0F931F9345
:10136000CF93DF93869F8001879F100D969F100D6E
:101370001124C8010E94CA09EC01009729F0A801B4
:1013800070E060E00E94FA0ACE01DF91CF911F91D8
:101390000F9108950F931F93CF93DF9382309105A0
:1013A00010F482E090E0E091AD04F091AE0430E002
:1013B00020E0B0E0A0E0309799F42115310509F460
:1013C0004AC0281B390B24303105D8F58A819B810E
:1013D0006115710589F1FB0193838283FE0111C0C0
:1013E000408151810281138148175907E0F0481765
:1013F000590799F4109761F012960C93129713966F
:101400001C933296CF01DF91CF911F910F910895D8
:101410000093AD041093AE04F4CF2115310551F0C3
:101420004217530738F0A901DB019A01BD01DF0122
:10143000F801C1CFEF01F9CF9093AE048093AD04D2
:10144000CDCFFE01E20FF31F81939193225031091A
:1014500039832883D7CF2091AB043091AC04232B60
:1014600041F420910801309109013093AC0420939C
:10147000AB0420910601309107012115310541F49B
:101480002DB73EB740910A0150910B01241B350B3B
:10149000E091AB04F091AC04E217F307A0F42E1B2B
:1014A0003F0B2817390778F0AC014E5F5F4F2417C8
:1014B000350748F04E0F5F1F5093AC044093AB04C8
:1014C000819391939FCFF0E0E0E09CCFCF93DF93A7
:1014D0000097E9F0FC01329713821282A091AD04CB
:1014E000B091AE04ED0130E020E01097A1F420812E
:1014F0003181820F931F2091AB043091AC042817E7
:10150000390709F061C0F093AC04E093AB04DF91BC
:10151000CF910895EA01CE17DF07E8F54A815B8194
:101520009E0141155105B1F7E901FB83EA83499119
:101530005991C40FD51FEC17FD0761F4808191818B
:101540000296840F951FE901998388838281938194
:101550009B838A83F0E0E0E012968D919C91139733
:101560000097B9F52D913C911197CD010296820F0C
:10157000931F2091AB043091AC042817390739F63A
:10158000309751F51092AE041092AD04B093AC04B4
:10159000A093AB04BCCFD383C28340815181840F1D
:1015A000951FC817D90761F44E5F5F4F88819981F5
:1015B000480F591F518340838A819B819383828383
:1015C0002115310509F0B0CFF093AE04E093AD04DE
:1015D0009ECFFD01DC01C0CF13821282D7CFFC0168
:1015E0000590615070400110D8F7809590958E0F4E
:1015F0009F1F0895DC0101C06D9341505040E0F7FA
:101600000895FC016150704001900110D8F7809559
:1016100090958E0F9F1F08950F931F93CF93DF9385
:10162000182F092FEB018B8181FD09C01FEF0FEFF0
:10163000812F902FDF91CF911F910F91089582FFFD
:1016400014C02E813F818C819D81281739073CF47D
:10165000E881F981CF0101969983888310838E8177
:101660009F8101969F838E83E3CFE885F985812F43
:101670000995892BA1F3DACFFA01AA27283051F175
:10168000203181F1E8946F936E7F6E5F7F4F8F4FB3
:101690009F4FAF4FB1E03ED0B4E03CD0670F781F12
:1016A000891F9A1FA11D680F791F8A1F911DA11DF7
:1016B0006A0F711D811D911DA11D20D009F4689430
:1016C0003F912AE0269F11243019305D3193DEF6D8
:1016D000CF010895462F4770405D4193B3E00FD08E
:1016E000C9F7F6CF462F4F70405D4A3318F0495D79
:1016F00031FD4052419302D0A9F7EACFB4E0A6955C
:101700009795879577956795BA95C9F7009761057D
:10171000710508959B01AC010A2E069457954795D3
:1017200037952795BA95C9F7620F731F841F951FC8
:10173000A01D0895052E97FB1EF400940E94B10B86
:1017400057FD07D00E94A50607FC03D04EF40C9469
:10175000B10B50954095309521953F4F4F4F5F4FBE
:10176000089590958095709561957F4F8F4F9F4F0D
:1017700008950E94030CA59F900DB49F900DA49F07
:10178000800D911D11240895B7FF0C94B90B0E9490
:10179000B90B821B930B08952F923F924F925F9249
:1017A0006F927F928F929F92AF92BF92CF92DF9271
:1017B000EF92FF920F931F93CF93DF93CDB7DEB7D6
:1017C000CA1BDB0B0FB6F894DEBF0FBECDBF09946A
:1017D0002A88398848885F846E847D848C849B84C1
:1017E000AA84B984C884DF80EE80FD800C811B81CF
:1017F000AA81B981CE0FD11D0FB6F894DEBF0FBEFE
:10180000CDBFED010895A29FB001B39FC001A39F7A
:10181000700D811D1124911DB29F700D811D112429
:08182000911D0895F894FFCF1B
:101828000018010000000000AF042000537461722A
:1018380074696E67204C6174636820746573742ED4
:101848002E2E0A0D0055415254207265616479218B
:10185800205479706520736F6D657468696E673A96
:101868000A0D00596F752074797065643A202563F4
:101878000A0D0041444320746573742073746172C7
:10188800740D0058203D253375202059203D2533FF
:10189800752020534C49444552203D25337520205E
:1018A80043483320282F29203D2533750D0A004A47
:1018B8006F79737469636B207465737420737461D2
:1018C80072740D00536C69646572207465737420BA
:1018D80073746172740D005265636569766564207E
:1018E800636861723A2025630A00547279696E67E9
:1018F80020746F207772697465206120746F6F207F
:1019080062696720616464726573730054727969EF
:101918006E6720746F2072656164206120746F6F38
:10192800206269672061646472657373005374612F
:101938007274696E67205352414D20746573742E1A
:101948002E2E005772697465207068617365206572
:1019580072726F723A206578745F72616D5B2534BC
:10196800645D203D2025303258202873686F756CDF
:10197800642062652025303258290A005265747245
:10198800696576616C207068617365206572726F35
:10199800723A206578745F72616D5B2534645D20EE
:1019A8003D2025303258202873686F756C6420629A
:1019B800652025303258290A005352414D2074655C
:1019C800737420636F6D706C6574656420776974D7
:1019D80068200A253464206572726F727320696EFC
:1019E80020777269746520706861736520616E6420
:1019F800200A253464206572726F727320696E2024
:101A080072657472696576616C2070686173650AC5
:101A18000A005374617274696E67205352414D20F5
:101A28007465737420287772617070657273292EDB
:101A38002E2E005772697465207068617365206581
:101A480072726F723A206578745F72616D5B2534CB
:101A5800755D203D2025303258202873686F756CDD
:101A6800642062652025303258290A005265747254
:101A7800696576616C207068617365206572726F44
:101A8800723A206578745F72616D5B2534755D20EC
:101A98003D2025303258202873686F756C642062A9
:101AA800652025303258290A005352414D2074656B
:101AB80073743220636F6D706C6574656420776928
:101AC8007468200A253475206572726F72732069F4
:101AD8006E2077726974652070686173652C200ABE
:101AE800253475206572726F727320696E20726575
:101AF8007472696576616C2070686173652C200A60
:101B080025347520777261707065722041504920C4
:101B18006572726F72730A0A0054657374696E672E
:101B2800206D656D6F727920726567696F6E2041EF
:101B3800444300414443207465737420646F6E65A8
:101B48000054657374696E67206D656D6F727920D6
:101B5800726567696F6E205352414D005352414D73
:101B6800207465737420646F6E650041444320627D
:101B78007573792074696D656F7574207761697400
:101B8800696E6720666F72204C4F570041444320AE
:101B9800627573792074696D656F757420776169F2
:0E1BA80074696E6720666F72204849474800D6
:00000001FF
