:100000000C94BE030C94DB030C94DB030C94DB0315
:100010000C94DB030C94DB030C94DB030C94DB03E8
:100020000C94DB030C94DB030C94DB030C94DB03D8
:100030000C94DB030C94DB030C94DB030C94DB03C8
:100040000C94DB030C94DB030C94DB030C94DB03B8
:100050000C94DB030C94DB030C94DB030C94DB03A8
:100060000C94DB030C94DB030C94DB030C94DB0398
:100070007374617274696E67206F6C656420746557
:1000800073740A0D007570646174656420706F7319
:100090006974696F6E0D0A0058303A20282564296A
:1000A000207C2059303A20282564290D0A00583A2E
:1000B00020256420282564252529207C20593A20E4
:1000C000256420282564252529207C204469723A4E
:1000D0002025530D0A004E45555452414C005249BB
:1000E000474854004C45465400444F574E00555025
:1000F000007570646174656420706F736974696FF2
:100100006E20736C696465720D0A0058303A2028BD
:100110002564290D0A00536C6964657220583A20E1
:100120002564202825642525290D0A0000000000EB
:10013000005C00000C000C007C287C2858DC680067
:100140002410480028542840000C00000078840047
:100150008478000054385400107C10008040000067
:10016000101010000040000060100C0038543800DF
:10017000487C40004864580044542C001C107C000B
:100180005C5424003854240064140C0068542C007F
:1001900048543800004800008048000010284400FF
:1001A00028282800442810000454080038445C0023
:1001B000781478007C542800384428007C443800A7
:1001C0007C5444007C140400384474007C107C008F
:1001D000447C440020403C007C106C007C4040008B
:1001E0007C187C0078103C00384438007C140800EF
:1001F0003844B8007C14680048542400047C04008F
:100200007C407C003C603C007C307C006C106C00CE
:100210000C700C0064544C00007C44000C10600016
:10022000447C00000804080080808000000408006E
:10023000304878007C4830003048480030487C0026
:10024000306850001078140090A878007C08700086
:1002500050744000808074007C106800447C400032
:10026000781078007808700030483000F8281000C6
:100270003048F8007810080050582800083C480022
:1002800038407800384038007820780048304800FE
:1002900098A078004868580010788400007C00001E
:1002A0008478100008040804000000000000005FCB
:1002B00000000007000700147F147F14242A7F2AFF
:1002C00012231308646236495522500005030000CA
:1002D000001C2241000041221C00082A1C2A080898
:1002E000083E0808005030000008080808080060B0
:1002F00060000020100804023E5149453E00427F44
:10030000400042615149462141454B311814127F4A
:100310001027454545393C4A4949300171090503D3
:100320003649494936064949291E0036360000003B
:1003300056360000000814224114141414144122EB
:100340001408000201510906324979413E7E11111B
:10035000117E7F494949363E414141227F41412238
:100360001C7F494949417F090901013E4141513200
:100370007F0808087F00417F41002040413F017F06
:10038000081422417F404040407F0204027F7F04E6
:1003900008107F3E4141413E7F090909063E415117
:1003A000215E7F09192946464949493101017F01EA
:1003B000013F4040403F1F2040201F7F2018207FEA
:1003C000631408146303047804036151494543002E
:1003D000007F4141020408102041417F00000402D7
:1003E00001020440404040400001020400205454F7
:1003F00054787F484444383844444420384444487E
:100400007F3854545418087E090102081454543C8F
:100410007F0804047800447D40002040443D0000F3
:100420007F10284400417F40007C041804787C0839
:1004300004047838444444387C1414140808141410
:10044000187C7C080404084854545420043F444059
:10045000203C4040207C1C2040201C3C4030403C44
:1004600044281028440C5050503C4464544C4400E0
:100470000836410000007F000000413608000201FC
:10048000030201000000000000000000065F5F069C
:100490000000000007070007070000147F7F147F9B
:1004A0007F1400242E6B6B3A120000466630180C45
:1004B000666200307A4F5D377A4800040703000017
:1004C000000000001C3E63410000000041633E1C30
:1004D000000000082A3E1C1C3E2A0808083E3E0870
:1004E00008000000A0E060000000000808080808FC
:1004F00008000000006060000000006030180C067A
:100500000301003E7F594D7F3E000042427F7F4005
:10051000400000627359496F660000226349497FB9
:10052000360000181C16137F7F1000276745457D95
:100530003900003C7E4B4979300000036371190F8C
:10054000070000367F49497F360000064F49693F62
:100550001E000000006C6C0000000000A0EC6C00AD
:10056000000000081C366341000000141414141429
:10057000140000004163361C080000020351590FAB
:100580000600003E7F415D5D1F1E007C7E13137ED2
:100590007C0000417F7F49497F36001C3E6341411A
:1005A000632200417F7F41637F1C00417F7F495D63
:1005B000416300417F7F491D0103001C3E6341519F
:1005C0007372007F7F08087F7F000000417F7F41BA
:1005D000000000307040417F3F0100417F7F081CD8
:1005E000776300417F7F41406070007F7F060C068B
:1005F0007F7F007F7F060C187F7F001C3E63416376
:100600003E1C00417F7F49090F06001E3F21717F7C
:100610005E0000417F7F19396F460026674D597B88
:1006200032000003417F7F410300007F7F40407F15
:100630007F00001F3F60603F1F00007F7F30183049
:100640007F7F0063771C081C776300074F78784F23
:100650000700006773594D47637100007F7F414178
:100660000000000103060C183060000041417F7F4C
:10067000000000080C0603060C08008080808080C3
:100680008080800000030704000000207454543C64
:10069000784000413F7F44447C3800387C44446CBF
:1006A000280000307848493F7F4000387C54545C33
:1006B000180000487E7F490302000098BCA4A4F8FB
:1006C0007C0400417F7F08047C780000447D7D40ED
:1006D00000000040C484FD7D000000417F7F103891
:1006E0006C440000417F7F400000007C7C0C180CB3
:1006F0007C78007C7C04047C780000387C44447C5A
:1007000038000084FCF8A4243C1800183C24A4F809
:10071000FC8400447C78441C180000485C545474E9
:1007200024000000043E7F442400003C7C40403C08
:100730007C40001C3C60603C1C00003C7C603060E5
:100740007C3C00446C3810386C44009CBCA0A0FC7D
:100750007C00004C64745C4C64000008083E7741E7
:1007600041000000000077770000004141773E081B
:1007700008000002030103020301000011241FBE50
:10078000CFEFD4E0DEBFCDBF14E0A0E0B1E0E4E203
:10079000F1E202C005900D92AE3AB107D9F724E01C
:1007A000AEEAB4E001C01D92A13DB207E1F70E949C
:1007B000A3040C9490100C940000399A00C000C05F
:1007C0000000399800C000C0000008958CE091E05E
:1007D0009F938F930E94EC0B8FEF8ABB319A1BBAC9
:1007E00039980F900F90C0E0CBBB0E94DD032FEF34
:1007F0008FEF92E0215080409040E1F700C000C0B0
:10080000CF5FF2CF85E291E09F938F930E94EC0B34
:100810000F900F90C3E4D1E00E940805282F082E06
:10082000000C330B3F938F93DF93CF930E94EC0B1D
:100830000F900F900F900F90EFCF83E591E00E9403
:10084000270CC3E6D1E00E94E906FC011F921F922B
:1008500082811F928F9381811F928F9380811F923B
:100860008F93DF93CF930E94EC0B9FEF2FEF82E0EB
:10087000915020408040E1F700C000C08DB79EB786
:100880000A960FB6F8949EBF0FBE8DBFDCCF0E94B4
:1008900070078FE891E00E94270C0E9459070E9480
:1008A0007F070E9413072FEF8FEF92E021508040C7
:1008B0009040E1F700C000C0F2CF0E945E0884EAD9
:1008C00091E00E94270C0E944D080E9468080E9437
:1008D00036082FEF8FEF92E0215080409040E1F7F3
:1008E00000C000C0F2CF80E790E09F938F930E94FA
:1008F000020C2FEF8FEF9DE1215080409040E1F7F7
:1009000000C000000E94A70A0E94AC090E94710961
:1009100087EB91E00E94690A2FEF8FEF9DE1215054
:1009200080409040E1F700C0000080E00E94780A1B
:1009300060E083E00E94C60983EC91E00E94690AAE
:100940000F900F90089520E835E240E050E060E01D
:1009500070E08BE490E00E94B8040E9425050E949C
:10096000C9060E94AD080E94D40A0E947304FFCFFA
:10097000220F331F441F551F220F331F441F551FC3
:10098000220F331F441F551F220F331F441F551FB3
:100990000E94230B2150310930BD29B91BB88EE8C4
:1009A00080BD549A539A6FE175E08EED94E00E94F9
:1009B000A10B08955D9BFECF8CB90895CF93C82FEE
:1009C0008A3039F08C2F0E94DA0490E080E0CF91D9
:1009D00008958DE00E94DA04F5CFCF93DF93EC0108
:1009E000892B49F08881882331F021960E94DA040E
:1009F00089918111FBCFDF91CF9108958BB1082EA2
:100A0000000C990B892F881F8827881F90E0089574
:100A1000CF935F9BFECFCCB18C2F0C2E000C990B8B
:100A20009F93CF9386ED91E09F938F930E94EC0B61
:100A30000F900F900F900F908C2FCF9108950E94E0
:100A40000805082E000C990B089585B7806885BFAE
:100A500080B7806280BF0895811528E0920758F41E
:100A60002091000130910101820F931FFC016083EE
:100A700090E080E0089589EE91E00E94270C81E0EB
:100A800090E00895811528E0920748F42091000134
:100A900030910101820F931FFC01808108958BE04A
:100AA00092E00E94270C81E00895CF92DF92EF92AE
:100AB000FF920F931F93CF93DF938CE292E00E94FB
:100AC000270C0E94910B6C010E94960BD0E0C0E0B5
:100AD00010E000E00F2EF2E4EF2EF2E0FF2EF02DFA
:100AE00005C02196C11598E0D90741F10E94910BEC
:100AF000E0910001F0910101EC0FFD1F8083E09176
:100B00000001F0910101EC0FFD1F2081281749F32E
:100B100099279F938F931F922F93DF93CF93FF92E9
:100B2000EF920E94EC0B0F5F1F4F8DB79EB7089698
:100B30000FB6F8949EBF0FBE8DBFD3CFC6010E94E3
:100B4000960BD0E0C0E0F12CE12C0F2EFBE7CF2E6E
:100B5000F2E0DF2EF02D05C02196C11598E0D907EF
:100B600011F10E94910BE0910001F0910101EC0F55
:100B7000FD1F2081281781F399279F938F931F9240
:100B80002F93DF93CF93DF92CF920E94EC0B8FEFE6
:100B9000E81AF80A8DB79EB708960FB6F8949EBF6C
:100BA0000FBE8DBFD9CFFF92EF921F930F9388EBAB
:100BB00092E09F938F930E94EC0B0F900F900F90F9
:100BC0000F900F900F90DF91CF911F910F91FF9099
:100BD000EF90DF90CF9008958F929F92AF92BF9247
:100BE000CF92DF92EF92FF920F931F93CF93DF93F9
:100BF00081E193E00E94270C0E94910B4C010E941E
:100C0000960BD0E0C0E0F12CE12CB12CA12C0F2EE2
:100C1000F2E3CF2EF3E0DF2EF02D0AC0CE010E94CA
:100C20004205801312C02196C11598E0D90721F121
:100C30000E94910B8C01682FCE010E942C05892BFC
:100C400069F38FEFE81AF80AEECF11271F930F937D
:100C50001F928F93DF93CF93DF92CF920E94EC0B82
:100C60009FEFA91AB90A8DB79EB708960FB6F894E8
:100C70009EBF0FBE8DBFD7CFC4010E94960BD0E0A0
:100C8000C0E0D12CC12C0F2EFBE68F2EF3E09F2E5F
:100C9000F02D05C02196C11598E0D907F9F00E9402
:100CA000910B8C01CE010E944205801799F3112708
:100CB0001F930F931F928F93DF93CF939F928F92E7
:100CC0000E94EC0B8FEFC81AD80A8DB79EB7089612
:100CD0000FB6F8949EBF0FBE8DBFDCCFFF92EF9290
:100CE000DF92CF92BF92AF9288EA93E09F938F9367
:100CF0000E94EC0B8DB79EB708960FB6F8949EBF76
:100D00000FBE8DBFDF91CF911F910F91FF90EF909C
:100D1000DF90CF90BF90AF909F908F900895CF932A
:100D2000DF9388E194E00E94270CC0E0D0E185EADF
:100D30008883E7E9FAE33197F1F700C00000A09655
:100D4000C115F8E1DF07A1F782E394E00E94270CC8
:100D500080E494E00E94270C85EA8883E7E9FAE3BF
:100D60003197F1F700C00000A096C115F0E2DF074F
:100D7000A1F78BE594E00E94270C2FE58AEE90E026
:100D8000215080409040E1F700C00000DF91CF91FA
:100D900008958D9A8FB58F778FBD8FB580648FBD85
:100DA0008EB58F7E8EBD8EB588608EBD8FB58D7FE2
:100DB0008FBD8FB58E7F8FBD1BBC1ABC8EB58B7F50
:100DC0008EBD8EB58D7F8EBD8EB581608EBD8C98AB
:100DD000089510920010849B0CC0000089E090E000
:100DE000849B07C000000197D9F78AE694E00E942F
:100DF000270C84990CC0000081E390E0849907C01F
:100E000000000197D9F78BE894E00E94270CA0E03E
:100E1000B0E18C91EEEAF4E080838C9181838C9137
:100E20008283CF0108958091BF049091C004AEEEFB
:100E3000B0E0892BC1F08091BF049091C004A9EE6D
:100E4000B0E0019781F08091BF049091C004A4EEBE
:100E5000B0E0029741F08091BF049091C004A6EDEC
:100E6000B0E0039719F1E3EBF4E062857385468106
:100E700057812085318584819581BF93AF937F937E
:100E80006F935F934F933F932F939F938F938EEA2C
:100E900090E09F938F930E94020C8DB79EB70C96A3
:100EA0000FB6F8949EBF0FBE8DBF0895AEEDB0E0B3
:100EB000DACFE3EBF4E022813381808191813F93AB
:100EC0002F939F938F9388E990E09F938F930E9435
:100ED000020C0F900F900F900F900F900F900895AD
:100EE0000E94E906DC012C9130E0E3EBF4E0318371
:100EF000208311968C9190E09383828308950E94C1
:100F0000E906FC0150814181A52FB0E0E3EBF4E05C
:100F1000B583A483242F30E0378326838081918199
:100F2000581708F458C0992767EF70E0681B790BD1
:100F300009F465C0A81BB90B54E65A9FC0015B9F1A
:100F4000900D11240E940F0BE3EBF4E07187608792
:100F500082819381481708F458C099276AEF70E09E
:100F6000681B790B09F465C0281B390B44E6429FC6
:100F7000C001439F900D11240E940F0BE3EBF4E09E
:100F8000738762872285338580859185A901332304
:100F90000CF455C08531910524F0841795070CF0A9
:100FA00053C08C3EFFEF9F073CF4919581959109CA
:100FB000841795070CF057C090E080E0253131058B
:100FC0000CF044C084E090E02C3E3F4F0CF03EC05B
:100FD00081E090E03BC09927BC016354710991F016
:100FE0008A1B9B0B54E6589FF001599FF00D11246A
:100FF000CF010E940F0B719561957109A5CF70E02B
:1010000060E0A2CF70E060E09FCF9927BC016E53F3
:10101000710991F0821B930B44E6489F9001499F10
:10102000300D1124C9010E940F0B71956195710952
:10103000A5CF70E060E0A2CF70E060E09FCF4427D2
:101040005527421B530BA6CF83E090E09093C0043A
:101050008093BF0485E890E09F938F930E94020CD9
:101060000F900F90089582E090E0F0CFE1ECF4E073
:1010700024813581828193813F932F939F938F9316
:1010800086E191E09F938F930E94020C0F900F9046
:101090000F900F900F900F9008958091C104909140
:1010A000C2049F938F938BE091E09F938F930E9454
:1010B000020C0F900F900F900F9008950E94E90678
:1010C000FC01828190E09093C2048093C104089552
:1010D0000E94E906FC014281242F30E0E1ECF4E0BB
:1010E0003383228380819181481788F099276FEF9D
:1010F00070E0681B790B59F1281B390B44E6429FBD
:10110000C001439F900D11240E940F0B13C099271B
:10111000682F792F0097F1F0821B930B44E6489FCC
:101120009001499F300D1124C9010E940F0B719548
:10113000619571097093C6046093C50481EF90E0D6
:101140009F938F930E94020C0F900F90089570E070
:1011500060E0F0CF70E060E0EDCF87B3806B87BBDD
:10116000BE988A9AB89AB99AC09AC19AC49A81E5E7
:101170008DB90895892B11F0C1980895C0980895EC
:10118000892B11F0C19A0895C09A08958FB9779B61
:10119000FECF8FB108950E94C60808958FEF0E9478
:1011A000C60808950F931F93CF93DF9361157105C0
:1011B00051F08C01EC01060F171F89910E94C6089F
:1011C000C017D107D1F7DF91CF911F910F910895EB
:1011D0000F931F93CF93DF936115710559F08C0125
:1011E000EC01060F171F8FEF0E94C6088993C017E6
:1011F000D107C9F7DF91CF911F910F910895CF9338
:10120000C82F90E080E00E94BA0892980000000089
:1012100000008C2F0E94C60890E080E00E94C00869
:10122000CF910895CF93DF93D82FC62F90E080E021
:101230000E94BA0892980000000000008D2F0E94C2
:10124000C6088C2F0E94C60890E080E00E94C0086B
:10125000DF91CF9108951F93CF93DF93182FD62F4F
:10126000C42F90E080E00E94BA089298000000002D
:101270000000812F0E94C6088D2F0E94C6088C2F67
:101280000E94C60890E080E00E94C008DF91CF91E4
:101290001F910895EF92FF920F931F93CF93DF93C7
:1012A0008C017B0190E080E00E94BA08929A0000D5
:1012B00000000000E114F10449F0E8010E0D1F1DCB
:1012C00089910E94C608C017D107D1F790E080E04D
:1012D0000E94C008DF91CF911F910F91FF90EF9076
:1012E0000895CF93DF93D0E013C08FEF0E94C6081C
:1012F000CF5FC03831F0C0FFF8CF8FEF0E94C60833
:10130000F7CF90E080E00E94C008DF5FD83009F19D
:1013100090E080E00E94BA0892980000000000006F
:101320008D2F8770806B0E94C60880E10E94C608DE
:1013300080E00E94C60890E080E00E94C00890E033
:1013400080E00E94BA08929A000000000000C0E00D
:10135000D2CFDF91CF9108951092B2041092B104D0
:1013600090E080E00E94BA0892980000000000001F
:1013700080EB0E94C60880E10E94C60880E00E94BF
:10138000C60890E080E00E94C0080895CF93DF93E4
:10139000D62FC82F883008F0C7E0DD2314F1C093A2
:1013A000B204D093B10490E080E00E94BA08929811
:1013B0000000000000008C2F8770806B0E94C60820
:1013C0008D2F82958F7080610E94C6088D2F8F703F
:1013D0000E94C60890E080E00E94C008DF91CF9193
:1013E0000895DFE7DCCF1092B1048091B20487301A
:1013F00020F48F5F8093B204089580E0FBCF0F93B9
:101400001F93CF93DF93C82F8A3009F459C08D30D2
:1014100009F459C080EE8C0F8F3508F0C0E280913E
:10142000B1048C3708F052C01091B104D091B204CD
:1014300090E080E00E94BA0892980000000000004E
:101440008D2F8770806B0E94C608812F82958F70C8
:1014500080610E94C608812F8F700E94C60890E0AC
:1014600080E00E94C00890E080E00E94BA08929A52
:10147000000000000000C052D0E0CC0FDD1FCC0FF8
:10148000DD1F8E01045D1E4FC05DDE4FF8018491AB
:101490000E94C6080F5F1F4F0C171D07B9F780E0A9
:1014A0000E94C60890E080E00E94C0088091B104CC
:1014B0008B5F8093B104DF91CF911F910F910895BD
:1014C0000E94F309F8CF1092B104F5CF0E94F309FE
:1014D000ABCFCF93DF93EC018881882331F0219645
:1014E0000E94FF0989918111FBCFDF91CF9108956F
:1014F000CF93DF93883018F0DF91CF910895D82FE4
:1015000090E080E00E94BA0892980000000000007D
:101510008D2F8770806B0E94C60880E10E94C608EC
:1015200080E00E94C608929A000000000000C0E01F
:1015300080E00E94C608CF5FC038D1F790E080E01D
:101540000E94C008D093B2041092B104D5CFCF93BB
:10155000DF9390E080E00E94BA08D0E0929800000B
:10156000000000008D2F8770806B0E94C60880E10C
:101570000E94C60880E00E94C608929A00000000FF
:101580000000C0E080E00E94C608CF5FC038D1F7FD
:10159000DF5FD83019F790E080E00E94C0080E9419
:1015A000AC09DF91CF91089583EC99E00197F1F7B1
:1015B00000C000008EEA0E94FF0881EA0E94FF0836
:1015C00062E18AED0E94120988EC0E94FF086FE335
:1015D00088EA0E94120960E885ED0E94120960E520
:1015E00081E80E94120961E289ED0E94120962E01D
:1015F00080E20E94120960E38BED0E94120960E014
:101600008DEA0E94120984EA0E94FF0886EA0E947D
:10161000FF088FEA0E94FF080E94A70A0895AA1BEC
:10162000BB1B51E107C0AA1FBB1FA617B70710F0CD
:10163000A61BB70B881F991F5A95A9F780959095FF
:10164000BC01CD010895A1E21A2EAA1BBB1BFD010E
:101650000DC0AA1FBB1FEE1FFF1FA217B307E40791
:10166000F50720F0A21BB30BE40BF50B661F771FE9
:10167000881F991F1A9469F76095709580959095C9
:101680009B01AC01BD01CF0108958F929F92AF9253
:10169000BF92CF92DF92EF92FF92CF93DF93EC0154
:1016A000688179818A819B81611571058105910528
:1016B00021F464E279ED8BE597E02DE133EF41E031
:1016C00050E00E94181049015A019B01AC01A7EAA1
:1016D000B1E40E9437106B017C01ACEEB4EFA501C0
:1016E00094010E944510DC01CB018C0D9D1DAE1DA7
:1016F000BF1DB7FF03C00197A109B0488883998334
:10170000AA83BB839F77DF91CF91FF90EF90DF900B
:10171000CF90BF90AF909F908F9008950E94450BFF
:10172000089582E091E00E94450B0895B0E0A0E0AA
:101730008093020190930301A0930401B0930501EB
:1017400008950F931F93CF93DF93009759F461157A
:10175000710541F4F0E0E0E0CF01DF91CF911F91FE
:101760000F9108958B01EC016EE070E081E090E054
:101770000E942C0EFC01892B69F380E883830115FC
:10178000110571F01387028781E883838091C70474
:101790009091C804892B21F4F093C804E093C70406
:1017A0002097D1F2D187C087838182608383809123
:1017B000C9049091CA04892B79F6F093CA04E09386
:1017C000C9048091CB049091CC04892B29F6F09325
:1017D000CC04E093CB04C0CFB0E0A0E0E2EFFBE0AC
:1017E0000C945A10AE014B5F5F4FFA0161917191F9
:1017F000AF018091C9049091CA040E94520CE2E0AA
:101800000C947610B0E0A0E0E8E0FCE00C945810F6
:10181000AE01495F5F4FDA016D917D91AD0107EC3B
:1018200014E0F80182819381DC0113962C911397C7
:10183000286013962C930E94520CD8011296ED91B9
:10184000FC912381277F2383E4E00C9474100F9391
:101850001F93CF93DF93E091C904F091CA042381D1
:10186000EC0110E000E021FD08C00FEF1FEF14C0F5
:101870000995892B11F00FEF1FEF89916091C90431
:101880007091CA04DB011896ED91FC918111F0CFA3
:101890008AE00995892B49F7C801DF91CF911F9103
:1018A0000F910895ABE0B0E0E8E5FCE00C944A103D
:1018B0007C013B018A01FC0117821682838181FF32
:1018C000C8C1CE0101965C01F7019381F30193FD3C
:1018D000859193FF81913F01882309F453C185329B
:1018E00039F493FD859193FF81913F01853229F46D
:1018F000B70190E00E948A0FE7CF912C212C312C68
:10190000FFE1F31538F08B3211F190F4803209F1D8
:10191000833229F137FC3CC020ED280F2A3050F5E6
:1019200036FE20C08AE0989E200D1124922E06C01B
:101930008D3291F0803371F7689430F8F30193FDA4
:10194000859193FF81913F018111DACF21C0689485
:1019500031F8689432F8F2CF689433F8EFCF689496
:1019600034F8ECCFEAE02E9E200D1124222E68944C
:1019700035F8E4CF8E3229F436FC04C1689436F889
:10198000DDCF8C3619F4689437F8D8CF8836B1F2A9
:10199000982F9F7D95549330E0F08336A1F18337E3
:1019A000C1F1833509F063C02801F2E04F0E511CEC
:1019B000F801C080D180692D70E036FC02C06FEF65
:1019C0007FEFC6010E946D0F4C01689437F88201C9
:1019D0000AC00C5F1F4FFFE3F98388248394912C86
:1019E0006501E89437F833FE2DC0522C8114910420
:1019F00071F5552009F468CFB70180E290E00E94AC
:101A00008A0F5A94F6CFF801808189830E5F1F4FA9
:101A1000E4CF2801F2E04F0E511CF801C080D180C4
:101A2000692D70E036FC02C06FEF7FEFC6010E94A7
:101A30007F0F4C018201D5CFB70180E290E00E9478
:101A40008A0F2A942814190409F0B0F7CECFF601B2
:101A500037FC859137FE81916F01B70190E00E94BC
:101A60008A0F51105A94F1E08F1A9108BFCF843633
:101A700019F0893609F077C0F80137FE6BC0608134
:101A80007181828193810C5F1F4FF32DFF763F2E72
:101A900097FF09C090958095709561957F4F8F4F06
:101AA0009F4F689437F82AE030E0A5010E94BA0FF2
:101AB000C82ECA188C2C432C36FE0CC0E89440F873
:101AC000C91440F434FE05C032FC03C0F32DFE7E81
:101AD0004F2E892C44FE95C0FE01EC0DF11D808136
:101AE000803309F087C0242D297E422E842D8870F2
:101AF000582E43FC95C040FE8FC09C2C821418F4D5
:101B00002C0C922C981844FE91C0B70180E390E011
:101B10000E948A0F42FE09C088E790E041FE02C0A1
:101B200088E590E0B7010E948A0FC91408F48AC0C2
:101B3000CA94D12C9FEFC91AD90ACA0CDB1CF60132
:101B400082916F01B70190E00E948A0FAC14BD042E
:101B5000B1F74FCF60817181072E000C880B990B74
:101B60000E5F1F4F92CFD32CE894D4F82AE030E0D8
:101B7000853739F1232D297FD22E8F3601F148F494
:101B80008835A9F0F701868197812B96E2E10C94C4
:101B90006610803749F08837A9F7D4FE02C06894F0
:101BA000D2F820E130E00DC06894D4F8F6CF34FECE
:101BB00003C0822F8660D82E20E132E002C028E0E8
:101BC00030E0F801D7FE0FC060817181828193817E
:101BD0000C5F1F4FA5010E94BA0FC82ECA183D2CDA
:101BE000E89437F867CF6081718190E080E00E5F04
:101BF0001F4FF0CF42FC02C0839478CF839483942C
:101C000075CF842D867809F471CFF6CFB70180E2C5
:101C100090E00E948A0F83948214C0F3512C73CFFA
:101C2000522C5818821408F46ECFF8CF842D867881
:101C300009F47BCF8BE241FE80E247FC8DE2B701E5
:101C400090E071CFB70180E390E00E948A0F9A94F0
:101C50006CCF8FEF9FEF99CF0F931F93CF93DF93AD
:101C6000869F8001879F100D969F100D1124C8013B
:101C70000E94480EEC01009729F0A80170E060E096
:101C80000E94780FCE01DF91CF911F910F9108959F
:101C90000F931F93CF93DF938230910510F482E06E
:101CA00090E0E091CF04F091D00430E020E0B0E08B
:101CB000A0E0309799F42115310509F44AC0281B9A
:101CC000390B24303105D8F58A819B816115710566
:101CD00089F1FB0193838283FE0111C04081518110
:101CE0000281138148175907E0F04817590799F402
:101CF000109761F012960C93129713961C933296DC
:101D0000CF01DF91CF911F910F9108950093CF04E0
:101D10001093D004F4CF2115310551F04217530729
:101D200038F0A901DB019A01BD01DF01F801C1CF43
:101D3000EF01F9CF9093D0048093CF04CDCFFE0173
:101D4000E20FF31F81939193225031093983288345
:101D5000D7CF2091CD043091CE04232B41F4209194
:101D60000801309109013093CE042093CD042091D5
:101D70000601309107012115310541F42DB73EB719
:101D800040910A0150910B01241B350BE091CD04C9
:101D9000F091CE04E217F307A0F42E1B3F0B281797
:101DA000390778F0AC014E5F5F4F2417350748F0D4
:101DB0004E0F5F1F5093CE044093CD0481939193B7
:101DC0009FCFF0E0E0E09CCFCF93DF930097E9F066
:101DD000FC01329713821282A091CF04B091D004FB
:101DE000ED0130E020E01097A1F420813181820FD5
:101DF000931F2091CD043091CE042817390709F0A4
:101E000061C0F093CE04E093CD04DF91CF910895AB
:101E1000EA01CE17DF07E8F54A815B819E01411593
:101E20005105B1F7E901FB83EA8349915991C40F48
:101E3000D51FEC17FD0761F4808191810296840F14
:101E4000951FE90199838883828193819B838A838B
:101E5000F0E0E0E012968D919C9113970097B9F510
:101E60002D913C911197CD010296820F931F2091E5
:101E7000CD043091CE042817390739F6309751F543
:101E80001092D0041092CF04B093CE04A093CD044E
:101E9000BCCFD383C28340815181840F951FC81763
:101EA000D90761F44E5F5F4F88819981480F591FB0
:101EB000518340838A819B819383828321153105DD
:101EC00009F0B0CFF093D004E093CF049ECFFD0192
:101ED000DC01C0CF13821282D7CFFC010590615084
:101EE00070400110D8F7809590958E0F9F1F089530
:101EF000DC0101C06D9341505040E0F70895FC01B2
:101F00006150704001900110D8F7809590958E0F28
:101F10009F1F08950F931F93CF93DF93182F092FBF
:101F2000EB018B8181FD09C01FEF0FEF812F902FF7
:101F3000DF91CF911F910F91089582FF14C02E81E0
:101F40003F818C819D81281739073CF4E881F98114
:101F5000CF0101969983888310838E819F8101969A
:101F60009F838E83E3CFE885F985812F0995892B9F
:101F7000A1F3DACFFA01AA27283051F1203181F1FB
:101F8000E8946F936E7F6E5F7F4F8F4F9F4FAF4F81
:101F9000B1E03ED0B4E03CD0670F781F891F9A1F94
:101FA000A11D680F791F8A1F911DA11D6A0F711D48
:101FB000811D911DA11D20D009F468943F912AE054
:101FC000269F11243019305D3193DEF6CF0108953C
:101FD000462F4770405D4193B3E00FD0C9F7F6CF6D
:101FE000462F4F70405D4A3318F0495D31FD405235
:101FF000419302D0A9F7EACFB4E0A69597958795CB
:1020000077956795BA95C9F70097610571050895A9
:102010009B01AC010A2E0694579547953795279555
:10202000BA95C9F7620F731F841F951FA01D0895ED
:10203000052E97FB1EF400940E942F1057FD07D029
:102040000E94230B07FC03D04EF40C942F105095E4
:102050004095309521953F4F4F4F5F4F0895909594
:102060008095709561957F4F8F4F9F4F08950E9487
:102070008110A59F900DB49F900DA49F800D911D80
:1020800011240895B7FF0C9437100E943710821B5B
:10209000930B08952F923F924F925F926F927F928F
:1020A0008F929F92AF92BF92CF92DF92EF92FF9268
:1020B0000F931F93CF93DF93CDB7DEB7CA1BDB0B14
:1020C0000FB6F894DEBF0FBECDBF09942A883988B9
:1020D00048885F846E847D848C849B84AA84B984C0
:1020E000C884DF80EE80FD800C811B81AA81B981CC
:1020F000CE0FD11D0FB6F894DEBF0FBECDBFED01E0
:102100000895A29FB001B39FC001A39F700D811DD0
:102110001124911DB29F700D811D1124911D0895F0
:04212000F894FFCF61
:102124000018010000000000D10420005374617203
:1021340074696E67204C6174636820746573742ECF
:102144002E2E0A0D00554152542072656164792186
:10215400205479706520736F6D657468696E673A91
:102164000A0D00596F752074797065643A202563EF
:102174000A0D0041444320746573742073746172C2
:10218400740D0058203D253375202059203D2533FA
:10219400752020534C49444552203D253375202059
:1021A40043483320282F29203D2533750D0A004A42
:1021B4006F79737469636B207465737420737461CD
:1021C40072740D00536C69646572207465737420B5
:1021D40073746172740D0048454C4C4F20574F5234
:1021E4004C44004C696E652032206166746572202F
:1021F400636C65617200526563656976656420632A
:102204006861723A2025630A00547279696E672006
:10221400746F207772697465206120746F6F206217
:102224006967206164647265737300547279696EBE
:102234006720746F2072656164206120746F6F2061
:1022440062696720616464726573730053746172B8
:1022540074696E67205352414D20746573742E2E39
:102264002E00577269746520706861736520657209
:10227400726F723A206578745F72616D5B253464A5
:102284005D203D2025303258202873686F756C64BA
:102294002062652025303258290A0052657472691B
:1022A4006576616C207068617365206572726F7207
:1022B4003A206578745F72616D5B2534645D203DFE
:1022C4002025303258202873686F756C642062654D
:1022D4002025303258290A005352414D2074657329
:1022E4007420636F6D706C657465642077697468BD
:1022F400200A253464206572726F727320696E201F
:10230400777269746520706861736520616E6420FA
:102314000A253464206572726F727320696E2072AC
:10232400657472696576616C2070686173650A0A08
:10233400005374617274696E67205352414D207466
:1023440065737420287772617070657273292E2EFC
:102354002E00577269746520706861736520657218
:10236400726F723A206578745F72616D5B253475A3
:102374005D203D2025303258202873686F756C64C9
:102384002062652025303258290A0052657472692A
:102394006576616C207068617365206572726F7216
:1023A4003A206578745F72616D5B2534755D203DFC
:1023B4002025303258202873686F756C642062655C
:1023C4002025303258290A005352414D2074657338
:1023D400743220636F6D706C657465642077697402
:1023E40068200A253475206572726F727320696ED5
:1023F4002077726974652070686173652C200A25E2
:102404003475206572726F727320696E2072657400
:1024140072696576616C2070686173652C200A2589
:10242400347520777261707065722041504920655F
:1024340072726F72730A0A0054657374696E67204E
:102444006D656D6F727920726567696F6E204144A6
:102454004300414443207465737420646F6E6500C7
:1024640054657374696E67206D656D6F727920723F
:102474006567696F6E205352414D005352414D20A0
:102484007465737420646F6E650041444320627503
:1024940073792074696D656F7574207761697469E7
:1024A4006E6720666F72204C4F5700414443206290
:1024B4007573792074696D656F75742077616974BB
:0E24C400696E6720666F722048494748000025
:00000001FF
