:100000000C9433010C9450010C9450010C94500149
:100010000C9450010C9450010C9450010C9450011C
:100020000C9450010C9450010C9450010C9450010C
:100030000C9450010C9450010C9450010C945001FC
:100040000C9450010C9450010C9450010C945001EC
:100050000C9450010C9450010C9450010C945001DC
:100060000C9450010C9450010C9450010C945001CC
:1000700058303A2028256429207C2059303A2028FD
:100080002564290D0A00583A202564202825642576
:100090002529207C20593A202564202825642525FF
:1000A00029207C204469723A2025530D0A004E45D0
:1000B000555452414C005249474854004C4546540F
:1000C00000444F574E0055500058303A20282564C0
:1000D000290D0A00536C6964657220583A20256422
:1000E000202825642525290D0A0000000000005C59
:1000F00000000C000C007C287C2858DC68002410D0
:10010000480028542840000C0000007884008478BF
:10011000000054385400107C100080400000101083
:1001200010000040000060100C0038543800487C7B
:1001300040004864580044542C001C107C005C545F
:1001400024003854240064140C0068542C004854D3
:10015000380000480000804800001028440028288B
:100160002800442810000454080038445C00781427
:1001700078007C542800384428007C4438007C54A3
:1001800044007C140400384474007C107C00447CDF
:10019000440020403C007C106C007C4040007C18F7
:1001A0007C0078103C00384438007C140800384447
:1001B000B8007C14680048542400047C04007C408F
:1001C0007C003C603C007C307C006C106C000C704F
:1001D0000C0064544C00007C44000C106000447C13
:1001E00000000804080080808000000408003048F7
:1001F00078007C4830003048480030487C00306847
:1002000050001078140090A878007C08700050749A
:100210004000808074007C106800447C40007810AE
:1002200078007808700030483000F8281000304816
:10023000F8007810080050582800083C4800384062
:10024000780038403800782078004830480098A07E
:1002500078004868580010788400007C000084789A
:1002600010000804080411241FBECFEFD4E0DEBF45
:10027000CDBF12E0A0E0B1E0E6E0F4E202C00590FC
:100280000D92A239B107D9F722E0A2E9B2E001C08C
:100290001D92A13CB207E1F70E94E4010C94011207
:1002A0000C940000399A00C000C00000399800C0CA
:1002B00000C0000008958FEF8ABB319A1BBA3998AD
:1002C000C0E0CBBB0E9452012FEF8FEF92E0215094
:1002D00080409040E1F700C000C0CF5FF2CF0E94A5
:1002E0004702FDCFC0ECD1E00E94F702FC01828101
:1002F0001F928F9381811F928F9380811F928F9382
:10030000DF93CF930E94650D9FEF2FEF82E0915016
:1003100020408040E1F700C000C08DB79EB708962E
:100320000FB6F8949EBF0FBE8DBFDECF0E9476033E
:100330000E945F030E94B2030E9419032FEF8FEF08
:1003400092E0215080409040E1F700C000C0F2CF21
:100350000E94B5040E94A4040E94BF040E948D0460
:100360002FEF8FEF92E0215080409040E1F700C0E6
:1003700000C0F2CF2FEF8FEF9DE1215080409040E1
:10038000E1F700C000000E9498058CED91E00E940A
:100390007E062FEF8FEF9DE1215080409040E1F7E6
:1003A00000C0000060E083E00E94E40588EE91E078
:1003B0000E947E062FEF8FEF9DE1215080409040FC
:1003C000E1F700C00000089520E835E240E050E089
:1003D00060E070E08BE490E00E94F7010E9451021F
:1003E0000E94D7020E94A90A90E080E00895220F9F
:1003F000331F441F551F220F331F441F551F220F49
:10040000331F441F551F220F331F441F551F0E94C7
:100410008D0C2150310930BD29B91BB88EE880BD43
:10042000549A539A6BE472E08DE192E00E941A0DA7
:1004300008955D9BFECF8CB90895CF93C82F8A3065
:1004400039F08C2F0E94190290E080E0CF9108953E
:100450008DE00E941902F5CFCF93DF93EC01892B39
:1004600049F08881882331F021960E9419028991F0
:100470008111FBCFDF91CF9108958BB1082E000C35
:10048000990B892F881F8827881F90E008955F9B0C
:10049000FECF8CB108950E944702082E000C990BE4
:1004A000089585B7806885BF80B7806280BF089552
:1004B000811528E0920758F4209100013091010144
:1004C000820F931FFC01608390E080E0089581E03B
:1004D00090E00895811528E0920748F420910001EA
:1004E00030910101820F931FFC018081089581E00A
:1004F00008950F931F93CF93DF930E940A0D8C01F1
:100500000E940F0DD0E0C0E00E940A0DE0910001B2
:10051000F0910101EC0FFD1F8083E0910001F0914B
:100520000101EC0FFD1F80812196C11588E0D807DD
:1005300059F7C8010E940F0DD0E0C0E00E940A0DDB
:10054000E0910001F0910101EC0FFD1F80812196E7
:10055000C11588E0D80791F7DF91CF911F910F91D6
:100560000895E0E0F0E185EA8083A7E9BAE3119716
:10057000F1F700C00000B096E115B8E1FB07A1F764
:1005800085EA8083A7E9BAE31197F1F700C000007C
:10059000B096E115B0E2FB07A1F72FE58AEE90E0F7
:1005A000215080409040E1F700C0000008958D9AEE
:1005B0008FB58F778FBD8FB580648FBD8EB58F7EE1
:1005C0008EBD8EB588608EBD8FB58D7F8FBD8FB58A
:1005D0008E7F8FBD1BBC1ABC8EB58B7F8EBD8EB53A
:1005E0008D7F8EBD8EB581608EBD8C9808951092E2
:1005F0000010849B08C0000089E090E0849B03C049
:1006000000000197D9F7849908C0000081E390E0C9
:10061000849903C000000197D9F7A0E0B0E18C9164
:10062000E2E9F2E080838C9181838C918283CF0117
:1006300008958091AB029091AC02A6ECB0E0892BBA
:10064000C1F08091AB029091AC02A1ECB0E00197B7
:1006500081F08091AB029091AC02ACEBB0E00297DC
:1006600041F08091AB029091AC02AEEAB0E003970A
:1006700019F1EFE9F2E062857385468157812085A3
:10068000318584819581BF93AF937F936F935F93FF
:100690004F933F932F939F938F9386E890E09F9380
:1006A0008F930E947B0D8DB79EB70C960FB6F89472
:1006B0009EBF0FBE8DBF0895A6EBB0E0DACFEFE985
:1006C000F2E022813381808191813F932F939F9328
:1006D0008F9380E790E09F938F930E947B0D0F9004
:1006E0000F900F900F900F900F900895EF92FF9240
:1006F0000F931F93CF938BEF91E00E94A70DCAE059
:1007000010E000E0F12CE12C0E94F702FC012081B6
:10071000E20EF11C8181080F111DC150A9F78B98C1
:100720009701ADECBCEC0E94AF0C96958795969521
:100730008795969587959927EFE9F2E091838083D5
:1007400098010E94AF0C96958795969587959695FA
:100750008795992793838283CF911F910F91FF9063
:10076000EF9008950F931F93CF93DF930E94F702AA
:10077000FC012081022F10E08181C82FD0E00E946F
:10078000F702FC012081200F312F311D369527956E
:1007900081818C0F9D2F911D96958795C82F40B311
:1007A00043FB442740F951E04527AFE9B2E01E96EC
:1007B0004C931E97A901552715965C934E93149759
:1007C000FC01FF271796FC93EE9316978D919C9151
:1007D000281708F45BC0992767EF70E0681B790B56
:1007E00009F468C0481B590B24E6249FC001259FCB
:1007F000900D11240E94790CAFE9B2E019967C9318
:100800006E93189712968D919C91C81708F458C052
:10081000992769EF70E0681B790B09F465C0E81B44
:10082000F90B24E62E9FC0012F9F900D11240E94EA
:10083000790CEFE9F2E07387628722853385808542
:100840009185A90133230CF455C08531910524F01D
:10085000841795070CF053C08C3EFFEF9F073CF4C4
:10086000919581959109841795070CF053C090E0FC
:1008700080E0253131050CF044C084E090E02C3E4E
:100880003F4F0CF03EC081E090E03BC09927BC0197
:100890006454710991F0841B950B44E6489F9001C4
:1008A000499F300D1124C9010E94790C7195619501
:1008B0007109A2CF70E060E09FCF70E060E09CCF54
:1008C0009927BC016154710991F08E1B9F0B44E67E
:1008D000489F9001499F300D1124C9010E94790C55
:1008E000719561957109A5CF70E060E0A2CF70E0CD
:1008F00060E09FCF44275527421B530BA6CF83E0D0
:1009000090E09093AC028093AB02DF91CF911F9166
:100910000F91089582E090E0F4CFEEEAF2E02481B6
:100920003581828193813F932F939F938F9384EDA1
:1009300090E09F938F930E947B0D0F900F900F90EC
:100940000F900F900F9008958091AE029091AF029A
:100950009F938F9389EC90E09F938F930E947B0DE0
:100960000F900F900F900F9008950E94F702FC01D6
:10097000828190E09093AF028093AE0208950E942E
:10098000F702FC014281242F30E0EEEAF2E03383EB
:10099000228380819181481788F099276FEF70E05A
:1009A000681B790B19F1281B390B44E6429FC001E3
:1009B000439F900D11240E94790C13C09927682F32
:1009C000792F0097B1F0821B930B44E6489F90016A
:1009D000499F300D1124C9010E94790C71956195D0
:1009E00071097093B3026093B202089570E060E001
:1009F000F8CF70E060E0F5CF87B3806B87BBBE981F
:100A00008A9AB89AB99AC09AC19AC49A82E58DB95D
:100A10000895892B11F0C1980895C0980895892BE5
:100A200011F0C19A0895C09A08958FB9779BFECFAF
:100A30008FB108950E94150508958FEF0E94150546
:100A400008950F931F93CF93DF936115710551F0B4
:100A50008C01EC01060F171F89910E941505C01724
:100A6000D107D1F7DF91CF911F910F9108950F9387
:100A70001F93CF93DF936115710559F08C01EC0141
:100A8000060F171F8FEF0E9415058993C017D10716
:100A9000C9F7DF91CF911F910F910895CF93C82F80
:100AA00090E080E00E94090592988C2F0E94150525
:100AB00090E080E00E940F05CF910895CF93DF93DF
:100AC000D82FC62F90E080E00E94090592988D2FC4
:100AD0000E9415058C2F0E94150590E080E00E9471
:100AE0000F05DF91CF910895EF92FF920F931F931F
:100AF000CF93DF938C017B0190E080E00E94090599
:100B0000929AE114F10449F0E8010E0D1F1D89913C
:100B10000E941505C017D107D1F790E080E00E9430
:100B20000F05DF91CF911F910F91FF90EF900895E6
:100B3000CF93DF93D0E013C08FEF0E941505CF5FF6
:100B4000C03831F0C0FFF8CF8FEF0E941505F7CF06
:100B500090E080E00E940F05DF5FD830D9F090E090
:100B600080E00E94090592988D2F8770806B0E940B
:100B7000150580E00E94150580E10E94150590E0B2
:100B800080E00E940F0590E080E00E940905929AA3
:100B9000C0E0D8CFDF91CF910895109296021092C5
:100BA000950290E080E00E940905929880EB0E94F7
:100BB000150580E00E94150580E10E94150590E072
:100BC00080E00E940F050895CF93DF93C62FD82FA2
:100BD000883008F0D7E0CC23FCF0D0939602C09385
:100BE000950290E080E00E94090592988D2F877011
:100BF000806B0E9415058C2F8F700E9415058C2F1D
:100C000082958F7080610E94150590E080E00E94BF
:100C10000F05DF91CF910895CFE7DFCF10929502B6
:100C200080919602873020F48F5F8093960208951A
:100C300080E0FBCF0F931F93CF93DF93C82F8A30B1
:100C400009F453C08D3009F453C080EE8C0F8F35FA
:100C500008F0C0E2809195028C3708F04CC0D0912A
:100C600095021091960290E080E00E94090592980A
:100C7000812F8770806B0E9415058D2F8F700E94C9
:100C800015058D2F82958F7080610E94150590E06B
:100C900080E00E940F0590E080E00E940905929A92
:100CA000C052D0E0CC0FDD1FCC0FDD1F8E010651EE
:100CB0001F4FC251DF4FF80184910E9415050F5F4D
:100CC0001F4F0C171D07B9F780E00E94150590E033
:100CD00080E00E940F05809195028B5F80939502C2
:100CE000DF91CF911F910F9108950E940E06F8CFCA
:100CF00010929502F5CF0E940E06B1CFCF93DF93ED
:100D0000EC018881882331F021960E941A0689918E
:100D10008111FBCFDF91CF910895CF93DF9388307E
:100D200018F0DF91CF910895D82F90E080E00E94D5
:100D3000090592988D2F8770806B0E94150580E0C1
:100D40000E94150580E10E941505929AC0E080E09E
:100D50000E941505CF5FC038D1F790E080E00E9477
:100D60000F05D093960210929502DBCFCF93DF93BD
:100D700090E080E00E940905D0E092988D2F877066
:100D8000806B0E94150580E00E94150580E10E949D
:100D90001505929AC0E080E00E941505CF5FC0382B
:100DA000D1F7DF5FD83049F790E080E00E940F056F
:100DB0000E94CD05DF91CF91089583EC99E00197D2
:100DC000F1F700C000008EEA0E944E0581EA0E9401
:100DD0004E0562E18AED0E945E0588EC0E944E0598
:100DE0006FE388EA0E945E0560E885ED0E945E057B
:100DF0006FEF81E80E945E0561EF89ED0E945E055C
:100E000062E080E20E945E0564E38BED0E945E0575
:100E100060E08DEA0E945E0584EA0E944E0586EA43
:100E20000E944E058FEA0E944E0587EA91E60197DF
:100E3000F1F700C000000E94B6060E94CD0508959B
:100E4000BF92CF92DF92EF92FF920F931F93CF93B7
:100E5000DF9300D01F92CDB7DEB77C01FC01228169
:100E60002770F9F410E00FEFF7016181610F8081C5
:100E70000B830E94E40561E070E0CE0103960E94BE
:100E800074051F5F183081F70F900F900F90DF915E
:100E9000CF911F910F91FF90EF90DF90CF90BF9077
:100EA00008958FEF90E0B82E022E01C0BB0C0A947B
:100EB000EAF748E050E0421B510902C09695879539
:100EC0004A95E2F7C82E00E0F7011181100FD0809B
:100ED000BA82C982612F8D2D0E94E40561E070E025
:100EE000CE0102960E947405612F81E08D0D0E9453
:100EF000E40561E070E0CE0101960E9474050F5F89
:100F0000083011F7C1CFCF93DF93CDB7DEB7299764
:100F10000FB6F894DEBF0FBECDBF0E94FC040E9446
:100F2000DD060E9476030E9498052FE33DE083E0F2
:100F3000215030408040E1F700C000000E94B6061A
:100F400019821A821B82CE0101960E9420070F2E61
:100F5000FFE9EF2EF2E0FF2EF02DCC24CA94D12C25
:100F60006894AA24A3F8B12C99249A940F2EF6E041
:100F70006F2EF02D0F2EF7E07F2EF02D0F2EF8E7BD
:100F80008F2EF02DC0C0273081F081E0820F8B833F
:100F90008A81893708F08A828B8181117AC0998190
:100FA000983008F47AC0798278C0073008F0C6C05B
:100FB0001B8281E0800F8983193768F78B81EFCF1F
:100FC0008FEF820F8B83E4CF8230910541F003973E
:100FD000F9F61837E8F681E0810F8A83D9CF11231B
:100FE000D9F28FEF810F8A83D3CF28135DC085C0DC
:100FF0006894442443F8410E55245394500E1F82A4
:101000001E82612F802F0E94E40561E070E0CE0116
:1010100007960E947405612F852D0E94E40561E00A
:1010200070E0CE0106960E9474051F5F1411E7CF91
:1010300050C04C2C082E01C0440C0A94EAF79501CC
:10104000281B3109F60102C0F695E7952A95E2F7CB
:101050003E2E00E01A81100F59804D823C82612F94
:10106000852D0E94E40561E070E0CE0105960E94A6
:101070007405612F81E0850D0E94E40561E070E058
:10108000CE0104960E9474050F5F083019F735C031
:101090008B819981973008F069829981901304C0FF
:1010A0009A81911709F4A1CF277009F0A1CF689414
:1010B000552453F8510E1886612F802F0E94E405A5
:1010C00061E070E0CE0108960E9474051F5F151163
:1010D000F2CF8B81877009F0ACCF10E06A81610F8D
:1010E000898199860E94E40561E070E0CE0109964D
:1010F0000E9474051F5F183089F783EC99E001970F
:10110000F1F700C000000E94B203F70184859585C5
:101110008430910591F309811A812B8181309105E9
:1011200009F431CF009709F04FCF211149CF0023A7
:1011300009F442CF7B828FEF800F8983193708F043
:101140002ACFA6CFCF93DF9300D01F92CDB7DEB7C3
:1011500083E0898398E29A838B83CE0101960E9473
:1011600020078FE493EC0197F1F700C00000F9CF5E
:1011700082E091E090939E0280939D0210929702EC
:101180001092B5011092B4010E94B6060895EF9234
:10119000FF920F931F93CF93DF937C010E94B606BB
:1011A000D7018C91882321F110E000E0D0E0C0E06D
:1011B00009C02196075E1F4FD7018C918C171D0621
:1011C000B9F0B4F0D7011196ED91FC91E00FF11F49
:1011D0008081882371F368E08C2F0E94E405F70179
:1011E00081819281800F911F01960E947E06E1CF3E
:1011F00060E0809197020E94E4058EE30E941A0647
:10120000DF91CF911F910F91FF90EF900895809102
:10121000980290919902009789F090939E02809392
:101220009D0210929902109298021092970280915A
:101230009D0290919E020E94C708089582E091E06D
:1012400090939E0280939D02F0CF0F931F93CF93B4
:10125000DF930E94B60660E082E00E94E40581E12F
:1012600092E00E947E06C5EBD2E006EB12E028C0B9
:101270008DE392E00E947E0686C085E492E00E94A3
:101280007E0684C08CE492E00E947E0682C085E5E2
:1012900092E00E947E0681C08EE592E00E947E066A
:1012A00080C08091B40288230CF488C08091B4027D
:1012B00080FD8DC0E3ECF9E03197F1F700C000004C
:1012C00060E083E00E94E4058FE292E00E947E06E7
:1012D00084EB92E00E94170B882361F39091B40293
:1012E000892F817091FB222720F9822B92FB2227E4
:1012F00020F9822B93FB222720F9822B94FB2227B3
:1013000020F9822B95FB222720F9822B96FB22279E
:1013100020F9822B97FB992790F9892B9881292F07
:101320002170822B91FB222720F9822B92FB22270E
:1013300020F9822B93FB222720F9822B94FB222772
:1013400020F9822B95FB222720F9822B96FB22275E
:1013500020F9822B97FB992790F9892BF80190812E
:10136000292F2170822B96959170892B09F4A2CF99
:1013700083E00E948D068FE292E00E947E06F801D3
:10138000808181FD75CF888185FD77CF888186FD3D
:1013900079CF888188230CF47ACFF801808180FD91
:1013A0007BCF8091B40286FF7CCF88E692E00E94DA
:1013B0007E0661E080E00E94CC0B73CF8BE692E06A
:1013C0000E947E0660E080E00E94CC0B6FCF83EC31
:1013D00099E00197F1F700C0000080919D02909183
:1013E0009E020E94C708DF91CF911F910F9108952F
:1013F00020919D0230919E02309399022093980291
:10140000EAE9F2E09283818383E08083F0939E0295
:10141000E0939D0210929702CF010E94C7080895A1
:10142000CF93DF93EC010E94B6066AE083E00E944E
:10143000E4058EE692E00E947E066AE084E00E9467
:10144000E405CE0101960E947E062FE38DE093E035
:10145000215080409040E1F700C0000080919D0243
:1014600090919E020E94C708DF91CF9108958091CC
:101470009702811101C00895815080939702809155
:101480009D0290919E020E94C708F5CF909197020D
:10149000E0919D02F0919E0220812150330B921722
:1014A00013060CF008959F5F90939702CF010E945E
:1014B000C708F8CFE0919D02F0919E0280919702BB
:1014C000A181B28199E1899FA00DB11D112455968A
:1014D0008D919C915697009741F45796ED91FC9110
:1014E0005897309729F0099508950E94F8090895B2
:1014F000CD010E94100A0895CF93DF930E94B2039A
:101500008091AB029091AC02009779F0019781F045
:101510008091AD0281110FC08FE295E70197F1F73D
:1015200000C00000DF91CF9108950E94370AF0CFEC
:101530000E94460AEDCF0E945A0A8091AD0288238C
:1015400059F3CFE9D2E00E94B2038E858111FBCF1F
:10155000E3CF0E94FC040E94DD060E94EA0A609329
:10156000B4027093B5028093B6020E94760382E0C3
:1015700091E090939E0280939D02109297020E94A8
:10158000C7088091B4019091B501892B41F00E9468
:101590007C0A8091B4019091B501892BC1F708951F
:1015A0000E94B6066AE083E00E94E40588E792E0C4
:1015B0000E947E062FEF80E792E02150804090400D
:1015C000E1F700C0000080919D0290919E020E9470
:1015D000C708089581E090E00E940F0560E070E088
:1015E00080E00895CF93DF930097F9F0EC0181E05C
:1015F00090E00E94090584E00E941A058DE08A951A
:10160000F1F700000E941D05888300C00E941D059F
:10161000898300C00E941D058A8381E090E00E94BA
:101620000F0581E0DF91CF91089580E0FBCF0F930C
:101630001F93CF93DF9300D01F92CDB7DEB70097F3
:1016400009F4A1C08C01CE0101960E94F20A882300
:1016500009F49AC069814A815B81262F30E0F80144
:10166000908160FB90F9B9017595679560FB91F9E0
:10167000B901759567957595679560FB92F9B90104
:1016800075956795759567957595679560FB93F961
:10169000B901759567957595679575956795759574
:1016A000679560FB94F93595279535952795359580
:1016B0002795359527953595279520FB95F9242F66
:1016C00030E040FB96F9B9017595679560FB97F995
:1016D0009083B9017595679575956795918160FBC4
:1016E00090F9B901759567957595679575956795A5
:1016F00060FB91F9B9017595679575956795759535
:1017000067957595679560FB92F9B9017595679531
:1017100075956795759567957595679575956795B1
:1017200060FB93F9022E232F000C221F330B000CB9
:10173000221F331F20FB94F9252F30E0428150FBFC
:1017400041F9B9017595679560FB40F94283A9019C
:10175000559547955595479540FB97F9A90155959E
:101760004795559547955595479540FB96F935957D
:10177000279535952795359527953595279520FB00
:1017800095F9918301C080E00F900F900F90DF9149
:10179000CF911F910F910895CF93DF93863020F062
:1017A00080E0DF91CF910895D62FC82F81E090E09F
:1017B0000E94090585E00E941A058C2F0E941A05D7
:1017C0008D2F0E941A0581E090E00E940F0581E0B4
:1017D000E8CFCF93DF93863020F080E0DF91CF9188
:1017E0000895D62FC82F81E090E00E94090586E079
:1017F0000E941A058C2F0E941A058D2F0E941A052F
:1018000081E090E00E940F0581E0E8CFCF92DF9267
:10181000EF92FF920F931F93CF93DF93CDB7DEB775
:10182000A3970FB6F894DEBF0FBECDBF81E090E066
:101830000E94090587E00E941A058DE08A95F1F75C
:1018400000000E941D0589838E010E5F1F4FFE015F
:1018500031967F016E01F4E2CF0ED11C00C00E94D0
:101860001D05F80181938F01EC15FD05B9F781E0A5
:1018700090E00E940F0586E892E09F938F930E946C
:10188000650D6701F3E1CF0ED11C0F900F90F701AA
:1018900081917F0190E00E94A00DEC14FD04B9F746
:1018A0008BE892E09F938F930E94650D7E01F4E197
:1018B000EF0EF11C0F900F90F70181917F0190E0E6
:1018C0000E94A00DE016F106B9F78FE092E00E94A9
:1018D000A70D81E0A3960FB6F894DEBF0FBECDBF73
:1018E000DF91CF911F910F91FF90EF90DF90CF90FC
:1018F0000895AA1BBB1B51E107C0AA1FBB1FA61757
:10190000B70710F0A61BB70B881F991F5A95A9F7A8
:1019100080959095BC01CD010895A1E21A2EAA1BD5
:10192000BB1BFD010DC0AA1FBB1FEE1FFF1FA2178F
:10193000B307E407F50720F0A21BB30BE40BF50B8C
:10194000661F771F881F991F1A9469F76095709515
:10195000809590959B01AC01BD01CF010895A29F98
:10196000B001B39FC001A39F700D811D1124911D73
:10197000B29F700D811D1124911D08958F929F9229
:10198000AF92BF92CF92DF92EF92FF92CF93DF930D
:10199000EC01688179818A819B81611571058105DE
:1019A000910521F464E279ED8BE597E02DE133EFC9
:1019B00041E050E00E94981149015A019B01AC019D
:1019C000A7EAB1E40E94B7116B017C01ACEEB4EF61
:1019D000A50194010E94C511DC01CB018C0D9D1D58
:1019E000AE1DBF1DB7FF03C00197A109B048888392
:1019F0009983AA83BB839F77DF91CF91FF90EF906C
:101A0000DF90CF90BF90AF909F908F9008950E94ED
:101A1000BE0C089586EB91E00E94BE0C0895B0E0E4
:101A2000A0E08093B6019093B701A093B801B09362
:101A3000B90108950F931F93CF93DF93009759F443
:101A40006115710541F4F0E0E0E0CF01DF91CF9145
:101A50001F910F9108958B01EC016EE070E081E021
:101A600090E00E94AC0FFC01892B69F380E883832E
:101A70000115110571F01387028781E88383809136
:101A8000B7029091B802892B21F4F093B802E09349
:101A9000B7022097D1F2D187C08783818260838388
:101AA0008091B9029091BA02892B79F6F093BA022B
:101AB000E093B9028091BB029091BC02892B29F678
:101AC000F093BC02E093BB02C0CFB0E0A0E0EBE635
:101AD000FDE00C94DA11AE014B5F5F4FFA016191AA
:101AE0007191AF018091B9029091BA020E94D20D1A
:101AF000E2E00C94F611B0E0A0E0E1E8FDE00C9427
:101B0000D811AE01495F5F4FDA016D917D91AD0152
:101B100007EB12E0F80182819381DC0113962C918E
:101B20001397286013962C930E94D20DD801129619
:101B3000ED91FC912381277F2383E4E00C94F41141
:101B40006091B9027091BA020E940A1108950F9330
:101B50001F93CF93DF93E091B902F091BA022381F2
:101B6000EC0110E000E021FD08C00FEF1FEF14C0F2
:101B70000995892B11F00FEF1FEF89916091B90240
:101B80007091BA02DB011896ED91FC918111F0CFB2
:101B90008AE00995892B49F7C801DF91CF911F9100
:101BA0000F910895ABE0B0E0E8EDFDE00C94CA11B0
:101BB0007C013B018A01FC0117821682838181FF2F
:101BC000C8C1CE0101965C01F7019381F30193FD39
:101BD000859193FF81913F01882309F453C1853298
:101BE00039F493FD859193FF81913F01853229F46A
:101BF000B70190E00E940A11E7CF912C212C312CE3
:101C0000FFE1F31538F08B3211F190F4803209F1D5
:101C1000833229F137FC3CC020ED280F2A3050F5E3
:101C200036FE20C08AE0989E200D1124922E06C018
:101C30008D3291F0803371F7689430F8F30193FDA1
:101C4000859193FF81913F018111DACF21C0689482
:101C500031F8689432F8F2CF689433F8EFCF689493
:101C600034F8ECCFEAE02E9E200D1124222E689449
:101C700035F8E4CF8E3229F436FC04C1689436F886
:101C8000DDCF8C3619F4689437F8D8CF8836B1F2A6
:101C9000982F9F7D95549330E0F08336A1F18337E0
:101CA000C1F1833509F063C02801F2E04F0E511CE9
:101CB000F801C080D180692D70E036FC02C06FEF62
:101CC0007FEFC6010E94ED104C01689437F8820145
:101CD0000AC00C5F1F4FFFE3F98388248394912C83
:101CE0006501E89437F833FE2DC0522C811491041D
:101CF00071F5552009F468CFB70180E290E00E94A9
:101D00000A115A94F6CFF801808189830E5F1F4F24
:101D1000E4CF2801F2E04F0E511CF801C080D180C1
:101D2000692D70E036FC02C06FEF7FEFC6010E94A4
:101D3000FF104C018201D5CFB70180E290E00E94F4
:101D40000A112A942814190409F0B0F7CECFF6012D
:101D500037FC859137FE81916F01B70190E00E94B9
:101D60000A1151105A94F1E08F1A9108BFCF8436AE
:101D700019F0893609F077C0F80137FE6BC0608131
:101D80007181828193810C5F1F4FF32DFF763F2E6F
:101D900097FF09C090958095709561957F4F8F4F03
:101DA0009F4F689437F82AE030E0A5010E943A116D
:101DB000C82ECA188C2C432C36FE0CC0E89440F870
:101DC000C91440F434FE05C032FC03C0F32DFE7E7E
:101DD0004F2E892C44FE95C0FE01EC0DF11D808133
:101DE000803309F087C0242D297E422E842D8870EF
:101DF000582E43FC95C040FE8FC09C2C821418F4D2
:101E00002C0C922C981844FE91C0B70180E390E00E
:101E10000E940A1142FE09C088E790E041FE02C01C
:101E200088E590E0B7010E940A11C91408F48AC03D
:101E3000CA94D12C9FEFC91AD90ACA0CDB1CF6012F
:101E400082916F01B70190E00E940A11AC14BD04A9
:101E5000B1F74FCF60817181072E000C880B990B71
:101E60000E5F1F4F92CFD32CE894D4F82AE030E0D5
:101E7000853739F1232D297FD22E8F3601F148F491
:101E80008835A9F0F701868197812B96E2E10C94C1
:101E9000E611803749F08837A9F7D4FE02C068946C
:101EA000D2F820E130E00DC06894D4F8F6CF34FECB
:101EB00003C0822F8660D82E20E132E002C028E0E5
:101EC00030E0F801D7FE0FC060817181828193817B
:101ED0000C5F1F4FA5010E943A11C82ECA183D2C55
:101EE000E89437F867CF6081718190E080E00E5F01
:101EF0001F4FF0CF42FC02C0839478CF8394839429
:101F000075CF842D867809F471CFF6CFB70180E2C2
:101F100090E00E940A1183948214C0F3512C73CF75
:101F2000522C5818821408F46ECFF8CF842D86787E
:101F300009F47BCF8BE241FE80E247FC8DE2B701E2
:101F400090E071CFB70180E390E00E940A119A946B
:101F50006CCF8FEF9FEF99CF0F931F93CF93DF93AA
:101F6000869F8001879F100D969F100D1124C80138
:101F70000E94C80FEC01009729F0A80170E060E012
:101F80000E94F810CE01DF91CF911F910F9108951B
:101F90000F931F93CF93DF938230910510F482E06B
:101FA00090E0E091BF02F091C00230E020E0B0E0AC
:101FB000A0E0309799F42115310509F44AC0281B97
:101FC000390B24303105D8F58A819B816115710563
:101FD00089F1FB0193838283FE0111C0408151810D
:101FE0000281138148175907E0F04817590799F4FF
:101FF000109761F012960C93129713961C933296D9
:10200000CF01DF91CF911F910F9108950093BF02EF
:102010001093C002F4CF2115310551F04217530738
:1020200038F0A901DB019A01BD01DF01F801C1CF40
:10203000EF01F9CF9093C0028093BF02CDCFFE0194
:10204000E20FF31F81939193225031093983288342
:10205000D7CF2091BD023091BE02232B41F42091B5
:10206000BC013091BD013093BE022093BD0220918E
:10207000BA013091BB012115310541F42DB73EB7AE
:102080004091BE015091BF01241B350BE091BD0270
:10209000F091BE02E217F307A0F42E1B3F0B2817A6
:1020A000390778F0AC014E5F5F4F2417350748F0D1
:1020B0004E0F5F1F5093BE024093BD0281939193D8
:1020C0009FCFF0E0E0E09CCFCF93DF930097E9F063
:1020D000FC01329713821282A091BF02B091C0021C
:1020E000ED0130E020E01097A1F420813181820FD2
:1020F000931F2091BD023091BE022817390709F0C5
:1021000061C0F093BE02E093BD02DF91CF910895CC
:10211000EA01CE17DF07E8F54A815B819E01411590
:102120005105B1F7E901FB83EA8349915991C40F45
:10213000D51FEC17FD0761F4808191810296840F11
:10214000951FE90199838883828193819B838A8388
:10215000F0E0E0E012968D919C9113970097B9F50D
:102160002D913C911197CD010296820F931F2091E2
:10217000BD023091BE022817390739F6309751F564
:102180001092C0021092BF02B093BE02A093BD0293
:10219000BCCFD383C28340815181840F951FC81760
:1021A000D90761F44E5F5F4F88819981480F591FAD
:1021B000518340838A819B819383828321153105DA
:1021C00009F0B0CFF093C002E093BF029ECFFD01B3
:1021D000DC01C0CF13821282D7CFFC010590615081
:1021E00070400110D8F7809590958E0F9F1F08952D
:1021F000DC0101C06D9341505040E0F70895FC01AF
:102200006150704001900110D8F7809590958E0F25
:102210009F1F08950F931F93CF93DF93182F092FBC
:10222000EB018B8181FD09C01FEF0FEF812F902FF4
:10223000DF91CF911F910F91089582FF14C02E81DD
:102240003F818C819D81281739073CF4E881F98111
:10225000CF0101969983888310838E819F81019697
:102260009F838E83E3CFE885F985812F0995892B9C
:10227000A1F3DACFFA01AA27283051F1203181F1F8
:10228000E8946F936E7F6E5F7F4F8F4F9F4FAF4F7E
:10229000B1E03ED0B4E03CD0670F781F891F9A1F91
:1022A000A11D680F791F8A1F911DA11D6A0F711D45
:1022B000811D911DA11D20D009F468943F912AE051
:1022C000269F11243019305D3193DEF6CF01089539
:1022D000462F4770405D4193B3E00FD0C9F7F6CF6A
:1022E000462F4F70405D4A3318F0495D31FD405232
:1022F000419302D0A9F7EACFB4E0A69597958795C8
:1023000077956795BA95C9F70097610571050895A6
:102310009B01AC010A2E0694579547953795279552
:10232000BA95C9F7620F731F841F951FA01D0895EA
:10233000052E97FB1EF400940E94AF1157FD07D0A5
:102340000E948D0C07FC03D04EF40C94AF115095F5
:102350004095309521953F4F4F4F5F4F0895909591
:102360008095709561957F4F8F4F9F4F08950E9484
:10237000AF0CA59F900DB49F900DA49F800D911D53
:1023800011240895B7FF0C94B7110E94B711821B56
:10239000930B08952F923F924F925F926F927F928C
:1023A0008F929F92AF92BF92CF92DF92EF92FF9265
:1023B0000F931F93CF93DF93CDB7DEB7CA1BDB0B11
:1023C0000FB6F894DEBF0FBECDBF09942A883988B6
:1023D00048885F846E847D848C849B84AA84B984BD
:1023E000C884DF80EE80FD800C811B81AA81B981C9
:1023F000CE0FD11D0FB6F894DEBF0FBECDBFED01DD
:062400000895F894FFCFDF
:102406000018040501015374617274000000000095
:1024160000000000000000000000000083070153D8
:10242600657474696E67732026205465737473002F
:10243600000000690100000141626F757400000030
:102446000000000000000000000000000000060C74
:1024560001506F776572204F46460000000000006D
:1024660000000000000000B8080143616C69627258
:10247600617465000000000000000000000000001C
:102486007603015465737420415652000000000023
:102496000000000000000000002509014261636B96
:1024A6000000000000000000000000000000000026
:1024B600000007090100010000000000C102200021
:1024C60058203D253375202059203D253375202081
:1024D600534C49444552203D2533750048454C4CE4
:1024E6004F20574F524C44004C696E652034206192
:1024F6006674657220636C6561720043616C696223
:10250600726174696E67206A6F79737469636B0DA3
:1025160000507265737320616E7920627574746FF2
:102526006E2028523120746F206578697429004C1A
:1025360061737420707265737365643A004E415618
:102546002062746E004E4156207570004E41562032
:10255600646F776E004E4156206C656674004E417E
:1025660056207269676874004C31004C320053651E
:102576006C65637465643A00544553542041435472
:10258600494F4E2E2E0046573A20000D0A534E3A1A
:02259600200023
:00000001FF
