:100000000C9438000C9455000C9455000C94550039
:100010000C9455000C9455000C9455000C9455000C
:100020000C9455000C9455000C9455000C945500FC
:100030000C9455000C9455000C9455000C945500EC
:100040000C9455000C9455000C9455000C945500DC
:100050000C9455000C9455000C9455000C945500CC
:100060000C9455000C9455000C9455000C945500BC
:1000700011241FBECFEFD4E0DEBFCDBF14E0A0E05F
:10008000B1E0E8EBF1E102C005900D92A43DB107AB
:10009000D9F724E0A4EDB4E001C01D92A23FB2075D
:1000A000E1F70E94D3000C94DA080C940000399A0E
:1000B00000C000C00000399800C000C000000895D2
:1000C0008CE091E09F938F930E945B048FEF8ABB3B
:1000D000319A1BBA39980F900F90C0E0CBBB0E94A9
:1000E00057002FEF8FEF92E0215080409040E1F7D2
:1000F00000C000C0CF5FF2CF85E291E09F938F9365
:100100000E945B040F900F90C3E4D1E00E942F0186
:10011000282F082E000C330B3F938F93DF93CF9340
:100120000E945B040F900F900F900F90EFCF83E52C
:1001300091E00E947104C3E6D1E00E941003FC012B
:1001400083811F928F9382811F928F9381811F924F
:100150008F9380811F928F93DF93CF930E945B04D4
:100160009FEF2FEF82E0915020408040E1F700C0E8
:1001700000C08DB79EB70A960FB6F8949EBF0FBE0B
:100180008DBFDBCF0E943C030E94F0020E948303DC
:1001900088E891E00E9471040E943F0380E090EFA4
:1001A0000197F1F7F9CF20E835E240E050E060E058
:1001B00070E08BE490E00E94DF000E947C00220F40
:1001C000331F441F551F220F331F441F551F220F7B
:1001D000331F441F551F220F331F441F551F0E94FA
:1001E00092032150310930BD29B91BB88EE880BD7A
:1001F000549A539A66E471E085E091E00E941004FD
:1002000008955D9BFECF8CB90895CF93C82F8A3097
:1002100039F08C2F0E94010190E080E0CF91089589
:100220008DE00E940101F5CFCF93DF93EC01892B84
:1002300049F08881882331F021960E94010189913B
:100240008111FBCFDF91CF9108958BB1082E000C67
:10025000990B892F881F8827881F90E00895CF93D6
:100260005F9BFECFCCB18C2F0C2E000C990B9F9373
:10027000CF938DE991E09F938F930E945B040F9041
:100280000F900F900F908C2FCF9108950E942F0107
:10029000082E000C990B089585B7806885BF80B73C
:1002A000806280BF0895811528E0920758F420915C
:1002B000000130910101820F931FFC01608390E0E7
:1002C00080E0089580EB91E00E94710481E090E06D
:1002D0000895811528E0920748F42091000130919B
:1002E0000101820F931FFC018081089582ED91E04E
:1002F0000E94710481E00895CF92DF92EF92FF9205
:100300000F931F93CF93DF9383EF91E00E947104CB
:100310000E9400046C010E940504D0E0C0E010E0DF
:1003200000E00F2EF9E0EF2EF2E0FF2EF02D05C0D9
:100330002196C11598E0D90741F10E940004E0918F
:100340000001F0910101EC0FFD1F8083E09100019D
:10035000F0910101EC0FFD1F2081281749F3992727
:100360009F938F931F922F93DF93CF93FF92EF92E0
:100370000E945B040F5F1F4F8DB79EB708960FB6A4
:10038000F8949EBF0FBE8DBFD3CFC6010E94050457
:10039000D0E0C0E0F12CE12C0F2EF2E4CF2EF2E001
:1003A000DF2EF02D05C02196C11598E0D90711F177
:1003B0000E940004E0910001F0910101EC0FFD1F8B
:1003C0002081281781F399279F938F931F922F9352
:1003D000DF93CF93DF92CF920E945B048FEFE81AF6
:1003E000F80A8DB79EB708960FB6F8949EBF0FBE59
:1003F0008DBFD9CFFF92EF921F930F938FE792E0BB
:100400009F938F930E945B040F900F900F900F901B
:100410000F900F90DF91CF911F910F91FF90EF9070
:10042000DF90CF9008958F929F92AF92BF92CF921C
:10043000DF92EF92FF920F931F93CF93DF9388ED9C
:1004400092E00E9471040E9400044C010E94050485
:10045000D0E0C0E0F12CE12CB12CA12C0F2EF9EF53
:10046000CF2EF2E0DF2EF02D0AC0CE010E946901EE
:10047000801312C02196C11598E0D90721F10E947E
:1004800000048C01682FCE010E945301892B69F36F
:100490008FEFE81AF80AEECF11271F930F931F92E0
:1004A0008F93DF93CF93DF92CF920E945B049FEFF5
:1004B000A91AB90A8DB79EB708960FB6F8949EBFD1
:1004C0000FBE8DBFD7CFC4010E940504D0E0C0E0AD
:1004D000D12CC12C0F2EF2E38F2EF3E09F2EF02DA6
:1004E00005C02196C11598E0D907F9F00E940004D3
:1004F0008C01CE010E946901801799F311271F9387
:100500000F931F928F93DF93CF939F928F920E94AE
:100510005B048FEFC81AD80A8DB79EB708960FB63E
:10052000F8949EBF0FBE8DBFDCCFFF92EF92DF929B
:10053000CF92BF92AF928FE693E09F938F930E94EA
:100540005B048DB79EB708960FB6F8949EBF0FBE9A
:100550008DBFDF91CF911F910F91FF90EF90DF90B2
:10056000CF90BF90AF909F908F900895CF93DF93DF
:100570008FED93E00E947104C0E0D0E185EA8883AA
:10058000E7E9FAE33197F1F700C00000A096C11542
:10059000F8E1DF07A1F789EF93E00E94710487E09B
:1005A00094E00E94710485EA8883E7E9FAE33197D1
:1005B000F1F700C00000A096C115F0E2DF07A1F737
:1005C00082E294E00E9471042FE58AEE90E02150CF
:1005D00080409040E1F700C00000DF91CF91089586
:1005E0008D9A8FB58F778FBD8FB580648FBD8EB597
:1005F0008F7E8EBD8EB588608EBD8FB58D7F8FBD91
:100600008FB58E7F8FBD1BBC1ABC8EB58B7F8EBD08
:100610008EB58D7F8EBD8EB581608EBD8C98089510
:1006200010920010849B0CC0000089E090E0849B35
:1006300007C000000197D9F781E394E00E9471049C
:1006400084990CC0000081E390E0849907C0000009
:100650000197D9F782E594E00E947104A0E0B0E12F
:100660008C91E4EDF4E080838C9181838C91828382
:100670008C918383CF0108958B988C980895E8ED31
:10068000F4E077856685848595854AE754E0892B73
:10069000C1F08091E4049091E50444E754E00197AF
:1006A00081F08091E4049091E50440E854E00297E1
:1006B00041F08091E4049091E50446E854E003970A
:1006C000F9F0E8EDF4E022853385808591851F926D
:1006D0007F931F926F935F934F933F932F939F93BB
:1006E0008F9384E994E09F938F930E945B048DB76E
:1006F0009EB70C960FB6F8949EBF0FBE8DBF08959F
:100700004EE854E0DECF0E941003E8EDF4E0DC0197
:100710002C9130E03183208311968C9190E093836B
:1007200082830895A1E21A2EAA1BBB1BFD010DC0F6
:10073000AA1FBB1FEE1FFF1FA217B307E407F50791
:1007400020F0A21BB30BE40BF50B661F771F881F6D
:10075000991F1A9469F760957095809590959B0103
:10076000AC01BD01CF0108958F929F92AF92BF92CD
:10077000CF92DF92EF92FF92CF93DF93EC016881EB
:1007800079818A819B81611571058105910521F42B
:1007900064E279ED8BE597E02DE133EF41E050E045
:1007A0000E94620849015A019B01AC01A7EAB1E429
:1007B0000E9481086B017C01ACEEB4EFA5019401AD
:1007C0000E948F08DC01CB018C0D9D1DAE1DBF1D4D
:1007D000B7FF03C00197A109B04888839983AA8312
:1007E000BB839F77DF91CF91FF90EF90DF90CF9009
:1007F000BF90AF909F908F9008950E94B40308958A
:1008000082E091E00E94B4030895B0E0A0E08093FC
:10081000020190930301A0930401B0930501089590
:100820000F931F93CF93DF93009759F461157105D0
:1008300041F4F0E0E0E0CF01DF91CF911F910F9103
:1008400008958B01EC016EE070E081E090E00E9481
:100850007606FC01892B69F380E883830115110575
:1008600071F01387028781E883838091E804909177
:10087000E904892B21F4F093E904E093E80420973C
:10088000D1F2D187C0878381826083838091EA041B
:100890009091EB04892B79F6F093EB04E093EA0452
:1008A0008091EC049091ED04892B29F6F093ED04EE
:1008B000E093EC04C0CFB0E0A0E0E1E6F4E00C94FB
:1008C000A408AE014B5F5F4FFA0161917191AF01D6
:1008D0008091EA049091EB040E949C04E2E00C9465
:1008E000C0080F931F93CF93DF93E091EA04F09138
:1008F000EB042381EC0110E000E021FD08C00FEFC4
:100900001FEF14C00995892B11F00FEF1FEF89918C
:100910006091EA047091EB04DB011896ED91FC9173
:100920008111F0CF8AE00995892B49F7C801DF9141
:10093000CF911F910F910895ABE0B0E0E2EAF4E0AF
:100940000C9494087C013B018A01FC0117821682F9
:10095000838181FFC8C1CE0101965C01F7019381BB
:10096000F30193FD859193FF81913F01882309F461
:1009700053C1853239F493FD859193FF81913F01F5
:10098000853229F4B70190E00E94D407E7CF912C7B
:10099000212C312CFFE1F31538F08B3211F190F45A
:1009A000803209F1833229F137FC3CC020ED280F59
:1009B0002A3050F536FE20C08AE0989E200D112482
:1009C000922E06C08D3291F0803371F7689430F822
:1009D000F30193FD859193FF81913F018111DACF5E
:1009E00021C0689431F8689432F8F2CF689433F8F3
:1009F000EFCF689434F8ECCFEAE02E9E200D11245E
:100A0000222E689435F8E4CF8E3229F436FC04C1E6
:100A1000689436F8DDCF8C3619F4689437F8D8CF5F
:100A20008836B1F2982F9F7D95549330E0F083364D
:100A3000A1F18337C1F1833509F063C02801F2E0E9
:100A40004F0E511CF801C080D180692D70E036FC3A
:100A500002C06FEF7FEFC6010E94B7074C01689498
:100A600037F882010AC00C5F1F4FFFE3F983882427
:100A70008394912C6501E89437F833FE2DC0522CF5
:100A80008114910471F5552009F468CFB70180E213
:100A900090E00E94D4075A94F6CFF80180818983B0
:100AA0000E5F1F4FE4CF2801F2E04F0E511CF801FA
:100AB000C080D180692D70E036FC02C06FEF7FEFFF
:100AC000C6010E94C9074C018201D5CFB70180E25F
:100AD00090E00E94D4072A942814190409F0B0F772
:100AE000CECFF60137FC859137FE81916F01B701BA
:100AF00090E00E94D40751105A94F1E08F1A9108A7
:100B0000BFCF843619F0893609F077C0F80137FE77
:100B10006BC060817181828193810C5F1F4FF32DC7
:100B2000FF763F2E97FF09C090958095709561954F
:100B30007F4F8F4F9F4F689437F82AE030E0A50130
:100B40000E940408C82ECA188C2C432C36FE0CC0F8
:100B5000E89440F8C91440F434FE05C032FC03C0E8
:100B6000F32DFE7E4F2E892C44FE95C0FE01EC0D28
:100B7000F11D8081803309F087C0242D297E422E0B
:100B8000842D8870582E43FC95C040FE8FC09C2C4D
:100B9000821418F42C0C922C981844FE91C0B701C2
:100BA00080E390E00E94D40742FE09C088E790E00D
:100BB00041FE02C088E590E0B7010E94D407C91445
:100BC00008F48AC0CA94D12C9FEFC91AD90ACA0C5A
:100BD000DB1CF60182916F01B70190E00E94D407FF
:100BE000AC14BD04B1F74FCF60817181072E000CAA
:100BF000880B990B0E5F1F4F92CFD32CE894D4F83B
:100C00002AE030E0853739F1232D297FD22E8F3627
:100C100001F148F48835A9F0F701868197812B9678
:100C2000E2E10C94B008803749F08837A9F7D4FE88
:100C300002C06894D2F820E130E00DC06894D4F886
:100C4000F6CF34FE03C0822F8660D82E20E132E03A
:100C500002C028E030E0F801D7FE0FC0608171814A
:100C6000828193810C5F1F4FA5010E940408C82E4A
:100C7000CA183D2CE89437F867CF6081718190E005
:100C800080E00E5F1F4FF0CF42FC02C0839478CF0C
:100C90008394839475CF842D867809F471CFF6CF31
:100CA000B70180E290E00E94D40783948214C0F3DD
:100CB000512C73CF522C5818821408F46ECFF8CFF1
:100CC000842D867809F47BCF8BE241FE80E247FCDD
:100CD0008DE2B70190E071CFB70180E390E00E9410
:100CE000D4079A946CCF8FEF9FEF99CF0F931F93F8
:100CF000CF93DF93869F8001879F100D969F100DE5
:100D00001124C8010E949206EC01009729F0A80165
:100D100070E060E00E94C207CE01DF91CF911F9189
:100D20000F9108950F931F93CF93DF938230910516
:100D300010F482E090E0E091F004F091F10430E0F2
:100D400020E0B0E0A0E0309799F42115310509F4D6
:100D50004AC0281B390B24303105D8F58A819B8184
:100D60006115710589F1FB0193838283FE0111C036
:100D7000408151810281138148175907E0F04817DB
:100D8000590799F4109761F012960C9312971396E5
:100D90001C933296CF01DF91CF911F910F9108954F
:100DA0000093F0041093F104F4CF2115310551F0B4
:100DB0004217530738F0A901DB019A01BD01DF0199
:100DC000F801C1CFEF01F9CF9093F1048093F004C3
:100DD000CDCFFE01E20FF31F819391932250310991
:100DE00039832883D7CF2091EE043091EF04232B51
:100DF00041F420910801309109013093EF042093D0
:100E0000EE0420910601309107012115310541F4CE
:100E10002DB73EB740910A0150910B01241B350BB1
:100E2000E091EE04F091EF04E217F307A0F42E1B1B
:100E30003F0B2817390778F0AC014E5F5F4F24173E
:100E4000350748F04E0F5F1F5093EF044093EE04B8
:100E5000819391939FCFF0E0E0E09CCFCF93DF931D
:100E60000097E9F0FC01329713821282A091F004FE
:100E7000B091F104ED0130E020E01097A1F4208161
:100E80003181820F931F2091EE043091EF042817D7
:100E9000390709F061C0F093EF04E093EE04DF91AD
:100EA000CF910895EA01CE17DF07E8F54A815B810B
:100EB0009E0141155105B1F7E901FB83EA83499190
:100EC0005991C40FD51FEC17FD0761F48081918102
:100ED0000296840F951FE90199838883828193810B
:100EE0009B838A83F0E0E0E012968D919C911397AA
:100EF0000097B9F52D913C911197CD010296820F83
:100F0000931F2091EE043091EF042817390739F62A
:100F1000309751F51092F1041092F004B093EF0461
:100F2000A093EE04BCCFD383C28340815181840F50
:100F3000951FC817D90761F44E5F5F4F888199816B
:100F4000480F591F518340838A819B8193838283F9
:100F50002115310509F0B0CFF093F104E093F004CE
:100F60009ECFFD01DC01C0CF13821282D7CFFC01DE
:100F70000590615070400110D8F7809590958E0FC4
:100F80009F1F0895DC0101C06D9341505040E0F770
:100F90000895FC016150704001900110D8F78095D0
:100FA00090958E0F9F1F08950F931F93CF93DF93FC
:100FB000182F092FEB018B8181FD09C01FEF0FEF67
:100FC000812F902FDF91CF911F910F91089582FF74
:100FD00014C02E813F818C819D81281739073CF4F4
:100FE000E881F981CF0101969983888310838E81EE
:100FF0009F8101969F838E83E3CFE885F985812FBA
:101000000995892BA1F3DACFFA01AA27283051F1EB
:10101000203181F1E8946F936E7F6E5F7F4F8F4F29
:101020009F4FAF4FB1E03ED0B4E03CD0670F781F88
:10103000891F9A1FA11D680F791F8A1F911DA11D6D
:101040006A0F711D811D911DA11D20D009F46894A6
:101050003F912AE0269F11243019305D3193DEF64E
:10106000CF010895462F4770405D4193B3E00FD004
:10107000C9F7F6CF462F4F70405D4A3318F0495DEF
:1010800031FD4052419302D0A9F7EACFB4E0A695D2
:101090009795879577956795BA95C9F700976105F4
:1010A000710508959B01AC010A2E0694579547954A
:1010B00037952795BA95C9F7620F731F841F951F3F
:1010C000A01D0895052E97FB1EF400940E94790838
:1010D00057FD07D00E94920307FC03D04EF40C94F6
:1010E000790850954095309521953F4F4F4F5F4F70
:1010F000089590958095709561957F4F8F4F9F4F84
:1011000008950E94CB08A59F900DB49F900DA49FB9
:10111000800D911D11240895B7FF0C9481080E9441
:101120008108821B930B08952F923F924F925F92FA
:101130006F927F928F929F92AF92BF92CF92DF92E7
:10114000EF92FF920F931F93CF93DF93CDB7DEB74C
:10115000CA1BDB0B0FB6F894DEBF0FBECDBF0994E0
:101160002A88398848885F846E847D848C849B8437
:10117000AA84B984C884DF80EE80FD800C811B8145
:10118000AA81B981CE0FD11D0FB6F894DEBF0FBE74
:10119000CDBFED010895A29FB001B39FC001A39FF1
:1011A000700D811D1124911DB29F700D811D1124A0
:0811B000911D0895F894FFCF92
:1011B8000018010000000000F2042000537461725E
:1011C80074696E67204C6174636820746573742E4B
:1011D8002E2E0A0D00554152542072656164792102
:1011E800205479706520736F6D657468696E673A0D
:1011F8000A0D00596F752074797065643A2025636B
:101208000A0D00414443207465737420737461723D
:10121800740D004348303D25337520204348313D47
:1012280025337520204348323D2533752020434817
:10123800333D2533750D0A004A6F79737469636B02
:1012480020746573742073746172740D0052656341
:10125800656976656420636861723A2025630A00CF
:10126800547279696E6720746F207772697465208B
:101278006120746F6F2062696720616464726573AE
:101288007300547279696E6720746F2072656164A7
:10129800206120746F6F20626967206164647265E1
:1012A8007373005374617274696E67205352414DB1
:1012B80020746573742E2E2E005772697465207021
:1012C80068617365206572726F723A206578745F21
:1012D80072616D5B2534645D203D202530325820D5
:1012E8002873686F756C6420626520253032582930
:1012F8000A0052657472696576616C207068617362
:1013080065206572726F723A206578745F72616DDC
:101318005B2534645D203D202530325820287368D1
:101328006F756C642062652025303258290A005395
:1013380052414D207465737420636F6D706C6574D1
:1013480065642077697468200A25346420657272A0
:101358006F727320696E2077726974652070686196
:10136800736520616E64200A253464206572726F8B
:10137800727320696E2072657472696576616C207B
:1013880070686173650A0A005374617274696E67E4
:10139800205352414D207465737420287772617010
:1013A80070657273292E2E2E00577269746520702D
:1013B80068617365206572726F723A206578745F30
:1013C80072616D5B2534755D203D202530325820D3
:1013D8002873686F756C642062652025303258293F
:1013E8000A0052657472696576616C207068617371
:1013F80065206572726F723A206578745F72616DEC
:101408005B2534755D203D202530325820287368CF
:101418006F756C642062652025303258290A0053A4
:1014280052414D20746573743220636F6D706C6522
:101438007465642077697468200A2534752065729C
:10144800726F727320696E20777269746520706894
:101458006173652C200A253475206572726F72736A
:1014680020696E2072657472696576616C20706897
:101478006173652C200A2534752077726170706558
:101488007220415049206572726F72730A0A0054C3
:10149800657374696E67206D656D6F72792072650A
:1014A80067696F6E2041444300414443207465736B
:1014B8007420646F6E650054657374696E67206D7F
:1014C800656D6F727920726567696F6E205352413E
:1014D8004D005352414D207465737420646F6E65DE
:1014E8000041444320627573792074696D656F7596
:1014F800742077616974696E6720666F72204C4F3B
:10150800570041444320627573792074696D656F93
:1015180075742077616974696E6720666F722048F8
:1015280049474800444F574E20005550202020007E
:101538004C45465420004E45555452414C005249A2
:1015480047485400583A2025346420282534642517
:101558002529207C20593A20253464202825346404
:10156800252529207C204469723A202573207C2077
:1015780053313A20253364207C2053323A202533D6
:04158800640D0A00E4
:00000001FF
