:100000000C9440010C945D010C945D010C945D0115
:100010000C945D010C945D010C945D010C945D01E8
:100020000C945D010C945D010C945D010C945D01D8
:100030000C945D010C945D010C945D010C945D01C8
:100040000C945D010C945D010C945D010C945D01B8
:100050000C945D010C945D010C945D010C945D01A8
:100060000C945D010C945D010C945D010C945D0198
:1000700058303A2028256429207C2059303A2028FD
:100080002564290D0A00583A202564202825642576
:100090002529207C20593A202564202825642525FF
:1000A00029207C204469723A2025530D0A004E45D0
:1000B000555452414C005249474854004C4546540F
:1000C00000444F574E00555000757064617465646C
:1000D00020706F736974696F6E20736C69646572E8
:1000E0000D0A0058303A20282564290D0A00536C67
:1000F0006964657220583A202564202825642525E6
:10010000290D0A0000000000005C00000C000C003B
:100110007C287C2858DC680024104800285428409B
:10012000000C0000007884008478000054385400EB
:10013000107C1000804000001010100000400000F3
:1001400060100C0038543800487C40004864580067
:1001500044542C001C107C005C54240038542400AF
:1001600064140C0068542C00485438000048000007
:100170008048000010284400282828004428100047
:100180000454080038445C00781478007C5428003B
:10019000384428007C4438007C5444007C1404001B
:1001A000384474007C107C00447C440020403C00B7
:1001B0007C106C007C4040007C187C0078103C0077
:1001C000384438007C1408003844B8007C146800B7
:1001D00048542400047C04007C407C003C603C00CB
:1001E0007C307C006C106C000C700C0064544C0073
:1001F000007C44000C106000447C000008040800EF
:100200008080800000040800304878007C4830007E
:100210003048480030487C003068500010781400A6
:1002200090A878007C0870005074400080807400B2
:100230007C106800447C40007810780078087000DA
:1002400030483000F82810003048F80078100800D6
:1002500050582800083C48003840780038403800A2
:10026000782078004830480098A078004868580006
:1002700010788400007C00008478100008040804D2
:1002800011241FBECFEFD4E0DEBFCDBF12E0A0E04F
:10029000B1E0E4E7FEE102C005900D92AC35B10794
:1002A000D9F722E0ACE5B2E001C01D92A138B20757
:1002B000E1F70E94F3010C94380F0C940000399A76
:1002C00000C000C00000399800C000C000000895C0
:1002D0008FEF8ABB319A1BBA3998C0E0CBBB0E9422
:1002E0005F012FEF8FEF92E0215080409040E1F7C7
:1002F00000C000C0CF5FF2CF0E945602FDCFCCE914
:10030000D1E00E940E03FC011F921F9282811F9276
:100310008F9381811F928F9380811F928F93DF93A0
:10032000CF930E94C80B9FEF2FEF82E091502040A7
:100330008040E1F700C000C08DB79EB70A960FB6A7
:10034000F8949EBF0FBE8DBFDCCF0E948D030E942C
:1003500076030E94C4030E9430032FEF8FEF92E0D8
:10036000215080409040E1F700C000C0F2CF0E94D1
:10037000BE040E94AD040E94C8040E9496042FEFA0
:100380008FEF92E0215080409040E1F700C000C024
:10039000F2CF2FEF8FEF9DE1215080409040E1F7A9
:1003A00000C000000E94AA0588EC91E00E9490061F
:1003B0002FEF8FEF9DE1215080409040E1F700C08A
:1003C000000060E083E00E94F60584ED91E00E9469
:1003D00090062FEF8FEF9DE1215080409040E1F794
:1003E00000C00000089520E835E240E050E060E001
:1003F00070E08BE490E00E9406020E9460020E947E
:10040000EE020E94A80990E080E00895220F331FB9
:10041000441F551F220F331F441F551F220F331F28
:10042000441F551F220F331F441F551F0E94CB0925
:100430002150310930BD29B91BB88EE880BD549ACE
:10044000539A6AE572E08CE292E00E947D0B089577
:100450005D9BFECF8CB90895CF93C82F8A3039F0B9
:100460008C2F0E94280290E080E0CF9108958DE0CB
:100470000E942802F5CFCF93DF93EC01892B49F03E
:100480008881882331F021960E9428028991811168
:10049000FBCFDF91CF9108958BB1082E000C990B03
:1004A000892F881F8827881F90E008955F9BFECFC3
:1004B0008CB108950E945602082E000C990B0895E5
:1004C00085B7806885BF80B7806280BF0895811539
:1004D00028E0920758F42091000130910101820F29
:1004E000931FFC01608390E080E0089587EE91E027
:1004F0000E94030C81E090E00895811528E09207A6
:1005000048F42091000130910101820F931FFC01FA
:100510008081089589E092E00E94030C81E00895B3
:100520000F931F93CF93DF930E946D0B8C010E945A
:10053000720BD0E0C0E00E946D0BE0910001F091E1
:100540000101EC0FFD1F8083E0910001F09101019A
:10055000EC0FFD1F80812196C11588E0D80759F75F
:10056000C8010E94720BD0E0C0E00E946D0BE091C8
:100570000001F0910101EC0FFD1F80812196C11552
:1005800088E0D80791F7DF91CF911F910F910895DF
:10059000E0E0F0E185EA8083A7E9BAE31197F1F79B
:1005A00000C00000B096E115B8E1FB07A1F785EAAD
:1005B0008083A7E9BAE31197F1F700C00000B09675
:1005C000E115B0E2FB07A1F72FE58AEE90E021509C
:1005D00080409040E1F700C0000008958D9A8FB5EB
:1005E0008F778FBD8FB580648FBD8EB58F7E8EBDAA
:1005F0008EB588608EBD8FB58D7F8FBD8FB58E7F98
:100600008FBD1BBC1ABC8EB58B7F8EBD8EB58D7F0A
:100610008EBD8EB581608EBD8C98089510920010AD
:10062000849B08C0000089E090E0849B03C0000028
:100630000197D9F7849908C0000081E390E084997C
:1006400003C000000197D9F7A0E0B0E18C91ECE580
:10065000F2E080838C9181838C918283CF01089515
:1006600080916E0290916F02A6ECB0E0892BC1F0F0
:1006700080916E0290916F02A1ECB0E0019781F041
:1006800080916E0290916F02ACEBB0E0029741F066
:1006900080916E0290916F02AEEAB0E0039719F17B
:1006A000E2E6F2E0628573854681578120853185D7
:1006B00084819581BF93AF937F936F935F934F93A3
:1006C0003F932F939F938F9386E890E09F938F9310
:1006D0000E94DE0B8DB79EB70C960FB6F8949EBFA6
:1006E0000FBE8DBF0895A6EBB0E0DACFE2E6F2E0F0
:1006F00022813381808191813F932F939F938F93A8
:1007000080E790E09F938F930E94DE0B0F900F90F5
:100710000F900F900F900F900895EF92FF920F930C
:100720001F93CF93CAE010E000E0F12CE12C0E946F
:100730000E03FC012081E20EF11C8181080F111DC6
:10074000C150A9F79701ADECBCEC0E94ED0996955C
:10075000879596958795969587959927E2E6F2E095
:100760009183808398010E94ED09969587959695CF
:10077000879596958795992793838283CF911F912B
:100780000F91FF90EF9008950F931F93CF93DF93F6
:100790000E940E03FC012081022F10E08181C82FEE
:1007A000D0E00E940E03FC012081200F312F311D6B
:1007B0003695279581818C0F9D2F911D9695879554
:1007C000C82FA9015527A2E6B2E015965C934E9377
:1007D0001497FC01FF271796FC93EE9316978D91C3
:1007E0009C91281708F45BC0992767EF70E0681B9D
:1007F000790B09F468C0481B590B24E6249FC001FB
:10080000259F900D11240E94B709A2E6B2E0199627
:100810007C936E93189712968D919C91C81708F44B
:1008200058C0992769EF70E0681B790B09F465C01F
:10083000E81BF90B24E62E9FC0012F9F900D112479
:100840000E94B709E2E6F2E073876287228533856A
:1008500080859185A90133230CF455C0853191051C
:1008600024F0841795070CF053C08C3EFFEF9F07D0
:100870003CF4919581959109841795070CF053C02C
:1008800090E080E0253131050CF044C084E090E038
:100890002C3E3F4F0CF03EC081E090E03BC09927DA
:1008A000BC016454710991F0841B950B44E6489F88
:1008B0009001499F300D1124C9010E94B70971951B
:1008C00061957109A2CF70E060E09FCF70E060E0B9
:1008D0009CCF9927BC016154710991F08E1B9F0B2D
:1008E00044E6489F9001499F300D1124C9010E94A0
:1008F000B709719561957109A5CF70E060E0A2CF4D
:1009000070E060E09FCF44275527421B530BA6CFD2
:1009100083E090E090936F0280936E02DF91CF911D
:100920001F910F91089582E090E0F4CFE1E7F2E0AB
:1009300024813581828193813F932F939F938F935D
:100940008EEE90E09F938F930E94DE0B0F900F909E
:100950000F900F900F900F900895809171029091D9
:1009600072029F938F9383EE90E09F938F930E94E8
:10097000DE0B0F900F900F900F9008950E940E03C2
:10098000FC01828190E0909372028093710208953D
:100990000E940E03FC014281242F30E0E1E7F2E0E7
:1009A0003383228380819181481788F099276FEFE4
:1009B00070E0681B790B59F1281B390B44E6429F04
:1009C000C001439F900D11240E94B70913C09927BD
:1009D000682F792F0097F1F0821B930B44E6489F14
:1009E0009001499F300D1124C9010E94B7097195EA
:1009F00061957109709376026093750289EC90E0BD
:100A00009F938F930E94DE0B0F900F90089570E0DC
:100A100060E0F0CF70E060E0EDCF87B3806B87BB24
:100A2000BE988A9A8B98B89AB99AC09AC19AC49A71
:100A300082E58DB90895892B11F0C1980895C09869
:100A40000895892B11F0C19A0895C09A08958FB91D
:100A5000779BFECF8FB108950E94270508958FEFF1
:100A60000E94270508950F931F93CF93DF9361157D
:100A7000710551F08C01EC01060F171F89910E943E
:100A80002705C017D107D1F7DF91CF911F910F91A3
:100A900008950F931F93CF93DF936115710559F05C
:100AA0008C01EC01060F171F8FEF0E942705899319
:100AB000C017D107C9F7DF91CF911F910F9108950A
:100AC000CF93C82F90E080E00E941B0592988C2F56
:100AD0000E94270590E080E00E942105CF910895B3
:100AE000CF93DF93D82FC62F90E080E00E941B05A4
:100AF00092988D2F0E9427058C2F0E94270590E049
:100B000080E00E942105DF91CF910895EF92FF923E
:100B10000F931F93CF93DF938C017B0190E080E0D4
:100B20000E941B05929AE114F10449F0E8010E0DB0
:100B30001F1D89910E942705C017D107D1F790E0AA
:100B400080E00E942105DF91CF911F910F91FF90CE
:100B5000EF900895CF93DF93D0E013C08FEF0E9402
:100B60002705CF5FC03831F0C0FFF8CF8FEF0E946C
:100B70002705F7CF90E080E00E942105DF5FD830A5
:100B8000D9F090E080E00E941B0592988D2F87702D
:100B9000806B0E94270580E00E94270580E10E946B
:100BA000270590E080E00E94210590E080E00E940F
:100BB0001B05929AC0E0D8CFDF91CF910895109293
:100BC000600210925F0290E080E00E941B05929804
:100BD00080EB0E94270580E00E94270580E10E94AB
:100BE000270590E080E00E9421050895CF93DF93D0
:100BF000C62FD82F883008F0D7E0CC23FCF0D09354
:100C00006002C0935F0290E080E00E941B05929812
:100C10008D2F8770806B0E9427058C2F8F700E940C
:100C200027058C2F82958F7080610E94270590E0A8
:100C300080E00E942105DF91CF910895CFE7DFCFBB
:100C400010925F0280916002873020F48F5F809362
:100C50006002089580E0FBCF0F931F93CF93DF9343
:100C6000C82F8A3009F453C08D3009F453C080EE88
:100C70008C0F8F3508F0C0E280915F028C3708F04E
:100C80004CC0D0915F021091600290E080E00E9421
:100C90001B059298812F8770806B0E9427058D2FEE
:100CA0008F700E9427058D2F82958F7080610E9422
:100CB000270590E080E00E94210590E080E00E94FE
:100CC0001B05929AC052D0E0CC0FDD1FCC0FDD1F68
:100CD0008E010C5F1E4FC85FDE4FF80184910E94A9
:100CE00027050F5F1F4F0C171D07B9F780E00E9403
:100CF000270590E080E00E94210580915F028B5FD4
:100D000080935F02DF91CF911F910F9108950E9410
:100D10002006F8CF10925F02F5CF0E942006B1CFD7
:100D2000CF93DF93EC018881882331F021960E94D4
:100D30002C0689918111FBCFDF91CF910895CF933C
:100D4000DF93883018F0DF91CF910895D82F90E08D
:100D500080E00E941B0592988D2F8770806B0E9407
:100D6000270580E00E94270580E10E942705929ACE
:100D7000C0E080E00E942705CF5FC038D1F790E047
:100D800080E00E942105D093600210925F02DBCFC9
:100D9000CF93DF9390E080E00E941B05D0E0929813
:100DA0008D2F8770806B0E94270580E00E942705A9
:100DB00080E10E942705929AC0E080E00E9427050A
:100DC000CF5FC038D1F7DF5FD83049F790E080E0DF
:100DD0000E9421050E94DF05DF91CF91089583ECE9
:100DE00099E00197F1F700C000008EEA0E946005CB
:100DF00081EA0E94600562E18AED0E94700588EC3C
:100E00000E9460056FE388EA0E94700560E885ED46
:100E10000E9470056FEF81E80E94700561EF89ED17
:100E20000E94700562E080E20E94700564E38BED31
:100E30000E94700560E08DEA0E94700584EA0E94BD
:100E4000600586EA0E9460058FEA0E94600587EAD5
:100E500091E60197F1F700C000000E94C8060E94C9
:100E6000DF050895BF92CF92DF92EF92FF920F932A
:100E70001F93CF93DF9300D01F92CDB7DEB77C01D5
:100E8000FC0122812770F9F410E00FEFF701618176
:100E9000610F80810B830E94F60561E070E0CE0156
:100EA00003960E9486051F5F183081F70F900F9000
:100EB0000F90DF91CF911F910F91FF90EF90DF90F6
:100EC000CF90BF9008958FEF90E0B82E022E01C012
:100ED000BB0C0A94EAF748E050E0421B510902C0FB
:100EE000969587954A95E2F7C82E00E0F7011181A3
:100EF000100FD080BA82C982612F8D2D0E94F60515
:100F000061E070E0CE0102960E948605612F81E0CB
:100F10008D0D0E94F60561E070E0CE0101960E9401
:100F200086050F5F083011F7C1CFCF93DF93CDB7A0
:100F3000DEB729970FB6F894DEBF0FBECDBF8AE2A9
:100F400092E00E94030C0E940D050E94EF060E9491
:100F50008D030E94AA052FE33DE083E0215030403D
:100F60008040E1F700C000000E94C80619821A8282
:100F70001B82CE0101960E9432070F2EF2E6EF2E61
:100F8000F2E0FF2EF02DCC24CA94D12C6894AA2430
:100F9000A3F8B12C99249A940F2EF6E06F2EF02D21
:100FA0000F2EF7E07F2EF02D0F2EF8E78F2EF02D6D
:100FB000C0C0273081F081E0820F8B838A8189371E
:100FC00008F08A828B8181117AC09981983008F467
:100FD0007AC0798278C0073008F0C6C01B8281E0F1
:100FE000800F8983193768F78B81EFCF8FEF820FDE
:100FF0008B83E4CF8230910541F00397F9F61837DF
:10100000E8F681E0810F8A83D9CF1123D9F28FEFDF
:10101000810F8A83D3CF28135DC085C06894442490
:1010200043F8410E55245394500E1F821E82612FA7
:10103000802F0E94F60561E070E0CE0107960E94C5
:101040008605612F852D0E94F60561E070E0CE01D6
:1010500006960E9486051F5F1411E7CF50C04C2CE6
:10106000082E01C0440C0A94EAF79501281B3109A7
:10107000F60102C0F695E7952A95E2F73E2E00E0CC
:101080001A81100F59804D823C82612F852D0E945C
:10109000F60561E070E0CE0105960E948605612F9D
:1010A00081E0850D0E94F60561E070E0CE010496B6
:1010B0000E9486050F5F083019F735C08B81998132
:1010C000973008F069829981901304C09A81911732
:1010D00009F4A1CF277009F0A1CF6894552453F8E3
:1010E000510E1886612F802F0E94F60561E070E096
:1010F000CE0108960E9486051F5F1511F2CF8B81E5
:10110000877009F0ACCF10E06A81610F8981998600
:101110000E94F60561E070E0CE0109960E94860506
:101120001F5F183089F783EC99E00197F1F700C051
:1011300000000E94C403F7018485958584309105E1
:1011400091F309811A812B818130910509F431CF06
:10115000009709F04FCF211149CF002309F442CF66
:101160007B828FEF800F8983193708F02ACFA6CFB3
:10117000CF93DF9300D01F92CDB7DEB78EE392E01E
:101180000E94030C83E0898398E29A838B83CE01CB
:1011900001960E9432078FE493EC0197F1F700C0AB
:1011A0000000F9CFEF92FF921F93CF93DF937C0162
:1011B0000E94C80610E0D0E0C0E004C067961F5F40
:1011C0001330B1F0D7011296ED91FC91EC0FFD1F99
:1011D0008081882399F368E0812F0E94F605F7014A
:1011E000828193818C0F9D1F01960E949006E6CF0D
:1011F00060E0809161020E94F6058EE30E942C0659
:10120000DF91CF911F91FF90EF900895CF93DF93DF
:10121000EC0184E090E00E94FC099093030180932C
:101220000201FC01D383C2831182108210926102F9
:101230000E94D208DF91CF910895CF93DF93EC0104
:101240000E94C8066AE083E00E94F60582E592E00B
:101250000E9490066AE084E00E94F605CE010196A5
:101260000E9490062FE38DE093E021508040904053
:10127000E1F700C0000080910201909103010E94FB
:10128000D208DF91CF91089580916102811101C050
:101290000895815080936102809102019091030131
:1012A0000E94D208F5CF80916102823008F0089543
:1012B0008F5F8093610280910201909103010E94EF
:1012C000D208F5CFE0910201F09103018091610213
:1012D0000280F381E02D97E1899FE00DF11D11243B
:1012E00085899689009719F00E9406090895CF0113
:1012F0000E941D090895CF93DF930E94C40380913B
:101300006E0290916F02009779F0019781F08091C1
:10131000700281110FC08FE295E70197F1F700C0CD
:101320000000DF91CF9108950E944409F0CF0E9400
:101330005309EDCF0E94620980917002882359F30E
:10134000C2E6D2E00E94C4038E858111FBCFE3CFB9
:101350000E940D050E94EF060E948D0380910201FC
:10136000909103010E94D2080E947B09FDCFAA1B25
:10137000BB1B51E107C0AA1FBB1FA617B70710F080
:10138000A61BB70B881F991F5A95A9F780959095B2
:10139000BC01CD010895A1E21A2EAA1BBB1BFD01C1
:1013A0000DC0AA1FBB1FEE1FFF1FA217B307E40744
:1013B000F50720F0A21BB30BE40BF50B661F771F9C
:1013C000881F991F1A9469F760957095809590957C
:1013D0009B01AC01BD01CF010895A29FB001B39F55
:1013E000C001A39F700D811D1124911DB29F700D2E
:1013F000811D1124911D08950F931F93CF93DF93A7
:101400008230910510F482E090E0E0917902F09151
:101410007A0230E020E0B0E0A0E0309799F42115A6
:10142000310509F44AC0281B390B24303105D8F5A1
:101430008A819B816115710589F1FB019383828308
:10144000FE0111C040815181028113814817590763
:10145000E0F04817590799F4109761F012960C9331
:10146000129713961C933296CF01DF91CF911F9163
:101470000F9108950093790210937A02F4CF211509
:10148000310551F04217530738F0A901DB019A01E9
:10149000BD01DF01F801C1CFEF01F9CF90937A02CE
:1014A00080937902CDCFFE01E20FF31F81939193D8
:1014B0002250310939832883D7CF20917702309188
:1014C0007802232B41F420919401309195013093BF
:1014D0007802209377022091920130919301211597
:1014E000310541F42DB73EB74091960150919701D7
:1014F000241B350BE0917702F0917802E217F30795
:10150000A0F42E1B3F0B2817390778F0AC014E5F73
:101510005F4F2417350748F04E0F5F1F5093780236
:1015200040937702819391939FCFF0E0E0E09CCFCE
:10153000CF93DF930097E9F0FC0132971382128278
:10154000A0917902B0917A02ED0130E020E010978D
:10155000A1F420813181820F931F20917702309175
:1015600078022817390709F061C0F0937802E093F8
:101570007702DF91CF910895EA01CE17DF07E8F5F2
:101580004A815B819E0141155105B1F7E901FB8359
:10159000EA8349915991C40FD51FEC17FD0761F4F7
:1015A000808191810296840F951FE9019983888338
:1015B000828193819B838A83F0E0E0E012968D9193
:1015C0009C9113970097B9F52D913C911197CD01FE
:1015D0000296820F931F209177023091780228178C
:1015E000390739F6309751F510927A021092790244
:1015F000B0937802A0937702BCCFD383C28340819B
:101600005181840F951FC817D90761F44E5F5F4F52
:1016100088819981480F591F518340838A819B811A
:10162000938382832115310509F0B0CFF0937A02BC
:10163000E09379029ECFFD01DC01C0CF13821282BC
:10164000D7CF8F929F92AF92BF92CF92DF92EF92BD
:10165000FF92CF93DF93EC01688179818A819B812E
:10166000611571058105910521F464E279ED8BE541
:1016700097E02DE133EF41E050E00E94CF0E4901A9
:101680005A019B01AC01A7EAB1E40E94EE0E6B0186
:101690007C01ACEEB4EFA50194010E94FC0EDC01CC
:1016A000CB018C0D9D1DAE1DBF1DB7FF03C0019763
:1016B000A109B04888839983AA83BB839F77DF9170
:1016C000CF91FF90EF90DF90CF90BF90AF909F9021
:1016D0008F9008950E94210B089588E991E00E945F
:1016E000210B0895B0E0A0E08093980190939901B8
:1016F000A0939A01B0939B0108950F931F93CF93EA
:10170000DF93009759F46115710541F4F0E0E0E0D2
:10171000CF01DF91CF911F910F9108958B01EC01C3
:101720006EE070E081E090E00E94080EFC01892BE1
:1017300069F380E883830115110571F0138702872F
:1017400081E8838380917B0290917C02892B21F434
:10175000F0937C02E0937B022097D1F2D187C0877F
:1017600083818260838380917D0290917E02892BA8
:1017700079F6F0937E02E0937D0280917F02909152
:101780008002892B29F6F0938002E0937F02C0CF7C
:10179000B0E0A0E0EEECFBE00C94110FAE014B5F6B
:1017A0005F4FFA0161917191AF0180917D0290913B
:1017B0007E020E942E0CE2E00C942D0FB0E0A0E01F
:1017C000E4EEFBE00C940F0FAE01495F5F4FDA01CE
:1017D0006D917D91AD010BE712E0F801828193815B
:1017E000DC0113962C911397286013962C930E947A
:1017F0002E0CD8011296ED91FC912381277F238333
:10180000E4E00C942B0F0F931F93CF93DF93E091A1
:101810007D02F0917E022381EC0110E000E021FDC9
:1018200008C00FEF1FEF14C00995892B11F00FEFBF
:101830001FEF899160917D0270917E02DB01189605
:10184000ED91FC918111F0CF8AE00995892B49F740
:10185000C801DF91CF911F910F910895ABE0B0E0E7
:10186000E4E3FCE00C94010F7C013B018A01FC01E4
:1018700017821682838181FFC8C1CE0101965C0167
:10188000F7019381F30193FD859193FF81913F01CE
:10189000882309F453C1853239F493FD859193FF70
:1018A00081913F01853229F4B70190E00E94410EF9
:1018B000E7CF912C212C312CFFE1F31538F08B323E
:1018C00011F190F4803209F1833229F137FC3CC0E8
:1018D00020ED280F2A3050F536FE20C08AE0989E71
:1018E000200D1124922E06C08D3291F0803371F7B5
:1018F000689430F8F30193FD859193FF81913F0146
:101900008111DACF21C0689431F8689432F8F2CFAF
:10191000689433F8EFCF689434F8ECCFEAE02E9E69
:10192000200D1124222E689435F8E4CF8E3229F44C
:1019300036FC04C1689436F8DDCF8C3619F468940F
:1019400037F8D8CF8836B1F2982F9F7D95549330D1
:10195000E0F08336A1F18337C1F1833509F063C02C
:101960002801F2E04F0E511CF801C080D180692D92
:1019700070E036FC02C06FEF7FEFC6010E94240EBC
:101980004C01689437F882010AC00C5F1F4FFFE3D7
:10199000F98388248394912C6501E89437F833FE09
:1019A0002DC0522C8114910471F5552009F468CF93
:1019B000B70180E290E00E94410E5A94F6CFF80100
:1019C000808189830E5F1F4FE4CF2801F2E04F0E24
:1019D000511CF801C080D180692D70E036FC02C036
:1019E0006FEF7FEFC6010E94360E4C018201D5CF0A
:1019F000B70180E290E00E94410E2A942814190455
:101A000009F0B0F7CECFF60137FC859137FE819112
:101A10006F01B70190E00E94410E51105A94F1E01D
:101A20008F1A9108BFCF843619F0893609F077C034
:101A3000F80137FE6BC060817181828193810C5FF8
:101A40001F4FF32DFF763F2E97FF09C0909580958D
:101A5000709561957F4F8F4F9F4F689437F82AE0BC
:101A600030E0A5010E94710EC82ECA188C2C432CA0
:101A700036FE0CC0E89440F8C91440F434FE05C0AA
:101A800032FC03C0F32DFE7E4F2E892C44FE95C000
:101A9000FE01EC0DF11D8081803309F087C0242DFB
:101AA000297E422E842D8870582E43FC95C040FE1E
:101AB0008FC09C2C821418F42C0C922C981844FE85
:101AC00091C0B70180E390E00E94410E42FE09C040
:101AD00088E790E041FE02C088E590E0B7010E94EF
:101AE000410EC91408F48AC0CA94D12C9FEFC91AB8
:101AF000D90ACA0CDB1CF60182916F01B70190E094
:101B00000E94410EAC14BD04B1F74FCF60817181CA
:101B1000072E000C880B990B0E5F1F4F92CFD32C12
:101B2000E894D4F82AE030E0853739F1232D297F75
:101B3000D22E8F3601F148F48835A9F0F70186815D
:101B400097812B96E2E10C941D0F803749F088377E
:101B5000A9F7D4FE02C06894D2F820E130E00DC0AD
:101B60006894D4F8F6CF34FE03C0822F8660D82E56
:101B700020E132E002C028E030E0F801D7FE0FC0DB
:101B800060817181828193810C5F1F4FA5010E944A
:101B9000710EC82ECA183D2CE89437F867CF6081C3
:101BA000718190E080E00E5F1F4FF0CF42FC02C0D9
:101BB000839478CF8394839475CF842D867809F4A9
:101BC00071CFF6CFB70180E290E00E94410E83947E
:101BD0008214C0F3512C73CF522C5818821408F47D
:101BE0006ECFF8CF842D867809F47BCF8BE241FE4F
:101BF00080E247FC8DE2B70190E071CFB70180E34E
:101C000090E00E94410E9A946CCF8FEF9FEF99CF96
:101C10000F931F93CF93DF93869F8001879F100DB3
:101C2000969F100D1124C8010E94FC09EC01009739
:101C300029F0A80170E060E00E942F0ECE01DF9134
:101C4000CF911F910F910895FC0105906150704054
:101C50000110D8F7809590958E0F9F1F0895DC0195
:101C600001C06D9341505040E0F70895FC01615070
:101C7000704001900110D8F7809590958E0F9F1FAE
:101C800008950F931F93CF93DF93182F092FEB0124
:101C90008B8181FD09C01FEF0FEF812F902FDF9106
:101CA000CF911F910F91089582FF14C02E813F8123
:101CB0008C819D81281739073CF4E881F981CF0197
:101CC00001969983888310838E819F8101969F83DB
:101CD0008E83E3CFE885F985812F0995892BA1F3C0
:101CE000DACFFA01AA27283051F1203181F1E894A6
:101CF0006F936E7F6E5F7F4F8F4F9F4FAF4FB1E0FF
:101D00003ED0B4E03CD0670F781F891F9A1FA11DF9
:101D1000680F791F8A1F911DA11D6A0F711D811DFA
:101D2000911DA11D20D009F468943F912AE0269FBF
:101D300011243019305D3193DEF6CF010895462F1E
:101D40004770405D4193B3E00FD0C9F7F6CF462FFF
:101D50004F70405D4A3318F0495D31FD4052419368
:101D600002D0A9F7EACFB4E0A69597958795779525
:101D70006795BA95C9F700976105710508959B01AC
:101D8000AC010A2E06945795479537952795BA9535
:101D9000C9F7620F731F841F951FA01D0895052E9C
:101DA00097FB1EF400940E94E60E57FD07D00E9498
:101DB000CB0907FC03D04EF40C94E60E50954095E9
:101DC000309521953F4F4F4F5F4F089590958095E7
:101DD000709561957F4F8F4F9F4F08950E94ED0939
:101DE000A59F900DB49F900DA49F800D911D11246F
:101DF0000895B7FF0C94EE0E0E94EE0E821B930B1B
:101E000008952F923F924F925F926F927F928F929E
:101E10009F92AF92BF92CF92DF92EF92FF920F9379
:101E20001F93CF93DF93CDB7DEB7CA1BDB0B0FB683
:101E3000F894DEBF0FBECDBF09942A883988488840
:101E40005F846E847D848C849B84AA84B984C884D6
:101E5000DF80EE80FD800C811B81AA81B981CE0FCD
:101E6000D11D0FB6F894DEBF0FBECDBFED010895B2
:041E7000F894FFCF14
:101E74000018040100000801015374617274000029
:101E8400000000000000000000000000000000014D
:101E940053657474696E67730000000000000000ED
:101EA400000000004D010141626F757400000000E4
:101EB4000000000000000000000000000001537555
:101EC40062204974656D20310000000000000000AC
:101ED4000000000001537562204974656D203200D2
:101EE4000000000000000000000000014261636B7C
:101EF40000000000000000000000000000000000DE
:101F040000000000810220000100000058203D254F
:101F14003375202059203D2533752020534C4944E6
:101F24004552203D253375202043483320282F294E
:101F3400203D2533750D0A0048454C4C4F20574F22
:101F4400524C44004C696E6520342061667465729D
:101F540020636C65617200547279696E6720746FD6
:101F6400207772697465206120746F6F20626967DD
:101F7400206164647265737300547279696E6720BA
:101F8400746F2072656164206120746F6F206269D0
:101F940067206164647265737300437572736F7252
:101FA4002067616D65207374617274210D0043753F
:101FB40072736F7220746573742073746172742108
:0C1FC4000D0053656C65637465643A00A1
:00000001FF
